:100000000C94EF000C9419010C9419010C94190133
:100010000C9419010C9419010C9419010C941901F8
:100020000C9419010C9419010C9419010C941901E8
:100030000C9419010C9419010C9419010C941901D8
:100040000C9419010C9419010C9419010C941901C8
:100050000C9419010C9419010C9419010C94E00EE4
:100060000C9419010C94540F0C942A0F0C94190140
:100070000C9419010C9419010C9419010C94190198
:100080000C9419010C9419010C9419010C94190188
:100090000C9419010C9419010C9419010C94C00DC5
:1000A0000C9419010C9419010C9419010C94190168
:1000B0000C9419010C9419010C9419010C94190158
:1000C0000C9419010C9419010C9419010C94190148
:1000D0000C9419010C9419010C9419010C94190138
:1000E0000C94190100002200250028002B002E008E
:1000F0003100340002010000050108010B01050573
:100100000505070508080808020202020A0A08088D
:1001100004040404010101010101010103030303BB
:1001200003030303040707070C0C0C0C0C0C0C0C4A
:100130000202020206060606060606060B0B0B0B5B
:100140000B0B0B0B01021020200808102040102080
:10015000408002010201080402010102040810208B
:100160004080804020100804020180040201804089
:1001700020100804020108040201010204081020F2
:100180004080010204081020408000000A0B020990
:100190000C0D0E0807030401000000000000000021
:1001A000000000000000000000000000000000004F
:1001B000000000000000121110000000000000000C
:1001C000000000000000000000000000000000002F
:1001D0001F1C1F1E1F1E1F1F1E1F1E008A0F112403
:1001E0001FBECFEFD1E2DEBFCDBF25E0ACE5B2E070
:1001F00001C01D92A13AB207E1F712E0A0E0B2E01F
:10020000E4EEF6E200E00BBF02C007900D92AC35C1
:10021000B107D9F710E0CFEED0E004C02197FE017E
:100220000E944F12CE3ED107C9F70E9402100C94D3
:1002300070130C94000020919902260F3327331F6E
:1002400021323105ECF42091BD02FC0190E080E008
:10025000243069F082E00895A09199022191AC01C7
:1002600047585D4FA40FB52FB11D2C9301968617EB
:1002700098F380919902680F6093990280E0089545
:1002800081E0089508958FEF9FEF08958FEF9FEF1E
:1002900008958091720290E0919581959109089559
:1002A000CF93DF93CB01EA01642F0E941B01CE01A3
:1002B000DF91CF910895CF93DF931F92CDB7DEB733
:1002C000698361E0CE0101960E941B0181E090E00C
:1002D0000F90DF91CF910895282F30E0F901E65774
:1002E000FE4F9491F901EC5BFE4F849122503F4FF9
:1002F000F9012491222309F433C0992301F191508B
:100300009231E8F4E92FF0E0E857FE4F0C944F12D9
:10031000B901BD019A01B101B5019F01C001C6013A
:10032000CA01D001D401D801DE01E2019F01E6013A
:10033000EC01F001909180009F7790938000E22F74
:10034000F0E0EE0FFF1FEC51FF4FA591B4919FB766
:10035000F894EC91611148C080958E238C939FBFD7
:100360000895909180009F7DE8CF90918000977FC5
:10037000E4CF94B59F7794BDE2CF94B59F7DFBCF3A
:100380009091B0009F779093B000D9CF9091B0003A
:100390009F7DF9CF909190009F7790939000CFCF61
:1003A000909190009F7DF9CF90919000977FF5CF2D
:1003B0009091A0009F779093A000C1CF9091A00052
:1003C0009F7DF9CF9091A000977FF5CF909120016C
:1003D0009F7790932001B3CF909120019F7DF9CF1B
:1003E00090912001977FF5CF8E2BB8CF2FB7F8943F
:1003F00060916E0270916F02809170029091710213
:100400002FBF0895AF92BF92CF92DF92EF92FF92EB
:100410000F931F93CF93DF936C017B018B01040F2C
:10042000151FEB015E01AE18BF08C017D10759F0C8
:100430006991D601ED91FC910190F081E02DC6010A
:100440000995892B79F7C501DF91CF911F910F9104
:10045000FF90EF90DF90CF90BF90AF900895FC0198
:10046000538D448D252F30E0842F90E0821B930B19
:10047000541710F0CF96089501970895FC01918DBF
:10048000828D981761F0A28DAE0FBF2FB11D5D96C2
:100490008C91928D9F5F9F73928F90E008958FEF64
:1004A0009FEF0895FC01918D828D981731F0828D18
:1004B000E80FF11D858D90E008958FEF9FEF08956F
:1004C000FC01918D228D892F90E0805C9F4F821BD3
:1004D00091098F739927089583EE94E00E9460023A
:1004E00021E0892B09F420E0822F0895FC01A48DDE
:1004F000A80FB92FB11DA35ABF4F2C91848D90E046
:1005000001968F739927848FA689B7892C93A08928
:10051000B1898C91837080648C93938D848D9813B2
:1005200006C00288F389E02D80818F7D8083089545
:10053000EF92FF920F931F93CF93DF93EC0181E033
:10054000888F9B8D8C8D98131AC0E889F9898081DA
:1005500085FF15C09FB7F894EE89FF896083E8890D
:10056000F98980818370806480839FBF81E090E0FF
:10057000DF91CF911F910F91FF90EF900895F62E8C
:100580000B8D10E00F5F1F4F0F731127E02E8C8D26
:100590008E110CC00FB607FCFACFE889F98980816B
:1005A00085FFF5CFCE010E947602F1CFEB8DEC0FE7
:1005B000FD2FF11DE35AFF4FF0829FB7F8940B8F88
:1005C000EA89FB8980818062CFCFCF93DF93EC01F2
:1005D000888D8823B9F0AA89BB89E889F9898C912B
:1005E00085FD03C0808186FD0DC00FB607FCF7CFE7
:1005F0008C9185FFF2CF808185FFEDCFCE010E94E7
:100600007602E9CFDF91CF91089580E090E0892BC9
:1006100029F00E946C0281110E94000080E090E0AD
:10062000892B49F080E090E0892B29F00E9400009E
:1006300081110E94000080E090E0892B49F080E069
:1006400090E0892B29F00E94000081110E94000097
:1006500080E090E0892B49F080E090E0892B29F040
:100660000E94000081110C940000089561E0FC01DB
:1006700084810C946C01F8948091000080930000B8
:1006800088E090910000909300009091000090917C
:1006900000009093000000000000815091F77894D2
:1006A00008950F931F93CF93DF93EC010E94F601FF
:1006B0008B010E943B038F3F69F00E94F601601B93
:1006C000710B6C177D07A8F380E0DF91CF911F912C
:1006D0000F91089581E0F9CFF89498E020910000FF
:1006E0002093000020910000209300002091000042
:1006F00020930000880F915089F70000000000004F
:100700000000809100008093000078940895CF92BB
:10071000DF92EF92FF920F931F93CF93DF93EC0141
:10072000162F69017A018E81882389F08F8198853F
:100730009C012F5F3F4F38872F838230924018F4FF
:100740000E943B03F3CFCE010E9436031E8260E07D
:100750008C810E946C018CE291E00E945103812FF8
:1007600080640E946C0308E110E0D701C601002EEE
:1007700004C0B695A795979587950A94D2F70E94DD
:100780006C0308501109083F8FEF180771F78FEFBE
:100790000E946C0310E00E943B038A8787FF04C01D
:1007A0001F3F11F01F5FF7CFDF91CF911F910F9186
:1007B000FF90EF90DF90CF900895AF92BF92CF92CD
:1007C000DF92EF92FF920F931F93CF93DF93EC0191
:1007D0006901C801820F931F8130924050F58E81CC
:1007E000882379F088819981AA81BB818417950734
:1007F000A607B70731F48F819885C816D90608F087
:1008000042C0488359836A837B838B85833039F068
:1008100089E0440F551F661F771F8A95D1F79A010B
:10082000AB0161E1CE010E948703882389F083E058
:100830008D83CE010E94360380E0DF91CF911F911E
:100840000F91FF90EF90DF90CF90BF90AF90089501
:100850000E94F6015B010E943B038A878F3F69F487
:100860000E94F6016A197B096D327140A0F38FE096
:100870008D83CE010E943603DCCF8E3F89F418862B
:100880001F8281E08E838F8198858C159D0550F4A1
:100890000E943B038F819885019698878F83F3CFC1
:1008A0008DE0E6CF6701E00EF11E0E943B03F601EA
:1008B00081936F01EE15FF05C1F78F819885080FB1
:1008C000191F18870F838985882319F00115124095
:1008D000A0F08E81882389F08F8198859C012F5FFD
:1008E0003F4F38872F838230924018F40E943B0399
:1008F000F3CFCE010E9436031E8281E09ECFCF92BD
:10090000DF92EF92FF920F931F93CF93DF93EC014F
:10091000690182E1411551056105710599F08B85E9
:10092000833039F0E9E0440F551F661F771FEA95C1
:10093000D1F79A01AB0168E1CE010E9487038823B9
:1009400019F084E08D8358C08C8596013E5F790153
:100950000FEF1FEF882319F1F60110E000E08191FD
:1009600090E081279C0144E0359527954A95E1F771
:1009700082279327102F0027082719279C01322F41
:1009800022273295307F0227132775E0880F991FA1
:100990007A95E1F708271927EE16FF0601F78EEF83
:1009A0000E946C03F60181916F010E946C03EC14AC
:1009B000FD04C1F7812F0E946C03802F0E946C03FD
:1009C0000E943B038A878F71853089F488E592E025
:1009D0000E9451038823A9F020E030E0A9016DE0D6
:1009E000CE010E948703882371F084E1ABCF81E1BF
:1009F0008D83CE010E943603CE010E94360380E033
:100A00000AC085E19FCF0E943B038111EECFCE014A
:100A10000E94360381E0DF91CF911F910F91FF90EB
:100A2000EF90DF90CF90089580916002882389F144
:100A30004091000250910102609102027091030204
:100A400023EE32E090E080E00E947F04811102C03A
:100A500080E00895409161025091620260916302CA
:100A600070916402411551056105710581F023EE15
:100A700032E090E080E00E947F04882349F31092E6
:100A8000610210926202109263021092640210924C
:100A9000600281E008958F929F92AF92BF92EF9291
:100AA000FF920F931F93CF934B015C01C42F809152
:100AB000000290910102A0910202B09103028815F8
:100AC0009905AA05BB0539F10E94140581110BC0D7
:100AD00080E0CF911F910F91FF90EF90BF90AF906A
:100AE0009F908F90089583EEE82E82E0F82E00E02C
:100AF00012E030E020E0B501A40190E080E00E9427
:100B0000DD03882329F38092000290920102A092D3
:100B10000202B0920302409160024C2B40936002AB
:100B200081E0D7CF4F925F926F927F928F929F9288
:100B3000AF92BF92CF92DF92EF92FF920F931F93EB
:100B4000CF93DF93EC01423051056105710590F4BC
:100B500080E0DF91CF911F910F91FF90EF90DF9098
:100B6000CF90BF90AF909F908F907F906F905F904D
:100B70004F90089589859A85AB85BC850196A11D06
:100B8000B11D84179507A607B70710F3CB88DC883B
:100B9000ED88FE888F89803109F042C0BB27A72FDE
:100BA000962F852F480159012A013B01C80ED91EF5
:100BB000EA1EFB1E8091000290910102A0910202A8
:100BC000B0910302C816D906EA06FB0699F58F898B
:100BD0008031C1F5B301A201552766277727440F5D
:100BE000551F4D515D4FFA019182808280916002C4
:100BF0008160809360028A89823080F08D819E813D
:100C0000AF81B8858C0D9D1DAE1DBF1D8093610207
:100C100090936202A0936302B093640281E099CF43
:100C2000DB01CA01E7E0B695A79597958795EA9508
:100C3000D1F7B8CF40E0C701B6010E944B05811142
:100C4000C6CF86CFB301A2014F77552766277727F6
:100C5000440F551F440F551F4D515D4FFA018082BF
:100C60009182A282B382C2CF8F929F92AF92BF92A3
:100C7000CF92DF92EF92FF920F931F93CF93DF9368
:100C8000FC0181859285A385B4850196A11DB11DC6
:100C900084179507A607B70770F480E0DF91CF911E
:100CA0001F910F91FF90EF90DF90CF90BF90AF908A
:100CB0009F908F90089583889488A588B6888789A7
:100CC000803189F5BB27A72F962F852FE9016A016F
:100CD0007B018F01BC01CD01680D791D8A1D9B1D13
:100CE0008090000290900102A0900202B090030256
:100CF00086169706A806B90601F5F801878980319E
:100D000011F5DD24EE24FF24F601EE0FFF1FED5157
:100D1000FD4F80819181B0E0A0E088839983AA8310
:100D2000BB8381E0BBCFDB01CA01C7E0B695A795C5
:100D300097958795CA95D1F7C9CF40E00E944B059A
:100D40008111DBCFAACFE894C7F8DD24EE24FF247D
:100D5000F601EE0FFF1FEE0FFF1FED51FD4F8081DB
:100D60009181A281B381BF70D8CF2F923F924F92D1
:100D70005F926F927F928F929F92AF92BF92CF922B
:100D8000DF92EF92FF920F931F93CF93DF93EC01CB
:100D90004B018D81811115C08FEF9FEFDF91CF91B6
:100DA0001F910F91FF90EF90DF90CF90BF90AF9089
:100DB0009F908F907F906F905F904F903F902F907B
:100DC00008958C8180FFE8CF4B895C896D897E898D
:100DD0008A859B85AC85BD85412C481759076A07D4
:100DE0007B0711F044244394512C52011E0126E04C
:100DF000220E311CA114B10409F4B1C04A855B85EF
:100E00006C857D856A0181E0D8228B8D9C8D8A015D
:100E10009B01E9E03695279517950795EA95D1F757
:100E2000ED81E230E1F5FC01628D738D848D958D4D
:100E3000600F711F821F931F612C22E0722E6C18AD
:100E40007D08A614B70408F435012C8126FD04C0E2
:100E50006114F2E07F0671F400910002109101022A
:100E6000209102023091030206171707280739075D
:100E700009F053C040E00E944B05882309F48CCF51
:100E8000C6018D519D4FD4019C01260D371DFC01DB
:100E90002E173F0709F45EC041914D93F9CFFC0135
:100EA00074807A947022C114D10471F471100CC052
:100EB000452B462B472B39F58F89988DA98DBA8DF7
:100EC0008E839F83A887B987EB8DFC8D6E817F8190
:100ED000888599856250710981099109258504C029
:100EE000660F771F881F991F2A95D2F706851785E9
:100EF00020893189600F711F821F931F670D711D3B
:100F0000811D911D99CF4E815F8168857985910101
:100F10000E9434068111D8CF3FCF7401830196011E
:100F2000AB01BC0190E080E00E94DD03882309F45E
:100F300033CF860C971C8A859B85AC85BD85860D35
:100F4000971DA11DB11D8A879B87AC87BD87A618F9
:100F5000B70850CF281B390B820E931EECCFC2016D
:100F60001DCFCF93DF93FC01248127FF2BC0EC0121
:100F7000668577858089918941E00E944B058823A9
:100F800029F1EA8980E2E89FF0011124ED51FD4F3B
:100F90003097E1F08D81823040F48B899C89AD8956
:100FA000BE89848F958FA68FB78F8F89988D938FE9
:100FB000828F8F89988DA98DBA8DB58BA48B8C81EA
:100FC0008F778C83DF91CF910C94140580E0DF91B3
:100FD000CF9108958F929F92AF92BF92CF92DF925E
:100FE000EF92FF920F931F93CF93DF93EC018D81CC
:100FF00081110EC080E0DF91CF911F910F91FF9082
:10100000EF90DF90CF90BF90AF909F908F9008951A
:101010000B891C892D893E89041715072607370778
:1010200048F34A015B01823031F48A869B86AC86A4
:10103000BD8681E0E0CF81149104A104B10449F49C
:101040001E821F82188619861A861B861C861D869C
:10105000F0CF0A851B852C853D85EB8DFC8D858524
:1010600090E00996B901A80141505109610971093F
:10107000082E04C076956795579547950A94D2F740
:1010800075016401E1E0CE1AD108E108F10804C05D
:10109000F694E794D794C7948A95D2F7C416D506E8
:1010A000E606F70620F0012B022B032B11F58F89A2
:1010B000988DA98DBA8D8E839F83A887B9878E015D
:1010C0000A5F1F4FC114D104E104F10409F4ADCF4C
:1010D0004E815F816885798598018B8D9C8D0E94FA
:1010E000340691E0C91AD108E108F1088111EACF6C
:1010F00081CFC41AD50AE60AF70AE1CF3F924F9290
:101100005F926F927F928F929F92AF92BF92CF9297
:10111000DF92EF92FF920F931F93CF93DF93CDB7A0
:10112000DEB72C970FB6F894DEBF0FBECDBF5C01C3
:10113000DC015B968D909C905C9716964D905D902F
:101140006D907C901997411451046104710409F465
:1011500068C0BFEF4B1A5B0A6B0A7B0A312CF401A3
:1011600081859285A385B4859C01AD012F5F3F4F9A
:101170004F4F5F4F29873A874B875C877301620126
:101180001D821E821F821886F40181859285A385A7
:10119000B4852D813E814F815885281739074A072C
:1011A0005B0708F056C089859A85AB85BC858C1590
:1011B0009D05AE05BF0550F482E0C82ED12CE12C70
:1011C000F12C92E0492E512C612C712C9E012F5F45
:1011D0003F4FB701A601C4010E9434068823C9F11C
:1011E00089819A81AB81BC81892B8A2B8B2B09F158
:1011F000260137019FEF491A590A690A790A2D8198
:101200003E814F8158852F5F3F4F4F4F5F4F2D835A
:101210003E834F8358873FEFC31AD30AE30AF30A8A
:10122000B3CFF401408051806280738033243394C3
:1012300096CFC414D504E604F70409F70FEF1FEFA7
:101240002FEF3FE0B701A601C4010E949205811172
:1012500019C080E02C960FB6F894DEBF0FBECDBF4C
:10126000DF91CF911F910F91FF90EF90DF90CF9082
:10127000BF90AF909F908F907F906F905F904F90B6
:101280003F900895F501468157816085718541152C
:1012900051056105710539F097018601C4010E946D
:1012A00092058823B1F2D5011696CD92DD92ED928A
:1012B000FC921997332051F0D701C6010196A11D68
:1012C000B11DF40180839183A283B383F5018789E3
:1012D000908DA18DB28D892B8A2B8B2B39F4C78AE7
:1012E000D08EE18EF28E84818068848381E0B2CFDB
:1012F000FC01818D928D009729F0FC01258121113F
:101300000C94B1070895DC015996ED91FC9130974A
:10131000B9F083899489A589B68942855385648506
:101320007585841B950BA60BB70B811520E89207DA
:10133000A105B10538F08FEF9FE7A0E0B0E0089578
:1013400090E080E00895CF93DF931F92CDB7DEB792
:10135000FC01818D928D009769F0BE016F5F7F4F18
:101360000E94B506019731F4898190E00F90DF91DA
:10137000CF9108958FEF9FEFF9CFEF92FF920F93E8
:101380001F93CF93DF931F92CDB7DEB7FC01818D02
:10139000928D10E000E00097D1F07F01BE016F5FF9
:1013A0007F4F0E94B5060FEF1FEF019781F409816F
:1013B00010E0F701818D928DFC0142855385648593
:1013C000758541505109610971090E94EA07C801F8
:1013D0000F90DF91CF911F910F91FF90EF900895A3
:1013E0002F923F924F925F926F927F928F929F9235
:1013F000AF92BF92CF92DF92EF92FF920F931F9323
:10140000CF93DF9300D000D000D0CDB7DEB79E835E
:101410008D835B011A01DC015996ED91FC913097A7
:1014200009F581E090E0ED81FE819383828380E085
:1014300090E026960FB6F894DEBF0FBECDBFDF91C9
:10144000CF911F910F91FF90EF90DF90CF90BF90C1
:10145000AF909F908F907F906F905F904F903F9054
:101460002F90089513821282AD81BE8159960D91FD
:101470001C91F8018581813009F0BCC0848181FF15
:10148000B9C082FDA4C06101F8014285538564851D
:101490007585C114D10409F41EC1838D948DDC01BE
:1014A00014967C902FEF270D2A013B0139E07694AA
:1014B0006794579447943A95D1F742227A01B1E064
:1014C000FB2241101CC0E114F104C9F4468157818C
:1014D00060857185411551056105710509F091C05F
:1014E0008789908DA18DB28D0097A105B10509F076
:1014F000AAC0C8010E947E08882309F47BC080E04E
:1015000092E08E199F0946018C159D0508F44C0147
:10151000D8015B964D915C915C9716968D919D914B
:101520000D90BC91A02D0297A109B109FA01258562
:1015300004C0880F991FAA1FBB1F2A95D2F74685A2
:10154000578560897189840F951FA61FB71F9C015D
:10155000AD01240D311D411D511D29013A01811498
:1015600032E0930609F075C080910002909101026B
:10157000A0910202B0910302481659066A067B0642
:1015800059F48FEF9FEFDC018093000290930102EA
:10159000A0930202B09303029501B301A20190E06F
:1015A00080E00E947F04882329F19EEFB91AC818B1
:1015B000D908F80182859385A485B585880D991D84
:1015C000A11DB11D82879387A487B5875DCF43890D
:1015D00054896589768982859385A485B585481760
:1015E00059076A077B0709F44ECFC8010E94EA0732
:1015F000811149CF81E090E0F8019383828380E0FC
:1016000007C09E012F5F3F4F0E943406811102C028
:1016100090E076C089819A81AB81BC81F801238DED
:10162000348DF901278948EF5FEF60E070E02031E9
:1016300021F048EF5FEF6FEF7FE084179507A60773
:10164000B70708F056CFF80186839783A087B18744
:1016500056CFE114F10491F5D8011A964D915D91A0
:101660006D917C911D9753968D919D910D90BC919C
:10167000A02D481759076A077B0700F10E9414053F
:10168000882309F4B7CF4092000250920102609281
:101690000202709203028091600281608093600276
:1016A00097012D513D4FD501C901880D991DF901B3
:1016B0008E179F0759F04D914193FACF41E0C30136
:1016C000B2010E944B058111EBCF94CF821B930B8B
:1016D000A80EB91E6CCF83899489A589B689841711
:1016E0009507A607B70738F48481438B548B658B25
:1016F000768B80688483F801848183FD0CC0C101EE
:10170000AD81BE815996ED91FC9122813381232BCD
:1017100009F087CE8ECE8581882309F46BCFC8016E
:101720000E94B1078111EBCF65CFCF93DF931F925A
:10173000CDB7DEB76983DC01ED91FC910280F381C6
:10174000E02D41E050E0BE016F5F7F4F09950F90A3
:10175000DF91CF91089590E080E00895CF92DF92DD
:10176000EF92FF9290917B00977F90937B00806433
:1017700080937C0080917A00806480937A008091CD
:101780007A0086FDFCCF8091780060917900762FF9
:10179000682F072E000C880B990B0E9410112AE06D
:1017A00038E240EA5BE30E946F116B017C0120E0AC
:1017B00030E040EA50E40E9466131816ACF0C09284
:1017C0005C02D0925D02E0925E02F0925F02609154
:1017D0005C0270915D0280915E0290915F02FF90C9
:1017E000EF90DF90CF90089510925C0210925D020E
:1017F00010925E0210925F02EACFFC01019000207D
:10180000E9F73197AF01481B590BBC0183EE94E017
:101810000C9402028F929F92AF92BF920F931F93EC
:10182000CF93DF93CDB7DEB7A1970FB6F894DEBFA5
:101830000FBECDBF19A2423008F44AE08E010F5D01
:101840001F4F842E912CB12CA12CA50194010E9434
:101850002D12E62FB901CA01EA30F4F4E05DD80197
:10186000EE938D01232B242B252B79F790E080E03C
:10187000109719F0CD010E94FD0BA1960FB6F894B8
:10188000DEBF0FBECDBFDF91CF911F910F91BF90F3
:10189000AF909F908F900895E95CE1CFCF92DF9257
:1018A000EF92FF92CF93DF936B017C016DE283EEA9
:1018B00094E00E949802EC0166277727CB016C190F
:1018C0007D098E099F094AE00E940A0C8C0F9D1F1A
:1018D000DF91CF91FF90EF90DF90CF9008954F92DE
:1018E0005F926F927F928F929F92AF92BF92CF92B0
:1018F000DF92EF92FF920F931F93CF936B017C01C6
:10190000742EAC019B010E946B13882399F088E22E
:1019100092E0CF911F910F91FF90EF90DF90CF90C9
:10192000BF90AF909F908F907F906F905F904F90FF
:101930000C94FD0B46015701E894B7F82FEF3FEFE9
:101940004FE75FE7C501B4010E946B1381110DC021
:101950002FEF3FEF4FE75FE7C501B4010E94091188
:1019600018161CF48CE292E0D4CF2FEF3FEF4FE734
:101970005FE4C701B6010E94661318161CF480E3E9
:1019800092E0C7CF2FEF3FEF4FE75FECC701B60103
:101990000E94091187FDF3CF20E030E0A901C701C3
:1019A000B6010E94091110E000E087FF0AC06DE255
:1019B00083EE94E00E9498028C01F7FAF094F7F815
:1019C000F094C0E060E070E080E09FE37C1641F0BE
:1019D00020E030E040E251E40E94C512CF5FF6CF34
:1019E000A70196010E9459122B013C010E94371356
:1019F0004B015C014AE00E940A0C7C01E00EF11EE2
:101A0000CC23C1F1C501B4010E940E119B01AC01B0
:101A1000C301B2010E9458124B015C016EE283EED9
:101A200094E00E949802E80EF91EC15018F120E0DF
:101A300030E040E251E4C501B4010E946F112B0176
:101A40003C010E9437134B01B12CA12C4AE0C50187
:101A5000B4010E940A0CE80EF91EC501B4010E94EF
:101A60000E119B01AC01C301B2010E9458124B013F
:101A70005C01DBCFC701CF911F910F91FF90EF90D9
:101A8000DF90CF90BF90AF909F908F907F906F909E
:101A90005F904F9008951F93CF93DF9385ED8093D0
:101AA000BC008091750290917602A0917702B0916E
:101AB00078020796A11DB11D23E0B695A7959795CD
:101AC00087952A95D1F72091BC0024FD03C0109280
:101AD000BD0252C04091750250917602609177022A
:101AE00070917802452B462B472B69F30097A1058F
:101AF000B10541F025E32A95F1F700000197A1090E
:101B0000B109E1CF80917402C1E0C09373028823D0
:101B100099F1D091B8001091BA008091BC008A7BF5
:101B20008093BC0060E084E10E946C0160E085E18C
:101B30000E946C011092BD02C093BF021092BE02BF
:101B400061E084E10E946C0161E085E10E946C012A
:101B50008091B9008E7F8093B9008091B9008D7F0C
:101B60008093B90088E48093B80085E48093BC003A
:101B70001093BA00D093B800DF91CF911F910895D0
:101B80001F920F920FB60F9211240BB60F922F9344
:101B90003F934F935F936F937F938F939F93AF93F5
:101BA000BF93EF93FF938091B900887F803609F44B
:101BB0004DC008F040C0883209F4A7C028F5803134
:101BC00009F49BC0C8F4882309F4F7C0883009F4ED
:101BD00094C0FF91EF91BF91AF919F918F917F91B1
:101BE0006F915F914F913F912F910F900BBE0F908E
:101BF0000FBE0F901F901895883109F486C080326F
:101C000041F78093BC0214C0803409F49BC040F4B7
:101C10008033B9F38833E9F68093BC0285ECAEC01B
:101C2000803509F483C0883509F494C0883489F676
:101C30000E944B0DCECF883909F48AC038F5883719
:101C400029F050F4883611F0803719F683E080933C
:101C5000BD021092BB0255C0883809F479C08039A2
:101C600019F0803809F0B5CF8091BB02803208F0BE
:101C70006FC0E091BB0281E08E0F8093BB02809128
:101C8000BB00F0E0E556FD4F80833BC0803B39F060
:101C9000D0F4803A09F477C0883A09F09ACF84E00A
:101CA0008093BD0210929A0210929902F0E0E0E057
:101CB00009958091990281110FC081E0809399026A
:101CC0001092790209C0803C09F4A8CF883C09F43D
:101CD000A5CF883B09F07DCFE0919A0281E08E0F7D
:101CE00080939A02F0E0E758FD4F80818093BB001B
:101CF00090919A028091990229C08091E20280938A
:101D0000BB0085EC8093BC0064CF9091E102809190
:101D1000E002981758F5E091E10281E08E0F809380
:101D2000E102F0E0E054FD4F8081E9CFE091E10273
:101D300081E08E0F8093E1028091BB00F0E0E054DF
:101D4000FD4F80839091E1028091E0029817C8F2E4
:101D500085E8D8CFE091E10281E08E0F8093E10227
:101D60008091BB00F0E0E054FD4F80838091BF0282
:101D700081115ECF81E08093BE0284EA8093BC0033
:101D80001092BD0226CF85EC8093BC001092BD025C
:101D90008091BB02803230F4E091BB02F0E0E55666
:101DA000FD4F10826091BB0270E08BE992E0F0E0A1
:101DB000E0E009951092BB020CCF1092BC0238CF24
:101DC0001F920F920FB60F9211242F933F938F9370
:101DD0009F93AF93BF9380916E0290916F02A091F9
:101DE0007002B091710230916D0223E0230F2D3704
:101DF00058F50196A11DB11D20936D0280936E02CE
:101E000090936F02A0937002B09371028091690267
:101E100090916A02A0916B02B0916C020196A11D93
:101E2000B11D8093690290936A02A0936B02B093F4
:101E30006C02BF91AF919F918F913F912F910F9025
:101E40000FBE0F901F90189526E8230F0296A11D34
:101E5000B11DD2CF1F920F920FB60F9211240BB665
:101E60000F922F933F934F935F936F937F938F9333
:101E70009F93AF93BF93EF93FF9383EE94E00E9401
:101E80007602FF91EF91BF91AF919F918F917F91DA
:101E90006F915F914F913F912F910F900BBE0F90DB
:101EA0000FBE0F901F9018951F920F920FB60F92B2
:101EB00011240BB60F922F938F939F93EF93FF9361
:101EC000E091F304F091F4048081E091F904F09141
:101ED000FA0482FD1DC090818091FC048F5F8F7396
:101EE0002091FD04821741F0E091FC04F0E0ED51F7
:101EF000FB4F958F8093FC04FF91EF919F918F9101
:101F00002F910F900BBE0F900FBE0F901F90189542
:101F10008081F2CF1092E6041092E50488EE93E0FF
:101F2000A0E0B0E08093E7049093E804A093E90474
:101F3000B093EA0428E032E03093E4042093E30411
:101F400025EC30E03093F0042093EF0424EC30E0F3
:101F50003093F2042093F10420EC30E03093F40449
:101F60002093F30421EC30E03093F6042093F50441
:101F700022EC30E03093F8042093F70426EC30E0B4
:101F80003093FA042093F9041092FC041092FD049B
:101F90001092FE041092FF04109289051092880599
:101FA00080938A0590938B05A0938C05B0938D0543
:101FB0008AE192E090938705809386051092A005B0
:101FC00010929F051092920510928505109284053B
:101FD0001092830510928005E0EDF1E081E08C30F5
:101FE00049F09491823009F49F5F21E0280F3196E7
:101FF000992331F08093810581E0809382050895D3
:10200000822FEDCF789484B5826084BD84B58160E1
:1020100084BD85B5826085BD85B5816085BD8091B3
:102020006E00816080936E0010928100809181002B
:102030008260809381008091810081608093810023
:10204000809180008160809380008091B1008460E5
:102050008093B1008091B00081608093B000809146
:1020600091008260809391008091910081608093C3
:102070009100809190008160809390008091A100F8
:1020800082608093A1008091A10081608093A10073
:102090008091A00081608093A000809121018260E6
:1020A00080932101809121018160809321018091A1
:1020B000200181608093200180917A008460809368
:1020C0007A0080917A00826080937A0080917A0011
:1020D000816080937A0080917A00806880937A0092
:1020E0001092C100E091F304F091F40482E0808347
:1020F000E091EF04F091F0041082E091F104F0918E
:10210000F2048FEC80831092FB04E091F704F091CD
:10211000F80486E08083E091F504F091F604808174
:1021200080618083E091F504F091F60480818860FD
:102130008083E091F504F091F604808180688083CB
:10214000E091F504F091F60480818F7D80830E94F8
:10215000F601609365027093660280936702909324
:1021600068026B017C0124EFC20E21E0D21EE11C4B
:10217000F11C0E94F6016C157D058E059F05C8F3C4
:1021800084E392E00E94FD0B83E492E00E94FD0B49
:102190004AE060E070E0CB010E940A0C88E492E023
:1021A0000E94FD0B90E080E00E94AE0B42E00E9496
:1021B0006F0CC12CD12C7601C394E60181E592E02D
:1021C0000E94FD0B83E492E00E94FD0B4AE0C701F0
:1021D000B6010E940A0C88E492E00E94FD0BC60141
:1021E0000E94AE0B42E00E946F0C239721F488E519
:1021F00092E00E94FD0B8FEFC81AD80AE80AF80A8D
:1022000024E0C216D104E104F104B9F60E940503EA
:102210009ECF0E944B1108F481E00895E89409C014
:1022200097FB3EF490958095709561957F4F8F4F09
:102230009F4F9923A9F0F92F96E9BB279395F6951F
:10224000879577956795B795F111F8CFFAF4BB0F9D
:1022500011F460FF1BC06F5F7F4F8F4F9F4F16C001
:10226000882311F096E911C0772321F09EE8872F8B
:10227000762F05C0662371F096E8862F70E060E047
:102280002AF09A95660F771F881FDAF7880F9695C0
:10229000879597F90895990F0008550FAA0BE0E864
:1022A000FEEF16161706E807F907C0F01216130618
:1022B000E407F50798F0621B730B840B950B39F458
:1022C0000A2661F0232B242B252B21F408950A26BE
:1022D00009F4A140A6958FEF811D811D08950E94EC
:1022E00082110C94F3110E94E51138F00E94EC1158
:1022F00020F0952311F00C94DC110C94E2111124C0
:102300000C9427120E94041270F3959FC1F3950F4D
:1023100050E0551F629FF001729FBB27F00DB11D69
:10232000639FAA27F00DB11DAA1F649F6627B00DF9
:10233000A11D661F829F2227B00DA11D621F739FE2
:10234000B00DA11D621F839FA00D611D221F749FF0
:102350003327A00D611D231F849F600D211D822F37
:10236000762F6A2F11249F5750409AF0F1F088235E
:102370004AF0EE0FFF1FBB1F661F771F881F91508B
:102380005040A9F79E3F510580F00C94DC110C944D
:1023900027125F3FE4F3983ED4F3869577956795CF
:1023A000B795F795E7959F5FC1F7FE2B880F911DB5
:1023B0009695879597F9089597F99F6780E870E05B
:1023C00060E008959FEF80EC089500240A941616AB
:1023D000170618060906089500240A941216130613
:1023E000140605060895092E0394000C11F48823A1
:1023F00052F0BB0F40F4BF2B11F460FF04C06F5FBD
:102400007F4F8F4F9F4F089557FD9058440F551F92
:1024100059F05F3F71F04795880F97FB991F61F066
:102420009F3F79F087950895121613061406551FDD
:10243000F2CF4695F1DF08C0161617061806991F49
:10244000F1CF86957105610508940895E894BB273E
:1024500066277727CB0197F90895A1E21A2EAA1BC8
:10246000BB1BFD010DC0AA1FBB1FEE1FFF1FA21744
:10247000B307E407F50720F0A21BB30BE40BF50B41
:10248000661F771F881F991F1A9469F760957095CA
:10249000809590959B01AC01BD01CF010895EE0F91
:1024A000FF1F0024001C0BBE0790F691E02D09943D
:1024B0005058BB27AA270E9470120C94F3110E9457
:1024C000E51138F00E94EC1120F039F49F3F19F427
:1024D00026F40C94E2110EF4E095E7FB0C94DC1169
:1024E000E92F0E94041258F3BA1762077307840792
:1024F000950720F079F4A6F50C9426120EF4E095D9
:102500000B2EBA2FA02D0B01B90190010C01CA01AD
:10251000A0011124FF27591B99F0593F50F4503E58
:1025200068F11A16F040A22F232F342F4427585F4A
:10253000F3CF469537952795A795F0405395C9F762
:102540007EF41F16BA0B620B730B840BBAF091501A
:10255000A1F0FF0FBB1F661F771F881FC2F70EC0B9
:10256000BA0F621F731F841F48F48795779567958C
:10257000B795F7959E3F08F0B0CF9395880F08F078
:102580009927EE0F9795879508950E94D9120C947C
:10259000F3110E94EC1158F00E94E51140F029F46B
:1025A0005F3F29F00C94DC1151110C9427120C940C
:1025B000E2110E94041268F39923B1F3552391F3B9
:1025C000951B550BBB27AA2762177307840738F0A2
:1025D0009F5F5F4F220F331F441FAA1FA9F335D0FF
:1025E0000E2E3AF0E0E832D091505040E695001CB3
:1025F000CAF72BD0FE2F29D0660F771F881FBB1F6D
:10260000261737074807AB07B0E809F0BB0B802D4A
:10261000BF01FF2793585F4F3AF09E3F510578F076
:102620000C94DC110C9427125F3FE4F3983ED4F332
:10263000869577956795B795F7959F5FC9F7880F4A
:10264000911D9695879597F90895E1E0660F771F9C
:10265000881FBB1F621773078407BA0720F0621B2D
:10266000730B840BBA0BEE1F88F7E09508950E9458
:102670000C1288F09F5798F0B92F9927B751B0F0F6
:10268000E1F0660F771F881F991F1AF0BA95C9F7F6
:1026900014C0B13091F00E942612B1E008950C945C
:1026A0002612672F782F8827B85F39F0B93FCCF30F
:1026B000869577956795B395D9F73EF49095809573
:1026C000709561957F4F8F4F9F4F08950E944B11DA
:1026D00008F48FEF08950E944B11880B990B089511
:0426E000F894FFCF9C
:1026E400FFFFFFFF00000000980202022F02E50234
:1026F40060023E02520200000000950BF009AB0B91
:1027040078098309A309BD096E616E00696E6600CC
:102714006F7666002050686F746F2043656E747224
:10272400616C00202D3E20002056616C6F723A20AF
:0C273400002050686F746F000D0A000058
:00000001FF
