:100000000C9404010C942E010C942E010C942E01DE
:100010000C942E010C942E010C942E010C942E01A4
:100020000C942E010C942E010C942E010C942E0194
:100030000C942E010C942E010C942E010C942E0184
:100040000C942E010C942E010C942E010C942E0174
:100050000C942E010C942E010C942E010C94E6139A
:100060000C942E010C945A140C9430140C942E0100
:100070000C942E010C942E010C942E010C942E0144
:100080000C942E010C942E010C942E010C942E0134
:100090000C942E010C942E010C942E010C949014AF
:1000A0000C942E010C942E010C942E010C942E0114
:1000B0000C942E010C942E010C942E010C942E0104
:1000C0000C942E010C942E010C942E010C942E01F4
:1000D0000C942E010C942E010C942E010C942E01E4
:1000E0000C942E017C3C3E5E2B3D3F2F5B5D3B2CF8
:1000F0002A225C0000002100240027002A002D0095
:100100003000330001010000040107010A01000072
:100110002200250028002B002E00310034000201AF
:100120000000050108010B01050505050705080884
:100130000808020202020A0A080804040404010171
:100140000101010101010303030303030303040786
:1001500007070C0C0C0C0C0C0C0C0202020206061D
:100160000606060606060B0B0B0B0B0B0B0B010210
:1001700010202008081020401020408002010201B9
:100180000804020101020408102040808040201071
:1001900008040201800402018040201008040201CA
:1001A0000804020101020408102040800102040832
:1001B0001020408000000A0B02090C0D0E080703F6
:1001C000040100000000000000000000000000002A
:1001D000000000000000000000000000000000001F
:1001E00012111000000000000000000000000000DC
:1001F000000000000000000000001F1C1F1E1F1E4A
:100200001F1F1E1F1E00B41511241FBECFEFD1E209
:10021000DEBFCDBF26E0A6E0B3E001C01D92AD3F3A
:10022000B207E1F713E0A0E0B2E0E4E3FFE300E0AF
:100230000BBF02C007900D92A630B107D9F711E0AD
:10024000C4E0D1E004C02197FE010E94A81DC33084
:10025000D107C9F70E9460160C94981F0C940000F7
:10026000282F30E0F901EC54FE4F9491F901E25946
:10027000FE4F8491285D3E4FF9012491222309F419
:1002800033C0992301F191509231E8F4E92FF0E065
:10029000E45BFE4F0C94A81D7D0181015E01750198
:1002A0007901630184018A018E01940198019C0106
:1002B000A201A6016301AA01B001B40190918000DE
:1002C0009F7790938000E22FF0E0EE0FFF1FE25F38
:1002D000FE4FA591B4919FB7F894EC91611148C07D
:1002E00080958E238C939FBF0895909180009F7D71
:1002F000E8CF90918000977FE4CF94B59F7794BD2D
:10030000E2CF94B59F7DFBCF9091B0009F77909303
:10031000B000D9CF9091B0009F7DF9CF909190001F
:100320009F7790939000CFCF909190009F7DF9CFD1
:1003300090919000977FF5CF9091A0009F77909338
:10034000A000C1CF9091A0009F7DF9CF9091A00017
:10035000977FF5CF909120019F7790932001B3CFA5
:10036000909120019F7DF9CF90912001977FF5CF4B
:100370008E2BB8CFCF93DF9390E0FC01E259FE4F74
:100380002491885D9E4FFC0184918823D1F090E0F8
:10039000880F991FFC01EC50FF4FA591B491FC010F
:1003A000E25FFE4FC591D49161110EC09FB7F894E2
:1003B0008C91E22FE0958E238C932881E223E883B1
:1003C0009FBFDF91CF9108958FB7F894EC91E22B06
:1003D000EC938FBFF6CF3FB7F89480916F03909165
:1003E0007003A0917103B091720326B5A89B05C05C
:1003F0002F3F19F00196A11DB11D3FBFBA2FA92FA4
:10040000982F8827BC01CD01620F711D811D911DA0
:1004100042E0660F771F881F991F4A95D1F708950C
:100420002FB7F89460916B0370916C0380916D030A
:1004300090916E032FBF089508950895DC01ED910A
:10044000FC910190F081E02D0994AF92BF92CF9280
:10045000DF92EF92FF920F931F93CF93DF936C0184
:100460007B018B01040F151FEB015E01AE18BF0865
:10047000C017D10759F06991D601ED91FC91019017
:10048000F081E02DC6010995892B79F7C501DF912F
:10049000CF911F910F91FF90EF90DF90CF90BF9081
:1004A000AF900895FC01538D448D252F30E0842FAB
:1004B00090E0821B930B541710F0CF96089501978C
:1004C0000895FC01918D828D981761F0A28DAE0F79
:1004D000BF2FB11D5D968C91928D9F5F9F73928F00
:1004E00090E008958FEF9FEF0895FC01918D828D2C
:1004F000981731F0828DE80FF11D858D90E00895F9
:100500008FEF9FEF0895FC01918D228D892F90E050
:10051000805C9F4F821B91098F739927089585EE08
:1005200095E00E94830221E0892B09F420E0822FCC
:100530000895FC01A48DA80FB92FB11DA35ABF4F78
:100540002C91848D90E001968F739927848FA689D2
:10055000B7892C93A089B1898C91837080648C9326
:10056000938D848D981306C00288F389E02D8081D5
:100570008F7D80830895EF92FF920F931F93CF9307
:10058000DF93EC0181E0888F9B8D8C8D98131AC0CE
:10059000E889F989808185FF15C09FB7F894EE89B5
:1005A000FF896083E889F989808183708064808312
:1005B0009FBF81E090E0DF91CF911F910F91FF905D
:1005C000EF900895F62E0B8D10E00F5F1F4F0F7305
:1005D0001127E02E8C8D8E110CC00FB607FCFACFC0
:1005E000E889F989808185FFF5CFCE010E949902C3
:1005F000F1CFEB8DEC0FFD2FF11DE35AFF4FF08291
:100600009FB7F8940B8FEA89FB8980818062CFCFF6
:10061000CF93DF93EC01888D8823B9F0AA89BB8939
:10062000E889F9898C9185FD03C0808186FD0DC024
:100630000FB607FCF7CF8C9185FFF2CF808185FF45
:10064000EDCFCE010E949902E9CFDF91CF910895BD
:1006500080E090E0892B29F00E948F0281110E9496
:10066000000080E090E0892B49F080E090E0892B49
:1006700029F00E94000081110E94000080E090E0BB
:10068000892B49F080E090E0892B29F00E9400003E
:1006900081110E94000080E090E0892B49F080E009
:1006A00090E0892B29F00E94000081110C94000039
:1006B000089561E0FC0184810C94300180915D0318
:1006C0008F3F39F48EBD00000DB407FEFDCF8EB50F
:1006D0000895F894E0915803F09159038081909126
:1006E0005703892B808328E080E0E0915B03F09141
:1006F0005C03308190915A03392B3083880FA0918D
:100700005503B09156033C9140915403342309F0B2
:1007100081603081909593239083000000002150E8
:1007200021F7789408950F931F93CF93DF93EC01F3
:100730000E9410028B010E945E038F3F69F00E94AD
:100740001002601B710B6C177D07A8F380E0DF912E
:10075000CF911F910F91089581E0F9CF90915D03A2
:100760009F3F39F48EBD00000DB407FEFDCF8EB55E
:100770000895F894E0915B03F0915C0330915A0383
:10078000532F5095A0915803B091590340915703AE
:10079000642F609598E02081252320832C9187FF8A
:1007A00018C0242B2C932081232B2083880F915059
:1007B00091F70000000000000000E0915B03F09161
:1007C0005C03908180915A0380958923808378947B
:1007D00008952623E7CF8F929F92AF92BF92FF9208
:1007E0000F931F93CF93DF93EC01F62E49015A012B
:1007F0008E81882389F08F8198859C012F5F3F4FE0
:1008000038872F838230924018F40E945E03F3CF22
:10081000CE010E9459031E8260E08C810E9430014B
:100820008CE291E00E9493038F2D80640E94AE03BE
:1008300008E110E0D501C401002E04C0B695A795CB
:10084000979587950A94D2F70E94AE030850110934
:10085000083F8FEF180771F785E9FF2021F028E0A6
:1008600087E8F2128FEF0E94AE0310E00E945E0351
:100870008A8787FF04C01F3F11F01F5FF7CFDF910A
:10088000CF911F910F91FF90BF90AF909F908F904D
:100890000895AF92BF92CF92DF92EF92FF920F93A3
:1008A0001F93CF93DF93EC016901C801820F931F5F
:1008B0008130924050F58E81882379F0888199812A
:1008C000AA81BB8184179507A607B70731F48F81EA
:1008D0009885C816D90608F042C0488359836A83B0
:1008E0007B838B85833039F089E0440F551F661F69
:1008F000771F8A95D1F79A01AB0161E1CE010E9481
:10090000EB03882389F083E08D83CE010E94590395
:1009100080E0DF91CF911F910F91FF90EF90DF90DA
:10092000CF90BF90AF9008950E9410025B010E948B
:100930005E038A878F3F69F40E9410026A197B095F
:100940006D327140A0F38FE08D83CE010E94590378
:10095000DCCF8E3F89F418861F8281E08E838F81E1
:1009600098858C159D0550F40E945E038F819885B3
:10097000019698878F83F3CF8DE0E6CF6701E00E75
:10098000F11E0E945E03F60181936F01EE15FF05D3
:10099000C1F78F819885080F191F18870F838985E4
:1009A000882319F001151240A0F08E81882389F068
:1009B0008F8198859C012F5F3F4F38872F8382302E
:1009C000924018F40E945E03F3CFCE010E945903B7
:1009D0001E8281E09ECFCF92DF92EF92FF920F9323
:1009E0001F93CF93DF93EC01690182E1411551051B
:1009F0006105710599F08B85833039F0E9E0440F8A
:100A0000551F661F771FEA95D1F79A01AB0168E180
:100A1000CE010E94EB03882319F084E08D8358C037
:100A20008C8596013E5F79010FEF1FEF882319F146
:100A3000F60110E000E0819190E081279C0144E004
:100A4000359527954A95E1F782279327102F0027A0
:100A5000082719279C01322F22273295307F022741
:100A6000132775E0880F991F7A95E1F70827192752
:100A7000EE16FF0601F78EEF0E94AE03F60181919C
:100A80006F010E94AE03EC14FD04C1F7812F0E9498
:100A9000AE03802F0E94AE030E945E038A878F718F
:100AA000853089F488E592E00E9493038823A9F0B9
:100AB00020E030E0A9016DE0CE010E94EB03882325
:100AC00071F084E1ABCF81E18D83CE010E945903A7
:100AD000CE010E94590380E00AC085E19FCF0E94A9
:100AE0005E038111EECFCE010E94590381E0DF91B8
:100AF000CF911F910F91FF90EF90DF90CF900895CD
:100B0000CF93DF9380914A038823A9F1C0917305A5
:100B1000D09174054091000250910102609102024F
:100B20007091030223E733E0CE010E94EB048111B0
:100B300004C080E0DF91CF91089540914B03509124
:100B40004C0360914D0370914E03411551056105B1
:100B5000710579F023E733E0CE010E94EB0488238E
:100B600041F310924B0310924C0310924D031092DC
:100B70004E0310924A0381E0DDCF8F929F92AF9295
:100B8000BF92EF92FF920F931F93CF934B015C01A3
:100B9000C42F8091000290910102A0910202B091B5
:100BA000030288159905AA05BB0549F10E94800535
:100BB00081110BC080E0CF911F910F91FF90EF90BA
:100BC000BF90AF909F908F90089583E7E82E83E0C9
:100BD000F82E00E012E030E020E0B501A4018091A1
:100BE0007305909174050E944904882319F380923B
:100BF000000290920102A0920202B0920302409180
:100C00004A034C2B40934A0381E0D5CF8F929F92A9
:100C1000AF92BF92CF92DF92EF92FF92CF9322E8F2
:100C200036E03093740520937305882309F46DC072
:100C300040E060E070E0CB010E94BD0581110BC077
:100C400080E0CF91FF90EF90DF90CF90BF90AF907A
:100C50009F908F900895809131058F7789F78091CB
:100C60003D0590913E05A0913F05B0914005843629
:100C70009105A105B10520F3C0903905D0903A0542
:100C8000E0903B05F0903C05C114D104E104F1046F
:100C9000B9F240E0C701B6010E94BD05882381F288
:100CA00080917E0390917F038115924049F6A09137
:100CB0008303AA2329F26091810370918203611555
:100CC000710509F4BDCF20918003222309F4B8CF28
:100CD000A093A1062093930690E080E030E0E1E04D
:100CE000F0E0C82FAF01082E02C0440F551F0A9430
:100CF000E2F72417350769F041E0480F0196893083
:100D0000910579F740939C069BCFC12CD12C76019D
:100D1000C0CF80939C062091890330918A0350E0D4
:100D200040E02115310541F420919703309198035B
:100D30004091990350919A0320939406309395061D
:100D4000409396065093970646015701860E971ECC
:100D5000A11CB11C8092A2069092A306A092A406A8
:100D6000B092A506E0918403F0918503F093A80664
:100D7000E093A706B0E00E94601DDC01CB01880D66
:100D8000991DAA1DBB1D8093A9069093AA06A09346
:100D9000AB06B093AC0625E0EE0FFF1F2A95E1F7F6
:100DA000E150FE4FEF2FFF27E6958E0F9F1FA11DED
:100DB000B11D80939D0690939E06A0939F06B093CD
:100DC000A0068090860390908703B12CA12C8114FB
:100DD000910441F48090930390909403A090950324
:100DE000B0909603C81AD90AEA0AFB0AC80CD91CA3
:100DF000EA1CFB1C04C0F694E794D794C794CA95E8
:100E0000D2F7C0929806D0929906E0929A06F09294
:100E10009B0685EFC8168FE0D806E104F10428F49C
:100E20008CE08093A60681E00CCF80E125EFC2160E
:100E30002FEFD206E104F104A0F380919F0390917B
:100E4000A003A091A103B091A2038093A90690935F
:100E5000AA06A093AB06B093AC0680E2E2CF4F9215
:100E60005F926F927F928F929F92AF92BF92CF923A
:100E7000DF92EF92FF920F931F93CF93DF93EC01DA
:100E8000423051056105710590F480E0DF91CF910A
:100E90001F910F91FF90EF90DF90CF90BF90AF9098
:100EA0009F908F907F906F905F904F90089589856D
:100EB0009A85AB85BC850196A11DB11D8417950748
:100EC000A607B70710F3CB88DC88ED88FE888F89EA
:100ED000803109F042C0BB27A72F962F852F4801EC
:100EE00059012A013B01C80ED91EEA1EFB1E809142
:100EF000000290910102A0910202B0910302C81673
:100F0000D906EA06FB0699F58F898031C1F5B30150
:100F1000A201552766277727440F551F4D585C4F70
:100F2000FA019182808280914A03816080934A0312
:100F30008A89823080F08D819E81AF81B8858C0D49
:100F40009D1DAE1DBF1D80934B0390934C03A0933A
:100F50004D03B0934E0381E099CFDB01CA01E7E076
:100F6000B695A79597958795EA95D1F7B8CF40E0C4
:100F7000C701B6010E94BD058111C6CF86CFB3015E
:100F8000A2014F77552766277727440F551F440F37
:100F9000551F4D585C4FFA0180829182A282B38224
:100FA000C2CF8F929F92AF92BF92CF92DF92EF9279
:100FB000FF920F931F93CF93DF93FC01818592855E
:100FC000A385B4850196A11DB11D84179507A607B9
:100FD000B70770F480E0DF91CF911F910F91FF90E0
:100FE000EF90DF90CF90BF90AF909F908F9008953B
:100FF00083889488A588B6888789803189F5BB273E
:10100000A72F962F852FE9016A017B018F01BC0173
:10101000CD01680D791D8A1D9B1D80900002909066
:101020000102A0900202B090030286169706A8065D
:10103000B90601F5F8018789803111F5DD24EE2428
:10104000FF24F601EE0FFF1FED58FC4F80819181C8
:10105000B0E0A0E088839983AA83BB8381E0BBCF03
:10106000DB01CA01C7E0B695A79597958795CA9504
:10107000D1F7C9CF40E00E94BD058111DBCFAACFD7
:10108000E894C7F8DD24EE24FF24F601EE0FFF1FDD
:10109000EE0FFF1FED58FC4F80819181A281B3813B
:1010A000BF70D8CF4F925F926F927F92AF92BF92F4
:1010B000CF92DF92EF92FF920F931F93CF93DF9324
:1010C00000D000D0CDB7DEB78C0149835A836B8343
:1010D0007C835901C12CD12C7601412C82E0582E01
:1010E000612C712C49815A816B817C819E012F5F1B
:1010F0003F4FC8010E94D107882339F1F801858547
:10110000A301920104C0220F331F441F551F8A956B
:10111000D2F7DA01C901C80ED91EEA1EFB1E4981A9
:101120005A816B817C818789803111F188EF9FEF33
:10113000AFEFBFE0481759076A077B0798F2F50140
:10114000C082D182E282F38281E00F900F900F90F3
:101150000F90DF91CF911F910F91FF90EF90DF9053
:10116000CF90BF90AF907F906F905F904F90089519
:1011700088EF9FEFA0E0B0E0DDCF8F929F92AF921B
:10118000BF92CF92DF92EF92FF920F931F93CF9374
:10119000DF93EC018D8181110EC080E0DF91CF9152
:1011A0001F910F91FF90EF90DF90CF90BF90AF9085
:1011B0009F908F9008950B891C892D893E89041773
:1011C00015072607370748F34A015B01823031F4DF
:1011D0008A869B86AC86BD8681E0E0CF811491042F
:1011E000A104B10449F41E821F82188619861A864A
:1011F0001B861C861D86F0CF0A851B852C853D85A8
:10120000EB8DFC8D858590E00996B901A8014150D0
:10121000510961097109082E04C0769567955795A3
:1012200047950A94D2F775016401E1E0CE1AD1081E
:10123000E108F10804C0F694E794D794C7948A951E
:10124000D2F7C416D506E606F70620F0012B022BCE
:10125000032B11F58F89988DA98DBA8D8E839F836D
:10126000A887B9878E010A5F1F4FC114D104E1041A
:10127000F10409F4ADCF4E815F81688579859801CD
:101280008B8D9C8D0E94D10791E0C91AD108E1088D
:10129000F1088111EACF81CFC41AD50AE60AF70A0C
:1012A000E1CF3F924F925F926F927F928F929F9287
:1012B000AF92BF92CF92DF92EF92FF920F931F9364
:1012C000CF93DF93CDB7DEB72C970FB6F894DEBF80
:1012D0000FBECDBF5C01DC015B968D909C905C974E
:1012E00016964D905D906D907C9019974114510425
:1012F0006104710409F468C0BFEF4B1A5B0A6B0A02
:101300007B0A312CF40181859285A385B4859C01EB
:10131000AD012F5F3F4F4F4F5F4F29873A874B8774
:101320005C87730162011D821E821F821886F40190
:1013300081859285A385B4852D813E814F81588515
:10134000281739074A075B0708F056C089859A8530
:10135000AB85BC858C159D05AE05BF0550F482E0BC
:10136000C82ED12CE12CF12C92E0492E512C612C6D
:10137000712C9E012F5F3F4FB701A601C4010E944F
:10138000D1078823C9F189819A81AB81BC81892BDE
:101390008A2B8B2B09F1260137019FEF491A590A35
:1013A000690A790A2D813E814F8158852F5F3F4F11
:1013B0004F4F5F4F2D833E834F8358873FEFC31AB4
:1013C000D30AE30AF30AB3CFF4014080518062806C
:1013D00073803324339496CFC414D504E604F70401
:1013E00009F70FEF1FEF2FEF3FE0B701A601C40190
:1013F0000E942F07811119C080E02C960FB6F89437
:10140000DEBF0FBECDBFDF91CF911F910F91FF9037
:10141000EF90DF90CF90BF90AF909F908F907F9094
:101420006F905F904F903F900895F50146815781EE
:1014300060857185411551056105710539F0970188
:101440008601C4010E942F078823B1F2D5011696A8
:10145000CD92DD92ED92FC921997332051F0D70195
:10146000C6010196A11DB11DF40180839183A28361
:10147000B383F5018789908DA18DB28D892B8A2B3D
:101480008B2B39F4C78AD08EE18EF28E84818068EE
:10149000848381E0B2CFCF93DF93EC018D818823E9
:1014A00089F18C8187FF2AC06E857F85888999891B
:1014B00041E00E94BD05882329F1EA8980E2E89F86
:1014C000F0011124ED58FC4F3097E1F08D8182300E
:1014D00040F48B899C89AD89BE89848F958FA68FB6
:1014E000B78F8F89988D938F828F8F89988DA98DD3
:1014F000BA8DB58BA48B8C818F778C83DF91CF9144
:101500000C94800580E0DF91CF910895CF93DF9315
:10151000EC010E944B0A882311F01D8281E0DF91CB
:10152000CF9108952F923F924F925F926F927F9248
:101530008F929F92AF92BF92CF92DF92EF92FF92E3
:101540000F931F93CF93DF9300D000D0CDB7DEB7BA
:101550008C015B011A01DC0115968C911597813085
:1015600009F0C8C014968C9181FFC4C082FDAEC042
:101570006101D8011A964D915D916D917C911D97F5
:10158000C114D10409F429C15B968D919C915C979B
:10159000FC0174802FEF270D2A013B0139E076947E
:1015A0006794579447943A95D1F7722E74207A0134
:1015B000F1E0FF22711020C0E114F104E9F4169665
:1015C0004D915D916D917C91199741155105610582
:1015D000710509F098C057968D919D910D90BC9121
:1015E000A02D0097A105B10509F0AFC0C8010E9468
:1015F0005109882309F47EC080E092E08E199F098A
:1016000046018C159D0508F44C01D8015B964D915F
:101610005C915C9716968D919D910D90BC91A02D3B
:101620000297A109B109FA01258504C0880F991F05
:10163000AA1FBB1F2A95D2F74685578560897189F5
:10164000840F951FA61FB71F9C01AD01270D311DEB
:10165000411D511D29013A01811432E0930609F020
:101660007AC08091000290910102A0910202B09193
:10167000030284159505A605B70559F48FEF9FEF72
:10168000DC018093000290930102A0930202B093C8
:1016900003029501B301A201809173059091740535
:1016A0000E94EB04882331F19EEFB91AC818D908BB
:1016B000F80182859385A485B585880D991DA11DA6
:1016C000B11D82879387A487B58753CFF8014389DB
:1016D00054896589768982859385A485B58548175F
:1016E00059076A077B0709F443CFC8010E94BD0868
:1016F00081113ECF81E090E0D80113969C938E93A8
:10170000129780E007C09E012F5F3F4F0E94D107D4
:10171000811102C090E077C089819A81AB81BC8140
:10172000F801238D348DF901278948EF5FEF60E0E0
:1017300070E0203121F048EF5FEF6FEF7FE084171A
:101740009507A607B70708F051CFF801868397835E
:10175000A087B18751CFE114F10491F5D8011A9611
:101760004D915D916D917C911D9753968D919D91B9
:101770000D90BC91A02D481759076A077B0700F10F
:101780000E948005882309F4B5CF40920002509250
:101790000102609202027092030280914A0381600A
:1017A00080934A0397012D583C4FD501C901880DFC
:1017B000991DF9018E179F0759F04D914193FACF6A
:1017C00041E0C301B2010E94BD058111EBCF92CF70
:1017D000821B930BA80EB91E69CFF80183899489E7
:1017E000A589B68984179507A607B70738F48481B9
:1017F000438B548B658B768B80688483F80184815E
:1018000083FD18C0C1010F900F900F900F90DF91D2
:10181000CF911F910F91FF90EF90DF90CF90BF90ED
:10182000AF909F908F907F906F905F904F903F9080
:101830002F900895C8010E944B0A882309F45ACFBB
:10184000E1CFCF93DF931F92CDB7DEB7698341E03D
:1018500050E0BE016F5F7F4F0E94920A0F90DF91B0
:10186000CF9108959CB59C7F282F2370922B9CBD0F
:101870009DB59E7F86958695892B8DBD0895FC012B
:10188000DB0112968D919C9113979383828380E262
:1018900092E09183808314968C911497848315969B
:1018A0008C911597858316964D915D916D917C91E4
:1018B000199746835783608771871A964D915D917A
:1018C0006D917C911D9742875387648775871E961B
:1018D0004D915D916D917C91519746875787608BB3
:1018E000718B52968C915297828B53964D915D914C
:1018F0006D917C915697438B548B658B768B579665
:101900004D915D916D917C915A97478B508F618F6E
:10191000728F5B968D919C91948F838F089508951B
:10192000FC01818D928D009711F00C944B0A089563
:10193000DC015996ED91FC913097B9F08389948937
:10194000A589B6894285538564857585841B950B69
:10195000A60BB70B811520E89207A105B10538F059
:101960008FEF9FE7A0E0B0E0089590E080E0089559
:10197000CF93DF93EC01E98DFA8D309749F481E044
:1019800090E09B838A8390E080E0DF91CF9108957F
:1019900013821282898D9A8D0E94920AE98DFA8DA6
:1019A00022813381232B59F7F0CFCF93DF931F92FE
:1019B000CDB7DEB76983DC01ED91FC910280F38144
:1019C000E02D41E050E0BE016F5F7F4F09950F9021
:1019D000DF91CF9108952F923F924F925F926F9235
:1019E0007F928F929F92AF92BF92CF92DF92EF92AF
:1019F000FF920F931F93CF93DF9300D01F92CDB729
:101A0000DEB7FC018581811118C08FEF9FEF0F9029
:101A10000F900F90DF91CF911F910F91FF90EF905A
:101A2000DF90CF90BF90AF909F908F907F906F90FE
:101A30005F904F903F902F900895848180FFE5CF75
:101A4000438954896589768982859385A485B5857E
:101A5000312C212C481759076A077B0719F02224DB
:101A60002394312C6F012101CE0101963C01DF014D
:101A70001696BB83AA834114510409F4C5C0F6012C
:101A800042855385648575854A01F1E09F22D60120
:101A90005B968D919C915C978A019B01E9E036955C
:101AA000279517950795EA95D1F71596EC91E230B1
:101AB000E9F5FC01628D738D848D958D600F711F2A
:101AC000821F931FA12C22E0B22EA818B9084A1435
:101AD0005B0408F45201F601248126FD04C0A11420
:101AE000F2E0BF0671F40091000210910102209112
:101AF000020230910302061717072807390709F079
:101B00005EC040E00E94BD05882309F47ECFC40179
:101B10008D589C4FD3019C012A0D3B1DFC012E17B3
:101B20003F0709F46CC041914D93F9CFDC01149645
:101B3000BC90BA94B0228114910479F4B1100DC014
:101B4000452B462B472B69F5F6018789908DA18D92
:101B5000B28D86839783A087B187D6015B96ED917E
:101B6000FC915C9716966D917D918D919C91199742
:101B70006250710981099109258504C0660F771F9C
:101B8000881F991F2A95D2F70685178520893189E4
:101B9000600F711F821F931F6B0D711D811D911DA1
:101BA00091CFD60116964D915D916D917C911997CB
:101BB0002A813B810E94D1078111CFCF26CF7301AB
:101BC00085019401AB01BC0180917305909174056E
:101BD0000E944904882309F418CF6A0C7B1CF60183
:101BE00082859385A485B5858A0D9B1DA11DB11D98
:101BF00082879387A487B5874A185B083CCF281B48
:101C0000390B620E731EEBCF2A94232809F0FDCE08
:101C1000898190E0FCCEFC01818D928D009711F0BE
:101C20000C94EB0C8FEF9FEF08950F931F93CF93BE
:101C3000DF93EC01898D9A8D10E000E0009799F018
:101C40000E94EB0C8C010F3F100769F0898D9A8D73
:101C5000FC014285538564857585415051096109B0
:101C600071090E94BD08C801DF91CF911F910F91AA
:101C70000895FC01908190539A3008F090E08181A2
:101C800080532AE0929F800D11240895209127030C
:101C9000260F3327331F21323105ECF42091DF0565
:101CA000FC0190E080E0243069F082E00895A0918A
:101CB00027032191AC01495F5C4FA40FB52FB11DE3
:101CC0002C930196861798F380912703680F6093F1
:101CD000270380E0089581E008951092DF0581E0F8
:101CE0008093BE051092B90561E084E10E94300145
:101CF00061E085E10E943001E9EBF0E080818E7FB8
:101D0000808380818D7F808388E48093B80085E420
:101D10008093BC000895CF93DF9391E090930603E6
:101D20008823B9F0C091B800D091BA008091BC006E
:101D30008A7B8093BC0060E084E10E94300160E017
:101D400085E10E9430010E946D0ED093BA00C093CD
:101D5000B800DF91CF910895CF92DF92EF92FF927A
:101D60000F931F93CF93DF93D82FC62F613208F0C4
:101D700098C00E94EB016B017C018091DF0581110D
:101D80006BC081E08093DF058093BE059FEF909349
:101D9000BD051092BC059C0F9093BB058093BA05BE
:101DA0008091BA05DD0FD82BD093BA058091B90583
:101DB000813009F078C01092B9050E94EB016B01E7
:101DC0007C018091BA058093BB008091E1059091E0
:101DD000E205A091E305B091E405892B8A2B8B2BBA
:101DE000A1F00E94EB010091E1051091E205209124
:101DF000E3053091E4056C197D098E099F090617EA
:101E000017072807390708F448C08091BC0083FDF4
:101E1000D8CF85EC8093BC000E94EB016B017C0164
:101E20008091DF05813009F440C08091BC058C179A
:101E300010F4C091BC05E9E9F5E0AFEBB5E080E056
:101E40008C1355C08C2FDF91CF911F910F91FF9074
:101E5000EF90DF90CF9008958091E1059091E20599
:101E6000A091E305B091E405892B8A2B8B2B09F413
:101E700084CF0E94EB010091E1051091E2052091D1
:101E8000E3053091E4056C197D098E099F09061759
:101E900017072807390708F070CF8091E0050E94E6
:101EA0008B0EC0E0CFCF85EEB5CF8091E10590914C
:101EB000E205A091E305B091E405892B8A2B8B2BD9
:101EC00009F4AECF0E94EB010091E1051091E2050B
:101ED0002091E3053091E4056C197D098E099F0975
:101EE000061717072807390708F09ACFD6CF919120
:101EF0009D938F5FA5CF8F929F92AF92BF92CF920B
:101F0000DF92EF92FF920F931F93CF93DF93D091C5
:101F10009805D13208F0D7C0182FC09197050E94BC
:101F2000EB016B017C018091DF0581116BC082E0C8
:101F30008093DF051093BE058FEF8093BD0510924F
:101F4000BC05D093BB05A7E7B5E0E9E9F5E080E083
:101F5000D81391C01092BA058091BA05CC0FC82B46
:101F6000C093BA058091B905813009F088C01092FC
:101F7000B9050E94EB016B017C018091BA05809349
:101F8000BB008091E1059091E205A091E305B0913D
:101F9000E405892B8A2B8B2BA1F00E94EB01009189
:101FA000E1051091E2052091E3053091E4056C19FB
:101FB0007D098E099F09061717072807390708F4B6
:101FC00042C08091BC0083FDD8CF85EC8093BC00DB
:101FD0000E94EB016B017C018091DF05823009F4E6
:101FE00050C08091BD058F3F09F46FC08091BD0541
:101FF000803209F46CC08091BD05803309F469C05A
:1020000084E026C08091E1059091E205A091E3056E
:10201000B091E405892B8A2B8B2B09F484CF0E9485
:10202000EB018090E1059090E205A090E305B0906F
:10203000E4056C197D098E099F0986169706A80686
:10204000B90608F070CF8091E0050E948B0E85E004
:10205000109276051092980510927505DF91CF9138
:102060001F910F91FF90EF90DF90CF90BF90AF90B6
:102070009F908F9008959D9191938F5F69CF85EE8A
:10208000A5CF8091E1059091E205A091E305B09183
:10209000E405892B8A2B8B2B09F49ECF0E94EB0140
:1020A0000091E1051091E2052091E3053091E405EE
:1020B0006C197D098E099F0906171707280739072C
:1020C00008F08ACFC0CF81E0C3CF80E0C1CF82E0EB
:1020D000BFCF83E0BDCF0895E0916103809160039D
:1020E000E81730F4F0E0E154FA4F808190E0089571
:1020F0008FEF9FEF089590916103809160032FEF20
:102100003FEF981748F4E92FF0E0E154FA4F2081AF
:1021100030E09F5F90936103C9010895809160034F
:1021200090916103891B990B0895CF92DF92EF92F2
:10213000FF920F931F93CF93DF937C01CB018A0112
:1021400020917505222389F0EB016B01C40ED51E89
:10215000CC15DD0569F06991D701ED91FC910190F5
:10216000F081E02DC7010995F3CF642F0E94460E40
:10217000C801DF91CF911F910F91FF90EF90DF90F9
:10218000CF900895CF93DF931F92CDB7DEB76983C9
:10219000209175052223F9F020919805203258F0FE
:1021A00021E030E0FC013383228390E080E00F9057
:1021B000DF91CF91089580917605E82FF0E0E958FE
:1021C000FA4F998190838F5F80937605809398056D
:1021D00081E090E0ECCF61E0CE0101960E94460ED6
:1021E000F7CF90E080E00895CF92DF92EF92FF92D8
:1021F0001F93CF93DF93EC0180E2689FF0011124DD
:10220000ED58FC4F9385917161F0842F827449F0F1
:1022100080E0DF91CF911F91FF90EF90DF90CF9002
:102220000895142F6A8B8091000290910102A09171
:102230000202B09103028E879F87A88BB98BC48856
:10224000D588F12CE12C7601DD24CC24CF8AD88EE0
:10225000E98EFA8E828D938DB0E0A0E0AC01BD01D5
:102260004C295D296E297F294F8B588F698F7A8F72
:1022700083858871B1F4848D958DA68DB78D8B8BF8
:102280009C8BAD8BBE8B81E08D831F701C831E8267
:102290001F82188619861A861B861C861D8681E079
:1022A000B8CF803109F0B4CF9E012D5E3F4F8B8DAA
:1022B0009C8D0E945208882309F4AACF84E0E4CFC1
:1022C000FB0101900020E9F73197AF01461B570B46
:1022D000DC01ED91FC910280F381E02D09948F9255
:1022E0009F92AF92BF92EF92FF920F931F93CF9363
:1022F000DF93CDB7DEB7A1970FB6F894DEBF0FBE60
:10230000CDBF7C01FA01CB0119A2223008F42AE0EA
:102310008E010F5D1F4F822E912CB12CA12CBF017D
:10232000A50194010E94861DF901CA016A300CF5CD
:10233000605DD8016E938D01232B242B252B79F71B
:1023400090E080E0109721F0BD01C7010E9460116C
:10235000A1960FB6F894DEBF0FBECDBFDF91CF912F
:102360001F910F91FF90EF90BF90AF909F908F9033
:102370000895695CDECF0F931F93CF93DF93EC0139
:102380000E9460118C016CE472E0CE010E94601129
:10239000800F911FDF91CF911F910F9108953F9270
:1023A0004F925F926F927F928F929F92AF92BF9265
:1023B000CF92DF92EF92FF920F931F93CF93DF9311
:1023C000CDB7DEB72B970FB6F894DEBF0FBECDBFEB
:1023D0007C01FE013196CE010C966F0130E2319303
:1023E000E817F907E1F7DA0130E087E09D91B92EAF
:1023F000992309F43CC09E32F1F48A30C9F480E09C
:102400002B960FB6F894DEBF0FBECDBFDF91CF91F4
:102410001F910F91FF90EF90DF90CF90BF90AF9002
:102420009F908F907F906F905F904F903F90089516
:1024300038E08AE0DBCFE4EEF0E04491442321F081
:1024400031969413FACFDBCF8317C8F24FED490FC3
:102450004E35A8F64FE9490F4A3118F440EEB42E34
:10246000B90EF601E30FF11DB0823F5FBFCF898146
:10247000803229F2322E8B01DB015B968D919C918B
:102480005C97F701948F838F16961D921D921D9273
:102490001C921997FB011286138614861586F80183
:1024A00082859385A485B585438954896589768914
:1024B00084179507A607B70708F04DC025E0B69525
:1024C000A795979587952A95D1F7F82FFF70AF2E8E
:1024D000D80115968C91823008F491CFC8010E94E2
:1024E000EB0C97FD8CCFF80182859385A485B5858B
:1024F0004F96A11DB11D82879387A487B587F0E20F
:10250000AF9EB00111246D587C4F6115710509F41F
:1025100076CFDB018C91882341F0853E09F061C0C4
:10252000BB2029F0BB24B394BACFB1100EC0F70181
:10253000A28A8091000290910102A0910202B091C2
:10254000030286879787A08BB18BDB018C91811169
:10255000E9CFBB24B394832D8271823109F04FCF30
:10256000BB2009F44CC0F701668577858089918985
:1025700041E00E94BD05882309F441CFD70152965E
:102580008C91B0E28B9FC00111248D589C4F009715
:1025900009F435CFFC013A9626E1DF011D922A9518
:1025A000E9F72BE0F601DC0101900D922A95E1F7A5
:1025B00021E238E2FC01318B208B40E058E0578764
:1025C0004687338B228B318F208F578B468B0E940F
:1025D0008005882309F413CF432DD70152966C91BF
:1025E0000AC04BE050E0C6010E947C1F892B09F015
:1025F00056CF432D6A2DC7010E94F41001CFF80178
:102600008581823009F4FBCEC8010E9451098823DC
:1026100009F4F5CED8015B96ED91FC915C97169686
:102620008D909D90AD90BC901997B2E08B1A910857
:10263000A108B108858504C0880C991CAA1CBB1C84
:102640008A95D2F786859785A089B189880E991ECB
:10265000AA1EBB1E848124013501480E511C611C39
:10266000711C84149504A604B70401F1E1E04E1A2C
:102670005108610871080E948005882309F4BFCEC3
:10268000E3E7F3E0119283E795E08E179F07D1F718
:102690004092000250920102609202027092030284
:1026A00080914A03816080934A03DBCFD8015B9617
:1026B000ED91FC91258580E092E0A0E0B0E004C0BF
:1026C000880F991FAA1FBB1F2A95D2F7F8014389CB
:1026D000548965897689840F951FA61FB71F838B40
:1026E000948BA58BB68BD70152961C9283E793E00F
:1026F00051CFEF92FF920F931F93CF93DF93EC0193
:102700007B018A011B821A8288EE93E0A0E0B0E090
:102710008C839D83AE83BF838EE392E0998388830D
:102720008DE190E00E94571E9A8F898F009779F073
:102730002DE1F701DC0101900D922A95E1F74CE0C3
:1027400050E0B801CE010C960E94891F188EDF91CF
:10275000CF911F910F91FF90EF90089585ED809399
:10276000BC008091E1059091E205A091E305B09154
:10277000E4050796A11DB11D23E0B695A795979591
:1027800087952A95D1F72091BC0024FD03C01092B3
:10279000DF0508954091E1055091E2056091E30560
:1027A0007091E405452B462B472B69F30097A10553
:1027B000B10541F025E32A95F1F700000197A10941
:1027C000B109E1CF8091E0050C948B0E1F920F921E
:1027D0000FB60F9211242F933F938F939F93AF9334
:1027E000BF9380916B0390916C03A0916D03B091A6
:1027F0006E0330916A0323E0230F2D3758F50196BD
:10280000A11DB11D20936A0380936B0390936C0309
:10281000A0936D03B0936E0380916F03909170034A
:10282000A0917103B09172030196A11DB11D809317
:102830006F0390937003A0937103B0937203BF91E1
:10284000AF919F918F913F912F910F900FBE0F905D
:102850001F90189526E8230F0296A11DB11DD2CF17
:102860001F920F920FB60F9211240BB60F922F9357
:102870003F934F935F936F937F938F939F93AF9308
:10288000BF93EF93FF9385EE95E00E949902FF912D
:10289000EF91BF91AF919F918F917F916F915F91D8
:1028A0004F913F912F910F900BBE0F900FBE0F9045
:1028B0001F9018951F920F920FB60F9211240BB60E
:1028C0000F922F938F939F93EF93FF93E091F505D2
:1028D000F091F6058081E091FB05F091FC0582FD09
:1028E0001DC090818091FE058F5F8F732091FF0541
:1028F000821741F0E091FE05F0E0EB51FA4F958F21
:102900008093FE05FF91EF919F918F912F910F90F2
:102910000BBE0F900FBE0F901F9018958081F2CFC5
:102920001F920F920FB60F9211240BB60F922F9396
:102930003F934F935F936F937F938F939F93AF9347
:10294000BF93EF93FF938091B900887F803609F49D
:102950004DC008F040C0883209F4A9C028F5803184
:1029600009F49DC0C8F4882309F4FBC0883009F439
:1029700096C0FF91EF91BF91AF919F918F917F9101
:102980006F915F914F913F912F910F900BBE0F90E0
:102990000FBE0F901F901895883109F488C08032BF
:1029A00041F78093BD0514C0803409F49DC040F404
:1029B0008033B9F38833E9F68093BD0585ECB0C068
:1029C000803509F485C0883509F496C0883489F6C5
:1029D0000E94AE13CECF883909F48CC038F5883701
:1029E00029F050F4883611F0803719F683E080938F
:1029F000DF051092490357C0883809F47BC080393D
:102A000019F0803809F0B5CF80914903803208F081
:102A100071C0E091490381E08E0F8093490380915A
:102A2000BB00F0E0E75DFC4F80833DC0803B39F0A8
:102A3000E0F4803A09F479C0883A09F09ACF84E04A
:102A40008093DF051092280310922703E0914F0333
:102A5000F091500309958091270381110FC081E007
:102A6000809327031092070309C0803C09F4A6CF86
:102A7000883C09F4A3CF883B09F07BCFE091280381
:102A800081E08E0F80932803F0E0E95FFC4F8081A6
:102A90008093BB00909128038091270329C08091E7
:102AA000BA058093BB0085EC8093BC0062CF909107
:102AB000BC058091BB05981758F5E091BC0581E0F5
:102AC0008E0F8093BC05F0E0E756FA4F8081E9CF86
:102AD000E091BC0581E08E0F8093BC058091BB0026
:102AE000F0E0E756FA4F80839091BC058091BB05DA
:102AF0009817C8F285E8D8CFE091BC0581E08E0F29
:102B00008093BC058091BB00F0E0E756FA4F8083CC
:102B10008091BE0581115CCF81E08093B90584EA84
:102B20008093BC001092DF0524CF85EC8093BC001D
:102B30001092DF0580914903803230F4E09149031F
:102B4000F0E0E75DFC4F10826091490370E0E09196
:102B50005103F091520389E293E0099510924903E1
:102B600008CF1092BD0534CF1092E8051092E7050A
:102B700088EE93E0A0E0B0E08093E9059093EA0549
:102B8000A093EB05B093EC052EE032E03093E60520
:102B90002093E50525EC30E03093F2052093F10514
:102BA00024EC30E03093F4052093F30520EC30E082
:102BB0003093F6052093F50521EC30E03093F805CD
:102BC0002093F70522EC30E03093FA052093F905C5
:102BD00026EC30E03093FC052093FB051092FE05B7
:102BE0001092FF05109200061092010610928706BF
:102BF0001092880610928B0610928D0642E050E0EB
:102C000060E070E040938F065093900660939106C9
:102C1000709392061092A6061092B0061092AF061C
:102C200020E232E03093AE062093AD061092B20659
:102C30001092CF061092CE068093D0069093D106C4
:102C4000A093D206B093D3062CE232E03093CD06A7
:102C50002093CC061092E1061092E0068093E206E3
:102C60009093E306A093E406B093E5068EE392E02A
:102C70009093DF068093DE061092F8061092F70616
:102C80001092EA061092DD061092DC061092DB0626
:102C90001092D806EAEFF1E081E08C3049F094918F
:102CA000823009F49F5F21E0280F3196992331F09B
:102CB0008093D90681E08093DA060895822FEDCFC4
:102CC000CF93DF93CDB7DEB7C257D1090FB6F894D3
:102CD000DEBF0FBECDBF789484B5826084BD84B55D
:102CE000816084BD85B5826085BD85B5816085BD07
:102CF00080916E00816080936E00109281008091BF
:102D00008100826080938100809181008160809346
:102D10008100809180008160809380008091B1006B
:102D200084608093B1008091B00081608093B00096
:102D300080919100826080939100809191008160E8
:102D400080939100809190008160809390008091A9
:102D5000A10082608093A1008091A1008160809396
:102D6000A1008091A00081608093A000809121014A
:102D700082608093210180912101816080932101F3
:102D80008091200181608093200180917A0084608D
:102D900080937A0080917A00826080937A0080919B
:102DA0007A00816080937A0080917A0080688093B5
:102DB0007A001092C100E091F505F091F60582E0ED
:102DC0008083E091F105F091F2051082E091F30526
:102DD000F091F4058FEC80831092FD05E091F905E8
:102DE000F091FA0586E08083E091F705F091F8050F
:102DF000808180618083E091F705F091F805808102
:102E000088608083E091F705F091F8058081806803
:102E10008083E091F705F091F80580818F7D8083B4
:102E200010926103109298050E946D0E8CE192E061
:102E30009093500380934F038DE192E0909352035F
:102E4000809351030E946D0E08E60093970581E080
:102E50000E947B0FBB24B394B09275051092760547
:102E60001092980560E08CEC96E00E94C21081E020
:102E70000E947B0F61E088E60E94AC0E80936003A5
:102E80008CEC96E00E947B1087FF7BC06FE472E0C1
:102E900085EE95E00E94BB1183E792E00E94390E17
:102EA000182F8EE692E00E94390EF82E86E792E007
:102EB0000E94390EE82E89E792E00E94390ED82E42
:102EC0008CE792E00E94390EC82EB09275050093EF
:102ED0009705109276051092980560E08CEC96E0CC
:102EE0000E94C2100AE08C2D602F0E947A1D682F6C
:102EF000660F680F660F6C0D8CEC96E00E94C21096
:102F00008D2D602F0E947A1D682F660F680F660F47
:102F10006D0D8CEC96E00E94C2108E2D602F0E94E9
:102F20007A1D682F660F680F660F6E0D8CEC96E0A9
:102F30000E94C21060E08CEC96E00E94C2108F2DBF
:102F4000602F0E947A1D682F660F680F660F6F0D45
:102F50008CEC96E00E94C21067E08CEC96E00E9438
:102F6000C210812F602F0E947A1D682F660F680F94
:102F7000660F610F8CEC96E00E94C21081E00E9407
:102F80007B0F6FE772E085EE95E00E94BB11109217
:102F90008D0610928B06109288061092870610926A
:102FA0008E068AE0809386068FEF80935F0380937E
:102FB0005E0380935D030E9410028B0161E08091AB
:102FC00086060E94BA0182E896E00E945903FFB685
:102FD000F89480915303811127C0EDE5F1E08491CD
:102FE000E3EAF1E09491E82FF0E0EE0FFF1FEC50E0
:102FF000FF4FA591B491EC91E92321F461E085E3C1
:103000000E94300161E085E30E94BA018CB58061C5
:103010008CBD8CB580648CBD61E084E30E94BA01F4
:1030200061E083E30E94BA01809153038F5F809334
:103030005303FFBE83E00E94320C8AE0F82E8FEF2C
:103040000E94AE03FA94F110FACF60E080918606F8
:103050000E94300120E030E0A90160E082E896E0C3
:103060000E94EB03F82E80938C0621E0821709F46E
:10307000CAC00E941002601B710B613D774050F383
:1030800081E08093870682E896E00E9459036BE90D
:1030900072E085EE95E00E94BB110E9410026093E1
:1030A00066037093670380936803909369036B01D1
:1030B0007C0124EFC20E21E0D21EE11CF11C0E9413
:1030C00010026C157D058E059F05C8F3812C912C8F
:1030D000540164EE72E085EE95E00E9460116BEEA3
:1030E00072E085EE95E00E9460112AE0B501A4012E
:1030F00085EE95E00E946F1160EF72E085EE95E03D
:103100000E94601180917B00877F80937B00882DD7
:10311000806480937C0080917A00806480937A0040
:1031200080917A0086FDFCCF8091780060917900D3
:10313000762F682F072E000C880B990B0E94431CDA
:103140002AE038E240EA5BE30E94A21C6B017C01AA
:1031500020E030E040EA50E40E944D1E18160CF4C6
:1031600004C3C0926203D0926303E0926403F092BE
:103170006503C0906203D0906303E0906403F09015
:103180006503A7019601C701B6010E94521E69EFAF
:1031900072E081111BC026013701E89477F82FEF08
:1031A0003FEF4FE75FE7C301B2010E94521E81115A
:1031B000E5C22FEF3FEF4FE75FE7C301B2010E9487
:1031C0003C1C18160CF0DAC26DEF72E085EE95E04B
:1031D0000E94601184E08816910431F46CE472E07E
:1031E00085EE95E00E9460112FEF821A920AA20AE2
:1031F000B20A85E088169104A104B10409F069CFF0
:103200000E9428034ACF2AEA31E040E050E068E01B
:1032100082E896E00E94EB0382FF2AC0F0928D06BE
:1032200080918D06C12CD12C7601823029F4C12CDD
:10323000D12CE12CA0E4FA2E20E030E0A90167E3D4
:1032400082E896E00E94EB03A701960169E282E81A
:1032500096E00E94EB0380938C068823D1F00E94B5
:103260001002601B710B613D774030F388E009CF9D
:10327000B4E0FB2E0E945E0380938C06FA94F1105A
:10328000F9CF8A3A11F082E0FCCE82E080938D067D
:10329000C7CF80918D068230D1F420E030E0A901C3
:1032A0006AE382E896E00E94EB03882311F086E04F
:1032B000E8CE0E945E03807C803C19F483E080931A
:1032C0008D060E945E030E945E030E945E0382E8F8
:1032D00096E00E94590380915D038F3F19F480E0CE
:1032E0000E94320C81E00E940606882309F4DFC1A7
:1032F0008091B2068111CBCE8091A606803109F073
:10330000DDC182E08093B2061092C4061092C50619
:103310001092C6061092C7068091A7069091A80643
:10332000B0E0A0E0F5E0880F991FAA1FBB1FFA9537
:10333000D1F78093C0069093C106A093C206B093C4
:10334000C3068FE896E09093C9068093C80611E003
:103350001093B1061092B3061092B4061092B506FF
:103360001092B6061092B7061092B8061092B906DF
:103370001092BA061092BB061092BC061092BD06BF
:103380001092BE061092BF066FE872E085EE95E0DF
:103390000E94BB111093750588E6809397051092E3
:1033A00076051092980560E08CEC96E00E94C210C1
:1033B00081E00E947B0F67E088E60E94AC0E1092CD
:1033C0006103809360038CEC96E00E947B108F7702
:1033D000282F30E094E0359527959A95E1F7922FC4
:1033E000990F990F122F191B110F180F8CEC96E0E3
:1033F0000E947B109C0144E0359527954A95E1F7A2
:103400002F703327922F990F990F022F091B000F4E
:10341000080F8CEC96E00E947B109C0154E03595DF
:1034200027955A95E1F72F703327922F990F990F0F
:10343000F22EF91AFF0CF80E8CEC96E00E947B102D
:103440008CEC96E00E947B109C0164E035952795FA
:103450006A95E1F72F703327922F990F990FE22E7B
:10346000E91AEE0CE80E8CEC96E00E947B109C01B1
:1034700074E0359527957A95E1F72F703327922FD1
:10348000990F990FD22ED91ADD0CD80E8CEC96E03C
:103490000E947B109C01E4E035952795EA95E1F7C1
:1034A0002F703327922F990F990F291B220F820F0C
:1034B0008093D806D092D906E092DA06F092DB0625
:1034C0000093DC061093DD066DEA76E0CE010196EE
:1034D0000E943F0CBE016F5F7F4FCE01CB960E94D2
:1034E0003F0C19A218A280E292E09F8F8E8F1BA240
:1034F00021968FAD2197811100C16C961FAE1EAE33
:103500006C9788EE93E0A0E0B0E0A0968CAF9DAF02
:10351000AEAFBFAFA0978EE392E06A969FAF8EAF3B
:103520006A97E3961FAE1EAEE397A5961FAEA597CA
:103530006C968EAD9FAD6C979093E1068093E006FC
:10354000A0968CAD9DADAEADBFADA0978093E206C9
:103550009093E306A093E406B093E506A4968CADA1
:103560009DADAEADBFADA4978093E6069093E70600
:10357000A093E806B093E906A8E5B0E0AC0FBD1F44
:103580001C96EAEEF6E08D91819386E0E73FF8071E
:10359000D1F7E3968EAD9FADE3979093F8068093B5
:1035A000F70665EC72E08EED96E00E9460114091A6
:1035B000DA0650E070E060E02AE08EED96E00E94CE
:1035C0006F116FE28EED96E00E941E024091D906C7
:1035D00050E070E060E02AE08EED96E00E946F110E
:1035E0006FE28EED96E00E941E024091D80650E0F8
:1035F0004053584F70E060E02AE08EED96E00E9464
:103600006F1160EE72E08EED96E00E94BB116EEDE0
:1036100072E08EED96E00E9460114091DB0650E072
:1036200070E060E02AE08EED96E00E946F1162EE9D
:1036300072E08EED96E00E9460114091DC0650E051
:1036400070E060E02AE08EED96E00E946F1162EE7D
:1036500072E08EED96E00E9460114091DD0650E030
:1036600070E060E02AE08EED96E00E946F116CE45D
:1036700072E08EED96E00E94601160EE72E08EEDD9
:1036800096E00E94BB118091F7069091F806009792
:1036900009F403CD0E94860A8091F7069091F806FE
:1036A0000E94F31E1092F8061092F706F6CC80E006
:1036B0000E940606882309F4EACC1ACE803209F06B
:1036C000E6CC83E08093B2064091A9065091AA0609
:1036D0006091AB067091AC064093C4065093C5064A
:1036E0006093C6067093C70620EC36E08FE896E03C
:1036F0000E945208811125CECACC825023E14DEBA5
:1037000052E0823018F56DEA76E0CE014E960E94C6
:10371000CF11882309F4F1CE49A95AA96BA97CA934
:10372000CE014E960E94BD08BE01625E7F4FCE0163
:1037300001960E943F0C4DEB52E0BE016F5F7F4F40
:10374000CE01885A9F4F0E947913F2CEBE01655C6C
:103750007F4FCE014E960E94CF11882309F4CDCE23
:10376000CE01CB960E94860AD7CF109262031092A8
:1037700063031092640310926503FBCC2FEF3FEFBD
:103780004FE75FE4C701B6010E944D1E18161CF4F6
:1037900061E073E01BCD2FEF3FEF4FE75FECC70118
:1037A000B6010E943C1C87FDF3CF20E030E0A90168
:1037B000C701B6010E943C1C87FF09C06DE285EE7F
:1037C00095E00E941E02F7FAF094F7F8F0942AE0D0
:1037D00037ED43EA5BE3C701B6010E94B21D2B013E
:1037E0003C010E941E1E6B017C010E94411C9B013A
:1037F000AC01C301B2010E94B11D2B013C012AE0C2
:10380000B701A60185EE95E00E946F116EE285EE8C
:1038100095E00E941E0220E030E040E251E4C30146
:10382000B2010E94A21C2B013C010E941E1E6B01D2
:10383000F12CE12C2AE0B701A60185EE95E00E946B
:103840006F11C701B6010E94411C9B01AC01C3016D
:10385000B2010E94B11D20E030E040E251E40E943C
:10386000A21C0E941E1EAB0170E060E02AE085EE03
:1038700095E00E946F11AECC0E947E1C08F481E09E
:103880000895E89409C097FB3EF490958095709553
:1038900061957F4F8F4F9F4F9923A9F0F92F96E99C
:1038A000BB279395F695879577956795B795F11111
:1038B000F8CFFAF4BB0F11F460FF1BC06F5F7F4FAE
:1038C0008F4F9F4F16C0882311F096E911C07723C0
:1038D00021F09EE8872F762F05C0662371F096E8C9
:1038E000862F70E060E02AF09A95660F771F881F98
:1038F000DAF7880F9695879597F90895990F00083C
:10390000550FAA0BE0E8FEEF16161706E807F907B1
:10391000C0F012161306E407F50798F0621B730B4C
:10392000840B950B39F40A2661F0232B242B252BCD
:1039300021F408950A2609F4A140A6958FEF811D70
:10394000811D08950E94B51C0C94261D0E94181D0F
:1039500038F00E941F1D20F0952311F00C940F1DCC
:103960000C94151D11240C945A1D0E94371D70F3E0
:10397000959FC1F3950F50E0551F629FF001729F14
:10398000BB27F00DB11D639FAA27F00DB11DAA1F23
:10399000649F6627B00DA11D661F829F2227B00D70
:1039A000A11D621F739FB00DA11D621F839FA00DFB
:1039B000611D221F749F3327A00D611D231F849F4B
:1039C000600D211D822F762F6A2F11249F575040A2
:1039D0009AF0F1F088234AF0EE0FFF1FBB1F661F1D
:1039E000771F881F91505040A9F79E3F510580F0E6
:1039F0000C940F1D0C945A1D5F3FE4F3983ED4F3D2
:103A0000869577956795B795F795E7959F5FC1F789
:103A1000FE2B880F911D9695879597F9089597F934
:103A20009F6780E870E060E008959FEF80EC089564
:103A300000240A941616170618060906089500248D
:103A40000A9412161306140605060895092E039407
:103A5000000C11F4882352F0BB0F40F4BF2B11F47B
:103A600060FF04C06F5F7F4F8F4F9F4F089557FDDA
:103A70009058440F551F59F05F3F71F04795880FDC
:103A800097FB991F61F09F3F79F087950895121673
:103A900013061406551FF2CF4695F1DF08C016161F
:103AA00017061806991FF1CF8695710561050894D0
:103AB0000895E894BB2766277727CB0197F90895E7
:103AC0000E946B1DA59F900DB49F900DA49F800D2B
:103AD000911D11240895A29FB001B39FC001A39F1F
:103AE000700D811D1124911DB29F700D811D112437
:103AF000911D0895991B79E004C0991F961708F04D
:103B0000961B881F7A95C9F780950895A1E21A2E11
:103B1000AA1BBB1BFD010DC0AA1FBB1FEE1FFF1F71
:103B2000A217B307E407F50720F0A21BB30BE40BC1
:103B3000F50B661F771F881F991F1A9469F7609508
:103B40007095809590959B01AC01BD01CF010895C2
:103B5000EE0FFF1F0024001C0BBE0790F691E02D16
:103B600009945058BB27AA270E94C91D0C94261DF2
:103B70000E94181D38F00E941F1D20F039F49F3F4D
:103B800019F426F40C94151D0EF4E095E7FB0C9443
:103B90000F1DE92F0E94371D58F3BA1762077307EC
:103BA0008407950720F079F4A6F50C94591D0EF4BE
:103BB000E0950B2EBA2FA02D0B01B90190010C013D
:103BC000CA01A0011124FF27591B99F0593F50F455
:103BD000503E68F11A16F040A22F232F342F4427AD
:103BE000585FF3CF469537952795A795F0405395A5
:103BF000C9F77EF41F16BA0B620B730B840BBAF075
:103C00009150A1F0FF0FBB1F661F771F881FC2F7DF
:103C10000EC0BA0F621F731F841F48F487957795F3
:103C20006795B795F7959E3F08F0B0CF9395880FAD
:103C300008F09927EE0F9795879508950E943F1DEC
:103C400088F09F5798F0B92F9927B751B0F0E1F05D
:103C5000660F771F881F991F1AF0BA95C9F714C00D
:103C6000B13091F00E94591DB1E008950C94591D96
:103C7000672F782F8827B85F39F0B93FCCF3869546
:103C800077956795B395D9F73EF4909580957095A3
:103C900061957F4F8F4F9F4F08950E947E1C08F4BF
:103CA0008FEF08950E947E1C880B990B08950F9347
:103CB0001F93CF93DF938230910510F482E090E060
:103CC000E091FB06F091FC0630E020E0B0E0A0E0DF
:103CD000309799F42115310509F44AC0281B390B96
:103CE00024303105D8F58A819B816115710589F1F0
:103CF000FB0193838283FE0111C0408151810281C7
:103D0000138148175907E0F04817590799F410979D
:103D100061F012960C93129713961C933296CF0172
:103D2000DF91CF911F910F9108950093FB0610939F
:103D3000FC06F4CF2115310551F04217530738F036
:103D4000A901DB019A01BD01DF01F801C1CFEF013B
:103D5000F9CF9093FC068093FB06CDCFFE01E20FD6
:103D6000F31F819391932250310939832883D7CF50
:103D70002091F9063091FA06232B41F42091060296
:103D8000309107023093FA062093F906209104023D
:103D9000309105022115310541F42DB73EB7409110
:103DA000080250910902241B350BE091F906F091AD
:103DB000FA06E217F307A0F42E1B3F0B281739076A
:103DC00078F0AC014E5F5F4F2417350748F04E0F77
:103DD0005F1F5093FA064093F906819391939FCF0A
:103DE000F0E0E0E09CCFCF93DF930097E9F0FC0197
:103DF000329713821282A091FB06B091FC06ED016E
:103E000030E020E01097A1F420813181820F931FD0
:103E10002091F9063091FA062817390709F061C098
:103E2000F093FA06E093F906DF91CF910895EA0145
:103E3000CE17DF07E8F54A815B819E0141155105E8
:103E4000B1F7E901FB83EA8349915991C40FD51F6A
:103E5000EC17FD0761F4808191810296840F951F14
:103E6000E90199838883828193819B838A83F0E02F
:103E7000E0E012968D919C9113970097B9F52D91E2
:103E80003C911197CD010296820F931F2091F90664
:103E90003091FA062817390739F6309751F5109204
:103EA000FC061092FB06B093FA06A093F906BCCF6D
:103EB000D383C28340815181840F951FC817D907CE
:103EC00061F44E5F5F4F88819981480F591F51837C
:103ED00040838A819B81938382832115310509F078
:103EE000B0CFF093FC06E093FB069ECFFD01DC0112
:103EF000C0CF13821282D7CFFB01DC0104C08D91A9
:103F00000190801921F441505040C8F7881B990B4B
:103F10000895FB01DC014150504048F001900D92A2
:103F20000020C9F701C01D9241505040E0F70895AC
:043F3000F894FFCF33
:103F3400FFFFFFFF0000FD06800000000000BB0241
:103F44002502520208038302610275020000000088
:103F5400210C2502F1108F0C00000000C2109510F6
:103F6400F1106B108E107B106C1000000000D50C4B
:103F7400B80CF110900C980C0B0E150E0D0A005293
:103F84005443206EC3A36F20657374612066756EFD
:103F940063696F6E616E646F21004A756C20313203
:103FA40020323032310031353A31313A3538004936
:103FB4006E696369616E646F2053442E2E2E005324
:103FC4004420696E69636961646F0046616C68616D
:103FD400206E6F2053442C206F75206E616F206516
:103FE40073746120696E73657269646F006C6F67C6
:103FF4002E74787400496EC3AD6E63696F2064617A
:10400400206772617661C3A7C3A36F3A2000202D95
:1040140020003A002050686F746F00202D3E20006D
:104024002056616C6F723A20006E616E00696E6694
:06403400006F766600003B
:00000001FF
