:100000000C946C000C9494000C9494000C94940048
:100010000C9494000C9494000C9494000C94940010
:100020000C9494000C9494000C9494000C94940000
:100030000C9494000C9494000C9494000C949400F0
:100040000C94E5160C9494000C9455170C942F17EF
:100050000C9494000C9494000C9494000C949400D0
:100060000C9487170C9494007C3C3E5E2B3D3F2FF4
:100070005B5D3B2C2A225C0000000000240027006E
:100080002A0000000000250028002B0004040404BE
:100090000404040402020202020203030303030332
:1000A000010204081020408001020408102001020F
:1000B00004081020000000080002010000030407EB
:1000C00000000000000000001F1C1F1E1F1E1F1F3D
:1000D0001E1F1E00A618241F11241FBECFEFD8E03C
:1000E000DEBFCDBF26E0AAE5B2E001C01D92A53774
:1000F000B207E1F712E0A0E0B1E0E8ECF8E402C0FA
:1001000005900D92AA35B107D9F710E0CBE6D0E003
:1001100004C02197FE010E94D020CA36D107C9F73A
:100120000E949A190C9457240C9400000895089585
:1001300090E0FC01EC54FF4F2491FC01E056FF4F8E
:100140003491FC01E457FF4FE491EE23C9F02223E0
:1001500039F0233001F1A8F4213019F1223029F1CE
:10016000F0E0EE0FFF1FEE57FF4FA591B4918FB750
:10017000F894EC91611126C030953E233C938FBFDB
:1001800008952730A9F02830C9F0243049F780912C
:1001900080008F7D03C0809180008F7780938000E6
:1001A000DFCF84B58F7784BDDBCF84B58F7DFBCF68
:1001B0008091B0008F778093B000D2CF8091B00053
:1001C0008F7DF9CF3E2BDACFCF93DF9390E0FC0108
:1001D000E056FF4F249184579F4FFC018491882360
:1001E000D1F090E0880F991FFC01E858FF4FA591CE
:1001F000B491FC01EE57FF4FC591D49161110EC02F
:100200009FB7F8948C91E22FE0958E238C932881F0
:10021000E223E8839FBFDF91CF9108958FB7F894D1
:10022000EC91E22BEC938FBFF6CF3FB7F89480911F
:10023000D1029091D202A091D302B091D40226B5FE
:10024000A89B05C02F3F19F00196A11DB11D3FBF0E
:10025000BA2FA92F982F8827BC01CD01620F711DDD
:10026000811D911D42E0660F771F881F991F4A95D7
:10027000D1F708952FB7F8946091CD027091CE0216
:100280008091CF029091D0022FBF0895DC01ED91B3
:10029000FC910190F081E02D0994AF92BF92CF9232
:1002A000DF92EF92FF920F931F93CF93DF936C0136
:1002B0007B018B01040F151FEB015E01AE18BF0817
:1002C000C017D10759F06991D601ED91FC910190C9
:1002D000F081E02DC6010995892B79F7C501DF91E1
:1002E000CF911F910F91FF90EF90DF90CF90BF9033
:1002F000AF900895FC01538D448D252F30E0842F5D
:1003000090E0821B930B541710F0CF96089501973D
:100310000895FC01918D828D981761F0A28DAE0F2A
:10032000BF2FB11D5D968C91928D9F5F9F73928FB1
:1003300090E008958FEF9FEF0895FC01918D828DDD
:10034000981731F0828DE80FF11D858D90E00895AA
:100350008FEF9FEF0895FC01918D228D892F90E002
:10036000805C9F4F821B91098F739927089587E5C1
:1003700095E00E94AB0121E0892B09F420E0822F57
:10038000089580E090E0892B29F00E94B701811147
:100390000C9400000895FC01A48DA80FB92FB11D85
:1003A000A35ABF4F2C91848D90E001968F739927AB
:1003B000848FA689B7892C93A089B1898C91837089
:1003C00080648C93938D848D981306C00288F38982
:1003D000E02D80818F7D80830895EF92FF920F93AF
:1003E0001F93CF93DF93EC0181E0888F9B8D8C8DE1
:1003F00098131AC0E889F989808185FF15C09FB7D5
:10040000F894EE89FF896083E889F9898081837097
:10041000806480839FBF81E090E0DF91CF911F9146
:100420000F91FF90EF900895F62E0B8D10E00F5F67
:100430001F4F0F731127E02E8C8D8E110CC00FB63D
:1004400007FCFACFE889F989808185FFF5CFCE01D5
:100450000E94CB01F1CFEB8DEC0FFD2FF11DE35A84
:10046000FF4FF0829FB7F8940B8FEA89FB89808158
:100470008062CFCFCF93DF93EC01888D8823B9F0D2
:10048000AA89BB89E889F9898C9185FD03C080819F
:1004900086FD0DC00FB607FCF7CF8C9185FFF2CF1C
:1004A000808185FFEDCFCE010E94CB01E9CFDF91A6
:1004B000CF91089561E0FC0184810C9498008091B3
:1004C000C1028F3F39F48EBD00000DB407FEFDCF91
:1004D0008EB50895F894E091BC02F091BD02808140
:1004E0009091BB02892B808328E080E0E091BF02DD
:1004F000F091C00230819091BE02392B3083880F79
:10050000A091B902B091BA023C914091B802342353
:1005100009F0816030819095932390830000000062
:10052000215021F7789408950F931F93CF93DF9371
:10053000EC010E943A018B010E945F028F3F69F03B
:100540000E943A01601B710B6C177D07A8F380E0D5
:10055000DF91CF911F910F91089581E0F9CF909194
:10056000C1029F3F39F48EBD00000DB407FEFDCFE0
:100570008EB50895F894E091BF02F091C0023091D9
:10058000BE02532F5095A091BC02B091BD02409184
:10059000BB02642F609598E02081252320832C9155
:1005A00087FF18C0242B2C932081232B2083880FB6
:1005B000915091F70000000000000000E091BF02A0
:1005C000F091C00290818091BE0280958923808342
:1005D000789408952623E7CF8F929F92AF92BF928F
:1005E000FF920F931F93CF93DF93EC01F62E4901F7
:1005F0005A018E81882389F08F8198859C012F5F15
:100600003F4F38872F838230924018F40E945F0258
:10061000F3CFCE010E945A021E8260E08C810E94BC
:1006200098008CE291E00E9494028F2D80640E94D9
:10063000AF0208E110E0D501C401002E04C0B69558
:10064000A795979587950A94D2F70E94AF02085014
:100650001109083F8FEF180771F785E9FF2021F096
:1006600028E087E8F2128FEF0E94AF0210E00E94AC
:100670005F028A8787FF04C01F3F11F01F5FF7CF1B
:10068000DF91CF911F910F91FF90BF90AF909F90FE
:100690008F900895AF92BF92CF92DF92EF92FF9228
:1006A0000F931F93CF93DF93EC016901C801820F71
:1006B000931F8130924050F58E81882379F0888194
:1006C0009981AA81BB8184179507A607B70731F4E2
:1006D0008F819885C816D90608F042C0488359838F
:1006E0006A837B838B85833039F089E0440F551F03
:1006F000661F771F8A95D1F79A01AB0161E1CE01A0
:100700000E94EC02882389F083E08D83CE010E9451
:100710005A0280E0DF91CF911F910F91FF90EF90EF
:10072000DF90CF90BF90AF9008950E943A015B0197
:100730000E945F028A878F3F69F40E943A016A191A
:100740007B096D327140A0F38FE08D83CE010E9452
:100750005A02DCCF8E3F89F418861F8281E08E8397
:100760008F8198858C159D0550F40E945F028F81C2
:100770009885019698878F83F3CF8DE0E6CF670148
:10078000E00EF11E0E945F02F60181936F01EE15EB
:10079000FF05C1F78F819885080F191F18870F83F0
:1007A0008985882319F001151240A0F08E818823D5
:1007B00089F08F8198859C012F5F3F4F38872F8369
:1007C0008230924018F40E945F02F3CFCE010E9463
:1007D0005A021E8281E09ECFCF92DF92EF92FF926B
:1007E0000F931F93CF93DF93EC01690182E14115D1
:1007F00051056105710599F08B85833039F0E9E089
:10080000440F551F661F771FEA95D1F79A01AB0178
:1008100068E1CE010E94EC02882319F084E08D8308
:1008200058C08C8596013E5F79010FEF1FEF88233A
:1008300019F1F60110E000E0819190E081279C0120
:1008400044E0359527954A95E1F782279327102FA5
:100850000027082719279C01322F22273295307F45
:100860000227132775E0880F991F7A95E1F708276B
:100870001927EE16FF0601F78EEF0E94AF02F60170
:1008800081916F010E94AF02EC14FD04C1F7812F2A
:100890000E94AF02802F0E94AF020E945F028A87EF
:1008A0008F71853089F488E592E00E949402882354
:1008B000A9F020E030E0A9016DE0CE010E94EC0239
:1008C000882371F084E1ABCF81E18D83CE010E945A
:1008D0005A02CE010E945A0280E00AC085E19FCFF1
:1008E0000E945F028111EECFCE010E945A0281E088
:1008F000DF91CF911F910F91FF90EF90DF90CF90FC
:100900000895CF93DF938091B2028823A9F1C0911B
:10091000D904D091DA044091000150910101609115
:1009200002017091030129ED32E0CE010E94EC0337
:10093000811104C080E0DF91CF9108954091B3020E
:100940005091B4026091B5027091B6024115510503
:100950006105710579F029ED32E0CE010E94EC03CA
:10096000882341F31092B3021092B4021092B502A0
:100970001092B6021092B20281E0DDCF8F929F9268
:10098000AF92BF92EF92FF920F931F93CF934B01C1
:100990005C01C42F8091000190910101A09102019E
:1009A000B091030188159905AA05BB0549F10E947C
:1009B000810481110BC080E0CF911F910F91FF90B6
:1009C000EF90BF90AF909F908F90089589EDE82EA3
:1009D00082E0F82E00E012E030E020E0B501A40152
:1009E0008091D9049091DA040E944A03882319F374
:1009F0008092000190920101A0920201B092030145
:100A00004091B2024C2B4093B20281E0D5CF8F923D
:100A10009F92AF92BF92CF92DF92EF92FF92CF93CD
:100A200024EF35E03093DA042093D904882309F4C5
:100A30006DC040E060E070E0CB010E94BE04811117
:100A40000BC080E0CF91FF90EF90DF90CF90BF90F0
:100A5000AF909F908F900895809197048F7789F73A
:100A60008091A3049091A404A091A504B091A60440
:100A700084369105A105B10520F3C0909F04D09064
:100A8000A004E090A104F090A204C114D104E104F8
:100A9000F104B9F240E0C701B6010E94BE04882308
:100AA00081F28091E4029091E5028115924049F62D
:100AB000A091E902AA2329F26091E7027091E8026D
:100AC0006115710509F4BDCF2091E602222309F4D6
:100AD000B8CFA09313062093050690E080E030E0A5
:100AE000E1E0F0E0C82FAF01082E02C0440F551F0F
:100AF0000A94E2F72417350769F041E0480F0196A0
:100B00008930910579F740930E069BCFC12CD12CEB
:100B10007601C0CF80930E062091EF023091F00253
:100B200050E040E02115310541F42091FD02309163
:100B3000FE024091FF02509100032093060630937D
:100B40000706409308065093090646015701860E92
:100B5000971EA11CB11C8092140690921506A092BB
:100B60001606B0921706E091EA02F091EB02F093BC
:100B70001A06E0931906B0E00E945120DC01CB0177
:100B8000880D991DAA1DBB1D80931B0690931C0602
:100B9000A0931D06B0931E0625E0EE0FFF1F2A95B9
:100BA000E1F7E150FE4FEF2FFF27E6958E0F9F1FD5
:100BB000A11DB11D80930F0690931006A0931106FE
:100BC000B09312068090EC029090ED02B12CA12C13
:100BD0008114910441F48090F9029090FA02A0905F
:100BE000FB02B090FC02C81AD90AEA0AFB0AC80C38
:100BF000D91CEA1CFB1C04C0F694E794D794C79454
:100C0000CA95D2F7C0920A06D0920B06E0920C0663
:100C1000F0920D0685EFC8168FE0D806E104F104C6
:100C200028F48CE08093180681E00CCF80E125EF5A
:100C3000C2162FEFD206E104F104A0F38091050360
:100C400090910603A0910703B091080380931B06BF
:100C500090931C06A0931D06B0931E0680E2E2CF7F
:100C60004F925F926F927F928F929F92AF92BF92BC
:100C7000CF92DF92EF92FF920F931F93CF93DF9368
:100C8000EC01423051056105710590F480E0DF917F
:100C9000CF911F910F91FF90EF90DF90CF90BF9079
:100CA000AF909F908F907F906F905F904F9008953E
:100CB00089859A85AB85BC850196A11DB11D8417D8
:100CC0009507A607B70710F3CB88DC88ED88FE8868
:100CD0008F89803109F042C0BB27A72F962F852F1F
:100CE000480159012A013B01C80ED91EEA1EFB1E0C
:100CF0008091000190910101A0910201B091030146
:100D0000C816D906EA06FB0699F58F898031C1F528
:100D1000B301A201552766277727440F551F475275
:100D20005D4FFA01918280828091B202816080934E
:100D3000B2028A89823080F08D819E81AF81B88530
:100D40008C0D9D1DAE1DBF1D8093B3029093B40208
:100D5000A093B502B093B60281E099CFDB01CA013E
:100D6000E7E0B695A79597958795EA95D1F7B8CF1F
:100D700040E0C701B6010E94BE048111C6CF86CFF4
:100D8000B301A2014F77552766277727440F551FD8
:100D9000440F551F47525D4FFA0180829182A28213
:100DA000B382C2CF8F929F92AF92BF92CF92DF92C7
:100DB000EF92FF920F931F93CF93DF93FC018185F6
:100DC0009285A385B4850196A11DB11D8417950751
:100DD000A607B70770F480E0DF91CF911F910F91C4
:100DE000FF90EF90DF90CF90BF90AF909F908F904B
:100DF000089583889488A588B6888789803189F585
:100E0000BB27A72F962F852FE9016A017B018F0150
:100E1000BC01CD01680D791D8A1D9B1D80900001CC
:100E200090900101A0900201B090030186169706F0
:100E3000A806B90601F5F8018789803111F5DD248E
:100E4000EE24FF24F601EE0FFF1FE752FD4F8081D5
:100E50009181B0E0A0E088839983AA83BB8381E07D
:100E6000BBCFDB01CA01C7E0B695A79597958795DB
:100E7000CA95D1F7C9CF40E00E94BE048111DBCFF3
:100E8000AACFE894C7F8DD24EE24FF24F601EE0F84
:100E9000FF1FEE0FFF1FE752FD4F80819181A2815E
:100EA000B381BF70D8CF4F925F926F927F92AF9213
:100EB000BF92CF92DF92EF92FF920F931F93CF9347
:100EC000DF9300D000D0CDB7DEB78C0149835A83C1
:100ED0006B837C835901C12CD12C7601412C82E09B
:100EE000582E612C712C49815A816B817C819E0125
:100EF0002F5F3F4FC8010E94D206882339F1F801C5
:100F00008585A301920104C0220F331F441F551F82
:100F10008A95D2F7DA01C901C80ED91EEA1EFB1E56
:100F200049815A816B817C818789803111F188EFF9
:100F30009FEFAFEFBFE0481759076A077B0798F2AA
:100F4000F501C082D182E282F38281E00F900F909E
:100F50000F900F90DF91CF911F910F91FF90EF9025
:100F6000DF90CF90BF90AF907F906F905F904F9049
:100F7000089588EF9FEFA0E0B0E0DDCF8F929F92C1
:100F8000AF92BF92CF92DF92EF92FF920F931F9397
:100F9000CF93DF93EC018D8181110EC080E0DF9152
:100FA000CF911F910F91FF90EF90DF90CF90BF9066
:100FB000AF909F908F9008950B891C892D893E8951
:100FC000041715072607370748F34A015B018230EB
:100FD00031F48A869B86AC86BD8681E0E0CF8114A1
:100FE0009104A104B10449F41E821F821886198657
:100FF0001A861B861C861D86F0CF0A851B852C85CC
:101000003D85EB8DFC8D858590E00996B901A801A1
:101010004150510961097109082E04C07695679500
:10102000579547950A94D2F775016401E1E0CE1A0D
:10103000D108E108F10804C0F694E794D794C79466
:101040008A95D2F7C416D506E606F70620F0012BDE
:10105000022B032B11F58F89988DA98DBA8D8E8364
:101060009F83A887B9878E010A5F1F4FC114D104DF
:10107000E104F10409F4ADCF4E815F816885798583
:1010800098018B8D9C8D0E94D20691E0C91AD108DF
:10109000E108F1088111EACF81CFC41AD50AE60A26
:1010A000F70AE1CF3F924F925F926F927F928F92B9
:1010B0009F92AF92BF92CF92DF92EF92FF920F93E7
:1010C0001F93CF93DF93CDB7DEB72C970FB6F8946D
:1010D000DEBF0FBECDBF5C01DC015B968D909C90A6
:1010E0005C9716964D905D906D907C901997411489
:1010F00051046104710409F468C0BFEF4B1A5B0A24
:101100006B0A7B0A312CF40181859285A385B48515
:101110009C01AD012F5F3F4F4F4F5F4F29873A87AB
:101120004B875C87730162011D821E821F821886B5
:10113000F40181859285A385B4852D813E814F81FF
:101140005885281739074A075B0708F056C0898574
:101150009A85AB85BC858C159D05AE05BF0550F401
:1011600082E0C82ED12CE12CF12C92E0492E512C9A
:10117000612C712C9E012F5F3F4FB701A601C40166
:101180000E94D2068823C9F189819A81AB81BC81F2
:10119000892B8A2B8B2B09F1260137019FEF491AE6
:1011A000590A690A790A2D813E814F8158852F5F3E
:1011B0003F4F4F4F5F4F2D833E834F8358873FEF05
:1011C000C31AD30AE30AF30AB3CFF4014080518073
:1011D000628073803324339496CFC414D504E6041C
:1011E000F70409F70FEF1FEF2FEF3FE0B701A6015C
:1011F000C4010E943006811119C080E02C960FB600
:10120000F894DEBF0FBECDBFDF91CF911F910F913C
:10121000FF90EF90DF90CF90BF90AF909F908F9016
:101220007F906F905F904F903F900895F5014681B9
:10123000578160857185411551056105710539F04A
:1012400097018601C4010E9430068823B1F2D501BE
:101250001696CD92DD92ED92FC921997332051F0C3
:10126000D701C6010196A11DB11DF40180839183B0
:10127000A283B383F5018789908DA18DB28D892BCF
:101280008A2B8B2B39F4C78AD08EE18EF28E848123
:101290008068848381E0B2CFCF93DF93EC018D81AE
:1012A000882389F18C8187FF2AC06E857F85888994
:1012B000998941E00E94BE04882329F1EA8980E2ED
:1012C000E89FF0011124E752FD4F3097E1F08D8146
:1012D000823040F48B899C89AD89BE89848F958F3B
:1012E000A68FB78F8F89988D938F828F8F89988DD6
:1012F000A98DBA8DB58BA48B8C818F778C83DF9170
:10130000CF910C94810480E0DF91CF910895CF9329
:10131000DF93EC010E944C09882311F01D8281E0CB
:10132000DF91CF9108952F923F924F925F926F92EB
:101330007F928F929F92AF92BF92CF92DF92EF9265
:10134000FF920F931F93CF93DF9300D000D0CDB7C0
:10135000DEB78C015B011A01DC0115968C911597A3
:10136000813009F0C8C014968C9181FFC4C082FD01
:10137000AEC06101D8011A964D915D916D917C913D
:101380001D97C114D10409F429C15B968D919C91DC
:101390005C97FC0174802FEF270D2A013B0139E097
:1013A00076946794579447943A95D1F7722E7420A7
:1013B0007A01F1E0FF22711020C0E114F104E9F498
:1013C00016964D915D916D917C911997411551053E
:1013D0006105710509F098C057968D919D910D900A
:1013E000BC91A02D0097A105B10509F0AFC0C801BF
:1013F0000E945208882309F47EC080E092E08E1992
:101400009F0946018C159D0508F44C01D8015B9697
:101410004D915C915C9716968D919D910D90BC912C
:10142000A02D0297A109B109FA01258504C0880FF2
:10143000991FAA1FBB1F2A95D2F746855785608939
:101440007189840F951FA61FB71F9C01AD01270D41
:10145000311D411D511D29013A01811432E09306CD
:1014600009F07AC08091000190910101A0910201E0
:10147000B091030184159505A605B70559F48FEFC2
:101480009FEFDC018093000190930101A093020182
:10149000B09303019501B301A2018091D904909109
:1014A000DA040E94EC03882331F19EEFB91AC818C0
:1014B000D908F80182859385A485B585880D991D85
:1014C000A11DB11D82879387A487B58753CFF801EB
:1014D000438954896589768982859385A485B585F4
:1014E000481759076A077B0709F443CFC8010E94D0
:1014F000BE0781113ECF81E090E0D80113969C9306
:101500008E93129780E007C09E012F5F3F4F0E948D
:10151000D206811102C090E077C089819A81AB81A7
:10152000BC81F801238D348DF901278948EF5FEFE5
:1015300060E070E0203121F048EF5FEF6FEF7FE077
:1015400084179507A607B70708F051CFF8018683DF
:101550009783A087B18751CFE114F10491F5D801A9
:101560001A964D915D916D917C911D9753968D9139
:101570009D910D90BC91A02D481759076A077B07D4
:1015800000F10E948104882309F4B5CF4092000144
:101590005092010160920201709203018091B202A7
:1015A00081608093B202970127523D4FD501C90156
:1015B000880D991DF9018E179F0759F04D914193A0
:1015C000FACF41E0C301B2010E94BE048111EBCF0A
:1015D00092CF821B930BA80EB91E69CFF8018389A5
:1015E0009489A589B68984179507A607B70738F4A3
:1015F0008481438B548B658B768B80688483F80160
:10160000848183FD18C0C1010F900F900F900F903F
:10161000DF91CF911F910F91FF90EF90DF90CF90CE
:10162000BF90AF909F908F907F906F905F904F9002
:101630003F902F900895C8010E944C09882309F417
:101640005ACFE1CFCF93DF931F92CDB7DEB7698337
:1016500041E050E0BE016F5F7F4F0E9493090F9001
:10166000DF91CF9108959CB59C7F282F2370922BFA
:101670009CBD9DB59E7F86958695892B8DBD0895D1
:10168000FC01DB0112968D919C91139793838283C9
:1016900080E291E09183808314968C9114978483E7
:1016A00015968C911597858316964D915D916D9148
:1016B0007C91199746835783608771871A964D915D
:1016C0005D916D917C911D974287538764877587E3
:1016D0001E964D915D916D917C91519746875787EC
:1016E000608B718B52968C915297828B53964D9151
:1016F0005D916D917C915697438B548B658B768B66
:1017000057964D915D916D917C915A97478B508F73
:10171000618F728F5B968D919C91948F838F0895CA
:101720000895FC01818D928D009711F00C944C0965
:101730000895DC015996ED91FC913097B9F08389B9
:101740009489A589B6894285538564857585841BEE
:10175000950BA60BB70B811520E89207A105B105E3
:1017600038F08FEF9FE7A0E0B0E0089590E080E0D0
:101770000895CF93DF93EC01E98DFA8D309749F40A
:1017800081E090E09B838A8390E080E0DF91CF91BD
:10179000089513821282898D9A8D0E949309E98D92
:1017A000FA8D22813381232B59F7F0CFCF93DF932A
:1017B0001F92CDB7DEB76983DC01ED91FC91028009
:1017C000F381E02D41E050E0BE016F5F7F4F09954E
:1017D0000F90DF91CF9108952F923F924F925F9299
:1017E0006F927F928F929F92AF92BF92CF92DF9231
:1017F000EF92FF920F931F93CF93DF9300D01F922E
:10180000CDB7DEB7FC018581811118C08FEF9FEF46
:101810000F900F900F90DF91CF911F910F91FF903C
:10182000EF90DF90CF90BF90AF909F908F907F9080
:101830006F905F904F903F902F900895848180FF2C
:10184000E5CF438954896589768982859385A48506
:10185000B585312C212C481759076A077B0719F0E9
:1018600022242394312C6F012101CE0101963C01E9
:10187000DF011696BB83AA834114510409F4C5C045
:10188000F60142855385648575854A01F1E09F2202
:10189000D6015B968D919C915C978A019B01E9E052
:1018A0003695279517950795EA95D1F71596EC91FA
:1018B000E230E9F5FC01628D738D848D958D600FAA
:1018C000711F821F931FA12C22E0B22EA818B90805
:1018D0004A145B0408F45201F601248126FD04C079
:1018E000A114F2E0BF0671F4009100011091010112
:1018F00020910201309103010617170728073907C5
:1019000009F05EC040E00E94BE04882309F47ECF47
:10191000C40187529D4FD3019C012A0D3B1DFC0140
:101920002E173F0709F46CC041914D93F9CFDC01AC
:101930001496BC90BA94B0228114910479F4B11039
:101940000DC0452B462B472B69F5F6018789908DF5
:10195000A18DB28D86839783A087B187D6015B96D0
:10196000ED91FC915C9716966D917D918D919C9176
:1019700019976250710981099109258504C0660F84
:10198000771F881F991F2A95D2F70685178520890A
:101990003189600F711F821F931F6B0D711D811D97
:1019A000911D91CFD60116964D915D916D917C91CF
:1019B00019972A813B810E94D2068111CFCF26CF71
:1019C000730185019401AB01BC018091D904909110
:1019D000DA040E944A03882309F418CF6A0C7B1C9E
:1019E000F60182859385A485B5858A0D9B1DA11D71
:1019F000B11D82879387A487B5874A185B083CCFBF
:101A0000281B390B620E731EEBCF2A94232809F092
:101A1000FDCE898190E0FCCEFC01818D928D0097F6
:101A200011F00C94EC0B8FEF9FEF08950F931F9321
:101A3000CF93DF93EC01898D9A8D10E000E0009741
:101A400099F00E94EC0B8C010F3F100769F0898D13
:101A50009A8DFC01428553856485758541505109F5
:101A6000610971090E94BE07C801DF91CF911F91E2
:101A70000F910895FC01908190539A3008F090E006
:101A8000818180532AE0929F800D11240895209136
:101A90008F02260F3327331F21323105ECF42091BA
:101AA0002D05FC0190E080E0243069F082E008958B
:101AB000A0918F022191AC0141595D4FA40FB52F28
:101AC000B11D2C930196861798F380918F02680FB1
:101AD00060938F0280E0089581E0089510922D05B3
:101AE00081E080932C051092070561E082E10E945D
:101AF000980061E083E10E949800E9EBF0E08081CA
:101B00008E7F808380818D7F808388E48093B8007E
:101B100085E48093BC0008951092DC041092DB04ED
:101B200010923405109256050E946E0D86E990E0E1
:101B30009093D8028093D70287E990E09093D602E1
:101B40008093D5020895CF93DF9391E090936E0236
:101B50008823B9F0C091B800D091BA008091BC0040
:101B60008A7B8093BC0060E082E10E94980060E084
:101B700083E10E9498000E946E0DD093BA00C0933A
:101B8000B800DF91CF9108958F929F92AF92BF924C
:101B9000CF92DF92EF92FF920F931F93CF93DF9339
:101BA000D0915605D13208F0D7C0182FC0915505F5
:101BB0000E9415016B017C0180912D0581116BC084
:101BC00082E080932D0510932C058FEF80932B05D9
:101BD00010922A05D0932905A5E3B5E0E9E0F5E0E8
:101BE00080E0D81391C01092080580910805CC0FB1
:101BF000C82BC093080580910705813009F088C083
:101C0000109207050E9415016B017C018091080567
:101C10008093BB0080912F0590913005A0913105F4
:101C2000B0913205892B8A2B8B2BA1F00E941501D4
:101C300000912F051091300520913105309132052A
:101C40006C197D098E099F090617170728073907A0
:101C500008F442C08091BC0083FDD8CF85EC80930E
:101C6000BC000E9415016B017C0180912D05823022
:101C700009F450C080912B058F3F09F46FC080910B
:101C80002B05803209F46CC080912B05803309F458
:101C900069C084E026C080912F0590913005A09105
:101CA0003105B0913205892B8A2B8B2B09F484CF17
:101CB0000E94150180902F0590903005A09031056D
:101CC000B09032056C197D098E099F09861697061A
:101CD000A806B90608F070CF80912E050E94A30DCA
:101CE00085E0109234051092560510923305DF916D
:101CF000CF911F910F91FF90EF90DF90CF90BF9009
:101D0000AF909F908F9008959D9191938F5F69CF31
:101D100085EEA5CF80912F0590913005A0913105DA
:101D2000B0913205892B8A2B8B2B09F49ECF0E9410
:101D3000150100912F05109130052091310530914A
:101D400032056C197D098E099F09061717072807A8
:101D5000390708F08ACFC0CF81E0C3CF80E0C1CF80
:101D600082E0BFCF83E0BDCFCF93DF93EA01DC01F8
:101D700011968D919C91DC01ED91FC910280F38193
:101D8000E02D0995C817D90729F481E00E94C40DF8
:101D900091E0811190E0892FDF91CF9108958F928A
:101DA0009F92AF92BF92CF92DF92EF92FF920F93EA
:101DB0001F93CF93DF93D82FC62F142F613208F0D3
:101DC0009CC00E9415016B017C0180912D05811141
:101DD0006FC081E080932D0510932C059FEF9093A9
:101DE0002B0510922A059C0F9093290580930805D6
:101DF00080910805DD0FD82BD09308058091070549
:101E0000813009F07CC0109207050E9415016B011A
:101E10007C01809108058093BB0080912F059091F3
:101E20003005A0913105B0913205892B8A2B8B2B7F
:101E3000A1F00E94150100912F051091300520910D
:101E40003105309132056C197D098E099F090617FD
:101E500017072807390708F44CC08091BC0083FDA0
:101E6000D8CF85EC8093BC000E9415016B017C01EA
:101E700080912D05813009F444C080912A058C178A
:101E800010F4C0912A05E9E0F5E0A7EEB4E080E0A7
:101E90008C1359C08C2FDF91CF911F910F91FF9020
:101EA000EF90DF90CF90BF90AF909F908F9008956C
:101EB00080912F0590913005A0913105B0913205A8
:101EC000892B8A2B8B2B09F480CF0E9415018090DF
:101ED0002F0590903005A0903105B09032056C1917
:101EE0007D098E099F0986169706A806B90608F08F
:101EF0006CCF80912E050E94A30DC0E0CBCF85EE64
:101F0000B1CF80912F0590913005A0913105B0910E
:101F10003205892B8A2B8B2B09F4AACF0E9415013D
:101F200000912F0510913005209131053091320537
:101F30006C197D098E099F090617170728073907AD
:101F400008F096CFD6CF91919D938F5FA1CF089542
:101F5000E091DC048091DB04E81730F4F0E0E95113
:101F6000FB4F808190E008958FEF9FEF089590914F
:101F7000DC048091DB042FEF3FEF981748F4E92F42
:101F8000F0E0E951FB4F208130E09F5F9093DC044B
:101F9000C90108958091DB049091DC04891B990BA1
:101FA0000895CF92DF92EF92FF920F931F93CF93FA
:101FB000DF937C01CB018A0120913305222389F034
:101FC000EB016B01C40ED51ECC15DD0569F06991DE
:101FD000D701ED91FC910190F081E02DC7010995A9
:101FE000F3CF642F0E94470DC801DF91CF911F915D
:101FF0000F91FF90EF90DF90CF900895CF93DF93F4
:102000001F92CDB7DEB76983209133052223F9F003
:1020100020915605203258F021E030E0FC01338356
:10202000228390E080E00F90DF91CF91089580911E
:102030003405E82FF0E0EB5CFA4F998190838F5FD5
:10204000809334058093560581E090E0ECCF61E009
:10205000CE0101960E94470DF7CF81E00C94C40D8C
:10206000CF93DF93EC018B818823A9F089819A813A
:10207000288131E0309333052093550510923405C3
:10208000109256050E942D1091E0811190E0892F49
:10209000DF91CF9108950E948C0D81E08B83CE015A
:1020A0000E943010982F8111E1CFF1CF90E080E0B5
:1020B0000895CF92DF92EF92FF9280E480937C00AC
:1020C00080917A00806480937A0080917A0086FD06
:1020D000FCCF8091780060917900762F682F072ED1
:1020E000000C880B990B0E94341F6B017C012DECB6
:1020F0003CEC4CE950E46091C4027091C5028091BF
:10210000C6029091C7020E94931F9B01AC01C701B8
:10211000B6010E94931F6B017C0120E030E040EC8F
:1021200050E40E94E4211816ACF0C0926A02D092EA
:102130006B02E0926C02F0926D0260916A02709103
:102140006B0280916C0290916D02FF90EF90DF9096
:10215000CF90089510926A0210926B0210926C0256
:1021600010926D02EACFCF93DF938093E4048091C5
:10217000DD049091DE04DC0114962D913C911597BD
:10218000232B81F02C9131E03093330520935505BA
:10219000109234051092560541E050E064EE74E070
:1021A0000E94B40EC091DD04D091DE048C819D812B
:1021B000029708F141E062E088810E94CF0E109200
:1021C000DC048093DB048230B1F489819A81DC01E4
:1021D000ED91FC910284F385E02D09958093E40450
:1021E00089819A81DC01ED91FC910284F385E02DD7
:1021F00009958093E5048091E4049091E504982783
:1022000089279827DF91CF910895482F2091E004E6
:102210003091E1048091E2049091E304822B932BAE
:10222000423009F443C0433009F443C04130D9F18E
:1022300083609164906821E02093E4049093E50426
:102240008093E6048091DD049091DE04FC014481DA
:1022500055814330510578F0308120933305309318
:102260005505109234051092560543E050E064EE97
:1022700074E00E94B40E81E00E94B31097FFFBCF80
:1022800080E00E94B3102091DF04022E02C09695D8
:1022900087950A94E2F7222329F08115F8E09F0739
:1022A00008F0906F089583609165C4CF8360916654
:1022B000C1CF83609167BECFCF92DF92EF92FF9242
:1022C00083E00E940511BC01990F880B990B0E94B5
:1022D000341F20E030E040E45EE30E94931F209131
:1022E000C8023091C9024091CA025091CB020E94AB
:1022F00043216B017C0120E030E040EA50E40E9481
:10230000E4211816ACF0C0926602D0926702E09207
:102310006802F09269026091660270916702809192
:10232000680290916902FF90EF90DF90CF9008953E
:10233000109266021092670210926802109269026F
:10234000EACFCF92DF92EF92FF9282E00E940511D6
:10235000BC01990F880B990B0E94341F20E030E0DC
:1023600040E45EE30E94931F2091C8023091C902AD
:102370004091CA025091CB020E9443216B017C0123
:1023800020E030E040EA50E40E94E4211816ACF06E
:10239000C0926202D0926302E0926402F0926502FF
:1023A0006091620270916302809164029091650273
:1023B000FF90EF90DF90CF900895109262021092FC
:1023C00063021092640210926502EACFCF92DF920C
:1023D000EF92FF9281E00E940511BC01990F880BDA
:1023E000990B0E94341F20E030E040E45EE30E943D
:1023F000931F2091C8023091C9024091CA025091A6
:10240000CB020E9443216B017C0120E030E040EAD6
:1024100050E40E94E4211816ACF0C0925E02D09203
:102420005F02E0926002F092610260915E02709140
:102430005F028091600290916102FF90EF90DF90C7
:10244000CF90089510925E0210925F021092600287
:1024500010926102EACFCF92DF92EF92FF9280E07A
:102460000E940511BC01990F880B990B0E94341F23
:1024700020E030E040E45EE30E94931F2091C80218
:102480003091C9024091CA025091CB020E9443216F
:102490006B017C0120E030E040EA50E40E94E4213E
:1024A0001816ACF0C0925A02D0925B02E0925C0225
:1024B000F0925D0260915A0270915B0280915C0221
:1024C00090915D02FF90EF90DF90CF900895109271
:1024D0005A0210925B0210925C0210925D02EACFE7
:1024E000CF92DF92FF920F931F93CF93DF936C01F4
:1024F00081E08093330588E680935505109234057A
:102500001092560560E08EE396E00E94FE0F8EE387
:1025100096E00E942D1041E067E088E60E94CF0E11
:102520001092DC048093DB048EE396E00E94B70FE8
:102530008F77282F30E094E0359527959A95E1F72D
:10254000922F990F990FC22FC91BCC0FC80F8EE382
:1025500096E00E94B70F9C0144E0359527954A9577
:10256000E1F72F703327922F990F990FD22FD91B94
:10257000DD0FD80F8EE396E00E94B70F9C0154E068
:10258000359527955A95E1F72F703327922F990F9C
:10259000990F122F191B110F180F8EE396E00E944E
:1025A000B70F8EE396E00E94B70F9C0164E035956B
:1025B00027956A95E1F72F703327922F990F990F7E
:1025C000022F091B000F080F8EE396E00E94B70F41
:1025D0009C0174E0359527957A95E1F72F703327A4
:1025E000922F990F990FF22EF91AFF0CF80E8EE325
:1025F00096E00E94B70F9C01E4E035952795EA9597
:10260000E1F72F703327922F990F990F291B220F73
:10261000820FF6018083F18202831383D483C58302
:10262000C601DF91CF911F910F91FF90DF90CF9066
:102630000895CF92DF92EF92FF921F93CF93DF9393
:10264000EC0180E2689FF0011124E752FD4F938571
:10265000917161F0842F827449F080E0DF91CF9115
:102660001F91FF90EF90DF90CF900895142F6A8B09
:102670008091000190910101A0910201B0910301AC
:102680008E879F87A88BB98BC488D588F12CE12CC5
:102690007601DD24CC24CF8AD88EE98EFA8E828D05
:1026A000938DB0E0A0E0AC01BD014C295D296E29FD
:1026B0007F294F8B588F698F7A8F83858871B1F40A
:1026C000848D958DA68DB78D8B8B9C8BAD8BBE8BA2
:1026D00081E08D831F701C831E821F8218861986DD
:1026E0001A861B861C861D8681E0B8CF803109F0D2
:1026F000B4CF9E012D5E3F4F8B8D9C8D0E94530762
:10270000882309F4AACF84E0E4CFFB0101900020E4
:10271000E9F73197AF01461B570BDC01ED91FC91B6
:102720000280F381E02D09948F929F92AF92BF9225
:10273000EF92FF920F931F93CF93DF93CDB7DEB746
:10274000A1970FB6F894DEBF0FBECDBF7C01FA0192
:10275000CB0119A2223008F42AE08E010F5D1F4F31
:10276000822E912CB12CA12CBF01A50194010E94B5
:10277000AE20F901CA016A300CF5605DD8016E9394
:102780008D01232B242B252B79F790E080E01097E7
:1027900021F0BD01C7010E948513A1960FB6F894E0
:1027A000DEBF0FBECDBFDF91CF911F910F91FF9084
:1027B000EF90BF90AF909F908F900895695CDECFAF
:1027C000462F50E070E060E02AE00C9494138F9262
:1027D0009F92AF92BF92CF92DF92EF92FF920F93B0
:1027E0001F93CF93DF93EC016A017B01AB0196014C
:1027F000CB01B6010E942F226CE471E0811126C04A
:1028000046015701E894B7F82FEF3FEF4FE75FE736
:10281000C501B4010E942F2281110CC02FEF3FEFA0
:102820004FE75FE7C501B4010E942D1F60E571E02D
:10283000181664F02FEF3FEF4FE75FE4C701B601D2
:102840000E94E42118168CF464E571E0CE01DF915A
:10285000CF911F910F91FF90EF90DF90CF90BF909D
:10286000AF909F908F900C9485132FEF3FEF4FE721
:102870005FECC701B6010E942D1F87FDE5CF20E068
:1028800030E0A901C701B6010E942D1F10E000E051
:1028900087FF09C06DE2CE010E9446018C01F7FA64
:1028A000F094F7F8F0942AE037ED43EA5BE3C701D0
:1028B000B6010E94D7206B017C010E94B5214B011B
:1028C0005C010E94321F9B01AC01C701B6010E944E
:1028D000D6206B017C012AE0B501A401CE010E9443
:1028E0009413080F191F6EE2CE010E944601080FD3
:1028F000191F20E030E040E251E4C701B6010E9418
:10290000931F4B015C010E94B5216B01F12CE12C5E
:102910002AE0B701A601CE010E949413080F191FE7
:10292000C701B6010E94321F9B01AC01C501B40171
:102930000E94D62020E030E040E251E40E94931F44
:102940000E94B521AB0170E060E02AE0CE010E9458
:102950009413800F911FDF91CF911F910F91FF90E2
:10296000EF90DF90CF90BF90AF909F908F900895A1
:102970000F931F93CF93DF93EC010E9485138C017B
:1029800068E571E0CE010E948513800F911FDF91F1
:10299000CF911F910F9108950C9485133F924F9200
:1029A0005F926F927F928F929F92AF92BF92CF92DF
:1029B000DF92EF92FF920F931F93CF93DF93CDB7E8
:1029C000DEB72B970FB6F894DEBF0FBECDBF7C01EC
:1029D000FE013196CE010C966F0130E23193E8177B
:1029E000F907E1F7DA0130E087E09D91B92E9923EC
:1029F00009F43CC09E32F1F48A30C9F480E02B9691
:102A00000FB6F894DEBF0FBECDBFDF91CF911F91FF
:102A10000F91FF90EF90DF90CF90BF90AF909F907D
:102A20008F907F906F905F904F903F90089538E027
:102A30008AE0DBCFE8E6F0E04491442321F03196D0
:102A40009413FACFDBCF8317C8F24FED490F4E3501
:102A5000A8F64FE9490F4A3118F440EEB42EB90EEA
:102A6000F601E30FF11DB0823F5FBFCF8981803255
:102A700029F2322E8B01DB015B968D919C915C9744
:102A8000F701948F838F16961D921D921D921C92B2
:102A90001997FB011286138614861586F801828524
:102AA0009385A485B585438954896589768984177A
:102AB0009507A607B70708F04DC025E0B695A7957E
:102AC000979587952A95D1F7F82FFF70AF2ED801EB
:102AD00015968C91823008F491CFC8010E94EC0BBE
:102AE00097FD8CCFF80182859385A485B5854F9697
:102AF000A11DB11D82879387A487B587F0E2AF9EA1
:102B0000B001112467527D4F6115710509F476CF2C
:102B1000DB018C91882341F0853E09F061C0BB2028
:102B200029F0BB24B394BACFB1100EC0F701A28A2A
:102B30008091000190910101A0910201B0910301E7
:102B400086879787A08BB18BDB018C918111E9CFB0
:102B5000BB24B394832D8271823109F04FCFBB2007
:102B600009F44CC0F701668577858089918941E039
:102B70000E94BE04882309F441CFD70152968C915C
:102B8000B0E28B9FC001112487529D4F009709F43A
:102B900035CFFC013A9626E1DF011D922A95E9F72F
:102BA0002BE0F601DC0101900D922A95E1F721E27C
:102BB00038E2FC01318B208B40E058E05787468794
:102BC000338B228B318F208F578B468B0E94810451
:102BD000882309F413CF432DD70152966C910AC074
:102BE0004BE050E0C6010E942B24892B09F056CF00
:102BF000432D6A2DC7010E94191301CFF801858169
:102C0000823009F4FBCEC8010E945208882309F4DF
:102C1000F5CED8015B96ED91FC915C9716968D9060
:102C20009D90AD90BC901997B2E08B1A9108A108C5
:102C3000B108858504C0880C991CAA1CBB1C8A9508
:102C4000D2F786859785A089B189880E991EAA1E1C
:102C5000BB1E848124013501480E511C611C711C6E
:102C600084149504A604B70401F1E1E04E1A51085A
:102C7000610871080E948104882309F4BFCEE9ED40
:102C8000F2E0119289ED94E08E179F07D1F7409200
:102C90000001509201016092020170920301809143
:102CA000B20281608093B202DBCFD8015B96ED91D6
:102CB000FC91258580E092E0A0E0B0E004C0880FA0
:102CC000991FAA1FBB1F2A95D2F7F801438954897F
:102CD00065897689840F951FA61FB71F838B948BF8
:102CE000A58BB68BD70152961C9289ED92E051CFFD
:102CF000EF92FF920F931F93CF93DF93EC017B0131
:102D00008A011B821A8288EE93E0A0E0B0E08C83F7
:102D10009D83AE83BF838EE391E0998388838DE1A9
:102D200090E00E9449229A8F898F009779F02DE1D7
:102D3000F701DC0101900D922A95E1F74CE050E09B
:102D4000B801CE010C960E944824188EDF91CF91D5
:102D50001F910F91FF90EF90089585ED8093BC0037
:102D600080912F0590913005A0913105B0913205E9
:102D70000796A11DB11D23E0B695A7959795879558
:102D80002A95D1F72091BC0024FD03C010922D0597
:102D9000089540912F055091300560913105709153
:102DA0003205452B462B472B69F30097A105B1054A
:102DB00041F025E32A95F1F700000197A109B10937
:102DC000E1CF80912E050C94A30D1F920F920FB6A8
:102DD0000F9211242F933F938F939F93AF93BF93A1
:102DE0008091CD029091CE02A091CF02B091D002FD
:102DF0003091CC0223E0230F2D3758F50196A11D09
:102E0000B11D2093CC028093CD029093CE02A0936B
:102E1000CF02B093D0028091D1029091D202A091C2
:102E2000D302B091D4020196A11DB11D8093D102AD
:102E30009093D202A093D302B093D402BF91AF91EA
:102E40009F918F913F912F910F900FBE0F901F90E8
:102E5000189526E8230F0296A11DB11DD2CF1F920F
:102E60000F920FB60F9211242F933F934F935F93BE
:102E70006F937F938F939F93AF93BF93EF93FF9342
:102E800087E595E00E94CB01FF91EF91BF91AF9153
:102E90009F918F917F916F915F914F913F912F9172
:102EA0000F900FBE0F901F9018951F920F920FB6A4
:102EB0000F9211242F938F939F93EF93FF93E091A1
:102EC0006705F09168058081E0916D05F0916E05D0
:102ED00082FD1BC09081809170058F5F8F73209160
:102EE0007105821741F0E0917005F0E0E95AFA4F60
:102EF000958F80937005FF91EF919F918F912F9106
:102F00000F900FBE0F901F9018958081F4CF1F92E5
:102F10000F920FB60F9211242F933F934F935F930D
:102F20006F937F938F939F93AF93BF93EF93FF9391
:102F30008091B900887F803609F44AC0F0F5883264
:102F400009F4A7C018F5803109F49BC0B8F48823B0
:102F500009F4F9C0883009F494C0FF91EF91BF9152
:102F6000AF919F918F917F916F915F914F913F9121
:102F70002F910F900FBE0F901F901895883109F474
:102F800088C0803251F780932B0514C0803409F437
:102F90009DC040F48033B9F38833F9F680932B0554
:102FA00085ECB0C0803509F485C0883509F496C039
:102FB000883499F60E94AD16D0CF883909F48CC0B8
:102FC00038F5883729F050F4883611F0803729F623
:102FD00083E080932D051092B10257C0883809F420
:102FE0007BC0803919F0803809F0B7CF8091B102E9
:102FF000803208F071C0E091B10281E08E0F8093C1
:10300000B1028091BB00F0E0EF56FD4F80833DC0E0
:10301000803B39F0E0F4803A09F479C0883A09F04D
:103020009CCF84E080932D051092900210928F0225
:10303000E091D702F091D802099580918F02811119
:103040000FC081E080938F0210926F0209C0803C14
:1030500009F4A6CF883C09F4A3CF883B09F07DCFC3
:10306000E091900281E08E0F80939002F0E0E159B0
:10307000FD4F80818093BB009091900280918F02E0
:1030800029C0809108058093BB0085EC8093BC002B
:1030900064CF90912A0580912905981758F5E09101
:1030A0002A0581E08E0F80932A05F0E0E75FFA4F52
:1030B0008081E9CFE0912A0581E08E0F80932A0577
:1030C0008091BB00F0E0E75FFA4F808390912A0582
:1030D000809129059817C8F285E8D8CFE0912A0594
:1030E00081E08E0F80932A058091BB00F0E0E75FBE
:1030F000FA4F808380912C0581115CCF81E0809311
:10310000070584EA8093BC0010922D0526CF85EC3C
:103110008093BC0010922D058091B102803230F472
:10312000E091B102F0E0EF56FD4F10826091B102E4
:1031300070E0E091D502F091D60281E992E0099524
:103140001092B1020ACF10922B0534CF10925A057B
:103150001092590588EE93E0A0E0B0E080935B0503
:1031600090935C05A0935D05B0935E052EE031E081
:10317000309358052093570525EC30E030936405D3
:103180002093630524EC30E03093660520936505B9
:1031900020EC30E0309368052093670521EC30E0A7
:1031A00030936A052093690522EC30E030936C057A
:1031B00020936B0526EC30E030936E0520936D056F
:1031C000109270051092710510927205109273059D
:1031D0001092F9051092FA051092FD051092FF0564
:1031E00042E050E060E070E0409301065093020638
:1031F000609303067093040610921806109222063C
:103200001092210620E231E03093200620931F0621
:1032100010922406109241061092400680934206B6
:1032200090934306A0934406B09345062CE231E008
:1032300030933F0620933E0610925906109258068E
:1032400080935A0690935B06A0935C06B0935D064C
:103250008EE391E090935706809356061092700685
:1032600010926F0610926206109255061092540644
:103270001092530610925006E8ECF0E081E08C309A
:1032800049F09491823009F49F5F21E0280F319634
:103290009923C9F18093510681E0809352061092E0
:1032A0004B0610924A0610924D0610924C06109250
:1032B0004F0610924E0666E070E090E080E00E94BB
:1032C0006E23009711F190934B0680934A0625E0F8
:1032D00030E030934D0620934C0620914E063091FD
:1032E0004F06232B11F4FC01108285E090E09093AF
:1032F0004F0680934E066BE571E080914A069091EF
:103300004B060C944124822FBACF80914A069091AB
:103310004B06009711F00E94E52210924B06109286
:103320004A0610924F0610924E0610924D061092C9
:103330004C060895CF93DF93CDB7DEB7C257D109BE
:103340000FB6F894DEBF0FBECDBF789484B582600F
:1033500084BD84B5816084BD85B5826085BD85B539
:10336000816085BD80916E00816080936E001092B7
:103370008100809181008260809381008091810032
:1033800081608093810080918000816080938000C3
:103390008091B10084608093B1008091B000816021
:1033A0008093B00080917A00846080937A0080914D
:1033B0007A00826080937A0080917A0081608093A5
:1033C0007A0080917A00806880937A001092C10020
:1033D00086E090E00E9449228C0188E4F801808315
:1033E0008EE396E092838183138280E290E095835E
:1033F00084831093DE040093DD040E948C0DEE2480
:10340000E394F801E382C8010E943010E09167055F
:10341000F091680582E08083E0916305F091640596
:103420001082E0916505F09166058FEC8083109223
:103430006F05E0916B05F0916C0586E08083E0916B
:103440006905F0916A05808180618083E09169055A
:10345000F0916A05808188608083E0916905F09130
:103460006A05808180688083E0916905F0916A0532
:1034700080818F7D808380E090E0AAE7B4E4809330
:10348000C8029093C902A093CA02B093CB028FE600
:1034900092E1A3E8BAE38093C4029093C502A0939B
:1034A000C602B093C7020E948C0D0E948C0D08E6E4
:1034B00000935505109256058EE396E00E942D105C
:1034C000E0923305109234051092560560E08EE3C9
:1034D00096E00E94FE0F8EE396E00E942D1041E0E0
:1034E00061E088E60E94CF0E1092DC048093DB043A
:1034F0008EE396E00E94B70F87FF7CC061E671E023
:1035000087E595E00E94B81485E891E00E943A0DA5
:10351000182F80E891E00E943A0DF82E88E891E09B
:103520000E943A0DD82E8BE891E00E943A0DC82EE9
:103530008EE891E00E943A0DB82EE0923305009398
:103540005505109234051092560560E08EE396E022
:103550000E94FE0F0AE08B2D602F0E94A220682F90
:10356000660F680F660F6B0D8EE396E00E94FE0FEC
:103570008C2D602F0E94A220682F660F680F660FA7
:103580006C0D8EE396E00E94FE0F8D2D602F0E9441
:10359000A220682F660F680F660F6D0D8EE396E010
:1035A0000E94FE0F60E08EE396E00E94FE0F8F2DDA
:1035B000602F0E94A220682F660F680F660F6F0DA4
:1035C0008EE396E00E94FE0F67E08EE396E00E9495
:1035D000FE0F812F602F0E94A220682F660F680FB8
:1035E000660F610F8EE396E00E94FE0F8EE396E079
:1035F0000E942D1061E971E087E595E00E94B81402
:103600001092FF051092FD051092FA051092F9052F
:10361000109200068AE08093F8058FEF8093C30232
:103620008093C2028093C1020E943A018B0161E043
:103630008091F8050E94E40084EF95E00E945A0210
:10364000FFB6F8948091B702811127C0E6E9F0E057
:103650008491EAEAF0E09491E82FF0E0EE0FFF1F8A
:10366000E858FF4FA591B491EC91E92321F461E072
:103670008AE00E94980061E08AE00E94E4008CB534
:1036800080618CBD8CB580648CBD61E08DE00E9452
:10369000E40061E08BE00E94E4008091B7028F5F5C
:1036A0008093B702FFBE83E00E94330B5AE0F52EF1
:1036B0008FEF0E94AF02FA94F110FACF60E0809190
:1036C000F8050E94980020E030E0A90160E084EF56
:1036D00095E00E94EC02F82E8093FE05F1E08F1732
:1036E00009F443C10E943A01601B710B613D7740B0
:1036F00050F381E08093F90584EF95E00E945A022F
:103700006DEA71E087E595E00E94B8141E01E5E1DD
:103710002E0E311C90E0892E90E0992E0E9415010A
:103720002B013C0180EDC82E87E0D82EE12CF12C36
:103730000E9415016419750986099709683E73404E
:1037400081059105A8F3F1E0CF1AD108E108F1084D
:1037500028EE420E23E0521E611C711CC114D104DC
:10376000E104F10429F7CE0101960E94701286E06F
:10377000FE013196A0E5B6E001900D928A95E1F741
:103780006CE272E087E595E00E94B8140BE010E06F
:103790006BE372E087E595E00E94CC1401501109BB
:1037A000B9F70E942B12AB01BC0187E595E00E949E
:1037B000E7136AEF71E087E595E00E94CC1461E4BD
:1037C00072E087E595E00E94CC140E94E611AB01FF
:1037D000BC0187E595E00E94E7136AEF71E087E599
:1037E00095E00E94CC1467E472E087E595E00E94C2
:1037F000CC140E94A111AB01BC0187E595E00E94A9
:10380000E7136AEF71E087E595E00E94CC146DE460
:1038100072E087E595E00E94CC140E945C11AB0138
:10382000BC0187E595E00E94E7136AEF71E087E548
:1038300095E00E94CC1463E572E087E595E00E9474
:10384000CC140E945910AB01BC0187E595E00E94A1
:10385000E71366E272E087E595E00E94CC14609180
:10386000530687E595E00E94E0136AE272E087E57F
:1038700095E00E94CC146091540687E595E00E9483
:10388000E0136AE272E087E595E00E94CC14609153
:10389000550687E595E00E94E01368E571E087E54D
:1038A00095E00E9485130E94591069837A838B8367
:1038B0009C83CE0101965C018C0160E070E0CB013D
:1038C000F80121913191419151918F010E94D720AE
:1038D00002151305A9F720E030E040EA50E40E9409
:1038E00043212B013C01C12CD12C7601F5016191C2
:1038F0007191819191915F01A30192010E94D62063
:103900009B01AC010E94931F9B01AC01C701B60152
:103910000E94D7206B017C010A151B0539F720E0B6
:1039200030E040E85EE30E94931F0E94EF216B01AC
:103930007C01B301A20187E595E00E94E713B7017E
:10394000A60187E595E00E94E71387E595E00E94D0
:1039500089018114910409F4E1CE0E94B701882302
:1039600009F4DCCE0E940000D9CE2AEA31E040E022
:1039700050E068E084EF95E00E94EC0282FF2AC0EC
:10398000F092FF058091FF05C12CD12C7601823089
:1039900029F4C12CD12CE12C30E4F32E20E030E0CE
:1039A000A90167E384EF95E00E94EC02A70196016C
:1039B00069E284EF95E00E94EC028093FE05882383
:1039C000D1F00E943A01601B710B613D774030F3EA
:1039D00088E090CE44E0F42E0E945F028093FE05C2
:1039E000FA94F110F9CF8A3A11F082E083CE82E0A6
:1039F0008093FF05C7CF8091FF058230D1F420E08E
:103A000030E0A9016AE384EF95E00E94EC0288238C
:103A100011F086E06FCE0E945F02807C803C19F43A
:103A200083E08093FF050E945F020E945F020E9474
:103A30005F0284EF95E00E945A028091C1028F3F9D
:103A400019F480E00E94330B81E00E94070588236F
:103A500009F49CC180912406811152CE80911806F0
:103A6000803109F09AC182E08093240610923606D4
:103A70001092370610923806109239068091190676
:103A800090911A06B0E0A0E025E0880F991FAA1FC8
:103A9000BB1F2A95D1F78093320690933306A093EB
:103AA0003406B093350681E096E090933B06809310
:103AB0003A0681E08093230610922506109226068E
:103AC00010922706109228061092290610922A06B4
:103AD00010922B0610922C0610922D0610922E0694
:103AE00010922F06109230061092310661EA71E0B2
:103AF00087E595E00E94B814CE0101960E947012ED
:103B000086E0FE013196A0E5B6E001900D928A951F
:103B1000E1F76FE176E0CE0101960E94400BBE0115
:103B20006F5F7F4FCE01CB960E94400B19A218A267
:103B300080E291E09F8F8E8F1BA221968FAD2197FF
:103B400081114AC16C961FAE1EAE6C9788EE93E051
:103B5000A0E0B0E0A0968CAF9DAFAEAFBFAFA09796
:103B60008EE391E06A969FAF8EAF6A97E3961FAEA1
:103B70001EAEE397A5961FAEA5976C968EAD9FAD32
:103B80006C979093590680935806A0968CAD9DAD86
:103B9000AEADBFADA09780935A0690935B06A093FD
:103BA0005C06B0935D06A4968CAD9DADAEADBFAD89
:103BB000A49780935E0690935F06A0936006B093EF
:103BC0006106A8E5B0E0AC0FBD1F1C96E2E6F6E08A
:103BD0008D91819396E0EF36F907D1F7E3968EAD9C
:103BE0009FADE3979093700680936F0667ED71E049
:103BF00086E596E00E94CC146091520686E596E038
:103C00000E94E0136FE286E596E00E944601609113
:103C1000510686E596E00E94E0136FE286E596E0A5
:103C20000E9446014091500650E04053584F70E0CA
:103C300060E02AE086E596E00E9494136CEF71E064
:103C400086E596E00E94B81460EF71E086E596E0A4
:103C50000E94CC140E942B12AB01BC0186E596E0B9
:103C60000E94E7136AEF71E086E596E00E94CC14AB
:103C70006EEF71E086E596E00E94CC140E94E6119A
:103C8000AB01BC0186E596E00E94E7136AEF71E0A4
:103C900086E596E00E94CC1468E072E086E596E046
:103CA0000E94CC140E94A111AB01BC0186E596E0F4
:103CB0000E94E7136AEF71E086E596E00E94CC145B
:103CC00062E172E086E596E00E94CC140E945C11ED
:103CD000AB01BC0186E596E00E94E7136AEF71E054
:103CE00086E596E00E94CC146CE172E086E596E0F1
:103CF0000E94CC140E945910AB01BC0186E596E0ED
:103D00000E94E71366E272E086E596E00E94CC141A
:103D10006091530686E596E00E94E0136AE272E045
:103D200086E596E00E94CC146091540686E596E004
:103D30000E94E0136AE272E086E596E00E94CC14ED
:103D40006091550686E596E00E94E01368E571E013
:103D500086E596E00E9485136CEF71E086E596E0BB
:103D60000E94B81480916F0690917006009709F434
:103D7000CDCC0E94870980916F06909170060E94B9
:103D8000E5221092700610926F06C0CC80E00E946F
:103D90000705882309F4B4CC5DCE803209F0B0CC9D
:103DA00083E08093240640911B0650911C0660918D
:103DB0001D0670911E064093360650933706609399
:103DC00038067093390622E336E081E096E00E94DF
:103DD0005307811168CE94CC825023E14FEC51E01F
:103DE000823018F56FE176E0CE014E960E94CE1437
:103DF000882309F4A7CE49A95AA96BA97CA9CE01A9
:103E00004E960E94BE07BE01625E7F4FCE010196B4
:103E10000E94400B4FEC51E0BE016F5F7F4FCE011F
:103E2000885A9F4F0E947816A8CEBE01655C7F4FCE
:103E3000CE014E960E94CE14882309F483CECE0183
:103E4000CB960E948709D7CF80914A0690914B0666
:103E5000009711F00C94E52208950E946F1F08F45A
:103E600081E00895E89409C097FB3EF49095809511
:103E7000709561957F4F8F4F9F4F9923A9F0F92F30
:103E800096E9BB279395F695879577956795B795AE
:103E9000F111F8CFFAF4BB0F11F460FF1BC06F5F94
:103EA0007F4F8F4F9F4F16C0882311F096E911C0A6
:103EB000772321F09EE8872F762F05C0662371F0C7
:103EC00096E8862F70E060E02AF09A95660F771FDB
:103ED000881FDAF7880F9695879597F90895990FB7
:103EE0000008550FAA0BE0E8FEEF16161706E807C4
:103EF000F907C0F012161306E407F50798F0621BE5
:103F0000730B840B950B39F40A2661F0232B242BB9
:103F1000252B21F408950A2609F4A140A6958FEFD8
:103F2000811D811D08950E94A61F0C9417200E94D8
:103F3000092038F00E94102020F0952311F00C94F5
:103F400000200C94062011240C944B200E94282061
:103F500070F3959FC1F3950F50E0551F629FF001DC
:103F6000729FBB27F00DB11D639FAA27F00DB11DF5
:103F7000AA1F649F6627B00DA11D661F829F22277E
:103F8000B00DA11D621F739FB00DA11D621F839F05
:103F9000A00D611D221F749F3327A00D611D231FDB
:103FA000849F600D211D822F762F6A2F11249F5729
:103FB00050409AF0F1F088234AF0EE0FFF1FBB1F2C
:103FC000661F771F881F91505040A9F79E3F5105EB
:103FD00080F00C9400200C944B205F3FE4F3983E5B
:103FE000D4F3869577956795B795F795E7959F5F95
:103FF000C1F7FE2B880F911D9695879597F9089527
:1040000097F99F6780E870E060E008959FEF80EC8B
:10401000089500240A94161617061806090608952E
:1040200000240A9412161306140605060895092E94
:104030000394000C11F4882352F0BB0F40F4BF2B03
:1040400011F460FF04C06F5F7F4F8F4F9F4F089543
:1040500057FD9058440F551F59F05F3F71F0479539
:10406000880F97FB991F61F09F3F79F0879508951E
:10407000121613061406551FF2CF4695F1DF08C03D
:10408000161617061806991FF1CF8695710561055A
:1040900008940895E894BB2766277727CB0197F902
:1040A00008950E949320A59F900DB49F900DA49F0A
:1040B000800D911D112408952F923F924F925F928F
:1040C0006F927F928F929F92AF92BF92CF92DF9228
:1040D000EF92FF920F931F93CF93DF93CDB7DEB78D
:1040E000CA1BDB0B0FB6F894DEBF0FBECDBF099421
:1040F0002A88398848885F846E847D848C849B8478
:10410000AA84B984C884DF80EE80FD800C811B8185
:10411000AA81B981CE0FD11D0FB6F894DEBF0FBEB4
:10412000CDBFED010895A29FB001B39FC001A39F31
:10413000700D811D1124911DB29F700D811D1124E0
:10414000911D0895991B79E004C0991F961708F0F6
:10415000961B881F7A95C9F780950895A1E21A2EBB
:10416000AA1BBB1BFD010DC0AA1FBB1FEE1FFF1F1B
:10417000A217B307E407F50720F0A21BB30BE40B6B
:10418000F50B661F771F881F991F1A9469F76095B2
:104190007095809590959B01AC01BD01CF0108956C
:1041A000EE0FFF1F0590F491E02D09945058BB27A6
:1041B000AA270E94EE200C9417200E94092038F0B4
:1041C0000E94102020F039F49F3F19F426F40C943B
:1041D00006200EF4E095E7FB0C940020E92F0E94E6
:1041E000282058F3BA17620773078407950720F051
:1041F00079F4A6F50C944A200EF4E0950B2EBA2F14
:10420000A02D0B01B90190010C01CA01A0011124DC
:10421000FF27591B99F0593F50F4503E68F11A1688
:10422000F040A22F232F342F4427585FF3CF469519
:1042300037952795A795F0405395C9F77EF41F163B
:10424000BA0B620B730B840BBAF09150A1F0FF0F05
:10425000BB1F661F771F881FC2F70EC0BA0F621FF1
:10426000731F841F48F4879577956795B795F795E1
:104270009E3F08F0B0CF9395880F08F09927EE0F76
:104280009795879508950E9457210C9417200E94B6
:10429000102058F00E94092040F029F45F3F29F0D7
:1042A0000C94002051110C944B200C9406200E9479
:1042B000282068F39923B1F3552391F3951B550BEF
:1042C000BB27AA2762177307840738F09F5F5F4FE9
:1042D000220F331F441FAA1FA9F335D00E2E3AF028
:1042E000E0E832D091505040E695001CCAF72BD040
:1042F000FE2F29D0660F771F881FBB1F2617370791
:104300004807AB07B0E809F0BB0B802DBF01FF27C2
:1043100093585F4F3AF09E3F510578F00C9400207F
:104320000C944B205F3FE4F3983ED4F38695779549
:104330006795B795F7959F5FC9F7880F911D96957B
:10434000879597F90895E1E0660F771F881FBB1FD7
:10435000621773078407BA0720F0621B730B840B84
:10436000BA0BEE1F88F7E09508950E94302088F080
:104370009F5798F0B92F9927B751B0F0E1F0660F29
:10438000771F881F991F1AF0BA95C9F714C0B1306A
:1043900091F00E944A20B1E008950C944A20672FC2
:1043A000782F8827B85F39F0B93FCCF38695779599
:1043B0006795B395D9F73EF4909580957095619582
:1043C0007F4F8F4F9F4F08950E946F1F08F48FEF0C
:1043D000089519F416F40C9406200C9434220E94CB
:1043E0003020B8F39923C9F3B6F39F57550B87FFD5
:1043F0000E9442220024A0E640EA9001805856958F
:10440000979528F4805C660F771F881F20F0261789
:104410003707480730F4621B730B840B20293129BE
:104420004A2BA69517940794202531254A2758F73B
:10443000660F771F881F20F026173707480730F4CC
:10444000620B730B840B200D311D411DA09581F76C
:10445000B901842F9158880F9695879508950E94E9
:104460006F1F880B990B08959F3F31F0915020F4F6
:10447000879577956795B795880F911D9695879540
:1044800097F9089591505040660F771F881FD2F713
:1044900008950F931F93CF93DF938230910510F40B
:1044A00082E090E0E0917306F091740630E020E045
:1044B000B0E0A0E0309799F42115310509F44AC025
:1044C000281B390B24303105D8F58A819B81611571
:1044D000710589F1FB0193838283FE0111C0408144
:1044E00051810281138148175907E0F04817590795
:1044F00099F4109761F012960C93129713961C93EF
:104500003296CF01DF91CF911F910F9108950093C3
:10451000730610937406F4CF2115310551F042173C
:10452000530738F0A901DB019A01BD01DF01F80151
:10453000C1CFEF01F9CF9093740680937306CDCF6E
:10454000FE01E20FF31F81939193225031093983C9
:104550002883D7CF2091710630917206232B41F426
:104560002091060130910701309372062093710665
:1045700020910401309105012115310541F42DB739
:104580003EB74091080150910901241B350BE09181
:104590007106F0917206E217F307A0F42E1B3F0B91
:1045A0002817390778F0AC014E5F5F4F24173507A5
:1045B00048F04E0F5F1F509372064093710681932F
:1045C00091939FCFF0E0E0E09CCFCF93DF930097F3
:1045D000E9F0FC01329713821282A0917306B09128
:1045E0007406ED0130E020E01097A1F420813181C4
:1045F000820F931F20917106309172062817390798
:1046000009F061C0F0937206E0937106DF91CF91DB
:104610000895EA01CE17DF07E8F54A815B819E0124
:1046200041155105B1F7E901FB83EA83499159919D
:10463000C40FD51FEC17FD0761F4808191810296AC
:10464000840F951FE90199838883828193819B83DD
:104650008A83F0E0E0E012968D919C911397009789
:10466000B9F52D913C911197CD010296820F931FC0
:1046700020917106309172062817390739F6309764
:1046800051F51092740610927306B0937206A093BF
:104690007106BCCFD383C28340815181840F951FA3
:1046A000C817D90761F44E5F5F4F88819981480F21
:1046B000591F518340838A819B8193838283211573
:1046C000310509F0B0CFF0937406E09373069ECFE6
:1046D000FD01DC01C0CF13821282D7CFB0E0A0E091
:1046E000E4E7F3E20C945E208C01009751F4CB01D7
:1046F0000E9449228C01C801CDB7DEB7E0E10C94DD
:104700007A20FC01E60FF71F9C0122503109E217C5
:10471000F30708F49DC0D901CD91DC911197C6171C
:10472000D70798F0C530D10530F3CE01049786172E
:10473000970708F3C61BD70B2297C193D1936D93AC
:104740007C93CF010E94E522D6CF5B01AC1ABD0A53
:104750004C018C0E9D1EA0917306B0917406512CD5
:10476000412CF12CE12C109731F58091710690913C
:1047700072068815990509F05CC04616570608F0C0
:1047800058C08091040190910501009741F48DB7C4
:104790009EB74091080150910901841B950BE817C1
:1047A000F90708F055C0F0937206E0937106F9011D
:1047B00071836083A0CF8D919C91119712966C901C
:1047C000129713967C901397A815B90559F56C01AB
:1047D00042E0C40ED11CCA14DB0420F1AC014A191A
:1047E0005B09DA011296159780F062827382518319
:1047F0004083D9016D937C93E114F10471F0D701EA
:104800001396FC93EE93129776CF22968C0F9D1FF2
:10481000F90191838083F301EFCFF0937406E09365
:10482000730669CF4816590608F42C017D01D3019F
:104830009ACFCB010E9449227C01009749F0AE013A
:10484000B8010E943824C8010E94E522870153CF95
:1048500010E000E050CFFB01DC0104C08D9101901D
:10486000801921F441505040C8F7881B990B0895D6
:10487000FB01DC0102C001900D9241505040D8F77D
:104880000895FB01DC0101900D920020E1F70895ED
:10489000FB01DC014150504048F001900D92002096
:1048A000C9F701C01D9241505040E0F7089510E053
:1048B000CBE6D0E004C0FE010E94D0202196CC3689
:0848C000D107C9F7F894FFCFFE
:1048C800FFFFFFFF00007506800000000000ED01FB
:1048D8004D017A013A02AB0189019D0100000000F7
:1048E800220B4D015610900B00000000FE0FD10F57
:1048F8005610A70FCA0FB70FA80F00000000D60B5D
:10490800B90B5610910B990B0C0D160D6E616E00BC
:10491800696E66006F7666000D0A0050686F746FE6
:1049280000525443206EC3A36F20657374612066E0
:10493800756E63696F6E616E646F21004A756C20D5
:10494800313120323032310032303A31353A333475
:1049580000496E696369616E646F2053442E2E2E80
:1049680000534420696E69636961646F0046616C35
:104978006861206E6F2053442C206F75206E616F24
:10498800206573746120696E73657269646F006C69
:104998006F672E74787400496EC3AD6E63696F20BB
:1049A8006461206772617661C3A7C3A36F3A200070
:1049B80050686F746F31203A2000202C2000506816
:1049C8006F746F32203A200050686F746F33203A4A
:1049D800200050686F746F34203A200050686F745C
:1049E8006F43203A2000202D20003A00204C6569B2
:1049F80074757261204665697461005031203A20EF
:104A0800005032203A20005033203A200050342001
:0A4A18003A20005063203A2000000D
:00000001FF
