:100000000C946B000C9493000C9493000C9493004C
:100010000C9493000C9493000C9493000C94930014
:100020000C9493000C9493000C9493000C94930004
:100030000C9493000C9493000C9493000C949300F4
:100040000C9480130C9493000C94F0130C94CA132A
:100050000C9493000C9493000C9493000C949300D4
:100060000C9422140C9493007C3C3E5E2B3D3F2F5D
:100070005B5D3B2C2A225C0000000000240027006E
:100080002A0000000000250028002B0004040404BE
:100090000404040402020202020203030303030332
:1000A000010204081020408001020408102001020F
:1000B00004081020000000080002010000030407EB
:1000C00000000000000000001F1C1F1E1F1E1F1F3D
:1000D0001E1F1E00411511241FBECFEFD8E0DEBF4A
:1000E000CDBF25E0A4EFB1E001C01D92A33EB20751
:1000F000E1F711E0A0E0B1E0E6EDF6E302C0059023
:100100000D92A43FB107D9F710E0CBE6D0E004C0D0
:100110002197FE010E94221ACA36D107C9F70E9410
:10012000ED150C94691B0C94000090E0FC01EC545C
:10013000FF4F2491FC01E056FF4F3491FC01E4573E
:10014000FF4FE491EE23C9F0222339F0233001F16F
:10015000A8F4213019F1223029F1F0E0EE0FFF1F51
:10016000EE57FF4FA591B4918FB7F894EC916111C0
:1001700026C030953E233C938FBF08952730A9F0C9
:100180002830C9F0243049F7809180008F7D03C06A
:10019000809180008F7780938000DFCF84B58F7748
:1001A00084BDDBCF84B58F7DFBCF8091B0008F778E
:1001B0008093B000D2CF8091B0008F7DF9CF3E2BDD
:1001C000DACFCF93DF9390E0FC01E056FF4F24910C
:1001D00084579F4FFC0184918823D1F090E0880FD1
:1001E000991FFC01E858FF4FA591B491FC01EE570F
:1001F000FF4FC591D49161110EC09FB7F8948C91B7
:10020000E22FE0958E238C932881E223E8839FBF21
:10021000DF91CF9108958FB7F894EC91E22BEC9396
:100220008FBFF6CF3FB7F894809155029091560258
:10023000A0915702B091580226B5A89B05C02F3F48
:1002400019F00196A11DB11D3FBFBA2FA92F982FFC
:100250008827BC01CD01620F711D811D911D42E0F7
:10026000660F771F881F991F4A95D1F708952FB7FA
:10027000F8946091510270915202809153029091D2
:1002800054022FBF089508950895AF92BF92CF9260
:10029000DF92EF92FF920F931F93CF93DF936C0146
:1002A0007B018B01040F151FEB015E01AE18BF0827
:1002B000C017D10759F06991D601ED91FC910190D9
:1002C000F081E02DC6010995892B79F7C501DF91F1
:1002D000CF911F910F91FF90EF90DF90CF90BF9043
:1002E000AF900895FC01538D448D252F30E0842F6D
:1002F00090E0821B930B541710F0CF96089501974E
:100300000895FC01918D828D981761F0A28DAE0F3A
:10031000BF2FB11D5D968C91928D9F5F9F73928FC1
:1003200090E008958FEF9FEF0895FC01918D828DED
:10033000981731F0828DE80FF11D858D90E00895BA
:100340008FEF9FEF0895FC01918D228D892F90E012
:10035000805C9F4F821B91098F73992708958BECC6
:1003600094E00E94A30121E0892B09F420E0822F70
:10037000089580E090E0892B29F00E94AF0181115F
:100380000C9400000895FC01A48DA80FB92FB11D95
:10039000A35ABF4F2C91848D90E001968F739927BB
:1003A000848FA689B7892C93A089B1898C91837099
:1003B00080648C93938D848D981306C00288F38992
:1003C000E02D80818F7D80830895EF92FF920F93BF
:1003D0001F93CF93DF93EC0181E0888F9B8D8C8DF1
:1003E00098131AC0E889F989808185FF15C09FB7E5
:1003F000F894EE89FF896083E889F98980818370A8
:10040000806480839FBF81E090E0DF91CF911F9156
:100410000F91FF90EF900895F62E0B8D10E00F5F77
:100420001F4F0F731127E02E8C8D8E110CC00FB64D
:1004300007FCFACFE889F989808185FFF5CFCE01E5
:100440000E94C301F1CFEB8DEC0FFD2FF11DE35A9C
:10045000FF4FF0829FB7F8940B8FEA89FB89808168
:100460008062CFCFCF93DF93EC01888D8823B9F0E2
:10047000AA89BB89E889F9898C9185FD03C08081AF
:1004800086FD0DC00FB607FCF7CF8C9185FFF2CF2C
:10049000808185FFEDCFCE010E94C301E9CFDF91BE
:1004A000CF91089561E0FC0184810C9495008091C6
:1004B0004D028F3F39F48EBD00000DB407FEFDCF15
:1004C0008EB50895F894E0914802F0914902808138
:1004D00090914702892B808328E080E0E0914B02D5
:1004E000F0914C02308190914A02392B3083880F71
:1004F000A0914502B09146023C91409144023423C0
:1005000009F0816030819095932390830000000072
:10051000215021F7789408950F931F93CF93DF9381
:10052000EC010E9437018B010E9457028F3F69F056
:100530000E943701601B710B6C177D07A8F380E0E8
:10054000DF91CF911F910F91089581E0F9CF9091A4
:100550004D029F3F39F48EBD00000DB407FEFDCF64
:100560008EB50895F894E0914B02F0914C023091D1
:100570004A02532F5095A0914802B09149024091F0
:100580004702642F609598E02081252320832C91D9
:1005900087FF18C0242B2C932081232B2083880FC6
:1005A000915091F70000000000000000E0914B0224
:1005B000F0914C02908180914A028095892380833A
:1005C000789408952623E7CF8F929F92AF92BF929F
:1005D000FF920F931F93CF93DF93EC01F62E490107
:1005E0005A018E81882389F08F8198859C012F5F25
:1005F0003F4F38872F838230924018F40E94570271
:10060000F3CFCE010E9452021E8260E08C810E94D4
:1006100095008CE291E00E948C028F2D80640E94F4
:10062000A70208E110E0D501C401002E04C0B69570
:10063000A795979587950A94D2F70E94A70208502C
:100640001109083F8FEF180771F785E9FF2021F0A6
:1006500028E087E8F2128FEF0E94A70210E00E94C4
:1006600057028A8787FF04C01F3F11F01F5FF7CF33
:10067000DF91CF911F910F91FF90BF90AF909F900E
:100680008F900895AF92BF92CF92DF92EF92FF9238
:100690000F931F93CF93DF93EC016901C801820F81
:1006A000931F8130924050F58E81882379F08881A4
:1006B0009981AA81BB8184179507A607B70731F4F2
:1006C0008F819885C816D90608F042C0488359839F
:1006D0006A837B838B85833039F089E0440F551F13
:1006E000661F771F8A95D1F79A01AB0161E1CE01B0
:1006F0000E94E402882389F083E08D83CE010E946A
:10070000520280E0DF91CF911F910F91FF90EF9007
:10071000DF90CF90BF90AF9008950E9437015B01AA
:100720000E9457028A878F3F69F40E9437016A1935
:100730007B096D327140A0F38FE08D83CE010E9462
:100740005202DCCF8E3F89F418861F8281E08E83AF
:100750008F8198858C159D0550F40E9457028F81DA
:100760009885019698878F83F3CF8DE0E6CF670158
:10077000E00EF11E0E945702F60181936F01EE1503
:10078000FF05C1F78F819885080F191F18870F8300
:100790008985882319F001151240A0F08E818823E5
:1007A00089F08F8198859C012F5F3F4F38872F8379
:1007B0008230924018F40E945702F3CFCE010E947B
:1007C00052021E8281E09ECFCF92DF92EF92FF9283
:1007D0000F931F93CF93DF93EC01690182E14115E1
:1007E00051056105710599F08B85833039F0E9E099
:1007F000440F551F661F771FEA95D1F79A01AB0189
:1008000068E1CE010E94E402882319F084E08D8320
:1008100058C08C8596013E5F79010FEF1FEF88234A
:1008200019F1F60110E000E0819190E081279C0130
:1008300044E0359527954A95E1F782279327102FB5
:100840000027082719279C01322F22273295307F55
:100850000227132775E0880F991F7A95E1F708277B
:100860001927EE16FF0601F78EEF0E94A702F60188
:1008700081916F010E94A702EC14FD04C1F7812F42
:100880000E94A702802F0E94A7020E9457028A8717
:100890008F71853089F488E592E00E948C0288236C
:1008A000A9F020E030E0A9016DE0CE010E94E40251
:1008B000882371F084E1ABCF81E18D83CE010E946A
:1008C0005202CE010E94520280E00AC085E19FCF11
:1008D0000E9457028111EECFCE010E94520281E0A8
:1008E000DF91CF911F910F91FF90EF90DF90CF900C
:1008F0000895CF93DF93809138028823A9F1C091A6
:100900005904D0915A044091000150910101609125
:1009100002017091030129E532E0CE010E94E40357
:10092000811104C080E0DF91CF9108954091390298
:1009300050913A0260913B0270913C024115510581
:100940006105710579F029E532E0CE010E94E403EA
:10095000882341F31092390210923A0210923B021E
:1009600010923C021092380281E0DDCF8F929F926C
:10097000AF92BF92EF92FF920F931F93CF934B01D1
:100980005C01C42F8091000190910101A0910201AE
:10099000B091030188159905AA05BB0549F10E948C
:1009A000790481110BC080E0CF911F910F91FF90CE
:1009B000EF90BF90AF909F908F90089589E5E82EBB
:1009C00082E0F82E00E012E030E020E0B501A40162
:1009D0008091590490915A040E944203882319F38C
:1009E0008092000190920101A0920201B092030155
:1009F000409138024C2B4093380281E0D5CF8F9242
:100A00009F92AF92BF92CF92DF92EF92FF92CF93DD
:100A100028E635E030935A0420935904882309F4DA
:100A20006DC040E060E070E0CB010E94B60481112F
:100A30000BC080E0CF91FF90EF90DF90CF90BF9000
:100A4000AF909F908F900895809117048F7789F7CA
:100A50008091230490912404A0912504B091260450
:100A600084369105A105B10520F3C0901F04D090F4
:100A70002004E0902104F0902204C114D104E10488
:100A8000F104B9F240E0C701B6010E94B604882320
:100A900081F280916402909165028115924049F63D
:100AA000A0916902AA2329F26091670270916802FD
:100AB0006115710509F4BDCF20916602222309F466
:100AC000B8CFA09387052093790590E080E030E0CF
:100AD000E1E0F0E0C82FAF01082E02C0440F551F1F
:100AE0000A94E2F72417350769F041E0480F0196B0
:100AF0008930910579F7409382059BCFC12CD12C89
:100B00007601C0CF8093820520916F0230917002F0
:100B100050E040E02115310541F420917D023091F3
:100B20007E0240917F025091800220937A0530939B
:100B30007B0540937C0550937D0546015701860E49
:100B4000971EA11CB11C8092880590928905A092E5
:100B50008A05B0928B05E0916A02F0916B02F093E6
:100B60008E05E0938D05B0E00E94DA19DC01CB011F
:100B7000880D991DAA1DBB1D80938F05909390052C
:100B8000A0939105B093920525E0EE0FFF1F2A95E3
:100B9000E1F7E150FE4FEF2FFF27E6958E0F9F1FE5
:100BA000A11DB11D8093830590938405A0938505B5
:100BB000B093860580906C0290906D02B12CA12CB0
:100BC0008114910441F48090790290907A02A0906F
:100BD0007B02B0907C02C81AD90AEA0AFB0AC80C48
:100BE000D91CEA1CFB1C04C0F694E794D794C79464
:100BF000CA95D2F7C0927E05D0927F05E09280051B
:100C0000F092810585EFC8168FE0D806E104F10463
:100C100028F48CE080938C0581E00CCF80E125EFF7
:100C2000C2162FEFD206E104F104A0F380918502F1
:100C300090918602A0918702B091880280938F05DF
:100C400090939005A0939105B093920580E2E2CF36
:100C50004F925F926F927F928F929F92AF92BF92CC
:100C6000CF92DF92EF92FF920F931F93CF93DF9378
:100C7000EC01423051056105710590F480E0DF918F
:100C8000CF911F910F91FF90EF90DF90CF90BF9089
:100C9000AF909F908F907F906F905F904F9008954E
:100CA00089859A85AB85BC850196A11DB11D8417E8
:100CB0009507A607B70710F3CB88DC88ED88FE8878
:100CC0008F89803109F042C0BB27A72F962F852F2F
:100CD000480159012A013B01C80ED91EEA1EFB1E1C
:100CE0008091000190910101A0910201B091030156
:100CF000C816D906EA06FB0699F58F898031C1F539
:100D0000B301A201552766277727440F551F475A7D
:100D10005D4FFA01918280828091380281608093D8
:100D200038028A89823080F08D819E81AF81B885BA
:100D30008C0D9D1DAE1DBF1D8093390290933A020C
:100D4000A0933B02B0933C0281E099CFDB01CA0142
:100D5000E7E0B695A79597958795EA95D1F7B8CF2F
:100D600040E0C701B6010E94B6048111C6CF86CF0C
:100D7000B301A2014F77552766277727440F551FE8
:100D8000440F551F475A5D4FFA0180829182A2821B
:100D9000B382C2CF8F929F92AF92BF92CF92DF92D7
:100DA000EF92FF920F931F93CF93DF93FC01818506
:100DB0009285A385B4850196A11DB11D8417950761
:100DC000A607B70770F480E0DF91CF911F910F91D4
:100DD000FF90EF90DF90CF90BF90AF909F908F905B
:100DE000089583889488A588B6888789803189F595
:100DF000BB27A72F962F852FE9016A017B018F0161
:100E0000BC01CD01680D791D8A1D9B1D80900001DC
:100E100090900101A0900201B09003018616970600
:100E2000A806B90601F5F8018789803111F5DD249E
:100E3000EE24FF24F601EE0FFF1FE75AFD4F8081DD
:100E40009181B0E0A0E088839983AA83BB8381E08D
:100E5000BBCFDB01CA01C7E0B695A79597958795EB
:100E6000CA95D1F7C9CF40E00E94B6048111DBCF0B
:100E7000AACFE894C7F8DD24EE24FF24F601EE0F94
:100E8000FF1FEE0FFF1FE75AFD4F80819181A28166
:100E9000B381BF70D8CF4F925F926F927F92AF9223
:100EA000BF92CF92DF92EF92FF920F931F93CF9357
:100EB000DF9300D000D0CDB7DEB78C0149835A83D1
:100EC0006B837C835901C12CD12C7601412C82E0AB
:100ED000582E612C712C49815A816B817C819E0135
:100EE0002F5F3F4FC8010E94CA06882339F1F801DD
:100EF0008585A301920104C0220F331F441F551F93
:100F00008A95D2F7DA01C901C80ED91EEA1EFB1E66
:100F100049815A816B817C818789803111F188EF09
:100F20009FEFAFEFBFE0481759076A077B0798F2BA
:100F3000F501C082D182E282F38281E00F900F90AE
:100F40000F900F90DF91CF911F910F91FF90EF9035
:100F5000DF90CF90BF90AF907F906F905F904F9059
:100F6000089588EF9FEFA0E0B0E0DDCF8F929F92D1
:100F7000AF92BF92CF92DF92EF92FF920F931F93A7
:100F8000CF93DF93EC018D8181110EC080E0DF9162
:100F9000CF911F910F91FF90EF90DF90CF90BF9076
:100FA000AF909F908F9008950B891C892D893E8961
:100FB000041715072607370748F34A015B018230FB
:100FC00031F48A869B86AC86BD8681E0E0CF8114B1
:100FD0009104A104B10449F41E821F821886198667
:100FE0001A861B861C861D86F0CF0A851B852C85DC
:100FF0003D85EB8DFC8D858590E00996B901A801B2
:101000004150510961097109082E04C07695679510
:10101000579547950A94D2F775016401E1E0CE1A1D
:10102000D108E108F10804C0F694E794D794C79476
:101030008A95D2F7C416D506E606F70620F0012BEE
:10104000022B032B11F58F89988DA98DBA8D8E8374
:101050009F83A887B9878E010A5F1F4FC114D104EF
:10106000E104F10409F4ADCF4E815F816885798593
:1010700098018B8D9C8D0E94CA0691E0C91AD108F7
:10108000E108F1088111EACF81CFC41AD50AE60A36
:10109000F70AE1CF3F924F925F926F927F928F92C9
:1010A0009F92AF92BF92CF92DF92EF92FF920F93F7
:1010B0001F93CF93DF93CDB7DEB72C970FB6F8947D
:1010C000DEBF0FBECDBF5C01DC015B968D909C90B6
:1010D0005C9716964D905D906D907C901997411499
:1010E00051046104710409F468C0BFEF4B1A5B0A34
:1010F0006B0A7B0A312CF40181859285A385B48526
:101100009C01AD012F5F3F4F4F4F5F4F29873A87BB
:101110004B875C87730162011D821E821F821886C5
:10112000F40181859285A385B4852D813E814F810F
:101130005885281739074A075B0708F056C0898584
:101140009A85AB85BC858C159D05AE05BF0550F411
:1011500082E0C82ED12CE12CF12C92E0492E512CAA
:10116000612C712C9E012F5F3F4FB701A601C40176
:101170000E94CA068823C9F189819A81AB81BC810A
:10118000892B8A2B8B2B09F1260137019FEF491AF6
:10119000590A690A790A2D813E814F8158852F5F4E
:1011A0003F4F4F4F5F4F2D833E834F8358873FEF15
:1011B000C31AD30AE30AF30AB3CFF4014080518083
:1011C000628073803324339496CFC414D504E6042C
:1011D000F70409F70FEF1FEF2FEF3FE0B701A6016C
:1011E000C4010E942806811119C080E02C960FB618
:1011F000F894DEBF0FBECDBFDF91CF911F910F914D
:10120000FF90EF90DF90CF90BF90AF909F908F9026
:101210007F906F905F904F903F900895F5014681C9
:10122000578160857185411551056105710539F05A
:1012300097018601C4010E9428068823B1F2D501D6
:101240001696CD92DD92ED92FC921997332051F0D3
:10125000D701C6010196A11DB11DF40180839183C0
:10126000A283B383F5018789908DA18DB28D892BDF
:101270008A2B8B2B39F4C78AD08EE18EF28E848133
:101280008068848381E0B2CFCF93DF93EC018D81BE
:10129000882389F18C8187FF2AC06E857F858889A4
:1012A000998941E00E94B604882329F1EA8980E205
:1012B000E89FF0011124E75AFD4F3097E1F08D814E
:1012C000823040F48B899C89AD89BE89848F958F4B
:1012D000A68FB78F8F89988D938F828F8F89988DE6
:1012E000A98DBA8DB58BA48B8C818F778C83DF9180
:1012F000CF910C94790480E0DF91CF910895CF9342
:10130000DF93EC010E944409882311F01D8281E0E3
:10131000DF91CF9108952F923F924F925F926F92FB
:101320007F928F929F92AF92BF92CF92DF92EF9275
:10133000FF920F931F93CF93DF9300D000D0CDB7D0
:10134000DEB78C015B011A01DC0115968C911597B3
:10135000813009F0C8C014968C9181FFC4C082FD11
:10136000AEC06101D8011A964D915D916D917C914D
:101370001D97C114D10409F429C15B968D919C91EC
:101380005C97FC0174802FEF270D2A013B0139E0A7
:1013900076946794579447943A95D1F7722E7420B7
:1013A0007A01F1E0FF22711020C0E114F104E9F4A8
:1013B00016964D915D916D917C911997411551054E
:1013C0006105710509F098C057968D919D910D901A
:1013D000BC91A02D0097A105B10509F0AFC0C801CF
:1013E0000E944A08882309F47EC080E092E08E19AA
:1013F0009F0946018C159D0508F44C01D8015B96A8
:101400004D915C915C9716968D919D910D90BC913C
:10141000A02D0297A109B109FA01258504C0880F02
:10142000991FAA1FBB1F2A95D2F746855785608949
:101430007189840F951FA61FB71F9C01AD01270D51
:10144000311D411D511D29013A01811432E09306DD
:1014500009F07AC08091000190910101A0910201F0
:10146000B091030184159505A605B70559F48FEFD2
:101470009FEFDC018093000190930101A093020192
:10148000B09303019501B301A20180915904909199
:101490005A040E94E403882331F19EEFB91AC81858
:1014A000D908F80182859385A485B585880D991D95
:1014B000A11DB11D82879387A487B58753CFF801FB
:1014C000438954896589768982859385A485B58504
:1014D000481759076A077B0709F443CFC8010E94E0
:1014E000B60781113ECF81E090E0D80113969C931E
:1014F0008E93129780E007C09E012F5F3F4F0E949E
:10150000CA06811102C090E077C089819A81AB81BF
:10151000BC81F801238D348DF901278948EF5FEFF5
:1015200060E070E0203121F048EF5FEF6FEF7FE087
:1015300084179507A607B70708F051CFF8018683EF
:101540009783A087B18751CFE114F10491F5D801B9
:101550001A964D915D916D917C911D9753968D9149
:101560009D910D90BC91A02D481759076A077B07E4
:1015700000F10E947904882309F4B5CF409200015C
:101580005092010160920201709203018091380231
:101590008160809338029701275A3D4FD501C901D8
:1015A000880D991DF9018E179F0759F04D914193B0
:1015B000FACF41E0C301B2010E94B6048111EBCF22
:1015C00092CF821B930BA80EB91E69CFF8018389B5
:1015D0009489A589B68984179507A607B70738F4B3
:1015E0008481438B548B658B768B80688483F80170
:1015F000848183FD18C0C1010F900F900F900F9050
:10160000DF91CF911F910F91FF90EF90DF90CF90DE
:10161000BF90AF909F908F907F906F905F904F9012
:101620003F902F900895C8010E944409882309F42F
:101630005ACFE1CFCF93DF931F92CDB7DEB7698347
:1016400041E050E0BE016F5F7F4F0E948B090F9019
:10165000DF91CF9108959CB59C7F282F2370922B0A
:101660009CBD9DB59E7F86958695892B8DBD0895E1
:10167000FC01DB0112968D919C91139793838283D9
:1016800080E291E09183808314968C9114978483F7
:1016900015968C911597858316964D915D916D9158
:1016A0007C91199746835783608771871A964D916D
:1016B0005D916D917C911D974287538764877587F3
:1016C0001E964D915D916D917C91519746875787FC
:1016D000608B718B52968C915297828B53964D9161
:1016E0005D916D917C915697438B548B658B768B76
:1016F00057964D915D916D917C915A97478B508F84
:10170000618F728F5B968D919C91948F838F0895DA
:101710000895FC01818D928D009711F00C9444097D
:101720000895DC015996ED91FC913097B9F08389C9
:101730009489A589B6894285538564857585841BFE
:10174000950BA60BB70B811520E89207A105B105F3
:1017500038F08FEF9FE7A0E0B0E0089590E080E0E0
:101760000895CF93DF93EC01E98DFA8D309749F41A
:1017700081E090E09B838A8390E080E0DF91CF91CD
:10178000089513821282898D9A8D0E948B09E98DAA
:10179000FA8D22813381232B59F7F0CFCF93DF933A
:1017A0001F92CDB7DEB76983DC01ED91FC91028019
:1017B000F381E02D41E050E0BE016F5F7F4F09955E
:1017C0000F90DF91CF9108952F923F924F925F92A9
:1017D0006F927F928F929F92AF92BF92CF92DF9241
:1017E000EF92FF920F931F93CF93DF9300D01F923E
:1017F000CDB7DEB7FC018581811118C08FEF9FEF57
:101800000F900F900F90DF91CF911F910F91FF904C
:10181000EF90DF90CF90BF90AF909F908F907F9090
:101820006F905F904F903F902F900895848180FF3C
:10183000E5CF438954896589768982859385A48516
:10184000B585312C212C481759076A077B0719F0F9
:1018500022242394312C6F012101CE0101963C01F9
:10186000DF011696BB83AA834114510409F4C5C055
:10187000F60142855385648575854A01F1E09F2212
:10188000D6015B968D919C915C978A019B01E9E062
:101890003695279517950795EA95D1F71596EC910A
:1018A000E230E9F5FC01628D738D848D958D600FBA
:1018B000711F821F931FA12C22E0B22EA818B90815
:1018C0004A145B0408F45201F601248126FD04C089
:1018D000A114F2E0BF0671F4009100011091010122
:1018E00020910201309103010617170728073907D5
:1018F00009F05EC040E00E94B604882309F47ECF60
:10190000C401875A9D4FD3019C012A0D3B1DFC0148
:101910002E173F0709F46CC041914D93F9CFDC01BC
:101920001496BC90BA94B0228114910479F4B11049
:101930000DC0452B462B472B69F5F6018789908D05
:10194000A18DB28D86839783A087B187D6015B96E0
:10195000ED91FC915C9716966D917D918D919C9186
:1019600019976250710981099109258504C0660F94
:10197000771F881F991F2A95D2F70685178520891A
:101980003189600F711F821F931F6B0D711D811DA7
:10199000911D91CFD60116964D915D916D917C91DF
:1019A00019972A813B810E94CA068111CFCF26CF89
:1019B000730185019401AB01BC01809159049091A0
:1019C0005A040E944203882309F418CF6A0C7B1C36
:1019D000F60182859385A485B5858A0D9B1DA11D81
:1019E000B11D82879387A487B5874A185B083CCFCF
:1019F000281B390B620E731EEBCF2A94232809F0A3
:101A0000FDCE898190E0FCCEFC01818D928D009706
:101A100011F00C94E40B8FEF9FEF08950F931F9339
:101A2000CF93DF93EC01898D9A8D10E000E0009751
:101A300099F00E94E40B8C010F3F100769F0898D2B
:101A40009A8DFC0142855385648575854150510905
:101A5000610971090E94B607C801DF91CF911F91FA
:101A60000F910895FC01908190539A3008F090E016
:101A7000818180532AE0929F800D11240895209146
:101A80001502260F3327331F21323105ECF4209144
:101A9000C504FC0190E080E0243069F082E0089504
:101AA000A09115022191AC014B505E4FA40FB52FB0
:101AB000B11D2C930196861798F380911502680F3B
:101AC0006093150280E0089581E008951092C504A6
:101AD00081E08093A40410929F0461E082E10E945F
:101AE000950061E083E10E949500E9EBF0E08081E0
:101AF0008E7F808380818D7F808388E48093B8008F
:101B000085E48093BC000895CF93DF9391E0909398
:101B1000F4018823B9F0C091B800D091BA00809147
:101B2000BC008A7B8093BC0060E082E10E9495004B
:101B300060E083E10E9495000E94660DD093BA0098
:101B4000C093B800DF91CF910895CF92DF92EF92CA
:101B5000FF920F931F93CF93DF93D82FC62F61323D
:101B600008F098C00E9412016B017C018091C504AD
:101B700081116BC081E08093C5048093A4049FEF22
:101B80009093A3041092A2049C0F9093A1048093BD
:101B9000A0048091A004DD0FD82BD093A0048091E5
:101BA0009F04813009F078C010929F040E941201B6
:101BB0006B017C018091A0048093BB008091C704DD
:101BC0009091C804A091C904B091CA04892B8A2BB2
:101BD0008B2BA1F00E9412010091C7041091C80440
:101BE0002091C9043091CA046C197D098E099F099E
:101BF000061717072807390708F448C08091BC006A
:101C000083FDD8CF85EC8093BC000E9412016B014C
:101C10007C018091C504813009F440C08091A20408
:101C20008C1710F4C091A204EFE7F4E0A5EAB4E049
:101C300080E08C1355C08C2FDF91CF911F910F91B5
:101C4000FF90EF90DF90CF9008958091C70490911E
:101C5000C804A091C904B091CA04892B8A2B8B2B8C
:101C600009F484CF0E9412010091C7041091C804A6
:101C70002091C9043091CA046C197D098E099F090D
:101C8000061717072807390708F070CF8091C60498
:101C90000E94840DC0E0CFCF85EEB5CF8091C70400
:101CA0009091C804A091C904B091CA04892B8A2BD1
:101CB0008B2B09F4AECF0E9412010091C704109142
:101CC000C8042091C9043091CA046C197D098E0999
:101CD0009F09061717072807390708F09ACFD6CFAC
:101CE00091919D938F5FA5CF8F929F92AF92BF925C
:101CF000CF92DF92EF92FF920F931F93CF93DF93D8
:101D0000D0917E04D13208F0D7C0182FC0917D0445
:101D10000E9412016B017C018091C50481116BC08E
:101D200082E08093C5041093A4048FEF8093A304F2
:101D30001092A204D093A104ADE5B4E0EFE7F4E083
:101D400080E0D81391C01092A0048091A004CC0F21
:101D5000C82BC093A00480919F04813009F088C0F3
:101D600010929F040E9412016B017C018091A004DB
:101D70008093BB008091C7049091C804A091C904CE
:101D8000B091CA04892B8A2B8B2BA1F00E941201DF
:101D90000091C7041091C8042091C9043091CA046D
:101DA0006C197D098E099F0906171707280739073F
:101DB00008F442C08091BC0083FDD8CF85EC8093AD
:101DC000BC000E9412016B017C018091C50482302D
:101DD00009F450C08091A3048F3F09F46FC0809133
:101DE000A304803209F46CC08091A304803309F409
:101DF00069C084E026C08091C7049091C804A09176
:101E0000C904B091CA04892B8A2B8B2B09F484CF87
:101E10000E9412018090C7049090C804A090C90449
:101E2000B090CA046C197D098E099F098616970621
:101E3000A806B90608F070CF8091C6040E94840DF0
:101E400085E010925C0410927E0410925B04DF9196
:101E5000CF911F910F91FF90EF90DF90CF90BF90A7
:101E6000AF909F908F9008959D9191938F5F69CFD0
:101E700085EEA5CF8091C7049091C804A091C904B4
:101E8000B091CA04892B8A2B8B2B09F49ECF0E9418
:101E900012010091C7041091C8042091C904309127
:101EA000CA046C197D098E099F09061717072807B0
:101EB000390708F08ACFC0CF81E0C3CF80E0C1CF1F
:101EC00082E0BFCF83E0BDCF0895E09142028091D0
:101ED0004102E81730F4F0E0EB55FB4F808190E0D1
:101EE00008958FEF9FEF08959091420280914102F3
:101EF0002FEF3FEF981748F4E92FF0E0EB55FB4F39
:101F0000208130E09F5F90934202C9010895809143
:101F1000410290914202891B990B0895CF92DF9262
:101F2000EF92FF920F931F93CF93DF937C01CB012E
:101F30008A0120915B04222389F0EB016B01C40E1E
:101F4000D51ECC15DD0569F06991D701ED91FC91A5
:101F50000190F081E02DC7010995F3CF642F0E9415
:101F60003F0DC801DF91CF911F910F91FF90EF902E
:101F7000DF90CF900895CF93DF931F92CDB7DEB758
:101F8000698320915B042223F9F020917E042032A2
:101F900058F021E030E0FC013383228390E080E0C0
:101FA0000F90DF91CF91089580915C04E82FF0E0CD
:101FB000E35AFB4F998190838F5F80935C048093F9
:101FC0007E0481E090E0ECCF61E0CE0101960E94BA
:101FD0003F0DF7CF90E080E00895CF92DF92FF921F
:101FE0000F931F93CF93DF936C0181E080935B0489
:101FF00088E680937D0410925C0410927E0460E079
:1020000082EB95E00E94BB0F81E00E94740E67E0B6
:1020100088E60E94A50D109242028093410282EB55
:1020200095E00E94740F8F77282F30E094E035956B
:1020300027959A95E1F7922F990F990FC22FC91BF7
:10204000CC0FC80F82EB95E00E94740F9C0144E016
:10205000359527954A95E1F72F703327922F990FE1
:10206000990FD22FD91BDD0FD80F82EB95E00E947C
:10207000740F9C0154E0359527955A95E1F72F7020
:102080003327922F990F990F122F191B110F180F29
:1020900082EB95E00E94740F82EB95E00E94740F32
:1020A0009C0164E0359527956A95E1F72F703327F9
:1020B000922F990F990F022F091B000F080F82EB27
:1020C00095E00E94740F9C0174E0359527957A95F0
:1020D000E1F72F703327922F990F990FF22EF91AEB
:1020E000FF0CF80E82EB95E00E94740F9C01E4E077
:1020F00035952795EA95E1F72F703327922F990FA1
:10210000990F291B220F820FF6018083F18202832F
:102110001383D483C583C601DF91CF911F910F91A3
:10212000FF90DF90CF900895CF92DF92EF92FF92D1
:102130001F93CF93DF93EC0180E2689FF00111249D
:10214000E75AFD4F9385917161F0842F827449F0B5
:1021500080E0DF91CF911F91FF90EF90DF90CF90C3
:102160000895142F6A8B8091000190910101A09134
:102170000201B09103018E879F87A88BB98BC48819
:10218000D588F12CE12C7601DD24CC24CF8AD88EA1
:10219000E98EFA8E828D938DB0E0A0E0AC01BD0196
:1021A0004C295D296E297F294F8B588F698F7A8F33
:1021B00083858871B1F4848D958DA68DB78D8B8BB9
:1021C0009C8BAD8BBE8B81E08D831F701C831E8228
:1021D0001F82188619861A861B861C861D8681E03A
:1021E000B8CF803109F0B4CF9E012D5E3F4F8B8D6B
:1021F0009C8D0E944B07882309F4AACF84E0E4CF8A
:10220000FB0101900020E9F73197AF01461B570B06
:10221000DC01ED91FC910280F381E02D09948F9215
:102220009F92AF92BF920F931F93CF93DF93CDB73F
:10223000DEB7A1970FB6F894DEBF0FBECDBF19A2CF
:10224000423008F44AE08E010F5D1F4F842E912C1E
:10225000B12CA12CA50194010E94001AE62FB9010E
:10226000CA01EA3004F5E05DD801EE938D01232B1D
:10227000242B252B79F790E080E0109729F0BD0101
:1022800084EC95E00E940011A1960FB6F894DEBF91
:102290000FBECDBFDF91CF911F910F91BF90AF9037
:1022A0009F908F900895E95CDFCF0F931F93CF939A
:1022B000DF93EC010E9400118C016CE471E0CE010F
:1022C0000E940011800F911FDF91CF911F910F91FC
:1022D00008953F924F925F926F927F928F929F925A
:1022E000AF92BF92CF92DF92EF92FF920F931F9324
:1022F000CF93DF93CDB7DEB72B970FB6F894DEBF41
:102300000FBECDBF7C01FE013196CE010C966F0150
:1023100030E23193E817F907E1F7DA0130E087E0BE
:102320009D91B92E992309F43CC09E32F1F48A3074
:10233000C9F480E02B960FB6F894DEBF0FBECDBF78
:10234000DF91CF911F910F91FF90EF90DF90CF9091
:10235000BF90AF909F908F907F906F905F904F90C5
:102360003F90089538E08AE0DBCFE8E6F0E0449162
:10237000442321F031969413FACFDBCF8317C8F2B0
:102380004FED490F4E35A8F64FE9490F4A3118F481
:1023900040EEB42EB90EF601E30FF11DB0823F5F9F
:1023A000BFCF8981803229F2322E8B01DB015B960F
:1023B0008D919C915C97F701948F838F16961D9257
:1023C0001D921D921C921997FB011286138614868A
:1023D0001586F80182859385A485B585438954893E
:1023E0006589768984179507A607B70708F04DC059
:1023F00025E0B695A795979587952A95D1F7F82F5B
:10240000FF70AF2ED80115968C91823008F491CFD1
:10241000C8010E94E40B97FD8CCFF801828593855B
:10242000A485B5854F96A11DB11D82879387A4878A
:10243000B587F0E2AF9EB0011124675A7D4F611558
:10244000710509F476CFDB018C91882341F0853E3C
:1024500009F061C0BB2029F0BB24B394BACFB110FE
:102460000EC0F701A28A8091000190910101A09114
:102470000201B091030186879787A08BB18BDB01A6
:102480008C918111E9CFBB24B394832D8271823169
:1024900009F04FCFBB2009F44CC0F7016685778562
:1024A0008089918941E00E94B604882309F441CFD4
:1024B000D70152968C91B0E28B9FC0011124875AAC
:1024C0009D4F009709F435CFFC013A9626E1DF01D4
:1024D0001D922A95E9F72BE0F601DC0101900D929F
:1024E0002A95E1F721E238E2FC01318B208B40E0B4
:1024F00058E057874687338B228B318F208F578B3D
:10250000468B0E947904882309F413CF432DD70109
:1025100052966C910AC04BE050E0C6010E944D1BE0
:10252000892B09F056CF432D6A2DC7010E949410C4
:1025300001CFF8018581823009F4FBCEC8010E94E9
:102540004A08882309F4F5CED8015B96ED91FC91F9
:102550005C9716968D909D90AD90BC901997B2E0C7
:102560008B1A9108A108B108858504C0880C991CB4
:10257000AA1CBB1C8A95D2F786859785A089B1894C
:10258000880E991EAA1EBB1E848124013501480EA7
:10259000511C611C711C84149504A604B70401F13C
:1025A000E1E04E1A5108610871080E9479048823FD
:1025B00009F4BFCEE9E5F2E0119289E594E08E17C7
:1025C0009F07D1F7409200015092010160920201F1
:1025D0007092030180913802816080933802DBCFD2
:1025E000D8015B96ED91FC91258580E092E0A0E01A
:1025F000B0E004C0880F991FAA1FBB1F2A95D2F70D
:10260000F8014389548965897689840F951FA61F2F
:10261000B71F838B948BA58BB68BD70152961C92D8
:1026200089E592E051CFEF92FF920F931F93CF93E2
:10263000DF93EC017B018A011B821A8288EE93E012
:10264000A0E0B0E08C839D83AE83BF838EE391E0F6
:10265000998388838DE190E00E94281A9A8F898F50
:10266000009779F02DE1F701DC0101900D922A9598
:10267000E1F74CE050E0B801CE010C960E945A1BE5
:10268000188EDF91CF911F910F91FF90EF900895D9
:1026900085ED8093BC008091C7049091C804A091FF
:1026A000C904B091CA040796A11DB11D23E0B695D7
:1026B000A795979587952A95D1F72091BC0024FD81
:1026C00003C01092C50408954091C7045091C804F6
:1026D0006091C9047091CA04452B462B472B69F3BE
:1026E0000097A105B10541F025E32A95F1F7000017
:1026F0000197A109B109E1CF8091C6040C94840D22
:102700001F920F920FB60F9211242F933F938F9326
:102710009F93AF93BF938091510290915202A091E9
:102720005302B09154023091500223E0230F2D3711
:1027300058F50196A11DB11D2093500280935102BE
:1027400090935202A0935302B09354028091550289
:1027500090915602A0915702B09158020196A11D86
:10276000B11D8093550290935602A0935702B093E7
:102770005802BF91AF919F918F913F912F910F90F0
:102780000FBE0F901F90189526E8230F0296A11DEB
:10279000B11DD2CF1F920F920FB60F9211242F931B
:1027A0003F934F935F936F937F938F939F93AF93D9
:1027B000BF93EF93FF938BEC94E00E94C301FF91D2
:1027C000EF91BF91AF919F918F917F916F915F91A9
:1027D0004F913F912F910F900FBE0F901F90189522
:1027E0001F920F920FB60F9211242F938F939F93E6
:1027F000EF93FF93E091DB04F091DC048081E091A2
:10280000E104F091E20482FD1BC090818091E40418
:102810008F5F8F732091E504821741F0E091E4040B
:10282000F0E0E553FB4F958F8093E404FF91EF9127
:102830009F918F912F910F900FBE0F901F90189521
:102840008081F4CF1F920F920FB60F9211242F9315
:102850003F934F935F936F937F938F939F93AF9328
:10286000BF93EF93FF938091B900887F803609F47E
:102870004AC0F0F5883209F4A7C018F5803109F490
:102880009BC0B8F4882309F4F9C0883009F494C0D7
:10289000FF91EF91BF91AF919F918F917F916F9138
:1028A0005F914F913F912F910F900FBE0F901F900E
:1028B0001895883109F488C0803251F78093A304B9
:1028C00014C0803409F49DC040F48033B9F38833D8
:1028D000F9F68093A30485ECB0C0803509F485C077
:1028E000883509F496C0883499F60E944813D0CFF1
:1028F000883909F48CC038F5883729F050F48836C7
:1029000011F0803729F683E08093C50410923702D6
:1029100057C0883809F47BC0803919F0803809F035
:10292000B7CF80913702803208F071C0E091370252
:1029300081E08E0F809337028091BB00F0E0E95E6A
:10294000FD4F80833DC0803B39F0E0F4803A09F4CC
:1029500079C0883A09F09CCF84E08093C504109236
:10296000160210921502E0913D02F0913E02099587
:102970008091150281110FC081E0809315021092A1
:10298000F50109C0803C09F4A6CF883C09F4A3CF27
:10299000883B09F07DCFE091160281E08E0F809395
:1029A0001602F0E0EB50FE4F80818093BB009091C7
:1029B00016028091150229C08091A0048093BB006B
:1029C00085EC8093BC0064CF9091A2048091A10417
:1029D000981758F5E091A20481E08E0F8093A2042D
:1029E000F0E0E158FB4F8081E9CFE091A20481E063
:1029F0008E0F8093A2048091BB00F0E0E158FB4F62
:102A000080839091A2048091A1049817C8F285E870
:102A1000D8CFE091A20481E08E0F8093A204809130
:102A2000BB00F0E0E158FB4F80838091A40481114A
:102A30005CCF81E080939F0484EA8093BC00109275
:102A4000C50426CF85EC8093BC001092C50480910C
:102A50003702803230F4E0913702F0E0E95EFD4F5A
:102A600010826091370270E0E0913F02F0914002E5
:102A700087E192E00995109237020ACF1092A304E1
:102A800034CF1092CE041092CD0488EE93E0A0E0F3
:102A9000B0E08093CF049093D004A093D104B0937E
:102AA000D2042EE031E03093CC042093CB0425EC0B
:102AB00030E03093D8042093D70424EC30E03093F6
:102AC000DA042093D90420EC30E03093DC04209326
:102AD000DB0421EC30E03093DE042093DD0422ECB3
:102AE00030E03093E0042093DF0426EC30E03093B4
:102AF000E2042093E1041092E4041092E5041092A1
:102B0000E6041092E70410926D0510926E05109283
:102B100071051092730542E050E060E070E0409370
:102B2000750550937605609377057093780510923C
:102B30008C05109296051092950520E231E03093B5
:102B4000940520939305109298051092B505109264
:102B5000B4058093B6059093B705A093B805B093DC
:102B6000B9052CE231E03093B3052093B205109201
:102B7000C7051092C6058093C8059093C905A09318
:102B8000CA05B093CB058EE391E09093C505809381
:102B9000C4051092DE051092DD051092D00510924A
:102BA000C3051092C2051092C1051092BE05E8EC53
:102BB000F0E081E08C3049F09491823009F49F5F1D
:102BC00021E0280F3196992331F08093BF0581E0F1
:102BD0008093C0050895822FEDCFCF93DF93CDB7BB
:102BE000DEB7C257D1090FB6F894DEBF0FBECDBF16
:102BF000789484B5826084BD84B5816084BD85B5D8
:102C0000826085BD85B5816085BD80916E008160E3
:102C100080936E0010928100809181008260809389
:102C2000810080918100816080938100809180008B
:102C30008160809380008091B10084608093B100B6
:102C40008091B00081608093B00080917A008460B0
:102C500080937A0080917A00826080937A008091DC
:102C60007A00816080937A0080917A0080688093F6
:102C70007A001092C1001092420210927E040E94CB
:102C8000660D83E491E090933E0280933D0284E4DC
:102C900091E09093400280933F020E94660D08E607
:102CA00000937D0481E00E94740EBB24B394B09223
:102CB0005B0410925C0410927E0460E082EB95E06D
:102CC0000E94BB0F81E00E94740E61E088E60E94C2
:102CD000A50D8093410282EB95E00E94740F87FF5F
:102CE0007BC06FE471E08BEC94E00E94551183E7A8
:102CF00091E00E94320D182F8EE691E00E94320D75
:102D0000F82E86E791E00E94320DE82E89E791E0E7
:102D10000E94320DD82E8CE791E00E94320DC82E11
:102D2000B0925B0400937D0410925C0410927E04C8
:102D300060E082EB95E00E94BB0F0AE08C2D602FD3
:102D40000E94F419682F660F680F660F6C0D82EBF6
:102D500095E00E94BB0F8D2D602F0E94F419682F03
:102D6000660F680F660F6D0D82EB95E00E94BB0F3A
:102D70008E2D602F0E94F419682F660F680F660F62
:102D80006E0D82EB95E00E94BB0F60E082EB95E058
:102D90000E94BB0F8F2D602F0E94F419682F660FC1
:102DA000680F660F6F0D82EB95E00E94BB0F67E026
:102DB00082EB95E00E94BB0F812F602F0E94F419D7
:102DC000682F660F680F660F610F82EB95E00E9417
:102DD000BB0F81E00E94740E6FE771E08BEC94E012
:102DE0000E945511109273051092710510926E0594
:102DF00010926D05109274058AE080936C058FEF38
:102E000080934F0280934E0280934D020E943701BF
:102E10008B0161E080916C050E94E10088E695E0FD
:102E20000E945202FFB6F89480914302811127C09C
:102E3000E6E9F0E08491EAEAF0E09491E82FF0E02E
:102E4000EE0FFF1FE858FF4FA591B491EC91E923D5
:102E500021F461E08AE00E94950061E08AE00E942E
:102E6000E1008CB580618CBD8CB580648CBD61E067
:102E70008DE00E94E10061E08BE00E94E100809122
:102E800043028F5F80934302FFBE83E00E942B0BBF
:102E90005AE0F52E8FEF0E94A702FA94F110FACFB4
:102EA00060E080916C050E94950020E030E0A9016F
:102EB00060E088E695E00E94E402F82E80937205B7
:102EC00021E0821709F45DC00E943701601B710B7D
:102ED000613D774050F381E080936D0588E695E091
:102EE0000E9452026BE971E08BEC94E00E94551154
:102EF00000E010E00E9412014B015C0180EDC82E41
:102F000087E0D82EE12CF12C0E9412016819790972
:102F10008A099B09683E734081059105A8F321E069
:102F2000C21AD108E108F10888EE880E83E0981EE5
:102F3000A11CB11CC114D104E104F10429F7CE0194
:102F400001960E94ED0F86E0FE013196AEEBB5E0F2
:102F500001900D928A95E1F764EE71E08BEC94E0BC
:102F60000E9455118BEC94E00E948101011511051E
:102F700009F20E94AF01882309F4BCCF0E9400002F
:102F8000B9CF2AEA31E040E050E068E088E695E019
:102F90000E94E40282FF2AC0F092730580917305BB
:102FA000C12CD12C7601823029F4C12CD12CE12CFA
:102FB00030E4F32E20E030E0A90167E388E695E0F5
:102FC0000E94E402A701960169E288E695E00E946A
:102FD000E402809372058823D1F00E943701601BC0
:102FE000710B613D774030F388E076CF44E0F42EFA
:102FF0000E94570280937205FA94F110F9CF8A3A31
:1030000011F082E069CF82E080937305C7CF809191
:1030100073058230D1F420E030E0A9016AE388E64C
:1030200095E00E94E402882311F086E055CF0E94CB
:103030005702807C803C19F483E0809373050E94E2
:1030400057020E9457020E94570288E695E00E94AC
:10305000520280914D028F3F19F480E00E942B0BA9
:1030600081E00E94FF04882309F446C180919805FD
:10307000811138CF80918C05803109F044C182E004
:10308000809398051092AA051092AB051092AC059A
:103090001092AD0580918D0590918E05B0E0A0E075
:1030A00025E0880F991FAA1FBB1F2A95D1F780938F
:1030B000A6059093A705A093A805B093A90585E759
:1030C00095E09093AF058093AE0581E080939705DE
:1030D0001092990510929A0510929B0510929C05EA
:1030E00010929D0510929E0510929F051092A005CA
:1030F0001092A1051092A2051092A3051092A405AA
:103100001092A5056FE871E08BEC94E00E945511D8
:10311000CE0101960E94ED0F86E0FE013196AEEBE6
:10312000B5E001900D928A95E1F763E975E0CE0173
:1031300001960E94380BBE016F5F7F4FCE01CB9688
:103140000E94380B19A218A280E291E09F8F8E8F07
:103150001BA221968FAD21978111F4C06C961FAEF2
:103160001EAE6C9788EE93E0A0E0B0E0A0968CAF26
:103170009DAFAEAFBFAFA0978EE391E06A969FAFD1
:103180008EAF6A97E3961FAE1EAEE397A5961FAE6D
:10319000A5976C968EAD9FAD6C979093C705809365
:1031A000C605A0968CAD9DADAEADBFADA09780938A
:1031B000C8059093C905A093CA05B093CB05A49602
:1031C0008CAD9DADAEADBFADA4978093CC05909373
:1031D000CD05A093CE05B093CF05A8E5B0E0AC0F28
:1031E000BD1F1C96E0EDF5E08D91819385E0ED3DEE
:1031F000F807D1F7E3968EAD9FADE3979093DE0588
:103200008093DD0565EC71E084EC95E00E9400118F
:103210006091C00570E090E080E04AE00E940F11EC
:103220006FE284EC95E00E94CE0B6091BF0570E0E8
:1032300090E080E04AE00E940F116FE284EC95E09C
:103240000E94CE0B6091BE0570E06053784F90E015
:1032500080E04AE00E940F1160EE71E084EC95E09E
:103260000E9455116EED71E084EC95E00E94001112
:103270006091C10570E090E080E04AE00E940F118B
:1032800062EE71E084EC95E00E9400116091C2054D
:1032900070E090E080E04AE00E940F1162EE71E081
:1032A00084EC95E00E9400116091C30570E090E00D
:1032B00080E04AE00E940F116CE471E084EC95E03C
:1032C0000E94001160EE71E084EC95E00E945511BF
:1032D0008091DD059091DE05009709F409CE0E94EA
:1032E0007F098091DD059091DE050E94C41A10923D
:1032F000DE051092DD05FCCD80E00E94FF048823EE
:1033000009F4F0CDB3CE803209F0ECCD83E08093A8
:10331000980540918F0550919005609191057091AD
:1033200092054093AA055093AB056093AC0570934A
:10333000AD0526EA35E085E795E00E944B0781114F
:10334000BECED0CD825023E14DEB51E0823018F556
:1033500063E975E0CE014E960E946911882309F455
:10336000FDCE49A95AA96BA97CA9CE014E960E940F
:10337000B607BE01625E7F4FCE0101960E94380BF8
:103380004DEB51E0BE016F5F7F4FCE01885A9F4FDA
:103390000E941313FECEBE01655C7F4FCE014E9698
:1033A0000E946911882309F4D9CECE01CB960E94E0
:1033B0007F09D7CF0E94E519A59F900DB49F900D6E
:1033C000A49F800D911D11240895A29FB001B39F69
:1033D000C001A39F700D811D1124911DB29F700D1E
:1033E000811D1124911D0895991B79E004C0991F36
:1033F000961708F0961B881F7A95C9F7809508954F
:10340000A1E21A2EAA1BBB1BFD010DC0AA1FBB1FE8
:10341000EE1FFF1FA217B307E407F50720F0A21B5A
:10342000B30BE40BF50B661F771F881F991F1A94C7
:1034300069F760957095809590959B01AC01BD01F1
:10344000CF010895EE0FFF1F0590F491E02D099430
:103450000F931F93CF93DF938230910510F482E096
:1034600090E0E091E105F091E20530E020E0B0E08D
:10347000A0E0309799F42115310509F44AC0281BC2
:10348000390B24303105D8F58A819B81611571058E
:1034900089F1FB0193838283FE0111C04081518138
:1034A0000281138148175907E0F04817590799F42A
:1034B000109761F012960C93129713961C93329604
:1034C000CF01DF91CF911F910F9108950093E105F6
:1034D0001093E205F4CF2115310551F0421753073F
:1034E00038F0A901DB019A01BD01DF01F801C1CF6C
:1034F000EF01F9CF9093E2058093E105CDCFFE0176
:10350000E20FF31F8193919322503109398328836D
:10351000D7CF2091DF053091E005232B41F4209196
:103520000601309107013093E0052093DF052091DB
:103530000401309105012115310541F42DB73EB745
:103540004091080150910901241B350BE091DF05E2
:10355000F091E005E217F307A0F42E1B3F0B2817AC
:10356000390778F0AC014E5F5F4F2417350748F0FC
:103570004E0F5F1F5093E0054093DF0581939193B9
:103580009FCFF0E0E0E09CCFCF93DF930097E9F08E
:10359000FC01329713821282A091E105B091E205FD
:1035A000ED0130E020E01097A1F420813181820FFD
:1035B000931F2091DF053091E0052817390709F0A6
:1035C00061C0F093E005E093DF05DF91CF910895AE
:1035D000EA01CE17DF07E8F54A815B819E014115BC
:1035E0005105B1F7E901FB83EA8349915991C40F71
:1035F000D51FEC17FD0761F4808191810296840F3D
:10360000951FE90199838883828193819B838A83B3
:10361000F0E0E0E012968D919C9113970097B9F538
:103620002D913C911197CD010296820F931F20910D
:10363000DF053091E0052817390739F6309751F545
:103640001092E2051092E105B093E005A093DF052A
:10365000BCCFD383C28340815181840F951FC8178B
:10366000D90761F44E5F5F4F88819981480F591FD8
:10367000518340838A819B81938382832115310505
:1036800009F0B0CFF093E205E093E1059ECFFD0194
:10369000DC01C0CF13821282D7CFFB01DC0104C052
:1036A0008D910190801921F441505040C8F7881B3A
:1036B000990B0895FB01DC014150504048F0019006
:1036C0000D920020C9F701C01D9241505040E0F713
:0636D0000895F894FFCFFD
:1036D600FFFFFFFF0000E305800000000000E5019A
:1036E600450172013202A30181019501000000002B
:1036F6001A0B4501EA0F880B00000000BB0F8E0F66
:10370600EA0F640F870F740F650F00000000CE0BE1
:10371600B10BEA0F890B910B040D0E0D0D0A005229
:103726005443206EC3A36F20657374612066756E63
:1037360063696F6E616E646F21004A756C2031316A
:1037460020323032310032323A32353A33320049A1
:103756006E696369616E646F2053442E2E2E00538A
:103766004420696E69636961646F0046616C6861D3
:10377600206E6F2053442C206F75206E616F20657C
:1037860073746120696E73657269646F006C6F672C
:103796002E74787400496EC3AD6E63696F206461E0
:1037A600206772617661C3A7C3A36F3A2000202DFC
:1037B60020003A00204C656974757261204665697F
:0437C600746100002A
:00000001FF
