:100000000C9463000C948B000C948B000C948B006C
:100010000C948B000C948B000C948B000C948B0034
:100020000C948B000C948B000C948B000C948B0024
:100030000C948B000C948B000C948B000C948B0014
:100040000C9427030C948B000C9497030C9471036D
:100050000C948B000C948B000C948B000C948B00F4
:100060000C948B000C948B0008000000BE92244975
:10007000123EABAAAA2ABECDCCCC4C3E00000080DA
:10008000BEABAAAAAA3E00000000BF000000803F4D
:100090000000000000084178D3BB4387D1133D190D
:1000A0000E3CC3BD4282AD2B3E68EC8276BED98F3A
:1000B000E1A93E4C80EFFFBE01C4FF7F3F0000007E
:1000C0000000C903570711241FBECFEFD8E0DEBFE1
:1000D000CDBF22E0A2E7B1E001C01D92A933B20773
:1000E000E1F711E0A0E0B1E0EEEFF8E102C0059029
:1000F0000D92A237B107D9F710E0C2E6D0E004C0F4
:100100002197FE010E94DD08C136D107C9F70E9480
:1001100050040C94720C0C9400008E3008F08E5039
:100120008770806480937C0080917A0080648093E3
:100130007A0080917A0086FDFCCF809178009091C2
:10014000790008953FB7F89480918E0190918F01C6
:10015000A0919001B091910126B5A89B05C02F3FB9
:1001600019F00196A11DB11D3FBFBA2FA92F982FDD
:100170008827BC01CD01620F711D811D911D42E0D8
:10018000660F771F881F991F4A95D1F70895CF9260
:10019000DF92EF92FF920E94A2006B017C010E940D
:1001A000A2006C197D098E099F09683E7340810584
:1001B0009105A8F3FF90EF90DF90CF9008952FB7AF
:1001C000F89460918A0170918B0180918C019091DB
:1001D0008D012FBF0895AF92BF92CF92DF92EF9221
:1001E000FF920F931F93CF93DF936C017B018B01E1
:1001F000040F151FEB015E01AE18BF08C017D10731
:1002000059F06991D601ED91FC910190F081E02DBA
:10021000C6010995892B79F7C501DF91CF911F910F
:100220000F91FF90EF90DF90CF90BF90AF90089527
:10023000FC01538D448D252F30E0842F90E0821BEC
:10024000930B541710F0CF96089501970895FC0171
:10025000918D828D981761F0A28DAE0FBF2FB11DC9
:100260005D968C91928D9F5F9F73928F90E0089521
:100270008FEF9FEF0895FC01918D828D981731F0DB
:10028000828DE80FF11D858D90E008958FEF9FEF2F
:100290000895FC01918D228D892F90E0805C9F4F05
:1002A000821B91098F739927089582E991E00E943A
:1002B000490121E0892B09F420E0822F089580E094
:1002C00090E0892B29F00E94550181110C940000C7
:1002D0000895FC01A48DA80FB92FB11DA35ABF4FDB
:1002E0002C91848D90E001968F739927848FA68935
:1002F000B7892C93A089B1898C91837080648C9389
:10030000938D848D981306C00288F389E02D808137
:100310008F7D80830895EF92FF920F931F93CF9369
:10032000DF93EC0181E0888F9B8D8C8D98131AC030
:10033000E889F989808185FF15C09FB7F894EE8917
:10034000FF896083E889F989808183708064808374
:100350009FBF81E090E0DF91CF911F910F91FF90BF
:10036000EF900895F62E0B8D10E00F5F1F4F0F7367
:100370001127E02E8C8D8E110CC00FB607FCFACF22
:10038000E889F989808185FFF5CFCE010E94690156
:10039000F1CFEB8DEC0FFD2FF11DE35AFF4FF082F3
:1003A0009FB7F8940B8FEA89FB8980818062CFCF59
:1003B000CF93DF93EC01888D8823B9F0AA89BB899C
:1003C000E889F9898C9185FD03C0808186FD0DC087
:1003D0000FB607FCF7CF8C9185FFF2CF808185FFA8
:1003E000EDCFCE010E946901E9CFDF91CF91089551
:1003F000FC0101900020E9F73197AF01481B590B30
:10040000BC0182E991E00C94EB008F929F92AF9235
:10041000BF920F931F93CF93DF93CDB7DEB7A19712
:100420000FB6F894DEBF0FBECDBF19A2423008F45C
:100430004AE08E010F5D1F4F842E912CB12CA12C10
:10044000A50194010E94BB08E62FB901CA01EA3058
:10045000F4F4E05DD801EE938D01232B242B252BA2
:1004600079F790E080E0109719F0CD010E94F80133
:10047000A1960FB6F894DEBF0FBECDBFDF91CF912E
:100480001F910F91BF90AF909F908F900895E95C5E
:10049000E1CF0C94F8014F925F926F927F928F920E
:1004A0009F92AF92BF92CF92DF92EF92FF920F9303
:1004B0001F93CF936B017C01742EAC019B010E94B2
:1004C000460A882399F08EE191E0CF911F910F9118
:1004D000FF90EF90DF90CF90BF90AF909F908F9064
:1004E0007F906F905F904F900C94F80146015701F8
:1004F000E894B7F82FEF3FEF4FE75FE7C501B4018E
:100500000E94460A81110DC02FEF3FEF4FE75FE7D2
:10051000C501B4010E94600718161CF482E291E044
:10052000D4CF2FEF3FEF4FE75FE4C701B6010E9442
:10053000F10918161CF486E291E0C7CF2FEF3FEFC8
:100540004FE75FECC701B6010E94600787FDF3CF5C
:1005500020E030E0A901C701B6010E94600710E069
:1005600000E087FF0AC06DE282E991E00E948B0102
:100570008C01F7FAF094F7F8F094C0E060E070E0D6
:1005800080E09FE37C1641F020E030E040E251E45F
:100590000E945009CF5FF6CFA70196010E94E408A0
:1005A0002B013C010E94C2094B015C014AE00E9400
:1005B00005027C01E00EF11ECC23C1F1C501B4019E
:1005C0000E9465079B01AC01C301B2010E94E308D0
:1005D0004B015C016EE282E991E00E948B01E80E22
:1005E000F91EC15018F120E030E040E251E4C501AD
:1005F000B4010E94C6072B013C010E94C2094B01B5
:10060000B12CA12C4AE0C501B4010E940502E80EFC
:10061000F91EC501B4010E9465079B01AC01C3012D
:10062000B2010E94E3084B015C01DBCFC701CF910F
:100630001F910F91FF90EF90DF90CF90BF90AF9000
:100640009F908F907F906F905F904F9008951F9232
:100650000F920FB60F9211242F933F938F939F9376
:10066000AF93BF9380918A0190918B01A0918C01EF
:10067000B0918D013091890123E0230F2D3758F57A
:100680000196A11DB11D2093890180938A01909349
:100690008B01A0938C01B0938D0180918E0190917C
:1006A0008F01A0919001B09191010196A11DB11D02
:1006B00080938E0190938F01A0939001B09391014C
:1006C000BF91AF919F918F913F912F910F900FBE4E
:1006D0000F901F90189526E8230F0296A11DB11DBB
:1006E000D2CF1F920F920FB60F9211242F933F93E8
:1006F0004F935F936F937F938F939F93AF93BF932A
:10070000EF93FF9382E991E00E946901FF91EF91DD
:10071000BF91AF919F918F917F916F915F914F9119
:100720003F912F910F900FBE0F901F9018951F9221
:100730000F920FB60F9211242F938F939F93EF93E5
:10074000FF93E091A201F091A3018081E091A801C3
:10075000F091A90182FD1BC090818091AB018F5F58
:100760008F732091AC01821741F0E091AB01F0E072
:10077000EE56FE4F958F8093AB01FF91EF919F91C5
:100780008F912F910F900FBE0F901F901895808121
:10079000F4CF109295011092940188EE93E0A0E0BE
:1007A000B0E08093960190939701A0939801B09345
:1007B000990180E191E0909393018093920185ECFF
:1007C00090E090939F0180939E0184EC90E0909341
:1007D000A1018093A00180EC90E09093A30180930D
:1007E000A20181EC90E09093A5018093A40182EC9A
:1007F00090E09093A7018093A60186EC90E09093FF
:10080000A9018093A8011092AB011092AC01109243
:10081000AD011092AE011092300210922F02109290
:10082000320210923102109234021092330261E0CF
:1008300070E090E080E00E94A50B0097E1F09093BB
:10084000300280932F0210923202109231022091D6
:10085000330230913402232B11F4FC0110821092E8
:100860003402109233026AE471E080912F02909179
:1008700030020C946B0C80912F0290913002009703
:1008800011F00E941C0B1092300210922F02109255
:100890003402109233021092320210923102089503
:1008A000789484B5826084BD84B5816084BD85B54B
:1008B000826085BD85B5816085BD80916E00816057
:1008C00080936E00109281008091810082608093FD
:1008D00081008091810081608093810080918000FF
:1008E0008160809380008091B10084608093B1002A
:1008F0008091B00081608093B00080917A00846024
:1009000080937A0080917A00826080937A0080914F
:100910007A00816080937A0080917A008068809369
:100920007A001092C10080E090E5A3ECB6E48093D9
:10093000000190930101A0930201B0930301E091A3
:10094000A201F091A30182E08083E0919E01F091E9
:100950009F011082E091A001F091A1018FEC8083B2
:100960001092AA01E091A601F091A70186E0808390
:10097000E091A401F091A501808180618083E091E4
:10098000A401F091A501808188608083E091A40199
:10099000F091A501808180688083E091A401F091AD
:1009A000A50180818F7D808382E991E00E94D8013A
:1009B0008AE291E00E94F80188E491E00E94F80147
:1009C000C0E0D0E002E310E03324339482E991E008
:1009D0000E944901892B09F45FC282E991E00E94DB
:1009E000D8018091880181114EC030928801809198
:1009F000000190910101A0910201B0910301809347
:100A0000840190938501A0938601B09387018BE4C4
:100A100091E00E94490282E591E00E94490284E54A
:100A200091E00E94490282E591E00E94490287E537
:100A300091E00E94490282E591E00E9449028AE524
:100A400091E00E94490282E591E00E9449028DE511
:100A500091E00E94490282E591E00E94490280E60D
:100A600091E00E94490282E591E00E94490283E6FA
:100A700091E00E9449028AE491E00E94F80188E432
:100A800091E00E94F8010E94DF006B017C01C0929E
:100A90008001D0928101E0928201F09283010E9454
:100AA000DF006C157D058E059F05C8F3C09084019D
:100AB000D0908501E0908601F090870120E030E041
:100AC000A901C701B6010E94F109181624F0F7FA2E
:100AD000F094F7F8F09440907C0150907D01609084
:100AE0007E0170907F01A7019601C301B2010E94AF
:100AF000F10918160CF070C020E030E040E85FE328
:100B0000C301B2010E94E40860937C0170937D01EF
:100B100080937E0190937F0186E691E00E944902D6
:100B20008FE691E00E94490288E491E00E94F8017A
:100B3000C0908401D0908501E0908601F0908701FB
:100B400020E030E0A901C701B6010E94F1091816A2
:100B500024F0F7FAF094F7F8F094A7019601609169
:100B60007C0170917D0180917E0190917F010E94B6
:100B7000F10918160CF48AC10E94DF00609380010D
:100B80007093810180938201909383012B013C013A
:100B90002FEF421A520A620A720A0E94DF0064159D
:100BA00075058605970508F0D7C0912C812CF12C8E
:100BB000E12CC0900401D09005018C149D040CF030
:100BC0007EC082E10E948D00E80EF91E0E94C700DF
:100BD0008FEF881A980AEDCF40E0C301B2010E945E
:100BE0004B0282E591E00E944902F12C10927B01B8
:100BF00010927A0185E0C82ED12C8F2D0E948D0095
:100C000060917A0170917B01680F791F70937B016D
:100C100060937A0121E0C21AD10879F7072E000CFF
:100C2000880B990B0E9467072AE038E240EA5BE3F1
:100C30000E94C6072B013C0120E030E040EA50E46E
:100C40000E94F109181694F14092760150927701B2
:100C500060927801709279016091760170917701CC
:100C6000809178019091790142E00E944B0282E5E7
:100C700091E00E944902F39484E0F812B7CF20E09B
:100C800030E040E85FE360917C0170917D018091EC
:100C90007E0190917F010E94E40860937C01709333
:100CA0007D0180937E0190937F0142CF1092760167
:100CB000109277011092780110927901CDCFB7018F
:100CC000FF0C880B990B0E94670726E636E64EE973
:100CD00050E40E94C6074B015C01B601DD0C880B95
:100CE000990B0E94670720E030E040E854E40E943E
:100CF000C6079B01AC01C501B4010E9450099B01CC
:100D0000AC016FEF72EB81EF98E40E94500920E094
:100D100030E543EC57E40E94E30829E83FE64DE262
:100D20005EE30E9450090E94FE099B01AC0160E055
:100D300070E887E795E40E94500920E030E848E831
:100D400053E40E94E30860937201709373018093EF
:100D500074019093750121CF6091720170917301BC
:100D6000809174019091750142E00E944B0282E5EE
:100D700091E00E9449020E94DF006093800170931D
:100D8000810180938201909383012B013C012FEF1D
:100D9000421A520A620A720A0E94DF00641575053F
:100DA0008605970508F063C0912C812CF12CE12C6D
:100DB000C0900401D09005018C149D045CF483E183
:100DC0000E948D00E80EF91E0E94C7008FEF881A5E
:100DD000980AEECFB701FF0C880B990B0E946707AA
:100DE00026E636E64EE950E40E94C6074B015C0158
:100DF000B601DD0C880B990B0E94670720E030E0FC
:100E000040E854E40E94C6079B01AC01C501B4014F
:100E10000E9450099B01AC016FEF72EB81EF98E4E7
:100E20000E94500920E030E543EC57E40E94E308BB
:100E300029E83FE64DE25EE30E9450090E94FE0968
:100E40009B01AC0160E070E887E795E40E945009DF
:100E500020E030E848E853E40E94E3086093720120
:100E600070937301809374019093750195CF609195
:100E7000720170917301809174019091750142E04B
:100E80000E944B0288E491E00E94F8011093050152
:100E9000009304010E94C700209709F497CD0E9497
:100EA0005501882309F492CD0E9400008FCD8091D6
:100EB0002F0290913002009711F00C941C0B0895B2
:100EC0000E94A20708F481E00895E89409C097FB06
:100ED0003EF490958095709561957F4F8F4F9F4F11
:100EE0009923A9F0F92F96E9BB279395F695879555
:100EF00077956795B795F111F8CFFAF4BB0F11F418
:100F000060FF1BC06F5F7F4F8F4F9F4F16C08823BE
:100F100011F096E911C0772321F09EE8872F762FF4
:100F200005C0662371F096E8862F70E060E02AF035
:100F30009A95660F771F881FDAF7880F9695879521
:100F400097F90895990F0008550FAA0BE0E8FEEFF6
:100F500016161706E807F907C0F012161306E4077D
:100F6000F50798F0621B730B840B950B39F40A2676
:100F700061F0232B242B252B21F408950A2609F454
:100F8000A140A6958FEF811D811D08950E94D9076C
:100F90000C944A080E943C0838F00E94430820F054
:100FA000952311F00C9433080C94390811240C94F7
:100FB0007E080E945B0870F3959FC1F3950F50E087
:100FC000551F629FF001729FBB27F00DB11D639FFB
:100FD000AA27F00DB11DAA1F649F6627B00DA11DA1
:100FE000661F829F2227B00DA11D621F739FB00D47
:100FF000A11D621F839FA00D611D221F749F3327B7
:10100000A00D611D231F849F600D211D822F762F4F
:101010006A2F11249F5750409AF0F1F088234AF02C
:10102000EE0FFF1FBB1F661F771F881F9150504098
:10103000A9F79E3F510580F00C9433080C947E086C
:101040005F3FE4F3983ED4F3869577956795B7951F
:10105000F795E7959F5FC1F7FE2B880F911D969539
:10106000879597F9089597F99F6780E870E060E0A9
:1010700008959FEF80EC089500240A941616170631
:1010800018060906089500240A9412161306140679
:1010900005060895092E0394000C11F4882352F0DC
:1010A000BB0F40F4BF2B11F460FF04C06F5F7F4F94
:1010B0008F4F9F4F089557FD9058440F551F59F07B
:1010C0005F3F71F04795880F97FB991F61F09F3F35
:1010D00079F087950895121613061406551FF2CF5E
:1010E0004695F1DF08C0161617061806991FF1CFAE
:1010F00086957105610508940895E894BB276627D5
:101100007727CB0197F908952F923F924F925F92E4
:101110006F927F928F929F92AF92BF92CF92DF9207
:10112000EF92FF920F931F93CF93DF93CDB7DEB76C
:10113000CA1BDB0B0FB6F894DEBF0FBECDBF099400
:101140002A88398848885F846E847D848C849B8457
:10115000AA84B984C884DF80EE80FD800C811B8165
:10116000AA81B981CE0FD11D0FB6F894DEBF0FBE94
:10117000CDBFED010895A1E21A2EAA1BBB1BFD01F4
:101180000DC0AA1FBB1FEE1FFF1FA217B307E40766
:10119000F50720F0A21BB30BE40BF50B661F771FBE
:1011A000881F991F1A9469F760957095809590959E
:1011B0009B01AC01BD01CF010895EE0FFF1F05900B
:1011C000F491E02D09945058BB27AA270E94FB08F0
:1011D0000C944A080E943C0838F00E94430820F012
:1011E00039F49F3F19F426F40C9439080EF4E09575
:1011F000E7FB0C943308E92F0E945B0858F3BA17F9
:10120000620773078407950720F079F4A6F50C941C
:101210007D080EF4E0950B2EBA2FA02D0B01B9011D
:1012200090010C01CA01A0011124FF27591B99F05C
:10123000593F50F4503E68F11A16F040A22F232F68
:10124000342F4427585FF3CF469537952795A795B8
:10125000F0405395C9F77EF41F16BA0B620B730B5F
:10126000840BBAF09150A1F0FF0FBB1F661F771FD0
:10127000881FC2F70EC0BA0F621F731F841F48F485
:10128000879577956795B795F7959E3F08F0B0CF0E
:101290009395880F08F09927EE0F979587950895F5
:1012A0000E9464090C944A080E94430858F00E9466
:1012B0003C0840F029F45F3F29F00C9433085111A9
:1012C0000C947E080C9439080E945B0868F39923FB
:1012D000B1F3552391F3951B550BBB27AA27621732
:1012E0007307840738F09F5F5F4F220F331F441F3F
:1012F000AA1FA9F335D00E2E3AF0E0E832D0915073
:101300005040E695001CCAF72BD0FE2F29D0660F5F
:10131000771F881FBB1F261737074807AB07B0E8A2
:1013200009F0BB0B802DBF01FF2793585F4F3AF0A8
:101330009E3F510578F00C9433080C947E085F3F73
:10134000E4F3983ED4F3869577956795B795F7952E
:101350009F5FC9F7880F911D9695879597F9089516
:10136000E1E0660F771F881FBB1F621773078407B2
:10137000BA0720F0621B730B840BBA0BEE1F88F7C1
:10138000E09508950E94630888F09F5798F0B92F60
:101390009927B751B0F0E1F0660F771F881F991FAA
:1013A0001AF0BA95C9F714C0B13091F00E947D08C7
:1013B000B1E008950C947D08672F782F8827B85FD7
:1013C00039F0B93FCCF3869577956795B395D9F702
:1013D0003EF490958095709561957F4F8F4F9F4F0C
:1013E00008950E94A20708F48FEF089516F00C9458
:1013F0004B0A0C94390868940C9433080E946308D3
:10140000A8F39923C1F3AEF3DF93CF931F930F9308
:10141000FF92C92FDD2788232AF02197660F771FB7
:10142000881FDAF720E030E040E85FEB9FE388397F
:1014300020F0803E38F021968F770E94E408E8E69D
:10144000F0E004C00E94E408E5E9F0E00E94590AD7
:101450008B01BE01EC01FB2E6F5771097595771F4B
:10146000880B990B0E94670728E132E741E35FE3AD
:101470000E94D907AF2D9801AE01FF900F911F91E7
:10148000CF91DF910E94FB080C944A080E94A207AA
:10149000880B990B08959F3F31F0915020F4879568
:1014A00077956795B795880F911D9695879597F9CC
:1014B0000895DF93CF931F930F93FF92EF92DF92E4
:1014C0007B018C01689406C0DA2EEF010E94D907D7
:1014D000FE01E894A5912591359145915591A6F38A
:1014E000EF010E94FB08FE019701A801DA9469F759
:1014F000DF90EF90FF900F911F91CF91DF910895B2
:101500000F931F93CF93DF938230910510F482E005
:1015100090E0E0913702F091380230E020E0B0E056
:10152000A0E0309799F42115310509F44AC0281B31
:10153000390B24303105D8F58A819B8161157105FD
:1015400089F1FB0193838283FE0111C040815181A7
:101550000281138148175907E0F04817590799F499
:10156000109761F012960C93129713961C93329673
:10157000CF01DF91CF911F910F9108950093370212
:1015800010933802F4CF2115310551F0421753075B
:1015900038F0A901DB019A01BD01DF01F801C1CFDB
:1015A000EF01F9CF9093380280933702CDCFFE013F
:1015B000E20FF31F819391932250310939832883DD
:1015C000D7CF2091350230913602232B41F4209160
:1015D00008013091090130933602209335022091A1
:1015E0000601309107012115310541F42DB73EB7B1
:1015F00040910A0150910B01241B350BE0913502FB
:10160000F0913602E217F307A0F42E1B3F0B2817C8
:10161000390778F0AC014E5F5F4F2417350748F06B
:101620004E0F5F1F50933602409335028193919382
:101630009FCFF0E0E0E09CCFCF93DF930097E9F0FD
:10164000FC01329713821282A0913702B0913802C6
:10165000ED0130E020E01097A1F420813181820F6C
:10166000931F20913502309136022817390709F06F
:1016700061C0F0933602E0933502DF91CF91089577
:10168000EA01CE17DF07E8F54A815B819E0141152B
:101690005105B1F7E901FB83EA8349915991C40FE0
:1016A000D51FEC17FD0761F4808191810296840FAC
:1016B000951FE90199838883828193819B838A8323
:1016C000F0E0E0E012968D919C9113970097B9F5A8
:1016D0002D913C911197CD010296820F931F20917D
:1016E0003502309136022817390739F6309751F50F
:1016F0001092380210923702B0933602A09335024E
:10170000BCCFD383C28340815181840F951FC817FA
:10171000D90761F44E5F5F4F88819981480F591F47
:10172000518340838A819B81938382832115310574
:1017300009F0B0CFF0933802E09337029ECFFD015D
:10174000DC01C0CF13821282D7CFB0E0A0E0EBEA79
:10175000FBE00C9486088C01009751F4CB010E94A9
:10176000800A8C01C801CDB7DEB7E0E10C94A20875
:10177000FC01E60FF71F9C0122503109E217F30725
:1017800008F49DC0D901CD91DC911197C617D707F8
:1017900098F0C530D10530F3CE010497861797072E
:1017A00008F3C61BD70B2297C193D1936D937C93FB
:1017B000CF010E941C0BD6CF5B01AC1ABD0A4C01B5
:1017C0008C0E9D1EA0913702B0913802512C412CF5
:1017D000F12CE12C109731F5809135029091360271
:1017E0008815990509F05CC04616570608F058C0E0
:1017F0008091060190910701009741F48DB79EB743
:1018000040910A0150910B01841B950BE817F907D1
:1018100008F055C0F0933602E0933502F901718368
:101820006083A0CF8D919C91119712966C90129726
:1018300013967C901397A815B90559F56C0142E0F1
:10184000C40ED11CCA14DB0420F1AC014A195B0997
:10185000DA011296159780F0628273825183408379
:10186000D9016D937C93E114F10471F0D7011396C3
:10187000FC93EE93129776CF22968C0F9D1FF90161
:1018800091838083F301EFCFF0933802E093370226
:1018900069CF4816590608F42C017D01D3019ACF6F
:1018A000CB010E94800A7C01009749F0AE01B8018B
:1018B0000E94620CC8010E941C0B870153CF10E0EC
:1018C00000E050CFFB01DC0102C001900D924150BD
:1018D0005040D8F70895FB01DC0101900D920020E3
:1018E000E1F7089510E0C2E6D0E004C0FE010E94D6
:0E18F000DD082196C336D107C9F7F894FFCF63
:1018FE000000F041320000003902800000000000BC
:10190E008B01EB001801D801490127013B016E61E3
:10191E006E00696E66006F76660050726573732096
:10192E00656E74657220746F2072656164696E678E
:10193E002076616C756573000D0A0053616D706CD5
:10194E0065002C007931007932007933007934004A
:10195E0054310054320046696E6973686564002024
:02196E00000077
:00000001FF
