:100000000C945E000C9486000C9486000C94860080
:100010000C9486000C9486000C9486000C94860048
:100020000C9486000C9486000C9486000C94860038
:100030000C9486000C9486000C9486000C94860028
:100040000C94E20D0C9486000C94520E0C942C0E21
:100050000C9486000C9486000C9486000C94860008
:100060000C94C70C0C9486000000000025002800AA
:100070002B00040404040404040402020202020229
:10008000030303030303010204081020408001025C
:1000900004081020010204081020000000080002DB
:1000A00001000003040700000000000000001F1C06
:1000B0001F1E1F1E1F1F1E1F1E00840E11241FBE89
:1000C000CFEFD8E0DEBFCDBF24E0ACE5B1E001C0AA
:1000D0001D92A13AB207E1F711E0A0E0B1E0E8E13A
:1000E000F5E202C005900D92AC35B107D9F710E0EA
:1000F000CEE5D0E004C02197FE010E946C11CD3501
:10010000D107C9F70E94FC0E0C948A120C940000CF
:1001100020919901260F3327331F21323105ECF44A
:100120002091BD01FC0190E080E0243069F082E084
:100130000895A09199012191AC0147585E4FA40FF9
:10014000B52FB11D2C930196861798F380919901D4
:10015000680F6093990180E0089581E00895089503
:100160008FEF9FEF08958FEF9FEF089580917201B9
:1001700090E09195819591090895CF93DF93CB01FC
:10018000EA01642F0E948800CE01DF91CF9108958B
:10019000CF93DF931F92CDB7DEB7698361E0CE01C5
:1001A00001960E94880081E090E00F90DF91CF914E
:1001B000089590E0FC01E656FF4F2491FC01EA57B8
:1001C000FF4F3491FC01EE58FF4FE491EE23C9F04C
:1001D000222339F0233001F1A8F4213019F1223023
:1001E00029F1F0E0EE0FFF1FE859FF4FA591B49100
:1001F0008FB7F894EC91611126C030953E233C9363
:100200008FBF08952730A9F02830C9F0243049F76E
:10021000809180008F7D03C0809180008F778093D4
:100220008000DFCF84B58F7784BDDBCF84B58F7D31
:10023000FBCF8091B0008F778093B000D2CF8091B8
:10024000B0008F7DF9CF3E2BDACF2FB7F8946091B5
:100250006E0170916F0180917001909171012FBFBB
:100260000895AF92BF92CF92DF92EF92FF920F93D9
:100270001F93CF93DF936C017B018B01040F151F3C
:10028000EB015E01AE18BF08C017D10759F06991A4
:10029000D601ED91FC910190F081E02DC601099508
:1002A000892B79F7C501DF91CF911F910F91FF90B5
:1002B000EF90DF90CF90BF90AF900895FC01538DE9
:1002C000448D252F30E0842F90E0821B930B541730
:1002D00010F0CF96089501970895FC01918D828DBD
:1002E000981761F0A28DAE0FBF2FB11D5D968C9156
:1002F000928D9F5F9F73928F90E008958FEF9FEF95
:100300000895FC01918D828D981731F0828DE80F50
:10031000F11D858D90E008958FEF9FEF0895FC010A
:10032000918D228D892F90E0805C9F4F821B9109D7
:100330008F739927089583EE93E00E948F0121E047
:10034000892B09F420E0822F089580E090E0892B2A
:1003500029F00E949B0181110C9400000895FC017A
:10036000A48DA80FB92FB11DA35ABF4F2C91848D16
:1003700090E001968F739927848FA689B7892C9373
:10038000A089B1898C91837080648C93938D848DC6
:10039000981306C00288F389E02D80818F7D8083C9
:1003A0000895EF92FF920F931F93CF93DF93EC0189
:1003B00081E0888F9B8D8C8D98131AC0E889F9890C
:1003C000808185FF15C09FB7F894EE89FF8960830F
:1003D000E889F98980818370806480839FBF81E090
:1003E00090E0DF91CF911F910F91FF90EF900895D2
:1003F000F62E0B8D10E00F5F1F4F0F731127E02EAD
:100400008C8D8E110CC00FB607FCFACFE889F989E4
:10041000808185FFF5CFCE010E94AF01F1CFEB8D3A
:10042000EC0FFD2FF11DE35AFF4FF0829FB7F894B8
:100430000B8FEA89FB8980818062CFCFCF93DF93D6
:10044000EC01888D8823B9F0AA89BB89E889F989EC
:100450008C9185FD03C0808186FD0DC00FB607FC21
:10046000F7CF8C9185FFF2CF808185FFEDCFCE0154
:100470000E94AF01E9CFDF91CF91089561E0FC01C7
:1004800084810C94D900F89480910000809300003E
:1004900088E090910000909300009091000090916E
:1004A00000009093000000000000815091F77894C4
:1004B00008950F931F93CF93DF93EC010E942501C2
:1004C0008B010E9443028F3F69F00E942501601B4F
:1004D000710B6C177D07A8F380E0DF91CF911F911E
:1004E0000F91089581E0F9CFF89498E020910000F1
:1004F0002093000020910000209300002091000034
:1005000020930000880F915089F700000000000040
:100510000000809100008093000078940895CF92AD
:10052000DF92EF92FF920F931F93CF93DF93EC0133
:10053000162F69017A018E81882389F08F81988531
:100540009C012F5F3F4F38872F838230924018F4F1
:100550000E944302F3CFCE010E943E021E8260E061
:100560008C810E94D9008CE291E00E945902812F77
:1005700080640E94740208E110E0D701C601002ED9
:1005800004C0B695A795979587950A94D2F70E94CF
:10059000740208501109083F8FEF180771F78FEFA9
:1005A0000E94740210E00E9443028A8787FF04C001
:1005B0001F3F11F01F5FF7CFDF91CF911F910F9178
:1005C000FF90EF90DF90CF900895AF92BF92CF92BF
:1005D000DF92EF92FF920F931F93CF93DF93EC0183
:1005E0006901C801820F931F8130924050F58E81BE
:1005F000882379F088819981AA81BB818417950726
:10060000A607B70731F48F819885C816D90608F078
:1006100042C0488359836A837B838B85833039F05A
:1006200089E0440F551F661F771F8A95D1F79A01FD
:10063000AB0161E1CE010E948F02882389F083E043
:100640008D83CE010E943E0280E0DF91CF911F9109
:100650000F91FF90EF90DF90CF90BF90AF900895F3
:100660000E9425015B010E9443028A878F3F69F443
:100670000E9425016A197B096D327140A0F38FE059
:100680008D83CE010E943E02DCCF8E3F89F4188616
:100690001F8281E08E838F8198858C159D0550F493
:1006A0000E9443028F819885019698878F83F3CFAC
:1006B0008DE0E6CF6701E00EF11E0E944302F601D5
:1006C00081936F01EE15FF05C1F78F819885080FA3
:1006D000191F18870F838985882319F00115124087
:1006E000A0F08E81882389F08F8198859C012F5FEF
:1006F0003F4F38872F838230924018F40E94430284
:10070000F3CFCE010E943E021E8281E09ECFCF92A7
:10071000DF92EF92FF920F931F93CF93DF93EC0141
:10072000690182E1411551056105710599F08B85DB
:10073000833039F0E9E0440F551F661F771FEA95B3
:10074000D1F79A01AB0168E1CE010E948F028823A4
:1007500019F084E08D8358C08C8596013E5F790145
:100760000FEF1FEF882319F1F60110E000E08191EF
:1007700090E081279C0144E0359527954A95E1F763
:1007800082279327102F0027082719279C01322F33
:1007900022273295307F0227132775E0880F991F93
:1007A0007A95E1F708271927EE16FF0601F78EEF75
:1007B0000E947402F60181916F010E947402EC1490
:1007C000FD04C1F7812F0E947402802F0E947402E1
:1007D0000E9443028A878F71853089F488E592E010
:1007E0000E9459028823A9F020E030E0A9016DE0C1
:1007F000CE010E948F02882371F084E1ABCF81E1AA
:100800008D83CE010E943E02CE010E943E0280E016
:100810000AC085E19FCF0E9443028111EECFCE0135
:100820000E943E0281E0DF91CF911F910F91FF90D6
:10083000EF90DF90CF90089580916001882389F137
:1008400040910001509101016091020170910301FA
:1008500023EE31E090E080E00E948703811102C026
:1008600080E00895409161015091620160916301BF
:1008700070916401411551056105710581F023EE08
:1008800031E090E080E00E948703882349F31092D2
:100890006101109262011092630110926401109242
:1008A000600181E008958F929F92AF92BF92EF9284
:1008B000FF920F931F93CF934B015C01C42F809144
:1008C000000190910101A0910201B09103018815EE
:1008D0009905AA05BB0539F10E941C0481110BC0C2
:1008E00080E0CF911F910F91FF90EF90BF90AF905C
:1008F0009F908F90089583EEE82E81E0F82E00E01F
:1009000012E030E020E0B501A40190E080E00E9418
:10091000E502882329F38092000190920101A092C0
:100920000201B0920301409160014C2B40936001A1
:1009300081E0D7CF4F925F926F927F928F929F927A
:10094000AF92BF92CF92DF92EF92FF920F931F93DD
:10095000CF93DF93EC01423051056105710590F4AE
:1009600080E0DF91CF911F910F91FF90EF90DF908A
:10097000CF90BF90AF909F908F907F906F905F903F
:100980004F90089589859A85AB85BC850196A11DF8
:10099000B11D84179507A607B70710F3CB88DC882D
:1009A000ED88FE888F89803109F042C0BB27A72FD0
:1009B000962F852F480159012A013B01C80ED91EE7
:1009C000EA1EFB1E8091000190910101A09102019D
:1009D000B0910301C816D906EA06FB0699F58F897E
:1009E0008031C1F5B301A201552766277727440F4F
:1009F000551F4D515E4FFA019182808280916001B6
:100A00008160809360018A89823080F08D819E812F
:100A1000AF81B8858C0D9D1DAE1DBF1D80936101FA
:100A200090936201A0936301B093640181E099CF38
:100A3000DB01CA01E7E0B695A79597958795EA95FA
:100A4000D1F7B8CF40E0C701B6010E94530481112D
:100A5000C6CF86CFB301A2014F77552766277727E8
:100A6000440F551F440F551F4D515E4FFA018082B0
:100A70009182A282B382C2CF8F929F92AF92BF9295
:100A8000CF92DF92EF92FF920F931F93CF93DF935A
:100A9000FC0181859285A385B4850196A11DB11DB8
:100AA00084179507A607B70770F480E0DF91CF9110
:100AB0001F910F91FF90EF90DF90CF90BF90AF907C
:100AC0009F908F90089583889488A588B688878999
:100AD000803189F5BB27A72F962F852FE9016A0161
:100AE0007B018F01BC01CD01680D791D8A1D9B1D05
:100AF0008090000190900101A0900201B09003014C
:100B000086169706A806B90601F5F801878980318F
:100B100011F5DD24EE24FF24F601EE0FFF1FED5149
:100B2000FE4F80819181B0E0A0E088839983AA8301
:100B3000BB8381E0BBCFDB01CA01C7E0B695A795B7
:100B400097958795CA95D1F7C9CF40E00E94530485
:100B50008111DBCFAACFE894C7F8DD24EE24FF246F
:100B6000F601EE0FFF1FEE0FFF1FED51FE4F8081CC
:100B70009181A281B381BF70D8CF2F923F924F92C3
:100B80005F926F927F928F929F92AF92BF92CF921D
:100B9000DF92EF92FF920F931F93CF93DF93EC01BD
:100BA0004B018D81811115C08FEF9FEFDF91CF91A8
:100BB0001F910F91FF90EF90DF90CF90BF90AF907B
:100BC0009F908F907F906F905F904F903F902F906D
:100BD00008958C8180FFE8CF4B895C896D897E897F
:100BE0008A859B85AC85BD85412C481759076A07C6
:100BF0007B0711F044244394512C52011E0126E03E
:100C0000220E311CA114B10409F4B1C04A855B85E0
:100C10006C857D856A0181E0D8228B8D9C8D8A014F
:100C20009B01E9E03695279517950795EA95D1F749
:100C3000ED81E230E1F5FC01628D738D848D958D3F
:100C4000600F711F821F931F612C22E0722E6C189F
:100C50007D08A614B70408F435012C8126FD04C0D4
:100C60006114F2E07F0671F400910001109101011E
:100C70002091020130910301061717072807390751
:100C800009F053C040E00E945304882309F48CCF3C
:100C9000C6018D519E4FD4019C01260D371DFC01CC
:100CA0002E173F0709F45EC041914D93F9CFFC0127
:100CB00074807A947022C114D10471F471100CC044
:100CC000452B462B472B39F58F89988DA98DBA8DE9
:100CD0008E839F83A887B987EB8DFC8D6E817F8182
:100CE000888599856250710981099109258504C01B
:100CF000660F771F881F991F2A95D2F706851785DB
:100D000020893189600F711F821F931F670D711D2C
:100D1000811D911D99CF4E815F81688579859101F3
:100D20000E943C058111D8CF3FCF74018301960109
:100D3000AB01BC0190E080E00E94E502882309F449
:100D400033CF860C971C8A859B85AC85BD85860D27
:100D5000971DA11DB11D8A879B87AC87BD87A618EB
:100D6000B70850CF281B390B820E931EECCFC2015F
:100D70001DCFCF93DF93FC01248127FF2BC0EC0113
:100D8000668577858089918941E00E945304882394
:100D900029F1EA8980E2E89FF0011124ED51FE4F2C
:100DA0003097E1F08D81823040F48B899C89AD8948
:100DB000BE89848F958FA68FB78F8F89988D938FDB
:100DC000828F8F89988DA98DBA8DB58BA48B8C81DC
:100DD0008F778C83DF91CF910C941C0480E0DF919E
:100DE000CF9108958F929F92AF92BF92CF92DF9250
:100DF000EF92FF920F931F93CF93DF93EC018D81BE
:100E000081110EC080E0DF91CF911F910F91FF9073
:100E1000EF90DF90CF90BF90AF909F908F9008950C
:100E20000B891C892D893E8904171507260737076A
:100E300048F34A015B01823031F48A869B86AC8696
:100E4000BD8681E0E0CF81149104A104B10449F48E
:100E50001E821F82188619861A861B861C861D868E
:100E6000F0CF0A851B852C853D85EB8DFC8D858516
:100E700090E00996B901A801415051096109710931
:100E8000082E04C076956795579547950A94D2F732
:100E900075016401E1E0CE1AD108E108F10804C04F
:100EA000F694E794D794C7948A95D2F7C416D506DA
:100EB000E606F70620F0012B022B032B11F58F8994
:100EC000988DA98DBA8D8E839F83A887B9878E014F
:100ED0000A5F1F4FC114D104E104F10409F4ADCF3E
:100EE0004E815F816885798598018B8D9C8D0E94EC
:100EF0003C0591E0C91AD108E108F1088111EACF57
:100F000081CFC41AD50AE60AF70AE1CF3F924F9281
:100F10005F926F927F928F929F92AF92BF92CF9289
:100F2000DF92EF92FF920F931F93CF93DF93CDB792
:100F3000DEB72C970FB6F894DEBF0FBECDBF5C01B5
:100F4000DC015B968D909C905C9716964D905D9021
:100F50006D907C901997411451046104710409F457
:100F600068C0BFEF4B1A5B0A6B0A7B0A312CF40195
:100F700081859285A385B4859C01AD012F5F3F4F8C
:100F80004F4F5F4F29873A874B875C877301620118
:100F90001D821E821F821886F40181859285A38599
:100FA000B4852D813E814F815885281739074A071E
:100FB0005B0708F056C089859A85AB85BC858C1582
:100FC0009D05AE05BF0550F482E0C82ED12CE12C62
:100FD000F12C92E0492E512C612C712C9E012F5F37
:100FE0003F4FB701A601C4010E943C058823C9F107
:100FF00089819A81AB81BC81892B8A2B8B2B09F14A
:10100000260137019FEF491A590A690A790A2D8189
:101010003E814F8158852F5F3F4F4F4F5F4F2D834C
:101020003E834F8358873FEFC31AD30AE30AF30A7C
:10103000B3CFF401408051806280738033243394B5
:1010400096CFC414D504E604F70409F70FEF1FEF99
:101050002FEF3FE0B701A601C4010E949A0481115D
:1010600019C080E02C960FB6F894DEBF0FBECDBF3E
:10107000DF91CF911F910F91FF90EF90DF90CF9074
:10108000BF90AF909F908F907F906F905F904F90A8
:101090003F900895F501468157816085718541151E
:1010A00051056105710539F097018601C4010E945F
:1010B0009A048823B1F2D5011696CD92DD92ED9275
:1010C000FC921997332051F0D701C6010196A11D5A
:1010D000B11DF40180839183A283B383F5018789D5
:1010E000908DA18DB28D892B8A2B8B2B39F4C78AD9
:1010F000D08EE18EF28E84818068848381E0B2CFCD
:10110000FC01818D928D009729F0FC012581211130
:101110000C94B9060895DC015996ED91FC91309735
:10112000B9F083899489A589B689428553856485F8
:101130007585841B950BA60BB70B811520E89207CC
:10114000A105B10538F08FEF9FE7A0E0B0E008956A
:1011500090E080E00895CF93DF931F92CDB7DEB784
:10116000FC01818D928D009769F0BE016F5F7F4F0A
:101170000E94BD05019731F4898190E00F90DF91C5
:10118000CF9108958FEF9FEFF9CFEF92FF920F93DA
:101190001F93CF93DF931F92CDB7DEB7FC01818DF4
:1011A000928D10E000E00097D1F07F01BE016F5FEB
:1011B0007F4F0E94BD050FEF1FEF019781F409815A
:1011C00010E0F701818D928DFC0142855385648585
:1011D000758541505109610971090E94F206C801E3
:1011E0000F90DF91CF911F910F91FF90EF90089595
:1011F0002F923F924F925F926F927F928F929F9227
:10120000AF92BF92CF92DF92EF92FF920F931F9314
:10121000CF93DF9300D000D000D0CDB7DEB79E8350
:101220008D835B011A01DC015996ED91FC91309799
:1012300009F581E090E0ED81FE819383828380E077
:1012400090E026960FB6F894DEBF0FBECDBFDF91BB
:10125000CF911F910F91FF90EF90DF90CF90BF90B3
:10126000AF909F908F907F906F905F904F903F9046
:101270002F90089513821282AD81BE8159960D91EF
:101280001C91F8018581813009F0BCC0848181FF07
:10129000B9C082FDA4C06101F8014285538564850F
:1012A0007585C114D10409F41EC1838D948DDC01B0
:1012B00014967C902FEF270D2A013B0139E076949C
:1012C0006794579447943A95D1F742227A01B1E056
:1012D000FB2241101CC0E114F104C9F4468157817E
:1012E00060857185411551056105710509F091C051
:1012F0008789908DA18DB28D0097A105B10509F068
:10130000AAC0C8010E948607882309F47BC080E038
:1013100092E08E199F0946018C159D0508F44C0139
:10132000D8015B964D915C915C9716968D919D913D
:101330000D90BC91A02D0297A109B109FA01258554
:1013400004C0880F991FAA1FBB1F2A95D2F7468594
:10135000578560897189840F951FA61FB71F9C014F
:10136000AD01240D311D411D511D29013A0181148A
:1013700032E0930609F075C080910001909101015F
:10138000A0910201B0910301481659066A067B0636
:1013900059F48FEF9FEFDC018093000190930101DE
:1013A000A0930201B09303019501B301A20190E063
:1013B00080E00E948703882329F19EEFB91AC8189C
:1013C000D908F80182859385A485B585880D991D76
:1013D000A11DB11D82879387A487B5875DCF4389FF
:1013E00054896589768982859385A485B585481752
:1013F00059076A077B0709F44ECFC8010E94F2061D
:10140000811149CF81E090E0F8019383828380E0ED
:1014100007C09E012F5F3F4F0E943C05811102C013
:1014200090E076C089819A81AB81BC81F801238DDF
:10143000348DF901278948EF5FEF60E070E02031DB
:1014400021F048EF5FEF6FEF7FE084179507A60765
:10145000B70708F056CFF80186839783A087B18736
:1014600056CFE114F10491F5D8011A964D915D9192
:101470006D917C911D9753968D919D910D90BC918E
:10148000A02D481759076A077B0700F10E941C042A
:10149000882309F4B7CF4092000150920101609275
:1014A000020170920301809160018160809360016C
:1014B00097012D513E4FD501C901880D991DF901A4
:1014C0008E179F0759F04D914193FACF41E0C30128
:1014D000B2010E9453048111EBCF94CF821B930B76
:1014E000A80EB91E6CCF83899489A589B689841703
:1014F0009507A607B70738F48481438B548B658B17
:10150000768B80688483F801848183FD0CC0C101DF
:10151000AD81BE815996ED91FC9122813381232BBF
:1015200009F087CE8ECE8581882309F46BCFC80160
:101530000E94B9068111EBCF65CFCF93DF931F9245
:10154000CDB7DEB76983DC01ED91FC910280F381B8
:10155000E02D41E050E0BE016F5F7F4F09950F9095
:10156000DF91CF91089590E080E00895CF92DF92CF
:10157000EF92FF92806480937C0080917A00806477
:1015800080937A0080917A0086FDFCCF809178006C
:1015900060917900762F682F072E000C880B990B2D
:1015A0000E942D102AE038E240EA5BE30E948C1092
:1015B0006B017C0120E030E040EA50E40E948012A0
:1015C0001816ACF0C0925C01D0925D01E0925E0111
:1015D000F0925F0160915C0170915D0180915E010C
:1015E00090915F01FF90EF90DF90CF90089510925F
:1015F0005C0110925D0110925E0110925F01EACFD2
:10160000FC0101900020E9F73197AF01481B590B0D
:10161000BC0183EE93E00C94310188E291E00C94DC
:10162000000B8F929F92AF92BF920F931F93CF9315
:10163000DF93CDB7DEB7A1970FB6F894DEBF0FBE2C
:10164000CDBF19A2423008F44AE08E010F5D1F4F52
:10165000842E912CB12CA12CA50194010E944A1139
:10166000E62FB901CA01EA30F4F4E05DD801EE9347
:101670008D01232B242B252B79F790E080E0109708
:1016800019F0CD010E94000BA1960FB6F894DEBFB1
:101690000FBECDBFDF91CF911F910F91BF90AF9043
:1016A0009F908F900895E95CE1CFCF92DF92EF9207
:1016B000FF92CF93DF936B017C016DE283EE93E0A9
:1016C0000E94D101EC0166277727CB016C197D09B7
:1016D0008E099F094AE00E94110B8C0F9D1FDF911C
:1016E000CF91FF90EF90DF90CF9008954F925F924F
:1016F0006F927F928F929F92AF92BF92CF92DF9222
:10170000EF92FF920F931F93CF936B017C01742E86
:10171000AC019B010E948512882399F08BE291E035
:10172000CF911F910F91FF90EF90DF90CF90BF90DE
:10173000AF909F908F907F906F905F904F900C94A0
:10174000000B46015701E894B7F82FEF3FEF4FE742
:101750005FE7C501B4010E94851281110DC02FEF12
:101760003FEF4FE75FE7C501B4010E94261018164E
:101770001CF48FE291E0D4CF2FEF3FEF4FE75FE40F
:10178000C701B6010E94801218161CF483E391E091
:10179000C7CF2FEF3FEF4FE75FECC701B6010E94C5
:1017A000261087FDF3CF20E030E0A901C701B60184
:1017B0000E94261010E000E087FF0AC06DE283EE71
:1017C00093E00E94D1018C01F7FAF094F7F8F094BD
:1017D000C0E060E070E080E09FE37C1641F020E034
:1017E00030E040E251E40E94DF11CF5FF6CFA70165
:1017F00096010E9473112B013C010E9451124B0172
:101800005C014AE00E94110B7C01E00EF11ECC232A
:10181000C1F1C501B4010E942B109B01AC01C301B1
:10182000B2010E9472114B015C016EE283EE93E003
:101830000E94D101E80EF91EC15018F120E030E0FD
:1018400040E251E4C501B4010E948C102B013C011F
:101850000E9451124B01B12CA12C4AE0C501B401E8
:101860000E94110BE80EF91EC501B4010E942B1055
:101870009B01AC01C301B2010E9472114B015C01DA
:10188000DBCFC701CF911F910F91FF90EF90DF90B9
:10189000CF90BF90AF909F908F907F906F905F9010
:1018A0004F9008951F93CF93DF9385ED8093BC00F5
:1018B0008091750190917601A0917701B0917801A6
:1018C0000796A11DB11D23E0B695A795979587951D
:1018D0002A95D1F72091BC0024FD03C01092BD01D0
:1018E00052C04091750150917601609177017091DD
:1018F0007801452B462B472B69F30097A105B105CD
:1019000041F025E32A95F1F700000197A109B109FB
:10191000E1CF80917401C1E0C0937301882399F1F4
:10192000D091B8001091BA008091BC008A7B80935E
:10193000BC0060E082E10E94D90060E083E10E9487
:10194000D9001092BD01C093BF011092BE0161E0A9
:1019500082E10E94D90061E083E10E94D900809178
:10196000B9008E7F8093B9008091B9008D7F8093FC
:10197000B90088E48093B80085E48093BC0010939C
:10198000BA00D093B800DF91CF911F9108951F92B4
:101990000F920FB60F9211242F933F934F935F93A3
:1019A0006F937F938F939F93AF93BF93EF93FF9327
:1019B0008091B900887F803609F44AC0F0F58832FA
:1019C00009F4A5C018F5803109F499C0B8F488234A
:1019D00009F4F5C0883009F492C0FF91EF91BF91EE
:1019E000AF919F918F917F916F915F914F913F91B7
:1019F0002F910F900FBE0F901F901895883109F40A
:101A000086C0803251F78093BC0114C0803409F441
:101A10009BC040F48033B9F38833F9F68093BC015E
:101A200085ECAEC0803509F483C0883509F494C0D4
:101A3000883499F60E94520CD0CF883909F48AC0B4
:101A400038F5883729F050F4883611F0803729F6B8
:101A500083E08093BD011092BB0155C0883809F422
:101A600079C0803919F0803809F0B7CF8091BB0177
:101A7000803208F06FC0E091BB0181E08E0F80934F
:101A8000BB018091BB00F0E0E556FE4F80833BC078
:101A9000803B39F0D0F4803A09F477C0883A09F0F5
:101AA0009CCF84E08093BD0110929A01109299011D
:101AB000F0E0E0E009958091990181110FC081E08B
:101AC000809399011092790109C0803C09F4A8CF54
:101AD000883C09F4A5CF883B09F07FCFE0919A01BB
:101AE00081E08E0F80939A01F0E0E758FE4F8081ED
:101AF0008093BB0090919A018091990129C08091B7
:101B0000E2018093BB0085EC8093BC0066CF90918E
:101B1000E1018091E001981758F5E091E10181E041
:101B20008E0F8093E101F0E0E054FE4F8081E9CF19
:101B3000E091E10181E08E0F8093E1018091BB0093
:101B4000F0E0E054FE4F80839091E1018091E0014C
:101B50009817C8F285E8D8CFE091E10181E08E0FB7
:101B60008093E1018091BB00F0E0E054FE4F808360
:101B70008091BF0181115ECF81E08093BE0184EA34
:101B80008093BC001092BD0128CF85EC8093BC00EF
:101B90001092BD018091BB01803230F4E091BB0115
:101BA000F0E0E556FE4F10826091BB0170E08BE9DA
:101BB00091E0F0E0E0E009951092BB010ECF1092A9
:101BC000BC0138CF1F920F920FB60F9211242F93A2
:101BD0003F938F939F93AF93BF9380916E019091AA
:101BE0006F01A0917001B091710130916D0123E0FE
:101BF000230F2D3758F50196A11DB11D20936D01BE
:101C000080936E0190936F01A0937001B093710166
:101C10008091690190916A01A0916B01B0916C0172
:101C20000196A11DB11D8093690190936A01A09353
:101C30006B01B0936C01BF91AF919F918F913F91D8
:101C40002F910F900FBE0F901F90189526E8230F2D
:101C50000296A11DB11DD2CF1F920F920FB60F9207
:101C600011242F933F934F935F936F937F938F93A1
:101C70009F93AF93BF93EF93FF9383EE93E00E9404
:101C8000AF01FF91EF91BF91AF919F918F917F91A4
:101C90006F915F914F913F912F910F900FBE0F90D9
:101CA0001F9018951F920F920FB60F9211242F9329
:101CB0008F939F93EF93FF93E091F303F091F403DD
:101CC0008081E091F903F091FA0382FD1BC09081BD
:101CD0008091FC038F5F8F732091FD03821741F089
:101CE000E091FC03F0E0ED51FC4F958F8093FC03F5
:101CF000FF91EF919F918F912F910F900FBE0F90B9
:101D00001F9018958081F4CF1092E6031092E5039E
:101D100088EE93E0A0E0B0E08093E7039093E803BF
:101D2000A093E903B093EA0328E031E03093E403A1
:101D30002093E30325EC30E03093F0032093EF038E
:101D400024EC30E03093F2032093F10320EC30E0F8
:101D50003093F4032093F30321EC30E03093F60347
:101D60002093F50322EC30E03093F8032093F7033F
:101D700026EC30E03093FA032093F9031092FC0331
:101D80001092FD031092FE031092FF03109289043B
:101D90001092880480938A0490938B04A0938C04FF
:101DA000B0938D048AE191E0909387048093860438
:101DB0001092A00410929F04109292041092850435
:101DC000109284041092830410928004EEEAF0E0F2
:101DD00081E08C3049F09491823009F49F5F21E0DA
:101DE000280F3196992331F08093810481E080930C
:101DF00082040895822FEDCF789484B5826084BDEB
:101E000084B5816084BD85B5826085BD85B58160FE
:101E100085BD80916E00816080936E00109281007C
:101E20008091810082608093810080918100816037
:101E300080938100809180008160809380008091F8
:101E4000B10084608093B1008091B0008160809384
:101E5000B00080917A00846080937A0080917A004B
:101E6000826080937A0080917A00816080937A000A
:101E700080917A00806880937A001092C100E0918E
:101E8000F303F091F40382E08083E091EF03F0919B
:101E9000F0031082E091F103F091F2038FEC808364
:101EA0001092FB03E091F703F091F80386E0808342
:101EB000E091F503F091F603808180618083E091E9
:101EC000F503F091F603808188608083E091F5034B
:101ED000F091F603808180688083E091F503F091B2
:101EE000F60380818F7D808300E010E00E94250151
:101EF0006093650170936601809367019093680118
:101F00006B017C0124EFC20E21E0D21EE11CF11C0A
:101F10000E9425016C157D058E059F05C8F387E39A
:101F200091E00E94000B86E491E00E94000B4AE0E1
:101F300060E070E0CB010E94110B8BE491E00E9405
:101F4000000B90E080E00E94B60A42E00E94760B0F
:101F5000C12CD12C7601C394E60184E591E00E9466
:101F6000000B86E491E00E94000B4AE0C701B60135
:101F70000E94110B8BE491E00E94000BC6010E94AD
:101F8000B60A42E00E94760B239711F40E940D0BD3
:101F90008FEFC81AD80AE80AF80A24E0C216D1045A
:101FA000E104F104C9F60E940D0B0E942501609323
:101FB00065017093660180936701909368016B01DE
:101FC0007C0124EFC20E21E0D21EE11CF11C0E9414
:101FD00025016C157D058E059F05C8F382E591E00E
:101FE0000E94000B4AE060E070E0CB010E94110B00
:101FF00090E080E00E94B60A42E00E94760B82E503
:1020000091E00E94000BC1E0D0E0CE010E94B60A30
:1020100042E00E94760B82E591E00E94000BC33003
:10202000D10511F40E940D0B2196C430D10569F73A
:102030000E940D0B0115110509F458CF0E949B0158
:10204000882309F453CF0E94000050CF0E946810EB
:1020500008F481E00895E89409C097FB3EF4909558
:102060008095709561957F4F8F4F9F4F9923A9F071
:10207000F92F96E9BB279395F69587957795679500
:10208000B795F111F8CFFAF4BB0F11F460FF1BC044
:102090006F5F7F4F8F4F9F4F16C0882311F096E9D7
:1020A00011C0772321F09EE8872F762F05C0662385
:1020B00071F096E8862F70E060E02AF09A95660F3E
:1020C000771F881FDAF7880F9695879597F90895F7
:1020D000990F0008550FAA0BE0E8FEEF1616170639
:1020E000E807F907C0F012161306E407F50798F0A1
:1020F000621B730B840B950B39F40A2661F0232BBA
:10210000242B252B21F408950A2609F4A140A69535
:102110008FEF811D811D08950E949F100C94101156
:102120000E94021138F00E94091120F0952311F04D
:102130000C94F9100C94FF1011240C9444110E947B
:10214000211170F3959FC1F3950F50E0551F629FC9
:10215000F001729FBB27F00DB11D639FAA27F00D00
:10216000B11DAA1F649F6627B00DA11D661F829F27
:102170002227B00DA11D621F739FB00DA11D621F0C
:10218000839FA00D611D221F749F3327A00D611D29
:10219000231F849F600D211D822F762F6A2F11240B
:1021A0009F5750409AF0F1F088234AF0EE0FFF1F3E
:1021B000BB1F661F771F881F91505040A9F79E3F95
:1021C000510580F00C94F9100C9444115F3FE4F336
:1021D000983ED4F3869577956795B795F795E795EB
:1021E0009F5FC1F7FE2B880F911D9695879597F9F4
:1021F000089597F99F6780E870E060E008959FEF89
:1022000080EC089500240A9416161706180609068D
:10221000089500240A94121613061406050608955C
:10222000092E0394000C11F4882352F0BB0F40F4E4
:10223000BF2B11F460FF04C06F5F7F4F8F4F9F4F24
:10224000089557FD9058440F551F59F05F3F71F0A6
:102250004795880F97FB991F61F09F3F79F087950D
:102260000895121613061406551FF2CF4695F1DF96
:1022700008C0161617061806991FF1CF8695710526
:10228000610508940895E894BB2766277727CB015A
:1022900097F90895A1E21A2EAA1BBB1BFD010DC0E0
:1022A000AA1FBB1FEE1FFF1FA217B307E407F50706
:1022B00020F0A21BB30BE40BF50B661F771F881FE2
:1022C000991F1A9469F760957095809590959B0178
:1022D000AC01BD01CF010895EE0FFF1F0590F491F1
:1022E000E02D09945058BB27AA270E948A110C940C
:1022F00010110E94021138F00E94091120F039F4E7
:102300009F3F19F426F40C94FF100EF4E095E7FBC0
:102310000C94F910E92F0E94211158F3BA176207A3
:1023200073078407950720F079F4A6F50C94431100
:102330000EF4E0950B2EBA2FA02D0B01B9019001E0
:102340000C01CA01A0011124FF27591B99F0593F24
:1023500050F4503E68F11A16F040A22F232F342F6C
:102360004427585FF3CF469537952795A795F040BA
:102370005395C9F77EF41F16BA0B620B730B840BCF
:10238000BAF09150A1F0FF0FBB1F661F771F881F87
:10239000C2F70EC0BA0F621F731F841F48F48795DF
:1023A00077956795B795F7959E3F08F0B0CF9395D1
:1023B000880F08F09927EE0F9795879508950E944A
:1023C000F3110C9410110E94091158F00E9402118F
:1023D00040F029F45F3F29F00C94F91051110C944E
:1023E00044110C94FF100E94211168F39923B1F35A
:1023F000552391F3951B550BBB27AA27621773072B
:10240000840738F09F5F5F4F220F331F441FAA1FBE
:10241000A9F335D00E2E3AF0E0E832D0915050407A
:10242000E695001CCAF72BD0FE2F29D0660F771F28
:10243000881FBB1F261737074807AB07B0E809F00E
:10244000BB0B802DBF01FF2793585F4F3AF09E3F93
:10245000510578F00C94F9100C9444115F3FE4F3AB
:10246000983ED4F3869577956795B795F7959F5FD6
:10247000C9F7880F911D9695879597F90895E1E022
:10248000660F771F881FBB1F621773078407BA0781
:1024900020F0621B730B840BBA0BEE1F88F7E095DC
:1024A00008950E94291188F09F5798F0B92F992715
:1024B000B751B0F0E1F0660F771F881F991F1AF02F
:1024C000BA95C9F714C0B13091F00E944311B1E040
:1024D00008950C944311672F782F8827B85F39F03F
:1024E000B93FCCF3869577956795B395D9F73EF4C8
:1024F00090958095709561957F4F8F4F9F4F089570
:102500000E94681008F48FEF08950E946810880BED
:08251000990B0895F894FFCF28
:10251800FFFFFFFF00000000D10131015E011E0234
:102528008F016D018101000000009D0AF808B30ABF
:1025380080088B08AB08C5080D0A006E616E00693B
:102548006E66006F7666002050686F746F20436572
:102558006E7472616C00202D3E20002056616C6FF5
:0C256800723A20002050686F746F000071
:00000001FF
