:100000000C9463000C948B000C948B000C948B006C
:100010000C948B000C948B000C948B000C948B0034
:100020000C948B000C948B000C948B000C948B0024
:100030000C948B000C948B000C948B000C948B0014
:100040000C946F030C948B000C94DF030C94B90395
:100050000C948B000C948B000C948B000C948B00F4
:100060000C948B000C948B0008000000BE92244975
:10007000123EABAAAA2ABECDCCCC4C3E00000080DA
:10008000BEABAAAAAA3E00000000BF000000803F4D
:100090000000000000084178D3BB4387D1133D190D
:1000A0000E3CC3BD4282AD2B3E68EC8276BED98F3A
:1000B000E1A93E4C80EFFFBE01C4FF7F3F0000007E
:1000C00000001104D70711241FBECFEFD8E0DEBF18
:1000D000CDBF22E0A0E7B1E001C01D92A533B20779
:1000E000E1F711E0A0E0B1E0EEEFF9E102C0059028
:1000F0000D92A037B107D9F710E0C2E6D0E004C0F6
:100100002197FE010E945D09C136D107C9F70E94FF
:1001100085040C94F20C0C9400008E3008F08E5084
:100120008770806480937C0080917A0080648093E3
:100130007A0080917A0086FDFCCF809178009091C2
:10014000790008953FB7F89480918A0190918B01CE
:10015000A0918C01B0918D0126B5A89B05C02F3FC1
:1001600019F00196A11DB11D3FBFBA2FA92F982FDD
:100170008827BC01CD01620F711D811D911D42E0D8
:10018000660F771F881F991F4A95D1F708958F92A0
:100190009F92AF92BF92CF92DF92EF92FF924B016C
:1001A0005C010E94A2006B017C010E94A2006C19FC
:1001B0007D098E099F09683E734081059105A8F36A
:1001C00021E0821A9108A108B10888EEC80E83E0E8
:1001D000D81EE11CF11C81149104A104B10429F77B
:1001E000FF90EF90DF90CF90BF90AF909F908F9057
:1001F00008952FB7F89460918601709187018091DE
:100200008801909189012FBF0895AF92BF92CF923C
:10021000DF92EF92FF920F931F93CF93DF936C01C6
:100220007B018B01040F151FEB015E01AE18BF08A7
:10023000C017D10759F06991D601ED91FC91019059
:10024000F081E02DC6010995892B79F7C501DF9171
:10025000CF911F910F91FF90EF90DF90CF90BF90C3
:10026000AF900895FC01538D448D252F30E0842FED
:1002700090E0821B930B541710F0CF9608950197CE
:100280000895FC01918D828D981761F0A28DAE0FBB
:10029000BF2FB11D5D968C91928D9F5F9F73928F42
:1002A00090E008958FEF9FEF0895FC01918D828D6E
:1002B000981731F0828DE80FF11D858D90E008953B
:1002C0008FEF9FEF0895FC01918D228D892F90E093
:1002D000805C9F4F821B91098F73992708958EE848
:1002E00091E00E94630121E0892B09F420E0822F34
:1002F000089580E090E0892B29F00E946F01811120
:100300000C9400000895FC01A48DA80FB92FB11D15
:10031000A35ABF4F2C91848D90E001968F7399273B
:10032000848FA689B7892C93A089B1898C91837019
:1003300080648C93938D848D981306C00288F38912
:10034000E02D80818F7D80830895EF92FF920F933F
:100350001F93CF93DF93EC0181E0888F9B8D8C8D71
:1003600098131AC0E889F989808185FF15C09FB765
:10037000F894EE89FF896083E889F9898081837028
:10038000806480839FBF81E090E0DF91CF911F91D7
:100390000F91FF90EF900895F62E0B8D10E00F5FF8
:1003A0001F4F0F731127E02E8C8D8E110CC00FB6CE
:1003B00007FCFACFE889F989808185FFF5CFCE0166
:1003C0000E948301F1CFEB8DEC0FFD2FF11DE35A5D
:1003D000FF4FF0829FB7F8940B8FEA89FB898081E9
:1003E0008062CFCFCF93DF93EC01888D8823B9F063
:1003F000AA89BB89E889F9898C9185FD03C0808130
:1004000086FD0DC00FB607FCF7CF8C9185FFF2CFAC
:10041000808185FFEDCFCE010E948301E9CFDF917E
:10042000CF910895FC0101900020E9F73197AF01C9
:10043000481B590BBC018EE891E00C9405018F928A
:100440009F92AF92BF920F931F93CF93DF93CDB73D
:10045000DEB7A1970FB6F894DEBF0FBECDBF19A2CD
:10046000423008F44AE08E010F5D1F4F842E912C1C
:10047000B12CA12CA50194010E943B09E62FB901E2
:10048000CA01EA30F4F4E05DD801EE938D01232B2C
:10049000242B252B79F790E080E0109719F0CD01FF
:1004A0000E941202A1960FB6F894DEBF0FBECDBF18
:1004B000DF91CF911F910F91BF90AF909F908F9040
:1004C0000895E95CE1CF0C9412024F925F926F9213
:1004D0007F928F929F92AF92BF92CF92DF92EF92D4
:1004E000FF920F931F93CF936B017C01742EAC018D
:1004F0009B010E94C60A882399F08CE191E0CF917C
:100500001F910F91FF90EF90DF90CF90BF90AF9031
:100510009F908F907F906F905F904F900C941202FD
:1005200046015701E894B7F82FEF3FEF4FE75FE739
:10053000C501B4010E94C60A81110DC02FEF3FEF23
:100540004FE75FE7C501B4010E94E00718161CF4ED
:1005500080E291E0D4CF2FEF3FEF4FE75FE4C70198
:10056000B6010E94710A18161CF484E291E0C7CF0C
:100570002FEF3FEF4FE75FECC701B6010E94E007A6
:1005800087FDF3CF20E030E0A901C701B6010E944A
:10059000E00710E000E087FF0AC06DE28EE891E01E
:1005A0000E94A5018C01F7FAF094F7F8F094C0E0EE
:1005B00060E070E080E09FE37C1641F020E030E0F6
:1005C00040E251E40E94D009CF5FF6CFA701960127
:1005D0000E9464092B013C010E94420A4B015C010C
:1005E0004AE00E941F027C01E00EF11ECC23C1F103
:1005F000C501B4010E94E5079B01AC01C301B20132
:100600000E9463094B015C016EE28EE891E00E945A
:10061000A501E80EF91EC15018F120E030E040E2DB
:1006200051E4C501B4010E9446082B013C010E941F
:10063000420A4B01B12CA12C4AE0C501B4010E9431
:100640001F02E80EF91EC501B4010E94E5079B01D7
:10065000AC01C301B2010E9463094B015C01DBCF15
:10066000C701CF911F910F91FF90EF90DF90CF9036
:10067000BF90AF909F908F907F906F905F904F90C2
:100680000895CF93DF93EC0180912B0290912C027F
:10069000009759F020912D0230912E022C173D0722
:1006A00020F081E0DF91CF910895BE016F5F7F4F11
:1006B0000E94250C009789F090932C0280932B02C6
:1006C000D0932E02C0932D0220912F023091300240
:1006D000232B39F7FC011082E4CF80E0E3CF1F9297
:1006E0000F920FB60F9211242F933F938F939F93E6
:1006F000AF93BF938091860190918701A09188016B
:10070000B09189013091850123E0230F2D3758F5F1
:100710000196A11DB11D20938501809386019093C0
:100720008701A0938801B093890180918A019091FB
:100730008B01A0918C01B0918D010196A11DB11D7D
:1007400080938A0190938B01A0938C01B0938D01CB
:10075000BF91AF919F918F913F912F910F900FBEBD
:100760000F901F90189526E8230F0296A11DB11D2A
:10077000D2CF1F920F920FB60F9211242F933F9357
:100780004F935F936F937F938F939F93AF93BF9399
:10079000EF93FF938EE891E00E948301FF91EF9128
:1007A000BF91AF919F918F917F916F915F914F9189
:1007B0003F912F910F900FBE0F901F9018951F9291
:1007C0000F920FB60F9211242F938F939F93EF9355
:1007D000FF93E0919E01F0919F018081E091A4013F
:1007E000F091A50182FD1BC090818091A7018F5FD0
:1007F0008F732091A801821741F0E091A701F0E0EA
:10080000E257FE4F958F8093A701FF91EF919F9143
:100810008F912F910F900FBE0F901F901895808190
:10082000F4CF109291011092900188EE93E0A0E035
:10083000B0E08093920190939301A0939401B093C0
:1008400095018EE091E090938F0180938E0185EC6D
:1008500090E090939B0180939A0184EC90E09093B8
:100860009D0180939C0180EC90E090939F01809388
:100870009E0181EC90E09093A1018093A00182EC15
:1008800090E09093A3018093A20186EC90E0909376
:10089000A5018093A4011092A7011092A8011092C3
:1008A000A9011092AA0110922C0210922B02109210
:1008B0002E0210922D021092300210922F0290E020
:1008C00080E00E94410320912B0230912C02811183
:1008D00013C02115310519F0C9010E949C0B10921B
:1008E0002C0210922B021092300210922F021092C2
:1008F0002E0210922D0208951092300210922F02B3
:1009000068E471E0C9010C94EB0CCF93DF9300D045
:10091000CDB7DEB7789484B5826084BD84B581603C
:1009200084BD85B5826085BD85B5816085BD8091BA
:100930006E00816080936E00109281008091810032
:10094000826080938100809181008160809381002A
:10095000809180008160809380008091B1008460EC
:100960008093B1008091B00081608093B00080914D
:100970007A00846080937A0080917A00826080930C
:100980007A0080917A00816080937A0080917A0069
:10099000806880937A001092C10080E090E0A8EC1B
:1009A000B1E48093000190930101A0930201B09300
:1009B0000301E0919E01F0919F0182E08083E0912C
:1009C0009A01F0919B011082E0919C01F0919D01B0
:1009D0008FEC80831092A601E091A201F091A30117
:1009E00086E08083E091A001F091A1018081806187
:1009F0008083E091A001F091A101808188608083D3
:100A0000E091A001F091A101808180688083E09154
:100A1000A001F091A10180818F7D80838EE891E01B
:100A20000E94F20188E291E00E94120286E491E0C5
:100A30000E94120200E010E02AE0322E22242394C9
:100A40008EE891E00E946301892B09F4A4C2809191
:100A50008401811104C08EE891E00E94F20190E0CF
:100A600080E00E94410320912B0230912C028111E1
:100A70006EC12115310519F0C9010E949C0B10921D
:100A80002C0210922B021092300210922F02109220
:100A90002E0210922D028EE891E00E94630118163A
:100AA00019060CF078C28EE891E00E9441018A306C
:100AB00091F780918401811155C02092840120E03A
:100AC00030E040E05FE360910001709101018091AE
:100AD0000201909103010E944608905860938001A2
:100AE00070938101809382019093830189E491E066
:100AF0000E94630280E591E00E94630282E591E03A
:100B00000E94630280E591E00E94630285E591E026
:100B10000E94630280E591E00E94630288E591E013
:100B20000E94630280E591E00E9463028BE591E000
:100B30000E94630280E591E00E9463028EE591E0ED
:100B40000E94630280E591E00E94630281E691E0E9
:100B50000E94630288E491E00E94120286E491E020
:100B60000E9412020E94F9006B017C01C0927C017C
:100B7000D0927D01E0927E01F0927F010E94F90007
:100B80006C157D058E059F05C8F3809080019090BF
:100B90008101A0908201B0908301A5019401C5015B
:100BA000B4010E9464096B017C0120E030E0A901DE
:100BB0000E94710A181624F0F7FAF094F7F8F094EE
:100BC000409078015090790160907A0170907B019B
:100BD000A7019601C301B2010E94710A18160CF018
:100BE000C0C020E030E040E85FE3C301B2010E94F2
:100BF0006409609378017093790180937A019093EE
:100C00007B0184E691E00E9463028DE691E00E9400
:100C1000630286E491E00E9412026091800170916B
:100C2000810180918201909183019B01AC010E941E
:100C3000640920E030E040E85FE30E9463096B0153
:100C40007C0120E030E0A9010E94710A181624F00E
:100C5000F7FAF094F7F8F094A70196016091780103
:100C60007091790180917A0190917B010E94710AC3
:100C700018160CF468C10E94F90060937C0170930F
:100C80007D0180937E0190937F014B015C012FEFEA
:100C9000821A920AA20AB20A0E94F900681579051E
:100CA0008A059B0508F0C5C092E3C92ED12CF12C12
:100CB000E12C82E10E948D00E80EF91E61E070E0F7
:100CC00080E090E00E94C70081E0C81AD10889F74F
:100CD000B701FF0C880B990B0E94E70726E636E662
:100CE0004EE950E40E94460820E030E048E457E432
:100CF0000E94D0099B01AC016FEF72EB81EF98E489
:100D00000E94D00920E030E543EC57E40E946309DB
:100D100029E83FE64DE25EE30E94D0090E947E0A88
:100D20009B01AC0160E070E887E795E40E94D00980
:100D300020E030E848E853E40E94630960937001C2
:100D4000709371018093720190937301A5CF1092FB
:100D5000300210922F0268E471E0C9010E94EB0C8E
:100D60009ACEA3019201C501B4010E94640920E05A
:100D700030E040E85FE30E94630940E00E946502C2
:100D800080E591E00E946302F12C8F2D0E948D007E
:100D9000BC01990F880B990B0E94E7072AE038E203
:100DA00040EA5BE30E9446084B015C0120E030E032
:100DB00040EA50E40E94710A181694F1809274017E
:100DC00090927501A0927601B092770160917401C2
:100DD00070917501809176019091770142E00E94B7
:100DE000650280E591E00E946302F39424E0F21230
:100DF000CCCF20E030E040E85FE360917801709173
:100E0000790180917A0190917B010E94640960933D
:100E100078017093790180937A0190937B01FDCEE4
:100E20001092740110927501109276011092770160
:100E3000CDCF60917001709171018091720190919C
:100E4000730142E00E94650280E591E00E94630226
:100E50000E94F90060937C0170937D0180937E0174
:100E600090937F014B015C012FEF821A920AA20A34
:100E7000B20A0E94F900681579058A059B0508F0F9
:100E800053C082E3C82ED12CF12CE12C83E10E94C7
:100E90008D00E80EF91E61E070E080E090E00E94B5
:100EA000C70081E0C81AD10889F7B701FF0C880B89
:100EB000990B0E94E70726E636E64EE950E40E94C9
:100EC000460820E030E048E457E40E94D0099B0146
:100ED000AC016FEF72EB81EF98E40E94D00920E043
:100EE00030E543EC57E40E94630929E83FE64DE210
:100EF0005EE30E94D0090E947E0A9B01AC0160E083
:100F000070E887E795E40E94D00920E030E848E8DF
:100F100053E40E94630960937001709371018093A0
:100F2000720190937301A5CF60917001709171016E
:100F3000809172019091730142E00E94650286E403
:100F400091E00E94120239821A82E0902F02F09002
:100F500030022FEFE21AF20AC7010E9441038823F0
:100F600099F020912B0230912C0280912F029091C8
:100F70003002BE016F5F7F4F820F931F0E94EB0C08
:100F8000F0923002E0922F026AE070E080E090E0A0
:100F90000E94C70080CD0115110509F451CD0E94B2
:100FA0006F01882309F44CCD0E94000049CD809147
:100FB0002B0290912C02009711F00C949C0B089539
:100FC0000E94220808F481E00895E89409C097FB84
:100FD0003EF490958095709561957F4F8F4F9F4F10
:100FE0009923A9F0F92F96E9BB279395F695879554
:100FF00077956795B795F111F8CFFAF4BB0F11F417
:1010000060FF1BC06F5F7F4F8F4F9F4F16C08823BD
:1010100011F096E911C0772321F09EE8872F762FF3
:1010200005C0662371F096E8862F70E060E02AF034
:101030009A95660F771F881FDAF7880F9695879520
:1010400097F90895990F0008550FAA0BE0E8FEEFF5
:1010500016161706E807F907C0F012161306E4077C
:10106000F50798F0621B730B840B950B39F40A2675
:1010700061F0232B242B252B21F408950A2609F453
:10108000A140A6958FEF811D811D08950E945908EA
:101090000C94CA080E94BC0838F00E94C30820F0D3
:1010A000952311F00C94B3080C94B90811240C94F6
:1010B000FE080E94DB0870F3959FC1F3950F50E086
:1010C000551F629FF001729FBB27F00DB11D639FFA
:1010D000AA27F00DB11DAA1F649F6627B00DA11DA0
:1010E000661F829F2227B00DA11D621F739FB00D46
:1010F000A11D621F839FA00D611D221F749F3327B6
:10110000A00D611D231F849F600D211D822F762F4E
:101110006A2F11249F5750409AF0F1F088234AF02B
:10112000EE0FFF1FBB1F661F771F881F9150504097
:10113000A9F79E3F510580F00C94B3080C94FE086B
:101140005F3FE4F3983ED4F3869577956795B7951E
:10115000F795E7959F5FC1F7FE2B880F911D969538
:10116000879597F9089597F99F6780E870E060E0A8
:1011700008959FEF80EC089500240A941616170630
:1011800018060906089500240A9412161306140678
:1011900005060895092E0394000C11F4882352F0DB
:1011A000BB0F40F4BF2B11F460FF04C06F5F7F4F93
:1011B0008F4F9F4F089557FD9058440F551F59F07A
:1011C0005F3F71F04795880F97FB991F61F09F3F34
:1011D00079F087950895121613061406551FF2CF5D
:1011E0004695F1DF08C0161617061806991FF1CFAD
:1011F00086957105610508940895E894BB276627D4
:101200007727CB0197F908952F923F924F925F92E3
:101210006F927F928F929F92AF92BF92CF92DF9206
:10122000EF92FF920F931F93CF93DF93CDB7DEB76B
:10123000CA1BDB0B0FB6F894DEBF0FBECDBF0994FF
:101240002A88398848885F846E847D848C849B8456
:10125000AA84B984C884DF80EE80FD800C811B8164
:10126000AA81B981CE0FD11D0FB6F894DEBF0FBE93
:10127000CDBFED010895A1E21A2EAA1BBB1BFD01F3
:101280000DC0AA1FBB1FEE1FFF1FA217B307E40765
:10129000F50720F0A21BB30BE40BF50B661F771FBD
:1012A000881F991F1A9469F760957095809590959D
:1012B0009B01AC01BD01CF010895EE0FFF1F05900A
:1012C000F491E02D09945058BB27AA270E947B096E
:1012D0000C94CA080E94BC0838F00E94C30820F091
:1012E00039F49F3F19F426F40C94B9080EF4E095F4
:1012F000E7FB0C94B308E92F0E94DB0858F3BA17F8
:10130000620773078407950720F079F4A6F50C941B
:10131000FD080EF4E0950B2EBA2FA02D0B01B9019C
:1013200090010C01CA01A0011124FF27591B99F05B
:10133000593F50F4503E68F11A16F040A22F232F67
:10134000342F4427585FF3CF469537952795A795B7
:10135000F0405395C9F77EF41F16BA0B620B730B5E
:10136000840BBAF09150A1F0FF0FBB1F661F771FCF
:10137000881FC2F70EC0BA0F621F731F841F48F484
:10138000879577956795B795F7959E3F08F0B0CF0D
:101390009395880F08F09927EE0F979587950895F4
:1013A0000E94E4090C94CA080E94C30858F00E94E5
:1013B000BC0840F029F45F3F29F00C94B3085111A8
:1013C0000C94FE080C94B9080E94DB0868F399237A
:1013D000B1F3552391F3951B550BBB27AA27621731
:1013E0007307840738F09F5F5F4F220F331F441F3E
:1013F000AA1FA9F335D00E2E3AF0E0E832D0915072
:101400005040E695001CCAF72BD0FE2F29D0660F5E
:10141000771F881FBB1F261737074807AB07B0E8A1
:1014200009F0BB0B802DBF01FF2793585F4F3AF0A7
:101430009E3F510578F00C94B3080C94FE085F3F72
:10144000E4F3983ED4F3869577956795B795F7952D
:101450009F5FC9F7880F911D9695879597F9089515
:10146000E1E0660F771F881FBB1F621773078407B1
:10147000BA0720F0621B730B840BBA0BEE1F88F7C0
:10148000E09508950E94E30888F09F5798F0B92FDF
:101490009927B751B0F0E1F0660F771F881F991FA9
:1014A0001AF0BA95C9F714C0B13091F00E94FD0846
:1014B000B1E008950C94FD08672F782F8827B85F56
:1014C00039F0B93FCCF3869577956795B395D9F701
:1014D0003EF490958095709561957F4F8F4F9F4F0B
:1014E00008950E94220808F48FEF089516F00C94D6
:1014F000CB0A0C94B90868940C94B3080E94E308D2
:10150000A8F39923C1F3AEF3DF93CF931F930F9307
:10151000FF92C92FDD2788232AF02197660F771FB6
:10152000881FDAF720E030E040E85FEB9FE388397E
:1015300020F0803E38F021968F770E946409E8E61B
:10154000F0E004C00E946409E5E9F0E00E94D90AD5
:101550008B01BE01EC01FB2E6F5771097595771F4A
:10156000880B990B0E94E70728E132E741E35FE32C
:101570000E945908AF2D9801AE01FF900F911F9165
:10158000CF91DF910E947B090C94CA080E94220827
:10159000880B990B08959F3F31F0915020F4879567
:1015A00077956795B795880F911D9695879597F9CB
:1015B0000895DF93CF931F930F93FF92EF92DF92E3
:1015C0007B018C01689406C0DA2EEF010E94590855
:1015D000FE01E894A5912591359145915591A6F389
:1015E000EF010E947B09FE019701A801DA9469F7D7
:1015F000DF90EF90FF900F911F91CF91DF910895B1
:101600000F931F93CF93DF938230910510F482E004
:1016100090E0E0913302F091340230E020E0B0E05D
:10162000A0E0309799F42115310509F44AC0281B30
:10163000390B24303105D8F58A819B8161157105FC
:1016400089F1FB0193838283FE0111C040815181A6
:101650000281138148175907E0F04817590799F498
:10166000109761F012960C93129713961C93329672
:10167000CF01DF91CF911F910F9108950093330215
:1016800010933402F4CF2115310551F0421753075E
:1016900038F0A901DB019A01BD01DF01F801C1CFDA
:1016A000EF01F9CF9093340280933302CDCFFE0146
:1016B000E20FF31F819391932250310939832883DC
:1016C000D7CF2091310230913202232B41F4209167
:1016D00006013091070130933202209331022091AC
:1016E0000401309105012115310541F42DB73EB7B4
:1016F0004091080150910901241B350BE091310202
:10170000F0913202E217F307A0F42E1B3F0B2817CB
:10171000390778F0AC014E5F5F4F2417350748F06A
:101720004E0F5F1F50933202409331028193919389
:101730009FCFF0E0E0E09CCFCF93DF930097E9F0FC
:10174000FC01329713821282A0913302B0913402CD
:10175000ED0130E020E01097A1F420813181820F6B
:10176000931F20913102309132022817390709F076
:1017700061C0F0933202E0933102DF91CF9108957E
:10178000EA01CE17DF07E8F54A815B819E0141152A
:101790005105B1F7E901FB83EA8349915991C40FDF
:1017A000D51FEC17FD0761F4808191810296840FAB
:1017B000951FE90199838883828193819B838A8322
:1017C000F0E0E0E012968D919C9113970097B9F5A7
:1017D0002D913C911197CD010296820F931F20917C
:1017E0003102309132022817390739F6309751F516
:1017F0001092340210923302B0933202A09331025D
:10180000BCCFD383C28340815181840F951FC817F9
:10181000D90761F44E5F5F4F88819981480F591F46
:10182000518340838A819B81938382832115310573
:1018300009F0B0CFF0933402E09333029ECFFD0164
:10184000DC01C0CF13821282D7CFB0E0A0E0EBE280
:10185000FCE00C9406098C01009751F4CB010E9426
:10186000000B8C01C801CDB7DEB7E0E10C94220972
:10187000FC01E60FF71F9C0122503109E217F30724
:1018800008F49DC0D901CD91DC911197C617D707F7
:1018900098F0C530D10530F3CE010497861797072D
:1018A00008F3C61BD70B2297C193D1936D937C93FA
:1018B000CF010E949C0BD6CF5B01AC1ABD0A4C0134
:1018C0008C0E9D1EA0913302B0913402512C412CFC
:1018D000F12CE12C109731F5809131029091320278
:1018E0008815990509F05CC04616570608F058C0DF
:1018F0008091040190910501009741F48DB79EB746
:101900004091080150910901841B950BE817F907D4
:1019100008F055C0F0933202E0933102F90171836F
:101920006083A0CF8D919C91119712966C90129725
:1019300013967C901397A815B90559F56C0142E0F0
:10194000C40ED11CCA14DB0420F1AC014A195B0996
:10195000DA011296159780F0628273825183408378
:10196000D9016D937C93E114F10471F0D7011396C2
:10197000FC93EE93129776CF22968C0F9D1FF90160
:1019800091838083F301EFCFF0933402E09333022D
:1019900069CF4816590608F42C017D01D3019ACF6E
:1019A000CB010E94000B7C01009749F0AE01B80109
:1019B0000E94E20CC8010E949C0B870153CF10E0EB
:1019C00000E050CFFB01DC0102C001900D924150BC
:1019D0005040D8F70895FB01DC0101900D920020E2
:1019E000E1F7089510E0C2E6D0E004C0FE010E94D5
:0E19F0005D092196C336D107C9F7F894FFCFE1
:1019FE000000F04100003502800000000000A5014B
:101A0E0005013201F2016301410155016E616E0063
:101A1E00696E66006F766600507265737320656E30
:101A2E0074657220746F2072656164696E672076CA
:101A3E00616C756573000D0A0053616D706C650005
:101A4E002C00793100793200793300793400543129
:101A5E000054320046696E697368656400200000A8
:00000001FF
