:100000000C9436000C945E000C945E000C945E0020
:100010000C945E000C945E000C945E000C945E00E8
:100020000C945E000C945E000C945E000C945E00D8
:100030000C945E000C945E000C945E000C945E00C8
:100040000C94EF020C945E000C945F030C94390343
:100050000C945E000C945E000C945E000C945E00A8
:100060000C945E000C945E009103900611241FBE58
:10007000CFEFD8E0DEBFCDBF22E0A4E6B1E001C003
:100080001D92A532B207E1F711E0A0E0B1E0E6E68B
:10009000F6E102C005900D92A436B107D9F710E041
:1000A000C5E3D0E004C02197FE010E941608C433C6
:1000B000D107C9F70E9405040C94260B0C9400008C
:1000C0003FB7F89480917A0190917B01A0917C01D7
:1000D000B0917D0126B5A89B05C02F3F19F0019670
:1000E000A11DB11D3FBFBA2FA92F982F8827BC0192
:1000F000CD01620F711D811D911D42E0660F771FBA
:10010000881F991F4A95D1F70895AF92BF92CF9259
:10011000DF92EF92FF920F931F93CF93DF936C01C7
:100120007B018B01040F151FEB015E01AE18BF08A8
:10013000C017D10759F06991D601ED91FC9101905A
:10014000F081E02DC6010995892B79F7C501DF9172
:10015000CF911F910F91FF90EF90DF90CF90BF90C4
:10016000AF900895FC01538D448D252F30E0842FEE
:1001700090E0821B930B541710F0CF9608950197CF
:100180000895FC01918D828D981761F0A28DAE0FBC
:10019000BF2FB11D5D968C91928D9F5F9F73928F43
:1001A00090E008958FEF9FEF0895FC01918D828D6F
:1001B000981731F0828DE80FF11D858D90E008953C
:1001C0008FEF9FEF0895FC01918D228D892F90E094
:1001D000805C9F4F821B91098F73992708958EE74A
:1001E00091E00E94E30021E0892B09F420E0822FB6
:1001F000089580E090E0892B29F00E94EF008111A2
:100200000C9400000895FC01A48DA80FB92FB11D16
:10021000A35ABF4F2C91848D90E001968F7399273C
:10022000848FA689B7892C93A089B1898C9183701A
:1002300080648C93938D848D981306C00288F38913
:10024000E02D80818F7D80830895EF92FF920F9340
:100250001F93CF93DF93EC0181E0888F9B8D8C8D72
:1002600098131AC0E889F989808185FF15C09FB766
:10027000F894EE89FF896083E889F9898081837029
:10028000806480839FBF81E090E0DF91CF911F91D8
:100290000F91FF90EF900895F62E0B8D10E00F5FF9
:1002A0001F4F0F731127E02E8C8D8E110CC00FB6CF
:1002B00007FCFACFE889F989808185FFF5CFCE0167
:1002C0000E940301F1CFEB8DEC0FFD2FF11DE35ADE
:1002D000FF4FF0829FB7F8940B8FEA89FB898081EA
:1002E0008062CFCFCF93DF93EC01888D8823B9F064
:1002F000AA89BB89E889F9898C9185FD03C0808131
:1003000086FD0DC00FB607FCF7CF8C9185FFF2CFAD
:10031000808185FFEDCFCE010E940301E9CFDF91FF
:10032000CF910895FC0101900020E9F73197AF01CA
:10033000481B590BBC018EE791E00C9485008F920D
:100340009F92AF92BF920F931F93CF93DF93CDB73E
:10035000DEB7A1970FB6F894DEBF0FBECDBF19A2CE
:10036000423008F44AE08E010F5D1F4F842E912C1D
:10037000B12CA12CA50194010E94F407E62FB9012C
:10038000CA01EA30F4F4E05DD801EE938D01232B2D
:10039000242B252B79F790E080E0109719F0CD0100
:1003A0000E949201A1960FB6F894DEBF0FBECDBF9A
:1003B000DF91CF911F910F91BF90AF909F908F9041
:1003C0000895E95CE1CF0C9492014F925F926F9295
:1003D0007F928F929F92AF92BF92CF92DF92EF92D5
:1003E000FF920F931F93CF936B017C01742EAC018E
:1003F0009B010E942F09882399F08CE191E0CF9115
:100400001F910F91FF90EF90DF90CF90BF90AF9032
:100410009F908F907F906F905F904F900C9492017F
:1004200046015701E894B7F82FEF3FEF4FE75FE73A
:10043000C501B4010E942F0981110DC02FEF3FEFBC
:100440004FE75FE7C501B4010E94990618161CF436
:1004500080E291E0D4CF2FEF3FEF4FE75FE4C70199
:10046000B6010E942A0918161CF484E291E0C7CF55
:100470002FEF3FEF4FE75FECC701B6010E949906EF
:1004800087FDF3CF20E030E0A901C701B6010E944B
:10049000990610E000E087FF0AC06DE28EE791E068
:1004A0000E9425018C01F7FAF094F7F8F094C0E06F
:1004B00060E070E080E09FE37C1641F020E030E0F7
:1004C00040E251E40E948908CF5FF6CFA701960170
:1004D0000E941D082B013C010E94FB084B015C019E
:1004E0004AE00E949F017C01E00EF11ECC23C1F185
:1004F000C501B4010E949E069B01AC01C301B2017B
:100500000E941C084B015C016EE28EE791E00E94A4
:100510002501E80EF91EC15018F120E030E040E25C
:1005200051E4C501B4010E94FF062B013C010E9469
:10053000FB084B01B12CA12C4AE0C501B4010E947B
:100540009F01E80EF91EC501B4010E949E069B01A1
:10055000AC01C301B2010E941C084B015C01DBCF5E
:10056000C701CF911F910F91FF90EF90DF90CF9037
:10057000BF90AF909F908F907F906F905F904F90C3
:100580000895CF93DF93EC0180911B0290911C02A0
:10059000009759F020911D0230911E022C173D0743
:1005A00020F081E0DF91CF910895BE016F5F7F4F12
:1005B0000E94590A009789F090931C0280931B02B5
:1005C000D0931E02C0931D0220911F023091200281
:1005D000232B39F7FC011082E4CF80E0E3CF1F9298
:1005E0000F920FB60F9211242F933F938F939F93E7
:1005F000AF93BF938091760190917701A09178019C
:10060000B09179013091750123E0230F2D3758F512
:100610000196A11DB11D20937501809376019093E1
:100620007701A0937801B093790180917A0190913C
:100630007B01A0917C01B0917D010196A11DB11DAE
:1006400080937A0190937B01A0937C01B0937D010C
:10065000BF91AF919F918F913F912F910F900FBEBE
:100660000F901F90189526E8230F0296A11DB11D2B
:10067000D2CF1F920F920FB60F9211242F933F9358
:100680004F935F936F937F938F939F93AF93BF939A
:10069000EF93FF938EE791E00E940301FF91EF91AA
:1006A000BF91AF919F918F917F916F915F914F918A
:1006B0003F912F910F900FBE0F901F9018951F9292
:1006C0000F920FB60F9211242F938F939F93EF9356
:1006D000FF93E0918E01F0918F018081E091940170
:1006E000F091950182FD1BC09081809197018F5FF1
:1006F0008F7320919801821741F0E0919701F0E00B
:10070000E258FE4F958F80939701FF91EF919F9153
:100710008F912F910F900FBE0F901F901895808191
:10072000F4CF109281011092800188EE93E0A0E056
:10073000B0E08093820190938301A0938401B093F1
:1007400085018EE091E090937F0180937E0185EC9E
:1007500090E090938B0180938A0184EC90E09093D9
:100760008D0180938C0180EC90E090938F018093B9
:100770008E0181EC90E0909391018093900182EC46
:1007800090E0909393018093920186EC90E0909397
:100790009501809394011092970110929801109204
:1007A000990110929A0110921C0210921B02109251
:1007B0001E0210921D021092200210921F0290E061
:1007C00080E00E94C10220911B0230911C02811125
:1007D00013C02115310519F0C9010E94D0091092EA
:1007E0001C0210921B021092200210921F02109203
:1007F0001E0210921D0208951092200210921F02F4
:1008000068E471E0C9010C941F0BCF93DF9300D013
:10081000CDB7DEB7789484B5826084BD84B581603D
:1008200084BD85B5826085BD85B5816085BD8091BB
:100830006E00816080936E00109281008091810033
:10084000826080938100809181008160809381002B
:10085000809180008160809380008091B1008460ED
:100860008093B1008091B00081608093B00080914E
:100870007A00846080937A0080917A00826080930D
:100880007A0080917A00816080937A0080917A006A
:10089000806880937A001092C10080E090E0A8EC1C
:1008A000B2E48093000190930101A0930201B09300
:1008B0000301E0918E01F0918F0182E08083E0914D
:1008C0008A01F0918B011082E0918C01F0918D01F1
:1008D0008FEC808310929601E0919201F091930148
:1008E00086E08083E0919001F091910180818061A8
:1008F0008083E0919001F0919101808188608083F4
:10090000E0919001F0919101808180688083E09175
:100910009001F091910180818F7D80838EE791E03D
:100920000E94720188E291E00E94920186E491E0C7
:100930000E94920100E010E09AE0392E22242394D4
:100940008EE791E00E94E300892B09F4DDC18091DC
:100950007401811104C08EE791E00E94720190E061
:1009600080E00E94C10220911B0230911C02811183
:1009700047C12115310519F0C9010E94D009109213
:100980001C0210921B021092200210921F02109261
:100990001E0210921D028EE791E00E94E3001816DD
:1009A00019060CF0B1C18EE791E00E94C1008A30B7
:1009B00091F780917401811139C02092740120E077
:1009C00030E040E05FE360910001709101018091AF
:1009D0000201909103010E94FF06905860937001FC
:1009E00070937101809372019093730189E491E097
:1009F0000E94E3018EE491E00E94E30180E591E032
:100A00000E94E3018EE491E00E94E30185E591E01C
:100A10000E94E3018EE491E00E94E30188E491E00A
:100A20000E94920186E491E00E9492012FB7F8940F
:100A30008091760190917701A0917801B091790130
:100A40002FBF80936C0190936D01A0936E01B093C2
:100A50006F012FB7F8948091760190917701A09162
:100A60007801B09179012FBF40916C0150916D01D7
:100A700060916E0170916F0184179507A607B70703
:100A800040F38090700190907101A0907201B0903D
:100A90007301A5019401C501B4010E941D086B01F9
:100AA0007C0120E030E0A9010E942A09181624F0F8
:100AB000F7FAF094F7F8F0944090680150906901CB
:100AC00060906A0170906B01A7019601C301B201A9
:100AD0000E942A0918160CF09DC020E030E040E882
:100AE0005FE3C301B2010E941D0860936801709327
:100AF000690180936A0190936B018AE591E00E94FD
:100B0000E3018EE491E00E94E30186E491E00E941B
:100B100092016091700170917101809172019091C8
:100B200073019B01AC010E941D0820E030E040E809
:100B30005FE30E941C086B017C0120E030E0A9010A
:100B40000E942A09181624F0F7FAF094F7F8F094A6
:100B5000A7019601609168017091690180916A0115
:100B600090916B010E942A09181624F086E491E006
:100B70000E94920139821A82E0901F02F0902002B6
:100B80008FEFE81AF80AC7010E94C102882399F082
:100B900020911B0230911C0280911F029091200233
:100BA000BE016F5F7F4F820F931F0E941F0BF09259
:100BB0002002E0921F020E9460004B015C018AE06B
:100BC000C82ED12CE12CF12C0E9460006819790903
:100BD0008A099B09683E734081059105A8F321E0CD
:100BE000C21AD108E108F10888EE880E83E0981E49
:100BF000A11CB11CC114D104E104F10429F7CBCE2E
:100C00001092200210921F0268E471E0C9010E9454
:100C10001F0BC1CEA3019201C501B4010E941D08A2
:100C200020E030E040E85FE30E941C0842E00E94C0
:100C3000E5018EE491E00E94E301F12C8F2D8064A8
:100C400080937C0080917A00806480937A00809108
:100C50007A0086FDFCCF8091780060917900762F34
:100C6000682F072E000C880B990B0E94A0062AE023
:100C700038E240EA5BE30E94FF064B015C0120E0A2
:100C800030E040EA50E40E942A091816A4F180924C
:100C9000640190926501A0926601B0926701609133
:100CA000640170916501809166019091670142E055
:100CB0000E94E5018EE491E00E94E30121E0F2123E
:100CC00017C020E030E040E85FE360916801709178
:100CD000690180916A0190916B010E941D086093E7
:100CE00068017093690180936A0190936B0111CF41
:100CF000FF24F394A3CF1092640110926501109227
:100D0000660110926701CBCF0115110509F418CEC9
:100D10000E94EF00882309F413CE0E94000010CE39
:100D200080911B0290911C02009711F00C94D00945
:100D300008950E94DB0608F481E00895E89409C054
:100D400097FB3EF490958095709561957F4F8F4FFE
:100D50009F4F9923A9F0F92F96E9BB279395F69514
:100D6000879577956795B795F111F8CFFAF4BB0F92
:100D700011F460FF1BC06F5F7F4F8F4F9F4F16C0F6
:100D8000882311F096E911C0772321F09EE8872F80
:100D9000762F05C0662371F096E8862F70E060E03C
:100DA0002AF09A95660F771F881FDAF7880F9695B5
:100DB000879597F90895990F0008550FAA0BE0E859
:100DC000FEEF16161706E807F907C0F0121613060D
:100DD000E407F50798F0621B730B840B950B39F44D
:100DE0000A2661F0232B242B252B21F408950A26B3
:100DF00009F4A140A6958FEF811D811D08950E94E1
:100E000012070C9483070E94750738F00E947C0734
:100E100020F0952311F00C946C070C9472071124A8
:100E20000C94B7070E94940770F3959FC1F3950F38
:100E300050E0551F629FF001729FBB27F00DB11D5E
:100E4000639FAA27F00DB11DAA1F649F6627B00DEE
:100E5000A11D661F829F2227B00DA11D621F739FD7
:100E6000B00DA11D621F839FA00D611D221F749FE5
:100E70003327A00D611D231F849F600D211D822F2C
:100E8000762F6A2F11249F5750409AF0F1F0882353
:100E90004AF0EE0FFF1FBB1F661F771F881F915080
:100EA0005040A9F79E3F510580F00C946C070C94BC
:100EB000B7075F3FE4F3983ED4F38695779567953F
:100EC000B795F795E7959F5FC1F7FE2B880F911DAA
:100ED0009695879597F9089597F99F6780E870E050
:100EE00060E008959FEF80EC089500240A941616A0
:100EF000170618060906089500240A941216130608
:100F0000140605060895092E0394000C11F4882395
:100F100052F0BB0F40F4BF2B11F460FF04C06F5FB1
:100F20007F4F8F4F9F4F089557FD9058440F551F87
:100F300059F05F3F71F04795880F97FB991F61F05B
:100F40009F3F79F087950895121613061406551FD2
:100F5000F2CF4695F1DF08C0161617061806991F3E
:100F6000F1CF86957105610508940895E894BB2733
:100F700066277727CB0197F908952F923F924F92DA
:100F80005F926F927F928F929F92AF92BF92CF9219
:100F9000DF92EF92FF920F931F93CF93DF93CDB722
:100FA000DEB7CA1BDB0B0FB6F894DEBF0FBECDBF9A
:100FB00009942A88398848885F846E847D848C846B
:100FC0009B84AA84B984C884DF80EE80FD800C8174
:100FD0001B81AA81B981CE0FD11D0FB6F894DEBF57
:100FE0000FBECDBFED010895A1E21A2EAA1BBB1BB7
:100FF000FD010DC0AA1FBB1FEE1FFF1FA217B307E5
:10100000E407F50720F0A21BB30BE40BF50B661FFA
:10101000771F881F991F1A9469F7609570958095BE
:1010200090959B01AC01BD01CF010895EE0FFF1F0C
:101030000590F491E02D09945058BB27AA270E94EF
:1010400034080C9483070E94750738F00E947C07CF
:1010500020F039F49F3F19F426F40C9472070EF433
:10106000E095E7FB0C946C07E92F0E94940758F376
:10107000BA17620773078407950720F079F4A6F57D
:101080000C94B6070EF4E0950B2EBA2FA02D0B0191
:10109000B90190010C01CA01A0011124FF27591BBD
:1010A00099F0593F50F4503E68F11A16F040A22FC3
:1010B000232F342F4427585FF3CF46953795279534
:1010C000A795F0405395C9F77EF41F16BA0B620B33
:1010D000730B840BBAF09150A1F0FF0FBB1F661F7A
:1010E000771F881FC2F70EC0BA0F621F731F841FBD
:1010F00048F4879577956795B795F7959E3F08F0E3
:10110000B0CF9395880F08F09927EE0F97958795A4
:1011100008950E949D080C9483070E947C0758F054
:101120000E94750740F029F45F3F29F00C946C078A
:1011300051110C94B7070C9472070E94940768F33E
:101140009923B1F3552391F3951B550BBB27AA2780
:1011500062177307840738F09F5F5F4F220F331FBA
:10116000441FAA1FA9F335D00E2E3AF0E0E832D082
:1011700091505040E695001CCAF72BD0FE2F29D085
:10118000660F771F881FBB1F261737074807AB0757
:10119000B0E809F0BB0B802DBF01FF2793585F4FCC
:1011A0003AF09E3F510578F00C946C070C94B70709
:1011B0005F3FE4F3983ED4F3869577956795B795AE
:1011C000F7959F5FC9F7880F911D9695879597F9B9
:1011D0000895E1E0660F771F881FBB1F6217730732
:1011E0008407BA0720F0621B730B840BBA0BEE1F47
:1011F00088F7E09508950E949C0788F09F5798F023
:10120000B92F9927B751B0F0E1F0660F771F881F0B
:10121000991F1AF0BA95C9F714C0B13091F00E9425
:10122000B607B1E008950C94B607672F782F88278A
:10123000B85F39F0B93FCCF3869577956795B3954C
:10124000D9F73EF490958095709561957F4F8F4FBB
:101250009F4F08950E94DB0608F48FEF08950E94C7
:10126000DB06880B990B08950F931F93CF93DF93A1
:101270008230910510F482E090E0E0912302F09139
:10128000240230E020E0B0E0A0E0309799F421158E
:10129000310509F44AC0281B390B24303105D8F533
:1012A0008A819B816115710589F1FB01938382839A
:1012B000FE0111C0408151810281138148175907F5
:1012C000E0F04817590799F4109761F012960C93C3
:1012D000129713961C933296CF01DF91CF911F91F5
:1012E0000F9108950093230210932402F4CF211547
:1012F000310551F04217530738F0A901DB019A017B
:10130000BD01DF01F801C1CFEF01F9CF90932402B5
:1013100080932302CDCFFE01E20FF31F81939193BF
:101320002250310939832883D7CF2091210230916F
:101330002202232B41F420910601309107013093C2
:1013400022022093210220910401309105012115F0
:10135000310541F42DB73EB7409108015091090184
:10136000241B350BE0912102F0912202E217F307D2
:10137000A0F42E1B3F0B2817390778F0AC014E5F05
:101380005F4F2417350748F04E0F5F1F509322021E
:1013900040932102819391939FCFF0E0E0E09CCFB6
:1013A000CF93DF930097E9F0FC013297138212820A
:1013B000A0912302B0912402ED0130E020E01097CB
:1013C000A1F420813181820F931F2091210230915D
:1013D00022022817390709F061C0F0932202E09336
:1013E0002102DF91CF910895EA01CE17DF07E8F5DA
:1013F0004A815B819E0141155105B1F7E901FB83EB
:10140000EA8349915991C40FD51FEC17FD0761F488
:10141000808191810296840F951FE90199838883C9
:10142000828193819B838A83F0E0E0E012968D9124
:101430009C9113970097B9F52D913C911197CD018F
:101440000296820F931F20912102309122022817C9
:10145000390739F6309751F5109224021092230281
:10146000B0932202A0932102BCCFD383C2834081D8
:101470005181840F951FC817D90761F44E5F5F4FE4
:1014800088819981480F591F518340838A819B81AC
:10149000938382832115310509F0B0CFF0932402A4
:1014A000E09323029ECFFD01DC01C0CF13821282A4
:1014B000D7CFB0E0A0E0EFE5FAE00C94BF078C01D5
:1014C000009751F4CB010E9434098C01C801CDB7BB
:1014D000DEB7E0E10C94DB07FC01E60FF71F9C018F
:1014E00022503109E217F30708F49DC0D901CD91CC
:1014F000DC911197C617D70798F0C530D10530F3A6
:10150000CE0104978617970708F3C61BD70B2297BF
:10151000C193D1936D937C93CF010E94D009D6CF14
:101520005B01AC1ABD0A4C018C0E9D1EA0912302DA
:10153000B0912402512C412CF12CE12C109731F563
:1015400080912102909122028815990509F05CC0D2
:101550004616570608F058C0809104019091050185
:10156000009741F48DB79EB7409108015091090151
:10157000841B950BE817F90708F055C0F093220279
:10158000E0932102F90171836083A0CF8D919C913A
:10159000119712966C90129713967C901397A8153A
:1015A000B90559F56C0142E0C40ED11CCA14DB0424
:1015B00020F1AC014A195B09DA011296159780F007
:1015C0006282738251834083D9016D937C93E114CD
:1015D000F10471F0D7011396FC93EE93129776CF36
:1015E00022968C0F9D1FF90191838083F301EFCF29
:1015F000F0932402E093230269CF4816590608F4B9
:101600002C017D01D3019ACFCB010E9434097C01CA
:10161000009749F0AE01B8010E94160BC8010E9464
:10162000D009870153CF10E000E050CFFB01DC016F
:1016300002C001900D9241505040D8F70895FB012F
:10164000DC0101900D920020E1F7089510E0C5E360
:10165000D0E004C0FE010E9416082196C633D107CF
:06166000C9F7F894FFCF6A
:101666000000F04100002502800000000000250176
:101676008500B2007201E300C100D5006E616E0004
:10168600696E66006F766600507265737320656ECC
:1016960074657220746F2072656164696E67207666
:1016A600616C756573000D0A00202020780020000B
:1016B6002020793100202079320046696E697368EE
:0416C6006564000057
:00000001FF
