:100000000C946B000C9493000C9493000C9493004C
:100010000C9493000C9493000C9493000C94930014
:100020000C9493000C9493000C9493000C94930004
:100030000C9493000C9493000C9493000C949300F4
:100040000C9445140C9493000C94B5140C948F14D8
:100050000C9493000C9493000C9493000C949300D4
:100060000C94E7140C9493007C3C3E5E2B3D3F2F98
:100070005B5D3B2C2A225C0000000000240027006E
:100080002A0000000000250028002B0004040404BE
:100090000404040402020202020203030303030332
:1000A000010204081020408001020408102001020F
:1000B00004081020000000080002010000030407EB
:1000C00000000000000000001F1C1F1E1F1E1F1F3D
:1000D0001E1F1E00061611241FBECFEFD8E0DEBF84
:1000E000CDBF25E0AAEFB1E001C01D92AB3FB20742
:1000F000E1F711E0A0E0B1E0E2EEFFE302C005901D
:100100000D92AA3FB107D9F710E0CBE6D0E004C0CA
:100110002197FE010E94901DCA36D107C9F70E949F
:10012000B2160C94EF1F0C9400000895089590E00F
:10013000FC01EC54FF4F2491FC01E056FF4F349139
:10014000FC01E457FF4FE491EE23C9F0222339F07C
:10015000233001F1A8F4213019F1223029F1F0E027
:10016000EE0FFF1FEE57FF4FA591B4918FB7F89494
:10017000EC91611126C030953E233C938FBF0895CA
:100180002730A9F02830C9F0243049F78091800049
:100190008F7D03C0809180008F7780938000DFCFB8
:1001A00084B58F7784BDDBCF84B58F7DFBCF809105
:1001B000B0008F778093B000D2CF8091B0008F7D58
:1001C000F9CF3E2BDACFCF93DF9390E0FC01E056DE
:1001D000FF4F249184579F4FFC0184918823D1F0D5
:1001E00090E0880F991FFC01E858FF4FA591B4914A
:1001F000FC01EE57FF4FC591D49161110EC09FB71E
:10020000F8948C91E22FE0958E238C932881E22341
:10021000E8839FBFDF91CF9108958FB7F894EC9159
:10022000E22BEC938FBFF6CF3FB7F89480915D023D
:1002300090915E02A0915F02B091600226B5A89BEA
:1002400005C02F3F19F00196A11DB11D3FBFBA2F68
:10025000A92F982F8827BC01CD01620F711D811D28
:10026000911D42E0660F771F881F991F4A95D1F7AD
:1002700008952FB7F8946091590270915A028091B5
:100280005B0290915C022FBF0895DC01ED91FC911F
:100290000190F081E02D0994AF92BF92CF92DF924E
:1002A000EF92FF920F931F93CF93DF936C017B012B
:1002B0008B01040F151FEB015E01AE18BF08C017BC
:1002C000D10759F06991D601ED91FC910190F0812F
:1002D000E02DC6010995892B79F7C501DF91CF91F2
:1002E0001F910F91FF90EF90DF90CF90BF90AF9054
:1002F0000895FC01538D448D252F30E0842F90E02C
:10030000821B930B541710F0CF9608950197089510
:10031000FC01918D828D981761F0A28DAE0FBF2FD9
:10032000B11D5D968C91928D9F5F9F73928F90E02F
:1003300008958FEF9FEF0895FC01918D828D98179E
:1003400031F0828DE80FF11D858D90E008958FEFDB
:100350009FEF0895FC01918D228D892F90E0805CA4
:100360009F4F821B91098F739927089583EE94E024
:100370000E94AA0121E0892B09F420E0822F089530
:1003800080E090E0892B29F00E94B60181110C9445
:1003900000000895FC01A48DA80FB92FB11DA35A28
:1003A000BF4F2C91848D90E001968F739927848F95
:1003B000A689B7892C93A089B1898C9183708064B8
:1003C0008C93938D848D981306C00288F389E02D59
:1003D00080818F7D80830895EF92FF920F931F930A
:1003E000CF93DF93EC0181E0888F9B8D8C8D9813E8
:1003F0001AC0E889F989808185FF15C09FB7F894F4
:10040000EE89FF896083E889F9898081837080643F
:1004100080839FBF81E090E0DF91CF911F910F918A
:10042000FF90EF900895F62E0B8D10E00F5F1F4F99
:100430000F731127E02E8C8D8E110CC00FB607FCA8
:10044000FACFE889F989808185FFF5CFCE010E9436
:10045000CA01F1CFEB8DEC0FFD2FF11DE35AFF4FD9
:10046000F0829FB7F8940B8FEA89FB8980818062C4
:10047000CFCFCF93DF93EC01888D8823B9F0AA8981
:10048000BB89E889F9898C9185FD03C0808186FD4F
:100490000DC00FB607FCF7CF8C9185FFF2CF80819E
:1004A00085FFEDCFCE010E94CA01E9CFDF91CF9148
:1004B000089561E0FC0184810C94970080914D02C5
:1004C0008F3F39F48EBD00000DB407FEFDCF8EB511
:1004D0000895F894E0914802F0914902808190914A
:1004E0004702892B808328E080E0E0914B02F09165
:1004F0004C02308190914A02392B3083880FA091B1
:100500004502B09146023C9140914402342309F0E7
:1005100081603081909593239083000000002150EA
:1005200021F7789408950F931F93CF93DF93EC01F5
:100530000E9439018B010E945E028F3F69F00E9488
:100540003901601B710B6C177D07A8F380E0DF9108
:10055000CF911F910F91089581E0F9CF90914D02B5
:100560009F3F39F48EBD00000DB407FEFDCF8EB560
:100570000895F894E0914B02F0914C0230914A02B8
:10058000532F5095A0914802B091490240914702E3
:10059000642F609598E02081252320832C9187FF8C
:1005A00018C0242B2C932081232B2083880F91505B
:1005B00091F70000000000000000E0914B02F09174
:1005C0004C02908180914A0280958923808378949F
:1005D00008952623E7CF8F929F92AF92BF92FF920A
:1005E0000F931F93CF93DF93EC01F62E49015A012D
:1005F0008E81882389F08F8198859C012F5F3F4FE2
:1006000038872F838230924018F40E945E02F3CF25
:10061000CE010E9459021E8260E08C810E949700E8
:100620008CE291E00E9493028F2D80640E94AE02C2
:1006300008E110E0D501C401002E04C0B695A795CD
:10064000979587950A94D2F70E94AE020850110937
:10065000083F8FEF180771F785E9FF2021F028E0A8
:1006600087E8F2128FEF0E94AE0210E00E945E0255
:100670008A8787FF04C01F3F11F01F5FF7CFDF910C
:10068000CF911F910F91FF90BF90AF909F908F904F
:100690000895AF92BF92CF92DF92EF92FF920F93A5
:1006A0001F93CF93DF93EC016901C801820F931F61
:1006B0008130924050F58E81882379F0888199812C
:1006C000AA81BB8184179507A607B70731F48F81EC
:1006D0009885C816D90608F042C0488359836A83B2
:1006E0007B838B85833039F089E0440F551F661F6B
:1006F000771F8A95D1F79A01AB0161E1CE010E9483
:10070000EB02882389F083E08D83CE010E94590299
:1007100080E0DF91CF911F910F91FF90EF90DF90DC
:10072000CF90BF90AF9008950E9439015B010E9465
:100730005E028A878F3F69F40E9439016A197B093A
:100740006D327140A0F38FE08D83CE010E9459027B
:10075000DCCF8E3F89F418861F8281E08E838F81E3
:1007600098858C159D0550F40E945E028F819885B6
:10077000019698878F83F3CF8DE0E6CF6701E00E77
:10078000F11E0E945E02F60181936F01EE15FF05D6
:10079000C1F78F819885080F191F18870F838985E6
:1007A000882319F001151240A0F08E81882389F06A
:1007B0008F8198859C012F5F3F4F38872F83823030
:1007C000924018F40E945E02F3CFCE010E945902BB
:1007D0001E8281E09ECFCF92DF92EF92FF920F9325
:1007E0001F93CF93DF93EC01690182E1411551051D
:1007F0006105710599F08B85833039F0E9E0440F8C
:10080000551F661F771FEA95D1F79A01AB0168E182
:10081000CE010E94EB02882319F084E08D8358C03A
:100820008C8596013E5F79010FEF1FEF882319F148
:10083000F60110E000E0819190E081279C0144E006
:10084000359527954A95E1F782279327102F0027A2
:10085000082719279C01322F22273295307F022743
:10086000132775E0880F991F7A95E1F70827192754
:10087000EE16FF0601F78EEF0E94AE02F60181919F
:100880006F010E94AE02EC14FD04C1F7812F0E949B
:10089000AE02802F0E94AE020E945E028A878F7194
:1008A000853089F488E592E00E9493028823A9F0BC
:1008B00020E030E0A9016DE0CE010E94EB02882328
:1008C00071F084E1ABCF81E18D83CE010E945902AA
:1008D000CE010E94590280E00AC085E19FCF0E94AC
:1008E0005E028111EECFCE010E94590281E0DF91BC
:1008F000CF911F910F91FF90EF90DF90CF900895CF
:10090000CF93DF9380913E028823A9F1C0916104C7
:10091000D091620440910001509101016091020167
:100920007091030121E632E0CE010E94EB038111B8
:1009300004C080E0DF91CF91089540913F02509133
:1009400040026091410270914202411551056105DA
:10095000710579F021E632E0CE010E94EB03882395
:1009600041F310923F021092400210924102109205
:10097000420210923E0281E0DDCF8F929F92AF92B1
:10098000BF92EF92FF920F931F93CF934B015C01A5
:10099000C42F8091000190910101A0910201B091BA
:1009A000030188159905AA05BB0549F10E94800439
:1009B00081110BC080E0CF911F910F91FF90EF90BC
:1009C000BF90AF909F908F90089581E6E82E82E0CF
:1009D000F82E00E012E030E020E0B501A4018091A3
:1009E0006104909162040E944903882319F3809264
:1009F000000190920101A0920201B0920301409186
:100A00003E024C2B40933E0281E0D5CF8F929F92C5
:100A1000AF92BF92CF92DF92EF92FF92CF9320E8F6
:100A200035E03093620420936104882309F46DC09B
:100A300040E060E070E0CB010E94BD0481110BC07A
:100A400080E0CF91FF90EF90DF90CF90BF90AF907C
:100A50009F908F90089580911F048F7789F78091E0
:100A60002B0490912C04A0912D04B0912E04843677
:100A70009105A105B10520F3C0902704D09028046A
:100A8000E0902904F0902A04C114D104E104F10497
:100A9000B9F240E0C701B6010E94BD04882381F28B
:100AA00080916C0290916D028115924049F6A0915F
:100AB0007102AA2329F260916F0270917002611590
:100AC000710509F4BDCF20916E02222309F4B8CF3D
:100AD000A0939F052093910590E080E030E0E1E055
:100AE000F0E0C82FAF01082E02C0440F551F0A9432
:100AF000E2F72417350769F041E0480F0196893085
:100B0000910579F740939A059BCFC12CD12C7601A2
:100B1000C0CF80939A05209177023091780250E0FF
:100B200040E02115310541F4209185023091860283
:100B3000409187025091880220939205309393054B
:100B4000409394055093950546015701860E971ED4
:100B5000A11CB11C8092A0059092A105A092A205B3
:100B6000B092A305E0917202F0917302F093A60592
:100B7000E093A505B0E00E94481DDC01CB01880D83
:100B8000991DAA1DBB1D8093A7059093A805A0934E
:100B9000A905B093AA0525E0EE0FFF1F2A95E1F7FE
:100BA000E150FE4FEF2FFF27E6958E0F9F1FA11DEF
:100BB000B11D80939B0590939C05A0939D05B093D8
:100BC0009E058090740290907502B12CA12C811426
:100BD000910441F48090810290908202A09083025F
:100BE000B0908402C81AD90AEA0AFB0AC80CD91CB8
:100BF000EA1CFB1C04C0F694E794D794C794CA95EA
:100C0000D2F7C0929605D0929705E0929805F0929F
:100C1000990585EFC8168FE0D806E104F10428F4A1
:100C20008CE08093A40581E00CCF80E125EFC21613
:100C30002FEFD206E104F104A0F380918D02909190
:100C40008E02A0918F02B09190028093A70590939D
:100C5000A805A093A905B093AA0580E2E2CF4F9220
:100C60005F926F927F928F929F92AF92BF92CF923C
:100C7000DF92EF92FF920F931F93CF93DF93EC01DC
:100C8000423051056105710590F480E0DF91CF910C
:100C90001F910F91FF90EF90DF90CF90BF90AF909A
:100CA0009F908F907F906F905F904F90089589856F
:100CB0009A85AB85BC850196A11DB11D841795074A
:100CC000A607B70710F3CB88DC88ED88FE888F89EC
:100CD000803109F042C0BB27A72F962F852F4801EE
:100CE00059012A013B01C80ED91EEA1EFB1E809144
:100CF000000190910101A0910201B0910301C81679
:100D0000D906EA06FB0699F58F898031C1F5B30152
:100D1000A201552766277727440F551F4F595D4F6E
:100D2000FA019182808280913E02816080933E022E
:100D30008A89823080F08D819E81AF81B8858C0D4B
:100D40009D1DAE1DBF1D80933F0290934002A09356
:100D50004102B093420281E099CFDB01CA01E7E092
:100D6000B695A79597958795EA95D1F7B8CF40E0C6
:100D7000C701B6010E94BD048111C6CF86CFB30161
:100D8000A2014F77552766277727440F551F440F39
:100D9000551F4F595D4FFA0180829182A282B38222
:100DA000C2CF8F929F92AF92BF92CF92DF92EF927B
:100DB000FF920F931F93CF93DF93FC018185928560
:100DC000A385B4850196A11DB11D84179507A607BB
:100DD000B70770F480E0DF91CF911F910F91FF90E2
:100DE000EF90DF90CF90BF90AF909F908F9008953D
:100DF00083889488A588B6888789803189F5BB2740
:100E0000A72F962F852FE9016A017B018F01BC0175
:100E1000CD01680D791D8A1D9B1D80900001909069
:100E20000101A0900201B090030186169706A80662
:100E3000B90601F5F8018789803111F5DD24EE242A
:100E4000FF24F601EE0FFF1FEF59FD4F80819181C6
:100E5000B0E0A0E088839983AA83BB8381E0BBCF05
:100E6000DB01CA01C7E0B695A79597958795CA9506
:100E7000D1F7C9CF40E00E94BD048111DBCFAACFDA
:100E8000E894C7F8DD24EE24FF24F601EE0FFF1FDF
:100E9000EE0FFF1FEF59FD4F80819181A281B38139
:100EA000BF70D8CF4F925F926F927F92AF92BF92F6
:100EB000CF92DF92EF92FF920F931F93CF93DF9326
:100EC00000D000D0CDB7DEB78C0149835A836B8345
:100ED0007C835901C12CD12C7601412C82E0582E03
:100EE000612C712C49815A816B817C819E012F5F1D
:100EF0003F4FC8010E94D106882339F1F80185854A
:100F0000A301920104C0220F331F441F551F8A956D
:100F1000D2F7DA01C901C80ED91EEA1EFB1E4981AB
:100F20005A816B817C818789803111F188EF9FEF35
:100F3000AFEFBFE0481759076A077B0798F2F50142
:100F4000C082D182E282F38281E00F900F900F90F5
:100F50000F90DF91CF911F910F91FF90EF90DF9055
:100F6000CF90BF90AF907F906F905F904F9008951B
:100F700088EF9FEFA0E0B0E0DDCF8F929F92AF921D
:100F8000BF92CF92DF92EF92FF920F931F93CF9376
:100F9000DF93EC018D8181110EC080E0DF91CF9154
:100FA0001F910F91FF90EF90DF90CF90BF90AF9087
:100FB0009F908F9008950B891C892D893E89041775
:100FC00015072607370748F34A015B01823031F4E1
:100FD0008A869B86AC86BD8681E0E0CF8114910431
:100FE000A104B10449F41E821F82188619861A864C
:100FF0001B861C861D86F0CF0A851B852C853D85AA
:10100000EB8DFC8D858590E00996B901A8014150D2
:10101000510961097109082E04C0769567955795A5
:1010200047950A94D2F775016401E1E0CE1AD10820
:10103000E108F10804C0F694E794D794C7948A9520
:10104000D2F7C416D506E606F70620F0012B022BD0
:10105000032B11F58F89988DA98DBA8D8E839F836F
:10106000A887B9878E010A5F1F4FC114D104E1041C
:10107000F10409F4ADCF4E815F81688579859801CF
:101080008B8D9C8D0E94D10691E0C91AD108E10890
:10109000F1088111EACF81CFC41AD50AE60AF70A0E
:1010A000E1CF3F924F925F926F927F928F929F9289
:1010B000AF92BF92CF92DF92EF92FF920F931F9366
:1010C000CF93DF93CDB7DEB72C970FB6F894DEBF82
:1010D0000FBECDBF5C01DC015B968D909C905C9750
:1010E00016964D905D906D907C9019974114510427
:1010F0006104710409F468C0BFEF4B1A5B0A6B0A04
:101100007B0A312CF40181859285A385B4859C01ED
:10111000AD012F5F3F4F4F4F5F4F29873A874B8776
:101120005C87730162011D821E821F821886F40192
:1011300081859285A385B4852D813E814F81588517
:10114000281739074A075B0708F056C089859A8532
:10115000AB85BC858C159D05AE05BF0550F482E0BE
:10116000C82ED12CE12CF12C92E0492E512C612C6F
:10117000712C9E012F5F3F4FB701A601C4010E9451
:10118000D1068823C9F189819A81AB81BC81892BE1
:101190008A2B8B2B09F1260137019FEF491A590A37
:1011A000690A790A2D813E814F8158852F5F3F4F13
:1011B0004F4F5F4F2D833E834F8358873FEFC31AB6
:1011C000D30AE30AF30AB3CFF4014080518062806E
:1011D00073803324339496CFC414D504E604F70403
:1011E00009F70FEF1FEF2FEF3FE0B701A601C40192
:1011F0000E942F06811119C080E02C960FB6F8943A
:10120000DEBF0FBECDBFDF91CF911F910F91FF9039
:10121000EF90DF90CF90BF90AF909F908F907F9096
:101220006F905F904F903F900895F50146815781F0
:1012300060857185411551056105710539F097018A
:101240008601C4010E942F068823B1F2D5011696AB
:10125000CD92DD92ED92FC921997332051F0D70197
:10126000C6010196A11DB11DF40180839183A28363
:10127000B383F5018789908DA18DB28D892B8A2B3F
:101280008B2B39F4C78AD08EE18EF28E84818068F0
:10129000848381E0B2CFCF93DF93EC018D818823EB
:1012A00089F18C8187FF2AC06E857F85888999891D
:1012B00041E00E94BD04882329F1EA8980E2E89F89
:1012C000F0011124EF59FD4F3097E1F08D8182300C
:1012D00040F48B899C89AD89BE89848F958FA68FB8
:1012E000B78F8F89988D938F828F8F89988DA98DD5
:1012F000BA8DB58BA48B8C818F778C83DF91CF9146
:101300000C94800480E0DF91CF910895CF93DF9318
:10131000EC010E944B09882311F01D8281E0DF91CE
:10132000CF9108952F923F924F925F926F927F924A
:101330008F929F92AF92BF92CF92DF92EF92FF92E5
:101340000F931F93CF93DF9300D000D0CDB7DEB7BC
:101350008C015B011A01DC0115968C911597813087
:1013600009F0C8C014968C9181FFC4C082FDAEC044
:101370006101D8011A964D915D916D917C911D97F7
:10138000C114D10409F429C15B968D919C915C979D
:10139000FC0174802FEF270D2A013B0139E0769480
:1013A0006794579447943A95D1F7722E74207A0136
:1013B000F1E0FF22711020C0E114F104E9F4169667
:1013C0004D915D916D917C91199741155105610584
:1013D000710509F098C057968D919D910D90BC9123
:1013E000A02D0097A105B10509F0AFC0C8010E946A
:1013F0005108882309F47EC080E092E08E199F098D
:1014000046018C159D0508F44C01D8015B964D9161
:101410005C915C9716968D919D910D90BC91A02D3D
:101420000297A109B109FA01258504C0880F991F07
:10143000AA1FBB1F2A95D2F74685578560897189F7
:10144000840F951FA61FB71F9C01AD01270D311DED
:10145000411D511D29013A01811432E0930609F022
:101460007AC08091000190910101A0910201B09198
:10147000030184159505A605B70559F48FEF9FEF75
:10148000DC018093000190930101A0930201B093CD
:1014900003019501B301A20180916104909162045E
:1014A0000E94EB03882331F19EEFB91AC818D908BE
:1014B000F80182859385A485B585880D991DA11DA8
:1014C000B11D82879387A487B58753CFF8014389DD
:1014D00054896589768982859385A485B585481761
:1014E00059076A077B0709F443CFC8010E94BD076B
:1014F00081113ECF81E090E0D80113969C938E93AA
:10150000129780E007C09E012F5F3F4F0E94D106D7
:10151000811102C090E077C089819A81AB81BC8142
:10152000F801238D348DF901278948EF5FEF60E0E2
:1015300070E0203121F048EF5FEF6FEF7FE084171C
:101540009507A607B70708F051CFF8018683978360
:10155000A087B18751CFE114F10491F5D8011A9613
:101560004D915D916D917C911D9753968D919D91BB
:101570000D90BC91A02D481759076A077B0700F111
:101580000E948004882309F4B5CF40920001509254
:101590000101609202017092030180913E0281601C
:1015A00080933E0297012F593D4FD501C901880D07
:1015B000991DF9018E179F0759F04D914193FACF6C
:1015C00041E0C301B2010E94BD048111EBCF92CF73
:1015D000821B930BA80EB91E69CFF80183899489E9
:1015E000A589B68984179507A607B70738F48481BB
:1015F000438B548B658B768B80688483F801848160
:1016000083FD18C0C1010F900F900F900F90DF91D4
:10161000CF911F910F91FF90EF90DF90CF90BF90EF
:10162000AF909F908F907F906F905F904F903F9082
:101630002F900895C8010E944B09882309F45ACFBE
:10164000E1CFCF93DF931F92CDB7DEB7698341E03F
:1016500050E0BE016F5F7F4F0E9492090F90DF91B3
:10166000CF9108959CB59C7F282F2370922B9CBD11
:101670009DB59E7F86958695892B8DBD0895FC012D
:10168000DB0112968D919C9113979383828380E264
:1016900091E09183808314968C911497848315969E
:1016A0008C911597858316964D915D916D917C91E6
:1016B000199746835783608771871A964D915D917C
:1016C0006D917C911D9742875387648775871E961D
:1016D0004D915D916D917C91519746875787608BB5
:1016E000718B52968C915297828B53964D915D914E
:1016F0006D917C915697438B548B658B768B579667
:101700004D915D916D917C915A97478B508F618F70
:10171000728F5B968D919C91948F838F089508951D
:10172000FC01818D928D009711F00C944B09089566
:10173000DC015996ED91FC913097B9F08389948939
:10174000A589B6894285538564857585841B950B6B
:10175000A60BB70B811520E89207A105B10538F05B
:101760008FEF9FE7A0E0B0E0089590E080E008955B
:10177000CF93DF93EC01E98DFA8D309749F481E046
:1017800090E09B838A8390E080E0DF91CF91089581
:1017900013821282898D9A8D0E949209E98DFA8DA9
:1017A00022813381232B59F7F0CFCF93DF931F9200
:1017B000CDB7DEB76983DC01ED91FC910280F38146
:1017C000E02D41E050E0BE016F5F7F4F09950F9023
:1017D000DF91CF9108952F923F924F925F926F9237
:1017E0007F928F929F92AF92BF92CF92DF92EF92B1
:1017F000FF920F931F93CF93DF9300D01F92CDB72B
:10180000DEB7FC018581811118C08FEF9FEF0F902B
:101810000F900F90DF91CF911F910F91FF90EF905C
:10182000DF90CF90BF90AF909F908F907F906F9000
:101830005F904F903F902F900895848180FFE5CF77
:10184000438954896589768982859385A485B58580
:10185000312C212C481759076A077B0719F02224DD
:101860002394312C6F012101CE0101963C01DF014F
:101870001696BB83AA834114510409F4C5C0F6012E
:1018800042855385648575854A01F1E09F22D60122
:101890005B968D919C915C978A019B01E9E036955E
:1018A000279517950795EA95D1F71596EC91E230B3
:1018B000E9F5FC01628D738D848D958D600F711F2C
:1018C000821F931FA12C22E0B22EA818B9084A1437
:1018D0005B0408F45201F601248126FD04C0A11422
:1018E000F2E0BF0671F40091000110910101209116
:1018F000020130910301061717072807390709F07D
:101900005EC040E00E94BD04882309F47ECFC4017C
:101910008F599D4FD3019C012A0D3B1DFC012E17B1
:101920003F0709F46CC041914D93F9CFDC01149647
:10193000BC90BA94B0228114910479F4B1100DC016
:10194000452B462B472B69F5F6018789908DA18D94
:10195000B28D86839783A087B187D6015B96ED9180
:10196000FC915C9716966D917D918D919C91199744
:101970006250710981099109258504C0660F771F9E
:10198000881F991F2A95D2F70685178520893189E6
:10199000600F711F821F931F6B0D711D811D911DA3
:1019A00091CFD60116964D915D916D917C911997CD
:1019B0002A813B810E94D1068111CFCF26CF7301AE
:1019C00085019401AB01BC01809161049091620496
:1019D0000E944903882309F418CF6A0C7B1CF60186
:1019E00082859385A485B5858A0D9B1DA11DB11D9A
:1019F00082879387A487B5874A185B083CCF281B4A
:101A0000390B620E731EEBCF2A94232809F0FDCE0A
:101A1000898190E0FCCEFC01818D928D009711F0C0
:101A20000C94EB0B8FEF9FEF08950F931F93CF93C1
:101A3000DF93EC01898D9A8D10E000E0009799F01A
:101A40000E94EB0B8C010F3F100769F0898D9A8D76
:101A5000FC014285538564857585415051096109B2
:101A600071090E94BD07C801DF91CF911F910F91AD
:101A70000895FC01908190539A3008F090E08181A4
:101A800080532AE0929F800D1124089520911B021B
:101A9000260F3327331F21323105ECF42091B9048E
:101AA000FC0190E080E0243069F082E00895A0918C
:101AB0001B022191AC0145505E4FA40FB52FB11D03
:101AC0002C930196861798F380911B02680F609300
:101AD0001B0280E0089581E008951092B90481E02E
:101AE0008093B8041092930461E082E10E94970011
:101AF00061E083E10E949700E9EBF0E080818E7F56
:101B0000808380818D7F808388E48093B80085E422
:101B10008093BC000895109268041092670410929C
:101B2000C0041092E2040E946D0D85E990E090934C
:101B300066048093650486E990E090936404809342
:101B400063040895CF93DF9391E09093FA01882383
:101B5000B9F0C091B800D091BA008091BC008A7BE6
:101B60008093BC0060E082E10E94970060E083E126
:101B70000E9497000E946D0DD093BA00C093B800E8
:101B8000DF91CF9108958F929F92AF92BF92CF92A3
:101B9000DF92EF92FF920F931F93CF93DF93D09139
:101BA000E204D13208F0D7C0182FC091E1040E949E
:101BB00014016B017C018091B90481116BC082E03A
:101BC0008093B9041093B8048FEF8093B7041092F8
:101BD000B604D093B504A1ECB4E0E5E9F4E080E00C
:101BE000D81391C01092940480919404CC0FC82B08
:101BF000C093940480919304813009F088C01092BE
:101C000093040E9414016B017C01809194048093E1
:101C1000BB008091BB049091BC04A091BD04B09125
:101C2000BE04892B8A2B8B2BA1F00E9414010091FA
:101C3000BB041091BC042091BD043091BE046C190A
:101C40007D098E099F09061717072807390708F429
:101C500042C08091BC0083FDD8CF85EC8093BC004E
:101C60000E9414016B017C018091B904823009F457
:101C700050C08091B7048F3F09F46FC08091B704C2
:101C8000803209F46CC08091B704803309F469C0D4
:101C900084E026C08091BB049091BC04A091BD0457
:101CA000B091BE04892B8A2B8B2B09F484CF0E9420
:101CB00014018090BB049090BC04A090BD04B0902F
:101CC000BE046C197D098E099F0986169706A80621
:101CD000B90608F070CF8091BA040E94A20D85E089
:101CE0001092C0041092E2041092BF04DF91CF91D1
:101CF0001F910F91FF90EF90DF90CF90BF90AF902A
:101D00009F908F9008959D9191938F5F69CF85EEFD
:101D1000A5CF8091BB049091BC04A091BD04B0916B
:101D2000BE04892B8A2B8B2B09F49ECF0E941401B1
:101D30000091BB041091BC042091BD043091BE04FD
:101D40006C197D098E099F0906171707280739079F
:101D500008F08ACFC0CF81E0C3CF80E0C1CF82E05E
:101D6000BFCF83E0BDCFCF93DF93EA01DC011196B3
:101D70008D919C91DC01ED91FC910280F381E02D2D
:101D80000995C817D90729F481E00E94C30D91E095
:101D9000811190E0892FDF91CF9108958F929F92CA
:101DA000AF92BF92CF92DF92EF92FF920F931F9369
:101DB000CF93DF93D82FC62F142F613208F09CC029
:101DC0000E9414016B017C018091B90481116FC0E4
:101DD00081E08093B9041093B8049FEF9093B70407
:101DE0001092B6049C0F9093B50480939404809154
:101DF0009404DD0FD82BD093940480919304813008
:101E000009F07CC0109293040E9414016B017C01C4
:101E1000809194048093BB008091BB049091BC049A
:101E2000A091BD04B091BE04892B8A2B8B2BA1F00D
:101E30000E9414010091BB041091BC042091BD04C8
:101E40003091BE046C197D098E099F09061717078A
:101E50002807390708F44CC08091BC0083FDD8CF17
:101E600085EC8093BC000E9414016B017C01809181
:101E7000B904813009F444C08091B6048C1710F481
:101E8000C091B604E5E9F4E0A3E7B4E080E08C1388
:101E900059C08C2FDF91CF911F910F91FF90EF9040
:101EA000DF90CF90BF90AF909F908F9008958091DA
:101EB000BB049091BC04A091BD04B091BE04892BD9
:101EC0008A2B8B2B09F480CF0E9414018090BB04D5
:101ED0009090BC04A090BD04B090BE046C197D0924
:101EE0008E099F0986169706A806B90608F06CCFDA
:101EF0008091BA040E94A20DC0E0CBCF85EEB1CF95
:101F00008091BB049091BC04A091BD04B091BE042B
:101F1000892B8A2B8B2B09F4AACF0E9414010091E4
:101F2000BB041091BC042091BD043091BE046C1917
:101F30007D098E099F09061717072807390708F03A
:101F400096CFD6CF91919D938F5FA1CF0895E091C9
:101F5000680480916704E81730F4F0E0ED58FB4F17
:101F6000808190E008958FEF9FEF0895909168042D
:101F7000809167042FEF3FEF981748F4E92FF0E0C6
:101F8000ED58FB4F208130E09F5F90936804C901BA
:101F900008958091670490916804891B990B0895B6
:101FA000CF92DF92EF92FF920F931F93CF93DF9325
:101FB0007C01CB018A012091BF04222389F0EB012F
:101FC0006B01C40ED51ECC15DD0569F06991D701F2
:101FD000ED91FC910190F081E02DC7010995F3CFBF
:101FE000642F0E94460DC801DF91CF911F910F9180
:101FF000FF90EF90DF90CF900895CF93DF931F92E3
:10200000CDB7DEB769832091BF042223F9F0209178
:10201000E204203258F021E030E0FC0133832283D7
:1020200090E080E00F90DF91CF9108958091C004FF
:10203000E82FF0E0EF53FB4F998190838F5F8093FF
:10204000C0048093E20481E090E0ECCF61E0CE0137
:1020500001960E94460DF7CF81E00C94C30DCF93FB
:10206000DF93EC018B818823A9F089819A812881F3
:1020700031E03093BF042093E1041092C004109229
:10208000E2040E942C1091E0811190E0892FDF91F1
:10209000CF9108950E948B0D81E08B83CE010E9429
:1020A0002F10982F8111E1CFF1CF90E080E00895BB
:1020B000CF93DF93809370048091690490916A04B8
:1020C000DC0114962D913C911597232B81F02C91D6
:1020D00031E03093BF042093E1041092C0041092C9
:1020E000E20441E050E060E774E00E94B30EC0916A
:1020F0006904D0916A048C819D81029708F141E0C6
:1021000062E088810E94CE0E10926804809367047A
:102110008230B1F489819A81DC01ED91FC910284D5
:10212000F385E02D09958093700489819A81DC0103
:10213000ED91FC910284F385E02D09958093710463
:102140008091700490917104982789279827DF91D6
:10215000CF910895CF92DF92FF920F931F93CF9369
:10216000DF936C0181E08093BF0488E68093E104F3
:102170001092C0041092E20460E08AEC95E00E94A4
:10218000FD0F8AEC95E00E942C1041E067E088E6A4
:102190000E94CE0E10926804809367048AEC95E04A
:1021A0000E94B60F8F77282F30E094E03595279561
:1021B0009A95E1F7922F990F990FC22FC91BCC0F57
:1021C000C80F8AEC95E00E94B60F9C0144E035955B
:1021D00027954A95E1F72F703327922F990F990F82
:1021E000D22FD91BDD0FD80F8AEC95E00E94B60FD5
:1021F0009C0154E0359527955A95E1F72F703327C8
:10220000922F990F990F122F191B110F180F8AEC8B
:1022100095E00E94B60F8AEC95E00E94B60F9C01F3
:1022200064E0359527956A95E1F72F703327922F53
:10223000990F990F022F091B000F080F8AEC95E0E8
:102240000E94B60F9C0174E0359527957A95E1F7C9
:102250002F703327922F990F990FF22EF91AFF0C36
:10226000F80E8AEC95E00E94B60F9C01E4E03595EB
:102270002795EA95E1F72F703327922F990F990F41
:10228000291B220F820FF6018083F18202831383C0
:10229000D483C583C601DF91CF911F910F91FF9029
:1022A000DF90CF900895CF92DF92EF92FF921F932D
:1022B000CF93DF93EC0180E2689FF0011124EF5986
:1022C000FD4F9385917161F0842F827449F080E015
:1022D000DF91CF911F91FF90EF90DF90CF90089505
:1022E000142F6A8B8091000190910101A09102014D
:1022F000B09103018E879F87A88BB98BC488D5883E
:10230000F12CE12C7601DD24CC24CF8AD88EE98E05
:10231000FA8E828D938DB0E0A0E0AC01BD014C2916
:102320005D296E297F294F8B588F698F7A8F83851E
:102330008871B1F4848D958DA68DB78D8B8B9C8B18
:10234000AD8BBE8B81E08D831F701C831E821F822C
:10235000188619861A861B861C861D8681E0B8CFD2
:10236000803109F0B4CF9E012D5E3F4F8B8D9C8D47
:102370000E945207882309F4AACF84E0E4CFFB012E
:1023800001900020E9F73197AF01461B570BDC01A4
:10239000ED91FC910280F381E02D09948F929F9240
:1023A000AF92BF92EF92FF920F931F93CF93DF9361
:1023B000CDB7DEB7A1970FB6F894DEBF0FBECDBF85
:1023C0007C01FA01CB0119A2223008F42AE08E0127
:1023D0000F5D1F4F822E912CB12CA12CBF01A501A6
:1023E00094010E946E1DF901CA016A300CF5605D0E
:1023F000D8016E938D01232B242B252B79F790E0A8
:1024000080E0109721F0BD01C7010E94BF11A19685
:102410000FB6F894DEBF0FBECDBFDF91CF911F91F5
:102420000F91FF90EF90BF90AF909F908F90089585
:10243000695CDECF0F931F93CF93DF93EC010E9473
:10244000BF118C016CE471E0CE010E94BF11800FBE
:10245000911FDF91CF911F910F9108953F924F925D
:102460005F926F927F928F929F92AF92BF92CF9224
:10247000DF92EF92FF920F931F93CF93DF93CDB72D
:10248000DEB72B970FB6F894DEBF0FBECDBF7C0131
:10249000FE013196CE010C966F0130E23193E817C0
:1024A000F907E1F7DA0130E087E09D91B92E992331
:1024B00009F43CC09E32F1F48A30C9F480E02B96D6
:1024C0000FB6F894DEBF0FBECDBFDF91CF911F9145
:1024D0000F91FF90EF90DF90CF90BF90AF909F90C3
:1024E0008F907F906F905F904F903F90089538E06D
:1024F0008AE0DBCFE8E6F0E04491442321F0319616
:102500009413FACFDBCF8317C8F24FED490F4E3546
:10251000A8F64FE9490F4A3118F440EEB42EB90E2F
:10252000F601E30FF11DB0823F5FBFCF898180329A
:1025300029F2322E8B01DB015B968D919C915C9789
:10254000F701948F838F16961D921D921D921C92F7
:102550001997FB011286138614861586F801828569
:102560009385A485B58543895489658976898417BF
:102570009507A607B70708F04DC025E0B695A795C3
:10258000979587952A95D1F7F82FFF70AF2ED80130
:1025900015968C91823008F491CFC8010E94EB0B04
:1025A00097FD8CCFF80182859385A485B5854F96DC
:1025B000A11DB11D82879387A487B587F0E2AF9EE6
:1025C000B00111246F597D4F6115710509F476CF63
:1025D000DB018C91882341F0853E09F061C0BB206E
:1025E00029F0BB24B394BACFB1100EC0F701A28A70
:1025F0008091000190910101A0910201B09103012D
:1026000086879787A08BB18BDB018C918111E9CFF5
:10261000BB24B394832D8271823109F04FCFBB204C
:1026200009F44CC0F701668577858089918941E07E
:102630000E94BD04882309F441CFD70152968C91A2
:10264000B0E28B9FC00111248F599D4F009709F470
:1026500035CFFC013A9626E1DF011D922A95E9F774
:102660002BE0F601DC0101900D922A95E1F721E2C1
:1026700038E2FC01318B208B40E058E057874687D9
:10268000338B228B318F208F578B468B0E94800497
:10269000882309F413CF432DD70152966C910AC0B9
:1026A0004BE050E0C6010E94D31F892B09F056CFA2
:1026B000432D6A2DC7010E94531101CFF801858176
:1026C000823009F4FBCEC8010E945108882309F426
:1026D000F5CED8015B96ED91FC915C9716968D90A6
:1026E0009D90AD90BC901997B2E08B1A9108A1080B
:1026F000B108858504C0880C991CAA1CBB1C8A954E
:10270000D2F786859785A089B189880E991EAA1E61
:10271000BB1E848124013501480E511C611C711CB3
:1027200084149504A604B70401F1E1E04E1A51089F
:10273000610871080E948004882309F4BFCEE1E695
:10274000F2E0119281E694E08E179F07D1F7409254
:102750000001509201016092020170920301809188
:102760003E02816080933E02DBCFD8015B96ED9103
:10277000FC91258580E092E0A0E0B0E004C0880FE5
:10278000991FAA1FBB1F2A95D2F7F80143895489C4
:1027900065897689840F951FA61FB71F838B948B3D
:1027A000A58BB68BD70152961C9281E692E051CF51
:1027B000EF92FF920F931F93CF93DF93EC017B0176
:1027C0008A011B821A8288EE93E0A0E0B0E08C833D
:1027D0009D83AE83BF838EE391E0998388838DE1EF
:1027E00090E00E94AE1E9A8F898F009779F02DE1BC
:1027F000F701DC0101900D922A95E1F74CE050E0E1
:10280000B801CE010C960E94E01F188EDF91CF9187
:102810001F910F91FF90EF90089585ED8093BC007C
:102820008091BB049091BC04A091BD04B091BE0402
:102830000796A11DB11D23E0B695A795979587959D
:102840002A95D1F72091BC0024FD03C01092B90451
:1028500008954091BB045091BC046091BD047091F7
:10286000BE04452B462B472B69F30097A105B10504
:1028700041F025E32A95F1F700000197A109B1097C
:10288000E1CF8091BA040C94A20D1F920F920FB663
:102890000F9211242F933F938F939F93AF93BF93E6
:1028A0008091590290915A02A0915B02B0915C0212
:1028B0003091580223E0230F2D3758F50196A11DC2
:1028C000B11D209358028093590290935A02A0930D
:1028D0005B02B0935C0280915D0290915E02A091D8
:1028E0005F02B09160020196A11DB11D80935D024F
:1028F00090935E02A0935F02B0936002BF91AF918C
:102900009F918F913F912F910F900FBE0F901F902D
:10291000189526E8230F0296A11DB11DD2CF1F9254
:102920000F920FB60F9211242F933F934F935F9303
:102930006F937F938F939F93AF93BF93EF93FF9387
:1029400083EE94E00E94CA01FF91EF91BF91AF9195
:102950009F918F917F916F915F914F913F912F91B7
:102960000F900FBE0F901F9018951F920F920FB6E9
:102970000F9211242F938F939F93EF93FF93E091E6
:10298000F304F091F4048081E091F904F091FA04E9
:1029900082FD1BC090818091FC048F5F8F7320911A
:1029A000FD04821741F0E091FC04F0E0ED51FB4F93
:1029B000958F8093FC04FF91EF919F918F912F91C0
:1029C0000F900FBE0F901F9018958081F4CF1F922B
:1029D0000F920FB60F9211242F933F934F935F9353
:1029E0006F937F938F939F93AF93BF93EF93FF93D7
:1029F0008091B900887F803609F44AC0F0F58832AA
:102A000009F4A7C018F5803109F49BC0B8F48823F5
:102A100009F4F9C0883009F494C0FF91EF91BF9197
:102A2000AF919F918F917F916F915F914F913F9166
:102A30002F910F900FBE0F901F901895883109F4B9
:102A400088C0803251F78093B70414C0803409F4F1
:102A50009DC040F48033B9F38833F9F68093B7040E
:102A600085ECB0C0803509F485C0883509F496C07E
:102A7000883499F60E940D14D0CF883909F48CC09F
:102A800038F5883729F050F4883611F0803729F668
:102A900083E08093B90410923D0257C0883809F44E
:102AA0007BC0803919F0803809F0B7CF80913D02A2
:102AB000803208F071C0E0913D0281E08E0F80937A
:102AC0003D028091BB00F0E0E35EFD4F80833DC09E
:102AD000803B39F0E0F4803A09F479C0883A09F093
:102AE0009CCF84E08093B90410921C0210921B02C8
:102AF000E0916504F0916604099580911B028111B3
:102B00000FC081E080931B021092FB0109C0803C42
:102B100009F4A6CF883C09F4A3CF883B09F07DCF08
:102B2000E0911C0281E08E0F80931C02F0E0E550E2
:102B3000FE4F80818093BB0090911C0280911B020C
:102B400029C0809194048093BB0085EC8093BC00E5
:102B500064CF9091B6048091B504981758F5E09130
:102B6000B60481E08E0F8093B604F0E0EB56FB4F85
:102B70008081E9CFE091B60481E08E0F8093B604A6
:102B80008091BB00F0E0EB56FB4F80839091B60440
:102B90008091B5049817C8F285E8D8CFE091B604C3
:102BA00081E08E0F8093B6048091BB00F0E0EB567D
:102BB000FB4F80838091B80481115CCF81E08093CA
:102BC000930484EA8093BC001092B90426CF85EC6C
:102BD0008093BC001092B90480913D02803230F4A1
:102BE000E0913D02F0E0E35EFD4F108260913D0216
:102BF00070E0E0916304F09164048DE192E0099546
:102C000010923D020ACF1092B70434CF1092E6041E
:102C10001092E50488EE93E0A0E0B0E08093E70432
:102C20009093E804A093E904B093EA042EE031E025
:102C30003093E4042093E30425EC30E03093F00477
:102C40002093EF0424EC30E03093F2042093F1045D
:102C500020EC30E03093F4042093F30421EC30E0D6
:102C60003093F6042093F50422EC30E03093F8041E
:102C70002093F70426EC30E03093FA042093F90413
:102C80001092FC041092FD041092FE041092FF04B6
:102C900010928505109286051092890510928B0579
:102CA00042E050E060E070E040938D0550938E0567
:102CB00060938F05709390051092A4051092AE0555
:102CC0001092AD0520E231E03093AC052093AB05C6
:102CD0001092B0051092CD051092CC058093CE05D0
:102CE0009093CF05A093D005B093D1052CE231E0AD
:102CF0003093CB052093CA051092DF051092DE05B4
:102D00008093E0059093E105A093E205B093E3057D
:102D10008EE391E09093DD058093DC051092F6053B
:102D20001092F5051092E8051092DB051092DA0575
:102D30001092D9051092D605E8ECF0E081E08C30D5
:102D400049F09491823009F49F5F21E0280F319679
:102D5000992331F08093D70581E08093D8050895B9
:102D6000822FEDCFCF93DF93CDB7DEB7C257D10916
:102D70000FB6F894DEBF0FBECDBF789484B58260E5
:102D800084BD84B5816084BD85B5826085BD85B50F
:102D9000816085BD80916E00816080936E0010928D
:102DA0008100809181008260809381008091810008
:102DB0008160809381008091800081608093800099
:102DC0008091B10084608093B1008091B0008160F7
:102DD0008093B00080917A00846080937A00809123
:102DE0007A00826080937A0080917A00816080937B
:102DF0007A0080917A00806880937A001092C100F6
:102E00000E948B0D0E948B0D08E60093E104109246
:102E1000E2048AEC95E00E942C10BB24B394B0929B
:102E2000BF041092C0041092E20460E08AEC95E0C6
:102E30000E94FD0F8AEC95E00E942C1041E061E0B9
:102E400088E60E94CE0E10926804809367048AEC94
:102E500095E00E94B60F87FF7CC06FE471E083EEBF
:102E600094E00E941A1283E791E00E94390D182F16
:102E70008EE691E00E94390DF82E86E791E00E94DF
:102E8000390DE82E89E791E00E94390DD82E8CE7A4
:102E900091E00E94390DC82EB092BF040093E10466
:102EA0001092C0041092E20460E08AEC95E00E9467
:102EB000FD0F0AE08C2D602F0E94621D682F660FA7
:102EC000680F660F6C0D8AEC95E00E94FD0F8D2D4A
:102ED000602F0E94621D682F660F680F660F6D0DD0
:102EE0008AEC95E00E94FD0F8E2D602F0E94621DDE
:102EF000682F660F680F660F6E0D8AEC95E00E94D2
:102F0000FD0F60E08AEC95E00E94FD0F8F2D602F91
:102F10000E94621D682F660F680F660F6F0D8AECA6
:102F200095E00E94FD0F67E08AEC95E00E94FD0F9E
:102F3000812F602F0E94621D682F660F680F660F39
:102F4000610F8AEC95E00E94FD0F8AEC95E00E94EB
:102F50002C106FE771E083EE94E00E941A12109239
:102F60008B051092890510928605109285051092A6
:102F70008C058AE0809384058FEF80934F028093C5
:102F80004E0280934D020E9439018B0161E08091D5
:102F900084050E94E30080E895E00E945902FFB694
:102FA000F89480914302811127C0E6E9F0E0849112
:102FB000EAEAF0E09491E82FF0E0EE0FFF1FE85806
:102FC000FF4FA591B491EC91E92321F461E08AE0EF
:102FD0000E94970061E08AE00E94E3008CB5806166
:102FE0008CBD8CB580648CBD61E08DE00E94E300F7
:102FF00061E08BE00E94E300809143028F5F809349
:103000004302FFBE83E00E94320B5AE0F52E8FEFA1
:103010000E94AE02FA94F110FACF60E0809184052C
:103020000E94970020E030E0A90160E080E895E090
:103030000E94EB02F82E80938A0521E0821709F4A2
:103040004EC10E943901601B710B613D774050F306
:1030500081E08093850580E895E00E9459026BE944
:1030600071E083EE94E00E941A129AEC292E95E00A
:10307000392E01E011E00E9414014B015C0180ED4A
:10308000C82E87E0D82EE12CF12C0E94140168197B
:1030900079098A099B09683E734081059105A8F367
:1030A00081E0C81AD108E108F10898EE890E93E092
:1030B000991EA11CB11CC114D104E104F10429F72B
:1030C000CE0101960E94AA1086E0FE013196A6ED7F
:1030D000B5E001900D928A95E1F764EE71E083EE20
:1030E00094E00E94BF112AE0B701A60183EE94E0AC
:1030F0000E94CE1180E090E0AAE7B4E480935402ED
:1031000090935502A0935602B093570286E090E048
:103110000E94AE1E5C01E8E4DC01EC9312963C9246
:103120002E92119713961C92139780E290E01596B9
:103130009C938E931497B0926A04A09269040E94A3
:103140008B0DD50113960C93C5010E942F10809111
:103150006C0490916D0420916E0430916F04822B69
:10316000932BB2E0CB1609F4E2C2E3E0CE1609F4E9
:10317000E1C2F1E0CF1609F4D7C283609164906890
:103180001093700490937104809372048091690489
:1031900090916A04DC0114962D913C91159723308F
:1031A000310578F02C911093BF042093E104109224
:1031B000C0041092E20443E050E060E774E00E9433
:1031C000B30E81E00E94581097FFFBCF80E00E9471
:1031D000581020916B04022E02C0969587950A9490
:1031E000E2F7222329F08115B8E09B0708F0906FE1
:1031F000BC01990F880B990B0E942B1C20E030E03A
:1032000040E45EE30E948A1C2091540230915502F2
:1032100040915602509157020E94031E4B015C01DF
:1032200020E030E040EA50E40E94A41E18160CF49E
:1032300084C28092500290925102A0925202B092A7
:1032400053028090500290905102A0905202B09090
:103250005302A5019401C501B4010E94A91E6DEE9F
:1032600071E081111BC024013501E89477F82FEF3C
:103270003FEF4FE75FE7C301B2010E94A91E811132
:1032800065C22FEF3FEF4FE75FE7C301B2010E9436
:10329000241C18160CF05AC261EF71E083EE94E022
:1032A0000E94BF1183EE94E00E948801EFEFCE1AD6
:1032B000DE0AEE0AFE0AF4E0CF16D104E104F104BE
:1032C00009F00BCF80E090E0892B09F4D4CE0E9466
:1032D000B601882309F4CFCE0E940000CCCE2AEAA2
:1032E00031E040E050E068E080E895E00E94EB02C9
:1032F00082FF2AC0F0928B0580918B05C12CD12CC6
:103300007601823029F4C12CD12CE12C30E4F32E4B
:1033100020E030E0A90167E380E895E00E94EB023D
:10332000A701960169E280E895E00E94EB02809394
:103330008A058823D1F00E943901601B710B613D21
:10334000774030F388E085CE44E0F42E0E945E02A0
:1033500080938A05FA94F110F9CF8A3A11F082E04D
:1033600078CE82E080938B05C7CF80918B05823029
:10337000D1F420E030E0A9016AE380E895E00E9402
:10338000EB02882311F086E064CE0E945E02807C0E
:10339000803C19F483E080938B050E945E020E94BA
:1033A0005E020E945E0280E895E00E9459028091D0
:1033B0004D028F3F19F480E00E94320B81E00E94A1
:1033C0000605882309F452C18091B005811147CECA
:1033D0008091A405803109F050C182E08093B0054E
:1033E0001092C2051092C3051092C4051092C50533
:1033F0008091A5059091A605B0E0A0E025E0880F9A
:10340000991FAA1FBB1F2A95D1F78093BE059093E1
:10341000BF05A093C005B093C1058DE895E09093DA
:10342000C7058093C60581E08093AF051092B10572
:103430001092B2051092B3051092B4051092B50522
:103440001092B6051092B7051092B8051092B90502
:103450001092BA051092BB051092BC051092BD05E2
:103460006FE871E083EE94E00E941A12CE0101969B
:103470000E94AA1086E0FE013196A6EDB5E001900B
:103480000D928A95E1F76BEA75E0CE0101960E94F4
:103490003F0BBE016F5F7F4FCE01CB960E943F0B6B
:1034A00019A218A280E291E09F8F8E8F1BA2219615
:1034B0008FAD2197811100C16C961FAE1EAE6C9727
:1034C00088EE93E0A0E0B0E0A0968CAF9DAFAEAFE9
:1034D000BFAFA0978EE391E06A969FAF8EAF6A97D9
:1034E000E3961FAE1EAEE397A5961FAEA5976C960A
:1034F0008EAD9FAD6C979093DF058093DE05A0960F
:103500008CAD9DADAEADBFADA0978093E00590931F
:10351000E105A093E205B093E305A4968CAD9DADC3
:10352000AEADBFADA4978093E4059093E505A0935D
:10353000E605B093E705A8E5B0E0AC0FBD1F1C960B
:10354000E8EEF5E08D91819325E0E53FF207D1F7B4
:10355000E3968EAD9FADE3979093F6058093F505C6
:1035600065EC71E08CED95E00E94BF114091D805AB
:1035700050E070E060E02AE08CED95E00E94CE1112
:103580006FE28CED95E00E9445014091D70550E037
:1035900070E060E02AE08CED95E00E94CE116FE2D1
:1035A0008CED95E00E9445014091D60550E04053D6
:1035B000584F70E060E02AE08CED95E00E94CE115B
:1035C00060EE71E08CED95E00E941A126EED71E0F4
:1035D0008CED95E00E94BF114091D90550E070E05C
:1035E00060E02AE08CED95E00E94CE1162EE71E081
:1035F0008CED95E00E94BF114091DA0550E070E03B
:1036000060E02AE08CED95E00E94CE1162EE71E060
:103610008CED95E00E94BF114091DB0550E070E019
:1036200060E02AE08CED95E00E94CE116CE471E040
:103630008CED95E00E94BF1160EE71E08CED95E09D
:103640000E941A128091F5059091F605009709F4F1
:103650000CCD0E9486098091F5059091F6050E9497
:103660004A1F1092F6051092F505FFCC80E00E94EB
:103670000605882309F4F3CCA7CE803209F0EFCCFD
:1036800083E08093B0054091A7055091A805609113
:10369000A9057091AA054093C2055093C305609394
:1036A000C4057093C5052EEB35E08DE895E00E94CA
:1036B00052078111B2CED3CC825023E14DEB51E0C1
:1036C000823018F56BEA75E0CE014E960E942E12FC
:1036D000882309F4F1CE49A95AA96BA97CA9CE0186
:1036E0004E960E94BD07BE01625E7F4FCE010196DD
:1036F0000E943F0B4DEB51E0BE016F5F7F4FCE014B
:10370000885A9F4F0E94D813F2CEBE01655C7F4F4E
:10371000CE014E960E942E12882309F4CDCECE0102
:10372000CB960E948609D7CF8360916528CD8360B0
:10373000916625CD8360916722CD10925002109240
:10374000510210925202109253027BCD2FEF3FEFA5
:103750004FE75FE4C501B4010E94A41E18161CF4D3
:1037600065EF71E09BCD2FEF3FEF4FE75FECC501B9
:10377000B4010E94241C87FDF3CF20E030E0A901B2
:10378000C501B4010E94241C87FF09C06DE283EECD
:1037900094E00E944501B7FAB094B7F8B0942AE0DB
:1037A00037ED43EA5BE3C501B4010E94971D2B018D
:1037B0003C010E94751E4B015C010E94291C9B016B
:1037C000AC01C301B2010E94961D2B013C012AE00D
:1037D000B501A40183EE94E00E94CE116EE283EE67
:1037E00094E00E94450120E030E040E251E4C30152
:1037F000B2010E948A1C2B013C010E94751E4B01E4
:10380000B12CA12C2AE0B501A40183EE94E00E9422
:10381000CE11C501B4010E94291C9B01AC01C3015A
:10382000B2010E94961D20E030E040E251E40E9487
:103830008A1C0E94751EAB0170E060E02AE083EEF6
:1038400094E00E94CE112ECD0E94661C08F481E007
:103850000895E89409C097FB3EF490958095709583
:1038600061957F4F8F4F9F4F9923A9F0F92F96E9CC
:10387000BB279395F695879577956795B795F11141
:10388000F8CFFAF4BB0F11F460FF1BC06F5F7F4FDE
:103890008F4F9F4F16C0882311F096E911C07723F0
:1038A00021F09EE8872F762F05C0662371F096E8F9
:1038B000862F70E060E02AF09A95660F771F881FC8
:1038C000DAF7880F9695879597F90895990F00086C
:1038D000550FAA0BE0E8FEEF16161706E807F907E2
:1038E000C0F012161306E407F50798F0621B730B7D
:1038F000840B950B39F40A2661F0232B242B252BFE
:1039000021F408950A2609F4A140A6958FEF811DA0
:10391000811D08950E949D1C0C940E1D0E94001D87
:1039200038F00E94071D20F0952311F00C94F71C2D
:103930000C94FD1C11240C94421D0E941F1D70F359
:10394000959FC1F3950F50E0551F629FF001729F44
:10395000BB27F00DB11D639FAA27F00DB11DAA1F53
:10396000649F6627B00DA11D661F829F2227B00DA0
:10397000A11D621F739FB00DA11D621F839FA00D2B
:10398000611D221F749F3327A00D611D231F849F7B
:10399000600D211D822F762F6A2F11249F575040D2
:1039A0009AF0F1F088234AF0EE0FFF1FBB1F661F4D
:1039B000771F881F91505040A9F79E3F510580F016
:1039C0000C94F71C0C94421D5F3FE4F3983ED4F333
:1039D000869577956795B795F795E7959F5FC1F7BA
:1039E000FE2B880F911D9695879597F9089597F965
:1039F0009F6780E870E060E008959FEF80EC089595
:103A000000240A94161617061806090608950024BD
:103A10000A9412161306140605060895092E039437
:103A2000000C11F4882352F0BB0F40F4BF2B11F4AB
:103A300060FF04C06F5F7F4F8F4F9F4F089557FD0A
:103A40009058440F551F59F05F3F71F04795880F0C
:103A500097FB991F61F09F3F79F0879508951216A3
:103A600013061406551FF2CF4695F1DF08C016164F
:103A700017061806991FF1CF869571056105089400
:103A80000895E894BB2766277727CB0197F9089517
:103A90000E94531DA59F900DB49F900DA49F800D73
:103AA000911D11240895A29FB001B39FC001A39F4F
:103AB000700D811D1124911DB29F700D811D112467
:103AC000911D0895991B79E004C0991F961708F07D
:103AD000961B881F7A95C9F780950895A1E21A2E42
:103AE000AA1BBB1BFD010DC0AA1FBB1FEE1FFF1FA2
:103AF000A217B307E407F50720F0A21BB30BE40BF2
:103B0000F50B661F771F881F991F1A9469F7609538
:103B10007095809590959B01AC01BD01CF010895F2
:103B2000EE0FFF1F0590F491E02D09945058BB272C
:103B3000AA270E94AE1D0C940E1D0E94001D38F095
:103B40000E94071D20F039F49F3F19F426F40C94CD
:103B5000FD1C0EF4E095E7FB0C94F71CE92F0E9486
:103B60001F1D58F3BA17620773078407950720F0E3
:103B700079F4A6F50C94411D0EF4E0950B2EBA2FA6
:103B8000A02D0B01B90190010C01CA01A001112463
:103B9000FF27591B99F0593F50F4503E68F11A160F
:103BA000F040A22F232F342F4427585FF3CF4695A0
:103BB00037952795A795F0405395C9F77EF41F16C2
:103BC000BA0B620B730B840BBAF09150A1F0FF0F8C
:103BD000BB1F661F771F881FC2F70EC0BA0F621F78
:103BE000731F841F48F4879577956795B795F79568
:103BF0009E3F08F0B0CF9395880F08F09927EE0FFD
:103C00009795879508950E94171E0C940E1D0E948B
:103C1000071D58F00E94001D40F029F45F3F29F075
:103C20000C94F71C51110C94421D0C94FD1C0E9425
:103C30001F1D68F39923B1F3552391F3951B550B81
:103C4000BB27AA2762177307840738F09F5F5F4F6F
:103C5000220F331F441FAA1FA9F335D00E2E3AF0AE
:103C6000E0E832D091505040E695001CCAF72BD0C6
:103C7000FE2F29D0660F771F881FBB1F2617370717
:103C80004807AB07B0E809F0BB0B802DBF01FF2749
:103C900093585F4F3AF09E3F510578F00C94F71C13
:103CA0000C94421D5F3FE4F3983ED4F386957795DC
:103CB0006795B795F7959F5FC9F7880F911D969502
:103CC000879597F90895E1E0660F771F881FBB1F5E
:103CD000621773078407BA0720F0621B730B840B0B
:103CE000BA0BEE1F88F7E09508950E94271D88F013
:103CF0009F5798F0B92F9927B751B0F0E1F0660FB0
:103D0000771F881F991F1AF0BA95C9F714C0B130F0
:103D100091F00E94411DB1E008950C94411D672F60
:103D2000782F8827B85F39F0B93FCCF3869577951F
:103D30006795B395D9F73EF4909580957095619508
:103D40007F4F8F4F9F4F08950E94661C08F48FEF9E
:103D500008950E94661C880B990B08950F931F937A
:103D6000CF93DF938230910510F482E090E0E091F0
:103D7000F905F091FA0530E020E0B0E0A0E03097DE
:103D800099F42115310509F44AC0281B390B243058
:103D90003105D8F58A819B816115710589F1FB0197
:103DA00093838283FE0111C040815181028113817E
:103DB00048175907E0F04817590799F4109761F030
:103DC00012960C93129713961C933296CF01DF91A3
:103DD000CF911F910F9108950093F9051093FA0563
:103DE000F4CF2115310551F04217530738F0A901DE
:103DF000DB019A01BD01DF01F801C1CFEF01F9CF6D
:103E00009093FA058093F905CDCFFE01E20FF31FE1
:103E1000819391932250310939832883D7CF209100
:103E2000F7053091F805232B41F4209106013091DC
:103E300007013093F8052093F70520910401309194
:103E400005012115310541F42DB73EB74091080118
:103E500050910901241B350BE091F705F091F8050D
:103E6000E217F307A0F42E1B3F0B2817390778F051
:103E7000AC014E5F5F4F2417350748F04E0F5F1FB0
:103E80005093F8054093F705819391939FCFF0E00D
:103E9000E0E09CCFCF93DF930097E9F0FC013297ED
:103EA00013821282A091F905B091FA05ED0130E07C
:103EB00020E01097A1F420813181820F931F20917F
:103EC000F7053091F8052817390709F061C0F0931C
:103ED000F805E093F705DF91CF910895EA01CE1739
:103EE000DF07E8F54A815B819E0141155105B1F775
:103EF000E901FB83EA8349915991C40FD51FEC175F
:103F0000FD0761F4808191810296840F951FE9017C
:103F100099838883828193819B838A83F0E0E0E0A8
:103F200012968D919C9113970097B9F52D913C9124
:103F30001197CD010296820F931F2091F7053091C2
:103F4000F8052817390739F6309751F51092FA0518
:103F50001092F905B093F805A093F705BCCFD38371
:103F6000C28340815181840F951FC817D90761F41E
:103F70004E5F5F4F88819981480F591F518340835D
:103F80008A819B81938382832115310509F0B0CF0B
:103F9000F093FA05E093F9059ECFFD01DC01C0CF57
:103FA00013821282D7CFFB01DC0104C08D910190F6
:103FB000801921F441505040C8F7881B990B08958F
:103FC000FB01DC014150504048F001900D9200206F
:103FD000C9F701C01D9241505040E0F70895F89490
:023FE000FFCF11
:103FE200FFFFFFFF0000FB05800000000000EC0166
:103FF2004C0179013902AA0188019C0100000000EC
:10400200210B4C0155108F0B00000000FD0FD00F4B
:104012005510A60FC90FB60FA70F00000000D50B51
:10402200B80B5510900B980B0B0D150D0D0A005285
:104032005443206EC3A36F20657374612066756E4E
:1040420063696F6E616E646F21004A756C20313155
:1040520020323032310032323A35383A3136004984
:104062006E696369616E646F2053442E2E2E005375
:104072004420696E69636961646F0046616C6861BE
:10408200206E6F2053442C206F75206E616F206567
:1040920073746120696E73657269646F006C6F6717
:1040A2002E74787400496EC3AD6E63696F206461CB
:1040B200206772617661C3A7C3A36F3A2000202DE7
:1040C20020003A0050686F746F203A20006E616ED3
:0A40D20000696E66006F766600005C
:00000001FF
