:100000000C94F0000C941A010C941A010C941A012F
:100010000C941A010C941A010C941A010C941A01F4
:100020000C941A010C941A010C941A010C941A01E4
:100030000C941A010C941A010C941A010C941A01D4
:100040000C941A010C941A010C941A010C941A01C4
:100050000C941A010C941A010C941A010C94C60EFB
:100060000C941A010C943A0F0C94100F0C941A0172
:100070000C941A010C941A010C941A010C941A0194
:100080000C941A010C941A010C941A010C941A0184
:100090000C941A010C941A010C941A010C94A60DDC
:1000A0000C941A010C941A010C941A010C941A0164
:1000B0000C941A010C941A010C941A010C941A0154
:1000C0000C941A010C941A010C941A010C941A0144
:1000D0000C941A010C941A010C941A010C941A0134
:1000E0000C941A0100002200250028002B002E008D
:1000F0003100340002010000050108010B01050573
:100100000505070508080808020202020A0A08088D
:1001100004040404010101010101010103030303BB
:1001200003030303040707070C0C0C0C0C0C0C0C4A
:100130000202020206060606060606060B0B0B0B5B
:100140000B0B0B0B01021020200808102040102080
:10015000408002010201080402010102040810208B
:100160004080804020100804020180040201804089
:1001700020100804020108040201010204081020F2
:100180004080010204081020408000000A0B020990
:100190000C0D0E0807030401000000000000000021
:1001A000000000000000000000000000000000004F
:1001B000000000000000121110000000000000000C
:1001C000000000000000000000000000000000002F
:1001D0001F1C1F1E1F1E1F1F1E1F1E00700F9B12A5
:1001E00011241FBECFEFD1E2DEBFCDBF25E0AAE7CD
:1001F000B2E001C01D92A23DB207E1F712E0A0E01B
:10020000B2E0ECE5FEE200E00BBF02C007900D9209
:10021000AA37B107D9F710E0CFEED0E004C021979C
:10022000FE010E94EA13CE3ED107C9F70E941910C1
:100230000C9421170C9400002091C002260F332744
:10024000331F21323105ECF42091E402FC0190E0EF
:1002500080E0243069F082E00895A091C0022191ED
:10026000AC0140565D4FA40FB52FB11D2C930196E4
:10027000861798F38091C002680F6093C00280E0F7
:10028000089581E0089508958FEF9FEF08958FEF0F
:100290009FEF08958091990290E091958195910941
:1002A0000895CF93DF93CB01EA01642F0E941C01D4
:1002B000CE01DF91CF910895CF93DF931F92CDB7F9
:1002C000DEB7698361E0CE0101960E941C0181E0E6
:1002D00090E00F90DF91CF910895282F30E0F90141
:1002E000E657FE4F9491F901EC5BFE4F849122504A
:1002F0003F4FF9012491222309F433C0992301F1DE
:1003000091509231E8F4E92FF0E0E757FE4F0C945A
:10031000EA13BA01BE019B01B201B601A001C101FD
:10032000C701CB01D101D501D901DF01E301A00152
:10033000E701ED01F101909180009F77909380009B
:10034000E22FF0E0EE0FFF1FEC51FF4FA591B491AB
:100350009FB7F894EC91611148C080958E238C93DF
:100360009FBF0895909180009F7DE8CF909180007D
:10037000977FE4CF94B59F7794BDE2CF94B59F7DEE
:10038000FBCF9091B0009F779093B000D9CF909120
:10039000B0009F7DF9CF909190009F77909390004F
:1003A000CFCF909190009F7DF9CF90919000977F53
:1003B000F5CF9091A0009F779093A000C1CF90912E
:1003C000A0009F7DF9CF9091A000977FF5CF9091ED
:1003D00020019F7790932001B3CF909120019F7DC2
:1003E000F9CF90912001977FF5CF8E2BB8CF3FB7F3
:1003F000F8948091950290919602A0919702B09105
:10040000980226B5A89B05C02F3F19F00196A11DA3
:10041000B11D3FBFBA2FA92F982F8827BC01CD014E
:10042000620F711D811D911D42E0660F771F881FAD
:10043000991F4A95D1F708952FB7F89460919102CA
:100440007091920280919302909194022FBF08952F
:10045000AF92BF92CF92DF92EF92FF920F931F93D2
:10046000CF93DF936C017B018B01040F151FEB0110
:100470005E01AE18BF08C017D10759F06991D601C7
:10048000ED91FC910190F081E02DC6010995892B39
:1004900079F7C501DF91CF911F910F91FF90EF90F8
:1004A000DF90CF90BF90AF900895FC01538D448DA5
:1004B000252F30E0842F90E0821B930B541710F00F
:1004C000CF96089501970895FC01918D828D98171C
:1004D00061F0A28DAE0FBF2FB11D5D968C91928DF4
:1004E0009F5F9F73928F90E008958FEF9FEF089525
:1004F000FC01918D828D981731F0828DE80FF11DEE
:10050000858D90E008958FEF9FEF0895FC01918D08
:10051000228D892F90E0805C9F4F821B91098F7301
:10052000992708958AE095E00E94860221E0892BB0
:1005300009F420E0822F0895FC01A48DA80FB92FA3
:10054000B11DA35ABF4F2C91848D90E001968F73FB
:100550009927848FA689B7892C93A089B1898C911A
:10056000837080648C93938D848D981306C0028869
:10057000F389E02D80818F7D80830895EF92FF9233
:100580000F931F93CF93DF93EC0181E0888F9B8DB6
:100590008C8D98131AC0E889F989808185FF15C070
:1005A0009FB7F894EE89FF896083E889F989808193
:1005B0008370806480839FBF81E090E0DF91CF9162
:1005C0001F910F91FF90EF900895F62E0B8D10E084
:1005D0000F5F1F4F0F731127E02E8C8D8E110CC0F3
:1005E0000FB607FCFACFE889F989808185FFF5CF3E
:1005F000CE010E949C02F1CFEB8DEC0FFD2FF11D7F
:10060000E35AFF4FF0829FB7F8940B8FEA89FB897A
:1006100080818062CFCFCF93DF93EC01888D8823D8
:10062000B9F0AA89BB89E889F9898C9185FD03C055
:10063000808186FD0DC00FB607FCF7CF8C9185FF3A
:10064000F2CF808185FFEDCFCE010E949C02E9CFE1
:10065000DF91CF91089580E090E0892B29F00E94EE
:10066000920281110E94000080E090E0892B49F005
:1006700080E090E0892B29F00E94000081110E9407
:10068000000080E090E0892B49F080E090E0892B29
:1006900029F00E94000081110E94000080E090E09B
:1006A000892B49F080E090E0892B29F00E9400001E
:1006B00081110C940000089561E0FC0184810C9488
:1006C0006D01F894809100008093000088E0909183
:1006D0000000909300009091000090910000909392
:1006E000000000000000815091F7789408950F9366
:1006F0001F93CF93DF93EC010E941C028B010E9499
:1007000061038F3F69F00E941C02601B710B6C1724
:100710007D07A8F380E0DF91CF911F910F9108959D
:1007200081E0F9CFF89498E0209100002093000038
:1007300020910000209300002091000020930000F1
:10074000880F915089F700000000000000008091A0
:1007500000008093000078940895CF92DF92EF928A
:10076000FF920F931F93CF93DF93EC01162F690134
:100770007A018E81882389F08F8198859C012F5F73
:100780003F4F38872F838230924018F40E946103D4
:10079000F3CFCE010E945C031E8260E08C810E9438
:1007A0006D018CE291E00E947703812F80640E94AA
:1007B000920308E110E0D701C601002E04C0B695EF
:1007C000A795979587950A94D2F70E9492030850AF
:1007D0001109083F8FEF180771F78FEF0E949203FE
:1007E00010E00E9461038A8787FF04C01F3F11F059
:1007F0001F5FF7CFDF91CF911F910F91FF90EF9087
:10080000DF90CF900895AF92BF92CF92DF92EF9298
:10081000FF920F931F93CF93DF93EC016901C801FF
:10082000820F931F8130924050F58E81882379F09A
:1008300088819981AA81BB8184179507A607B7078C
:1008400031F48F819885C816D90608F042C04883D4
:1008500059836A837B838B85833039F089E0440F29
:10086000551F661F771F8A95D1F79A01AB0161E189
:10087000CE010E94AD03882389F083E08D83CE01F1
:100880000E945C0380E0DF91CF911F910F91FF9058
:10089000EF90DF90CF90BF90AF9008950E941C0220
:1008A0005B010E9461038A878F3F69F40E941C02EA
:1008B0006A197B096D327140A0F38FE08D83CE0100
:1008C0000E945C03DCCF8E3F89F418861F8281E092
:1008D0008E838F8198858C159D0550F40E9461034D
:1008E0008F819885019698878F83F3CF8DE0E6CF2F
:1008F0006701E00EF11E0E946103F60181936F0112
:10090000EE15FF05C1F78F819885080F191F18870D
:100910000F838985882319F001151240A0F08E817C
:10092000882389F08F8198859C012F5F3F4F3887FE
:100930002F838230924018F40E946103F3CFCE01DE
:100940000E945C031E8281E09ECFCF92DF92EF92E5
:10095000FF920F931F93CF93DF93EC01690182E124
:10096000411551056105710599F08B85833039F08A
:10097000E9E0440F551F661F771FEA95D1F79A01EA
:10098000AB0168E1CE010E94AD03882319F084E039
:100990008D8358C08C8596013E5F79010FEF1FEF64
:1009A000882319F1F60110E000E0819190E08127A1
:1009B0009C0144E0359527954A95E1F782279327D6
:1009C000102F0027082719279C01322F2227329544
:1009D000307F0227132775E0880F991F7A95E1F77A
:1009E00008271927EE16FF0601F78EEF0E949203E3
:1009F000F60181916F010E949203EC14FD04C1F78E
:100A0000812F0E949203802F0E9492030E94610313
:100A10008A878F71853089F488E592E00E94770398
:100A20008823A9F020E030E0A9016DE0CE010E940A
:100A3000AD03882371F084E1ABCF81E18D83CE01DA
:100A40000E945C03CE010E945C0380E00AC085E145
:100A50009FCF0E9461038111EECFCE010E945C0303
:100A600081E0DF91CF911F910F91FF90EF90DF9088
:100A7000CF90089580917A02882389F140910002F5
:100A80005091010260910202709103022AE033E06A
:100A900090E080E00E94A504811102C080E00895EA
:100AA00040917B0250917C0260917D0270917E02A8
:100AB000411551056105710581F02AE033E090E0B0
:100AC00080E00E94A504882349F310927B021092D3
:100AD0007C0210927D0210927E0210927A0281E0D6
:100AE00008958F929F92AF92BF92EF92FF920F93D1
:100AF0001F93CF934B015C01C42F80910002909112
:100B00000102A0910202B091030288159905AA057D
:100B1000BB0539F10E943A0581110BC080E0CF91ED
:100B20001F910F91FF90EF90BF90AF909F908F908B
:100B300008958AE0E82E83E0F82E00E012E030E02D
:100B400020E0B501A40190E080E00E940304882326
:100B500029F38092000290920102A0920202B092C8
:100B6000030240917A024C2B40937A0281E0D7CF66
:100B70004F925F926F927F928F929F92AF92BF92AD
:100B8000CF92DF92EF92FF920F931F93CF93DF9359
:100B9000EC01423051056105710590F480E0DF9170
:100BA000CF911F910F91FF90EF90DF90CF90BF906A
:100BB000AF909F908F907F906F905F904F9008952F
:100BC00089859A85AB85BC850196A11DB11D8417C9
:100BD0009507A607B70710F3CB88DC88ED88FE8859
:100BE0008F89803109F042C0BB27A72F962F852F10
:100BF000480159012A013B01C80ED91EEA1EFB1EFD
:100C00008091000290910102A0910202B091030232
:100C1000C816D906EA06FB0699F58F898031C1F519
:100C2000B301A201552766277727440F551F465F5A
:100C30005C4FFA019182808280917A028160809378
:100C40007A028A89823080F08D819E81AF81B88559
:100C50008C0D9D1DAE1DBF1D80937B0290937C0269
:100C6000A0937D02B0937E0281E099CFDB01CA019F
:100C7000E7E0B695A79597958795EA95D1F7B8CF10
:100C800040E0C701B6010E9471058111C6CF86CF31
:100C9000B301A2014F77552766277727440F551FC9
:100CA000440F551F465F5C4FFA0180829182A282F9
:100CB000B382C2CF8F929F92AF92BF92CF92DF92B8
:100CC000EF92FF920F931F93CF93DF93FC018185E7
:100CD0009285A385B4850196A11DB11D8417950742
:100CE000A607B70770F480E0DF91CF911F910F91B5
:100CF000FF90EF90DF90CF90BF90AF909F908F903C
:100D0000089583889488A588B6888789803189F575
:100D1000BB27A72F962F852FE9016A017B018F0141
:100D2000BC01CD01680D791D8A1D9B1D80900002BC
:100D300090900102A0900202B090030286169706DE
:100D4000A806B90601F5F8018789803111F5DD247F
:100D5000EE24FF24F601EE0FFF1FE65FFC4F8081BB
:100D60009181B0E0A0E088839983AA83BB8381E06E
:100D7000BBCFDB01CA01C7E0B695A79597958795CC
:100D8000CA95D1F7C9CF40E00E9471058111DBCF30
:100D9000AACFE894C7F8DD24EE24FF24F601EE0F75
:100DA000FF1FEE0FFF1FE65FFC4F80819181A28144
:100DB000B381BF70D8CF2F923F924F925F926F92C4
:100DC0007F928F929F92AF92BF92CF92DF92EF92DB
:100DD000FF920F931F93CF93DF93EC014B018D8113
:100DE000811115C08FEF9FEFDF91CF911F910F9170
:100DF000FF90EF90DF90CF90BF90AF909F908F903B
:100E00007F906F905F904F903F902F9008958C81CE
:100E100080FFE8CF4B895C896D897E898A859B85B7
:100E2000AC85BD85412C481759076A077B0711F02F
:100E300044244394512C52011E0126E0220E311C01
:100E4000A114B10409F4B1C04A855B856C857D8528
:100E50006A0181E0D8228B8D9C8D8A019B01E9E09B
:100E60003695279517950795EA95D1F7ED81E230EC
:100E7000E1F5FC01628D738D848D958D600F711F7E
:100E8000821F931F612C22E0722E6C187D08A6141D
:100E9000B70408F435012C8126FD04C06114F2E08A
:100EA0007F0671F40091000210910102209102026C
:100EB00030910302061717072807390709F053C0B6
:100EC00040E00E947105882309F48CCFC601865F3B
:100ED0009C4FD4019C01260D371DFC012E173F07A6
:100EE00009F45EC041914D93F9CFFC0174807A946E
:100EF0007022C114D10471F471100CC0452B462B23
:100F0000472B39F58F89988DA98DBA8D8E839F8354
:100F1000A887B987EB8DFC8D6E817F818885998547
:100F20006250710981099109258504C0660F771FF8
:100F3000881F991F2A95D2F7068517852089318940
:100F4000600F711F821F931F670D711D811D911D01
:100F500099CF4E815F816885798591010E945A06FB
:100F60008111D8CF3FCF740183019601AB01BC0141
:100F700090E080E00E940304882309F433CF860CBC
:100F8000971C8A859B85AC85BD85860D971DA11D07
:100F9000B11D8A879B87AC87BD87A618B70850CF3D
:100FA000281B390B820E931EECCFC2011DCFCF93AD
:100FB000DF93FC01248127FF2BC0EC016685778538
:100FC0008089918941E00E947105882329F1EA898D
:100FD00080E2E89FF0011124E65FFC4F3097E1F0DA
:100FE0008D81823040F48B899C89AD89BE89848F44
:100FF000958FA68FB78F8F89988D938F828F8F89CA
:10100000988DA98DBA8DB58BA48B8C818F778C83AD
:10101000DF91CF910C943A0580E0DF91CF91089554
:101020008F929F92AF92BF92CF92DF92EF92FF92F8
:101030000F931F93CF93DF93EC018D8181110EC02D
:1010400080E0DF91CF911F910F91FF90EF90DF90A3
:10105000CF90BF90AF909F908F9008950B891C897F
:101060002D893E89041715072607370748F34A01DB
:101070005B01823031F48A869B86AC86BD8681E036
:10108000E0CF81149104A104B10449F41E821F82AF
:10109000188619861A861B861C861D86F0CF0A853F
:1010A0001B852C853D85EB8DFC8D858590E0099613
:1010B000B901A8014150510961097109082E04C004
:1010C00076956795579547950A94D2F7750164010F
:1010D000E1E0CE1AD108E108F10804C0F694E794E3
:1010E000D794C7948A95D2F7C416D506E606F706B4
:1010F00020F0012B022B032B11F58F89988DA98DE0
:10110000BA8D8E839F83A887B9878E010A5F1F4F90
:10111000C114D104E104F10409F4ADCF4E815F8123
:101120006885798598018B8D9C8D0E945A0691E087
:10113000C91AD108E108F1088111EACF81CFC41A98
:10114000D50AE60AF70AE1CF3F924F925F926F927B
:101150007F928F929F92AF92BF92CF92DF92EF9247
:10116000FF920F931F93CF93DF93CDB7DEB72C97EA
:101170000FB6F894DEBF0FBECDBF5C01DC015B96FD
:101180008D909C905C9716964D905D906D907C90A4
:101190001997411451046104710409F468C0BFEF48
:1011A0004B1A5B0A6B0A7B0A312CF401818592850C
:1011B000A385B4859C01AD012F5F3F4F4F4F5F4F1B
:1011C00029873A874B875C87730162011D821E82E3
:1011D0001F821886F40181859285A385B4852D81AF
:1011E0003E814F815885281739074A075B0708F069
:1011F00056C089859A85AB85BC858C159D05AE0545
:10120000BF0550F482E0C82ED12CE12CF12C92E0E5
:10121000492E512C612C712C9E012F5F3F4FB7013D
:10122000A601C4010E945A068823C9F189819A81C6
:10123000AB81BC81892B8A2B8B2B09F126013701CD
:101240009FEF491A590A690A790A2D813E814F8117
:1012500058852F5F3F4F4F4F5F4F2D833E834F8306
:1012600058873FEFC31AD30AE30AF30AB3CFF40156
:1012700040805180628073803324339496CFC414AD
:10128000D504E604F70409F70FEF1FEF2FEF3FE057
:10129000B701A601C4010E94B805811119C080E000
:1012A0002C960FB6F894DEBF0FBECDBFDF91CF9165
:1012B0001F910F91FF90EF90DF90CF90BF90AF9074
:1012C0009F908F907F906F905F904F903F90089588
:1012D000F50146815781608571854115510561058C
:1012E000710539F097018601C4010E94B805882371
:1012F000B1F2D5011696CD92DD92ED92FC9219973E
:10130000332051F0D701C6010196A11DB11DF40192
:1013100080839183A283B383F5018789908DA18D0A
:10132000B28D892B8A2B8B2B39F4C78AD08EE18E14
:10133000F28E84818068848381E0B2CFFC01818D4C
:10134000928D009729F0FC01258121110C94D7077B
:101350000895DC015996ED91FC913097B9F083899D
:101360009489A589B6894285538564857585841BD2
:10137000950BA60BB70B811520E89207A105B105C7
:1013800038F08FEF9FE7A0E0B0E0089590E080E0B4
:101390000895CF93DF931F92CDB7DEB7FC01818D07
:1013A000928D009769F0BE016F5F7F4F0E94DB0650
:1013B000019731F4898190E00F90DF91CF910895EA
:1013C0008FEF9FEFF9CFEF92FF920F931F93CF9381
:1013D000DF931F92CDB7DEB7FC01818D928D10E0B7
:1013E00000E00097D1F07F01BE016F5F7F4F0E9448
:1013F000DB060FEF1FEF019781F4098110E0F70181
:10140000818D928DFC01428553856485758541509F
:101410005109610971090E941008C8010F90DF91FC
:10142000CF911F910F91FF90EF9008952F923F92CF
:101430004F925F926F927F928F929F92AF92BF92E4
:10144000CF92DF92EF92FF920F931F93CF93DF9390
:1014500000D000D000D0CDB7DEB79E838D835B0176
:101460001A01DC015996ED91FC91309709F581E064
:1014700090E0ED81FE819383828380E090E0269668
:101480000FB6F894DEBF0FBECDBFDF91CF911F9195
:101490000F91FF90EF90DF90CF90BF90AF909F9013
:1014A0008F907F906F905F904F903F902F90089516
:1014B00013821282AD81BE8159960D911C91F80163
:1014C0008581813009F0BCC0848181FFB9C082FD73
:1014D000A4C06101F8014285538564857585C114F6
:1014E000D10409F41EC1838D948DDC0114967C9087
:1014F0002FEF270D2A013B0139E07694679457942A
:1015000047943A95D1F742227A01B1E0FB2241108B
:101510001CC0E114F104C9F44681578160857185CE
:10152000411551056105710509F091C08789908DBC
:10153000A18DB28D0097A105B10509F0AAC0C8011F
:101540000E94A408882309F47BC080E092E08E19F1
:101550009F0946018C159D0508F44C01D8015B9646
:101560004D915C915C9716968D919D910D90BC91DB
:10157000A02D0297A109B109FA01258504C0880FA1
:10158000991FAA1FBB1F2A95D2F7468557856089E8
:101590007189840F951FA61FB71F9C01AD01240DF3
:1015A000311D411D511D29013A01811432E093067C
:1015B00009F075C08091000290910102A091020291
:1015C000B0910302481659066A067B0659F48FEF5C
:1015D0009FEFDC018093000290930102A09302022E
:1015E000B09303029501B301A20190E080E00E9454
:1015F000A504882329F19EEFB91AC818D908F80163
:1016000082859385A485B585880D991DA11DB11D81
:1016100082879387A487B5875DCF4389548965897D
:10162000768982859385A485B585481759076A0709
:101630007B0709F44ECFC8010E941008811149CFE1
:1016400081E090E0F8019383828380E007C09E01EF
:101650002F5F3F4F0E945A06811102C090E076C072
:1016600089819A81AB81BC81F801238D348DF90188
:10167000278948EF5FEF60E070E0203121F048EF0C
:101680005FEF6FEF7FE084179507A607B70708F0B5
:1016900056CFF80186839783A087B18756CFE11490
:1016A000F10491F5D8011A964D915D916D917C915F
:1016B0001D9753968D919D910D90BC91A02D48172B
:1016C00059076A077B0700F10E943A05882309F44D
:1016D000B7CF4092000250920102609202027092D3
:1016E000030280917A02816080937A029701265FDB
:1016F0003C4FD501C901880D991DF9018E179F072F
:1017000059F04D914193FACF41E0C301B2010E94DB
:1017100071058111EBCF94CF821B930BA80EB91EDC
:101720006CCF83899489A589B68984179507A60704
:10173000B70738F48481438B548B658B768B806834
:101740008483F801848183FD0CC0C101AD81BE8119
:101750005996ED91FC9122813381232B09F087CE9C
:101760008ECE8581882309F46BCFC8010E94D707EC
:101770008111EBCF65CFCF93DF931F92CDB7DEB74B
:101780006983DC01ED91FC910280F381E02D41E061
:1017900050E0BE016F5F7F4F09950F90DF91CF91B1
:1017A000089590E080E00895FC0101900020E9F7A1
:1017B0003197AF01481B590BBC018AE095E00C94AE
:1017C00028028F929F92AF92BF920F931F93CF9355
:1017D000DF93CDB7DEB7A1970FB6F894DEBF0FBE8B
:1017E000CDBF19A2423008F44AE08E010F5D1F4FB1
:1017F000842E912CB12CA12CA50194010E94C81318
:10180000E62FB901CA01EA30F4F4E05DD801EE93A5
:101810008D01232B242B252B79F790E080E0109766
:1018200019F0CD010E94D40BA1960FB6F894DEBF3B
:101830000FBECDBFDF91CF911F910F91BF90AF90A1
:101840009F908F900895E95CE1CF4F925F926F92E5
:101850007F928F929F92AF92BF92CF92DF92EF9240
:10186000FF920F931F93CF936B017C01742EAC01F9
:101870009B010E940615882399F08EE292E0CF9199
:101880001F910F91FF90EF90DF90CF90BF90AF909E
:101890009F908F907F906F905F904F900C94D40B9F
:1018A00046015701E894B7F82FEF3FEF4FE75FE7A6
:1018B000C501B4010E94061581110DC02FEF3FEF45
:1018C0004FE75FE7C501B4010E94A41218161CF48B
:1018D00082E392E0D4CF2FEF3FEF4FE75FE4C70101
:1018E000B6010E94011518161CF486E392E0C7CFDA
:1018F0002FEF3FEF4FE75FECC701B6010E94A41244
:1019000087FDF3CF20E030E0A901C701B6010E94B6
:10191000A41210E000E087FF0AC06DE28AE095E0C3
:101920000E94BE028C01F7FAF094F7F8F094C0E040
:1019300060E070E080E09FE37C1641F020E030E062
:1019400040E251E40E946014CF5FF6CFA7019601F8
:101950000E94F4132B013C010E94D2144B015C0144
:101960004AE00E94E10B7C01E00EF11ECC23C1F1A4
:10197000C501B4010E94A9129B01AC01C301B201CF
:101980000E94F3134B015C016EE28AE095E00E9435
:10199000BE02E80EF91EC15018F120E030E040E22E
:1019A00051E4C501B4010E940A132B013C010E94BD
:1019B000D2144B01B12CA12C4AE0C501B4010E9404
:1019C000E10BE80EF91EC501B4010E94A9129B01AA
:1019D000AC01C301B2010E94F3134B015C01DBCFE8
:1019E000C701CF911F910F91FF90EF90DF90CF90A3
:1019F000BF90AF909F908F907F906F905F904F902F
:101A000008950C94D40BCF93DF93EC018091A7053C
:101A10009091A805009759F02091A9053091AA0549
:101A20002C173D0720F081E0DF91CF910895BE0192
:101A30006F5F7F4F0E943016009789F09093A80542
:101A40008093A705D093AA05C093A9052091AB0563
:101A50003091AC05232B39F7FC011082E4CF80E0F4
:101A6000E3CF1F93CF93DF9385ED8093BC008091EC
:101A70009C0290919D02A0919E02B0919F020796B8
:101A8000A11DB11D23E0B695A795979587952A9539
:101A9000D1F72091BC0024FD03C01092E40252C093
:101AA00040919C0250919D0260919E0270919F0214
:101AB000452B462B472B69F30097A105B10541F053
:101AC00025E32A95F1F700000197A109B109E1CFBB
:101AD00080919B02C1E0C0939A02882399F1D09132
:101AE000B8001091BA008091BC008A7B8093BC0042
:101AF00060E084E10E946D0160E085E10E946D017B
:101B00001092E402C093E6021092E50261E084E1E3
:101B10000E946D0161E085E10E946D018091B90034
:101B20008E7F8093B9008091B9008D7F8093B9003A
:101B300088E48093B80085E48093BC001093BA00D9
:101B4000D093B800DF91CF911F9108951F920F920B
:101B50000FB60F9211240BB60F922F933F934F9312
:101B60005F936F937F938F939F93AF93BF93EF9305
:101B7000FF938091B900887F803609F44DC008F04A
:101B800040C0883209F4A7C028F5803109F49BC011
:101B9000C8F4882309F4F7C0883009F494C0FF9191
:101BA000EF91BF91AF919F918F917F916F915F91D5
:101BB0004F913F912F910F900BBE0F900FBE0F9042
:101BC0001F901895883109F486C0803241F78093C0
:101BD000E30214C0803409F49BC040F48033B9F3AD
:101BE0008833E9F68093E30285ECAEC0803509F4D2
:101BF00083C0883509F494C0883489F60E94310D79
:101C0000CECF883909F48AC038F5883729F050F4E6
:101C1000883611F0803719F683E08093E402109241
:101C2000E20255C0883809F479C0803919F080384B
:101C300009F0B5CF8091E202803208F06FC0E091E8
:101C4000E20281E08E0F8093E2028091BB00F0E01F
:101C5000EE53FD4F80833BC0803B39F0D0F4803A97
:101C600009F477C0883A09F09ACF84E08093E402BF
:101C70001092C1021092C002F0E0E0E0099580915C
:101C8000C00281110FC081E08093C0021092A002B7
:101C900009C0803C09F4A8CF883C09F4A5CF883B53
:101CA00009F07DCFE091C10281E08E0F8093C102E7
:101CB000F0E0E056FD4F80818093BB009091C1021F
:101CC0008091C00229C0809109038093BB0085ECFC
:101CD0008093BC0064CF909108038091070398170C
:101CE00058F5E091080381E08E0F80930803F0E03F
:101CF000E951FD4F8081E9CFE091080381E08E0F2B
:101D0000809308038091BB00F0E0E951FD4F808390
:101D100090910803809107039817C8F285E8D8CFFF
:101D2000E091080381E08E0F809308038091BB004F
:101D3000F0E0E951FD4F80838091E60281115ECF92
:101D400081E08093E50284EA8093BC001092E40273
:101D500026CF85EC8093BC001092E4028091E202D1
:101D6000803230F4E091E202F0E0EE53FD4F108259
:101D70006091E20270E082EC92E0F0E0E0E0099530
:101D80001092E2020CCF1092E30238CF1F920F9212
:101D90000FB60F9211242F933F938F939F93AF937E
:101DA000BF938091910290919202A0919302B09181
:101DB00094023091900223E0230F2D3758F50196BD
:101DC000A11DB11D209390028093910290939202E5
:101DD000A0939302B0939402809195029091960201
:101DE000A0919702B09198020196A11DB11D809318
:101DF000950290939602A0939702B0939802BF9198
:101E0000AF919F918F913F912F910F900FBE0F90A7
:101E10001F90189526E8230F0296A11DB11DD2CF61
:101E20001F920F920FB60F9211240BB60F922F93A1
:101E30003F934F935F936F937F938F939F93AF9352
:101E4000BF93EF93FF938AE095E00E949C02FF917D
:101E5000EF91BF91AF919F918F917F916F915F9122
:101E60004F913F912F910F900BBE0F900FBE0F908F
:101E70001F9018951F920F920FB60F9211240BB658
:101E80000F922F938F939F93EF93FF93E0911A05F7
:101E9000F0911B058081E0912005F091210582FDE4
:101EA0001DC09081809123058F5F8F732091240541
:101EB000821741F0E0912305F0E0E65FFA4F958F3D
:101EC00080932305FF91EF919F918F912F910F9018
:101ED0000BBE0F900FBE0F901F9018958081F2CF10
:101EE00010920D0510920C0588EE93E0A0E0B0E092
:101EF00080930E0590930F05A0931005B0931105E4
:101F00002EE032E030930B0520930A0525EC30E0FB
:101F1000309317052093160524EC30E03093190513
:101F20002093180520EC30E030931B0520931A0510
:101F300021EC30E030931D0520931C0522EC30E0AD
:101F400030931F0520931E0526EC30E030932105C9
:101F50002093200510922305109224051092250548
:101F6000109226051092B6051092B5058093B7051C
:101F70009093B805A093B905B093BA0580E292E0BA
:101F80009093B4058093B3051092CD051092CC05C3
:101F90001092BF051092B2051092B1051092B005D3
:101FA0001092AD05E0EDF1E081E08C3049F09491C4
:101FB000823009F49F5F21E0280F3196992371F157
:101FC0008093AE0581E08093AF051092A805109232
:101FD000A7051092AA051092A9051092AC051092BF
:101FE000AB0590E080E00E94030D2091A7053091A1
:101FF000A805811115C02115310519F0C9010E94EC
:10200000A7151092A8051092A7051092AC05109282
:10201000AB051092AA051092A9050895822FC5CF8D
:102020001092AC051092AB056AE572E0C9010C9400
:102030001A17CF93DF9300D0CDB7DEB7789484B56D
:10204000826084BD84B5816084BD85B5826085BDB4
:1020500085B5816085BD80916E00816080936E0042
:102060001092810080918100826080938100809134
:1020700081008160809381008091800081608093E5
:1020800080008091B10084608093B1008091B000A5
:1020900081608093B0008091910082608093910074
:1020A0008091910081608093910080919000816087
:1020B000809390008091A10082608093A100809124
:1020C000A10081608093A1008091A0008160809335
:1020D000A0008091210182608093210180912101E3
:1020E0008160809321018091200181608093200193
:1020F00080917A00846080937A0080917A00826077
:1021000080937A0080917A00816080937A00809138
:102110007A00806880937A001092C100E0911A05DD
:10212000F0911B0582E08083E0911605F091170580
:102130001082E0911805F09119058FEC80831092C0
:102140002205E0911E05F0911F0586E08083E09155
:102150001C05F0911D05808180618083E0911C0544
:10216000F0911D05808188608083E0911C05F091CD
:102170001D05808180688083E0911C05F0911D051C
:1021800080818F7D80838AE095E00E940B038AE343
:1021900092E00E94D40B88E592E00E94D40B80E08C
:1021A00090E0A0E7B1EC8093870290938802A0931F
:1021B0008902B0938A029AE0392E222423948AE07D
:1021C00095E00E948602892B09F4B2C180918F02AA
:1021D000811104C08AE095E00E940B0390E080E04A
:1021E0000E94030D2091A7053091A80581112DC1F2
:1021F0002115310519F0C9010E94A7151092A805F3
:102200001092A7051092AC051092AB051092AA058A
:102210001092A9058AE095E00E9486021816190618
:102220000CF086C18AE095E00E9464028A3091F742
:1022300080918F02811126C020928F028BE592E05F
:102240000E94010D80E692E00E94010D82E692E07C
:102250000E94010D80E692E00E94010D87E692E067
:102260000E94010D80E692E00E94010D8CE692E052
:102270000E94010D8AE592E00E94D40B88E592E06D
:102280000E94D40B0E941C024B015C0180928B02C5
:1022900090928C02A0928D02B0928E020E941C023B
:1022A000681579058A059B05C8F3609187027091CE
:1022B00088028091890290918A029B01AC010E9460
:1022C000F4134B015C0120E030E0A9010E940115EC
:1022D000181624F0B7FAB094B7F8B094409083027F
:1022E000509084026090850270908602A50194014E
:1022F000C301B2010E94011510E018160CF0AFC026
:1023000020E030E040E85FE3C301B2010E94F41333
:102310006093830270938402809385029093860277
:1023200081E792E00E94010D80E692E00E94010D9B
:1023300088E592E00E94D40B40908702509088027A
:102340006090890270908A02A3019201C301B201D8
:102350000E94F41320E030E040E85FE30E94F313B2
:102360004B015C0120E030E0A9010E940115181624
:1023700024F0B7FAB094B7F8B094C0908302D0902C
:102380008402E0908502F0908602A5019401C701C5
:10239000B6010E94011518169CF0A7019601C30111
:1023A000B2010E94F41320E030E040E85FE30E94B5
:1023B000F31342E00E94250C88E592E00E94D40BC2
:1023C00039821A820091AB051091AC050F5F1F4F47
:1023D000C8010E94030D882399F02091A705309130
:1023E000A8058091AB059091AC05BE016F5F7F4F52
:1023F000820F931F0E941A171093AC050093AB0530
:102400000E94F7012B013C018AE0882E912CA12C1F
:10241000B12C0E94F7016419750986099709683E75
:10242000734081059105A8F321E0821A9108A10863
:10243000B10888EE480E83E0581E611C711C81149F
:102440009104A104B10429F7E5CE1092AC051092D5
:10245000AB056AE572E0C9010E941A17DBCE8091D4
:102460007B00877F80937B00812F806480937C003A
:1024700080917A00806480937A0080917A0086FD52
:10248000FCCF8091780060917900762F682F072E1D
:10249000000C880B990B0E94AB122AE038E240EA4C
:1024A0005BE30E940A134B015C0120E030E040EA4C
:1024B00050E40E940115181694F180927F029092C8
:1024C0008002A0928102B092820260917F0270919C
:1024D0008002809181029091820242E00E94250C4C
:1024E00080E692E00E94010D1F5F133009F0B7CF24
:1024F00020E030E040E85FE3609183027091840265
:1025000080918502909186020E94F4136093830269
:102510007093840280938502909386020DCF10926F
:102520007F02109280021092810210928202CDCF1F
:102530000E942B0344CE8091A7059091A805009797
:1025400011F00C94A71508950E94E61208F481E09A
:102550000895E89409C097FB3EF490958095709596
:1025600061957F4F8F4F9F4F9923A9F0F92F96E9DF
:10257000BB279395F695879577956795B795F11154
:10258000F8CFFAF4BB0F11F460FF1BC06F5F7F4FF1
:102590008F4F9F4F16C0882311F096E911C0772303
:1025A00021F09EE8872F762F05C0662371F096E80C
:1025B000862F70E060E02AF09A95660F771F881FDB
:1025C000DAF7880F9695879597F90895990F00087F
:1025D000550FAA0BE0E8FEEF16161706E807F907F5
:1025E000C0F012161306E407F50798F0621B730B90
:1025F000840B950B39F40A2661F0232B242B252B11
:1026000021F408950A2609F4A140A6958FEF811DB3
:10261000811D08950E941D130C948E130E94801337
:1026200038F00E94871320F0952311F00C94771353
:102630000C947D1311240C94C2130E949F1370F309
:10264000959FC1F3950F50E0551F629FF001729F57
:10265000BB27F00DB11D639FAA27F00DB11DAA1F66
:10266000649F6627B00DA11D661F829F2227B00DB3
:10267000A11D621F739FB00DA11D621F839FA00D3E
:10268000611D221F749F3327A00D611D231F849F8E
:10269000600D211D822F762F6A2F11249F575040E5
:1026A0009AF0F1F088234AF0EE0FFF1FBB1F661F60
:1026B000771F881F91505040A9F79E3F510580F029
:1026C0000C9477130C94C2135F3FE4F3983ED4F359
:1026D000869577956795B795F795E7959F5FC1F7CD
:1026E000FE2B880F911D9695879597F9089597F978
:1026F0009F6780E870E060E008959FEF80EC0895A8
:1027000000240A94161617061806090608950024D0
:102710000A9412161306140605060895092E03944A
:10272000000C11F4882352F0BB0F40F4BF2B11F4BE
:1027300060FF04C06F5F7F4F8F4F9F4F089557FD1D
:102740009058440F551F59F05F3F71F04795880F1F
:1027500097FB991F61F09F3F79F0879508951216B6
:1027600013061406551FF2CF4695F1DF08C0161662
:1027700017061806991FF1CF869571056105089413
:102780000895E894BB2766277727CB0197F908952A
:10279000A1E21A2EAA1BBB1BFD010DC0AA1FBB1F65
:1027A000EE1FFF1FA217B307E407F50720F0A21BD7
:1027B000B30BE40BF50B661F771F881F991F1A9444
:1027C00069F760957095809590959B01AC01BD016E
:1027D000CF010895EE0FFF1F0024001C0BBE0790D1
:1027E000F691E02D09945058BB27AA270E940B149C
:1027F0000C948E130E94801338F00E94871320F0EF
:1028000039F49F3F19F426F40C947D130EF4E095EF
:10281000E7FB0C947713E92F0E949F1358F3BA1724
:10282000620773078407950720F079F4A6F50C94E6
:10283000C1130EF4E0950B2EBA2FA02D0B01B90198
:1028400090010C01CA01A0011124FF27591B99F026
:10285000593F50F4503E68F11A16F040A22F232F32
:10286000342F4427585FF3CF469537952795A79582
:10287000F0405395C9F77EF41F16BA0B620B730B29
:10288000840BBAF09150A1F0FF0FBB1F661F771F9A
:10289000881FC2F70EC0BA0F621F731F841F48F44F
:1028A000879577956795B795F7959E3F08F0B0CFD8
:1028B0009395880F08F09927EE0F979587950895BF
:1028C0000E9474140C948E130E94871358F00E9477
:1028D000801340F029F45F3F29F00C9477135111D5
:1028E0000C94C2130C947D130E949F1368F39923D8
:1028F000B1F3552391F3951B550BBB27AA276217FC
:102900007307840738F09F5F5F4F220F331F441F08
:10291000AA1FA9F335D00E2E3AF0E0E832D091503C
:102920005040E695001CCAF72BD0FE2F29D0660F29
:10293000771F881FBB1F261737074807AB07B0E86C
:1029400009F0BB0B802DBF01FF2793585F4F3AF072
:102950009E3F510578F00C9477130C94C2135F3F9F
:10296000E4F3983ED4F3869577956795B795F795F8
:102970009F5FC9F7880F911D9695879597F90895E0
:10298000E1E0660F771F881FBB1F6217730784077C
:10299000BA0720F0621B730B840BBA0BEE1F88F78B
:1029A000E09508950E94A71388F09F5798F0B92FDB
:1029B0009927B751B0F0E1F0660F771F881F991F74
:1029C0001AF0BA95C9F714C0B13091F00E94C11342
:1029D000B1E008950C94C113672F782F8827B85F52
:1029E00039F0B93FCCF3869577956795B395D9F7CC
:1029F0003EF490958095709561957F4F8F4F9F4FD6
:102A000008950E94E61208F48FEF08950E94E612DE
:102A1000880B990B08950F931F93CF93DF93823008
:102A2000910510F482E090E0E091D005F091D1059D
:102A300030E020E0B0E0A0E0309799F421153105B6
:102A400009F44AC0281B390B24303105D8F58A8196
:102A50009B816115710589F1FB0193838283FE01DE
:102A600011C0408151810281138148175907E0F05C
:102A70004817590799F4109761F012960C93129722
:102A800013961C933296CF01DF91CF911F910F9136
:102A900008950093D0051093D105F4CF2115310589
:102AA00051F04217530738F0A901DB019A01BD012B
:102AB000DF01F801C1CFEF01F9CF9093D1058093E9
:102AC000D005CDCFFE01E20FF31F819391932250E9
:102AD000310939832883D7CF2091CE053091CF0596
:102AE000232B41F420910602309107023093CF0549
:102AF0002093CE0520910402309105022115310565
:102B000041F42DB73EB74091080250910902241BB1
:102B1000350BE091CE05F091CF05E217F307A0F455
:102B20002E1B3F0B2817390778F0AC014E5F5F4F23
:102B30002417350748F04E0F5F1F5093CF05409381
:102B4000CE05819391939FCFF0E0E0E09CCFCF93AF
:102B5000DF930097E9F0FC01329713821282A09173
:102B6000D005B091D105ED0130E020E01097A1F43F
:102B700020813181820F931F2091CE053091CF05A6
:102B80002817390709F061C0F093CF05E093CE050F
:102B9000DF91CF910895EA01CE17DF07E8F54A816A
:102BA0005B819E0141155105B1F7E901FB83EA8381
:102BB00049915991C40FD51FEC17FD0761F480812D
:102BC00091810296840F951FE90199838883828100
:102BD00093819B838A83F0E0E0E012968D919C9133
:102BE00013970097B9F52D913C911197CD0102965D
:102BF000820F931F2091CE053091CF0528173907FA
:102C000039F6309751F51092D1051092D005B09356
:102C1000CF05A093CE05BCCFD383C2834081518121
:102C2000840F951FC817D90761F44E5F5F4F8881E5
:102C30009981480F591F518340838A819B819383D7
:102C400082832115310509F0B0CFF093D105E093CF
:102C5000D0059ECFFD01DC01C0CF13821282D7CFF9
:102C60004F925F926F927F928F929F92AF92BF929C
:102C7000CF92DF92EF92FF920F931F93CF93DF9348
:102C80008C01009799F4CB01DF91CF911F910F91A7
:102C9000FF90EF90DF90CF90BF90AF909F908F907C
:102CA0007F906F905F904F900C940B15FC01E60F96
:102CB000F71F9C0122503109E217F30708F4AEC058
:102CC000D901CD91DC911197C617D70720F1C530F6
:102CD000D10578F0CE0104978617970750F0C61BF0
:102CE000D70B2297C193D1936D937C93CF010E9410
:102CF000A715C801DF91CF911F910F91FF90EF9021
:102D0000DF90CF90BF90AF909F908F907F906F900B
:102D10005F904F9008955B01AC1ABD0A4C018C0E78
:102D20009D1EA091D005B091D105512C412CF12CC4
:102D3000E12C109731F58091CE059091CF05881543
:102D4000990509F05CC04616570608F058C08091F6
:102D5000040290910502009741F48DB79EB740910F
:102D6000080250910902841B950BE817F90708F037
:102D700055C0F093CF05E093CE05F90171836083D0
:102D8000B8CF8D919C91119712966C9012971396D3
:102D90007C901397A815B90559F56C0142E0C40E53
:102DA000D11CCA14DB0420F1AC014A195B09DA0119
:102DB0001296159780F06282738251834083D90105
:102DC0006D937C93E114F10471F0D7011396FC9399
:102DD000EE9312978ECF22968C0F9D1FF90191834F
:102DE0008083F301EFCFF093D105E093D00581CF3D
:102DF0004816590608F42C017D01D3019ACFCB0166
:102E00000E940B157C01009749F0AE01B8010E94A9
:102E10001117C8010E94A71587016BCF10E000E0D1
:102E200068CFFB01DC0102C001900D92415050407F
:102E3000D8F70895FB01DC0101900D920020E1F725
:102E4000089510E0CFEED0E004C0FE010E94EA1326
:0C2E50002196C03FD107C9F7F894FFCFCE
:102E5C00FFFFFFFF0000D205800000000000BE0253
:102E6C00280255020B03860264027802000000005F
:102E7C00BB0B160AD10B9E09A909C909E3096E619E
:102E8C006E00696E66006F76660050726573732013
:102E9C00656E74657220746F2072656164696E670B
:102EAC002076616C756573000D0A00202079310065
:102EBC002000202079320020207933002020207837
:0A2ECC000046696E697368656400D2
:00000001FF
