:100000000C94F0000C941A010C941A010C941A012F
:100010000C941A010C941A010C941A010C941A01F4
:100020000C941A010C941A010C941A010C941A01E4
:100030000C941A010C941A010C941A010C941A01D4
:100040000C941A010C941A010C941A010C941A01C4
:100050000C941A010C941A010C941A010C94E80DDA
:100060000C941A010C945C0E0C94320E0C941A0130
:100070000C941A010C941A010C941A010C941A0194
:100080000C941A010C941A010C941A010C941A0184
:100090000C941A010C941A010C941A010C94C80CBB
:1000A0000C941A010C941A010C941A010C941A0164
:1000B0000C941A010C941A010C941A010C941A0154
:1000C0000C941A010C941A010C941A010C941A0144
:1000D0000C941A010C941A010C941A010C941A0134
:1000E0000C941A0100002200250028002B002E008D
:1000F0003100340002010000050108010B01050573
:100100000505070508080808020202020A0A08088D
:1001100004040404010101010101010103030303BB
:1001200003030303040707070C0C0C0C0C0C0C0C4A
:100130000202020206060606060606060B0B0B0B5B
:100140000B0B0B0B01021020200808102040102080
:10015000408002010201080402010102040810208B
:100160004080804020100804020180040201804089
:1001700020100804020108040201010204081020F2
:100180004080010204081020408000000A0B020990
:100190000C0D0E0807030401000000000000000021
:1001A000000000000000000000000000000000004F
:1001B000000000000000121110000000000000000C
:1001C000000000000000000000000000000000002F
:1001D0001F1C1F1E1F1E1F1F1E1F1E00920E6C11B4
:1001E00011241FBECFEFD1E2DEBFCDBF25E0AEE3CD
:1001F000B2E001C01D92AD38B207E1F712E0A0E015
:10020000B2E0EAE1FBE200E00BBF02C007900D9212
:10021000AE33B107D9F710E0CFEED0E004C021979C
:10022000FE010E94BB12CE3ED107C9F70E943B0FD0
:100230000C9480150C94000020917B02260F33272C
:10024000331F21323105ECF420919F02FC0190E034
:1002500080E0243069F082E00895A0917B02219132
:10026000AC01455A5D4FA40FB52FB11D2C930196DB
:10027000861798F380917B02680F60937B0280E081
:10028000089581E0089508958FEF9FEF08958FEF0F
:100290009FEF08958091540290E091958195910986
:1002A0000895CF93DF93CB01EA01642F0E941C01D4
:1002B000CE01DF91CF910895CF93DF931F92CDB7F9
:1002C000DEB7698361E0CE0101960E941C0181E0E6
:1002D00090E00F90DF91CF910895282F30E0F90141
:1002E000E657FE4F9491F901EC5BFE4F849122504A
:1002F0003F4FF9012491222309F433C0992301F1DE
:1003000091509231E8F4E92FF0E0E757FE4F0C945A
:10031000BB12BA01BE019B01B201B601A001C1012D
:10032000C701CB01D101D501D901DF01E301A00152
:10033000E701ED01F101909180009F77909380009B
:10034000E22FF0E0EE0FFF1FEC51FF4FA591B491AB
:100350009FB7F894EC91611148C080958E238C93DF
:100360009FBF0895909180009F7DE8CF909180007D
:10037000977FE4CF94B59F7794BDE2CF94B59F7DEE
:10038000FBCF9091B0009F779093B000D9CF909120
:10039000B0009F7DF9CF909190009F77909390004F
:1003A000CFCF909190009F7DF9CF90919000977F53
:1003B000F5CF9091A0009F779093A000C1CF90912E
:1003C000A0009F7DF9CF9091A000977FF5CF9091ED
:1003D00020019F7790932001B3CF909120019F7DC2
:1003E000F9CF90912001977FF5CF8E2BB8CF3FB7F3
:1003F000F8948091500290915102A0915202B091D4
:10040000530226B5A89B05C02F3F19F00196A11DE8
:10041000B11D3FBFBA2FA92F982F8827BC01CD014E
:10042000620F711D811D911D42E0660F771F881FAD
:10043000991F4A95D1F708952FB7F89460914C020F
:1004400070914D0280914E0290914F022FBF0895FE
:10045000AF92BF92CF92DF92EF92FF920F931F93D2
:10046000CF93DF936C017B018B01040F151FEB0110
:100470005E01AE18BF08C017D10759F06991D601C7
:10048000ED91FC910190F081E02DC6010995892B39
:1004900079F7C501DF91CF911F910F91FF90EF90F8
:1004A000DF90CF90BF90AF900895FC01538D448DA5
:1004B000252F30E0842F90E0821B930B541710F00F
:1004C000CF96089501970895FC01918D828D98171C
:1004D00061F0A28DAE0FBF2FB11D5D968C91928DF4
:1004E0009F5F9F73928F90E008958FEF9FEF089525
:1004F000FC01918D828D981731F0828DE80FF11DEE
:10050000858D90E008958FEF9FEF0895FC01918D08
:10051000228D892F90E0805C9F4F821B91098F7301
:100520009927089585EC94E00E94860221E0892BAA
:1005300009F420E0822F0895FC01A48DA80FB92FA3
:10054000B11DA35ABF4F2C91848D90E001968F73FB
:100550009927848FA689B7892C93A089B1898C911A
:10056000837080648C93938D848D981306C0028869
:10057000F389E02D80818F7D80830895EF92FF9233
:100580000F931F93CF93DF93EC0181E0888F9B8DB6
:100590008C8D98131AC0E889F989808185FF15C070
:1005A0009FB7F894EE89FF896083E889F989808193
:1005B0008370806480839FBF81E090E0DF91CF9162
:1005C0001F910F91FF90EF900895F62E0B8D10E084
:1005D0000F5F1F4F0F731127E02E8C8D8E110CC0F3
:1005E0000FB607FCFACFE889F989808185FFF5CF3E
:1005F000CE010E949C02F1CFEB8DEC0FFD2FF11D7F
:10060000E35AFF4FF0829FB7F8940B8FEA89FB897A
:1006100080818062CFCFCF93DF93EC01888D8823D8
:10062000B9F0AA89BB89E889F9898C9185FD03C055
:10063000808186FD0DC00FB607FCF7CF8C9185FF3A
:10064000F2CF808185FFEDCFCE010E949C02E9CFE1
:10065000DF91CF91089580E090E0892B29F00E94EE
:10066000920281110E94000080E090E0892B49F005
:1006700080E090E0892B29F00E94000081110E9407
:10068000000080E090E0892B49F080E090E0892B29
:1006900029F00E94000081110E94000080E090E09B
:1006A000892B49F080E090E0892B29F00E9400001E
:1006B00081110C940000089561E0FC0184810C9488
:1006C0006D01F894809100008093000088E0909183
:1006D0000000909300009091000090910000909392
:1006E000000000000000815091F7789408950F9366
:1006F0001F93CF93DF93EC010E941C028B010E9499
:1007000061038F3F69F00E941C02601B710B6C1724
:100710007D07A8F380E0DF91CF911F910F9108959D
:1007200081E0F9CFF89498E0209100002093000038
:1007300020910000209300002091000020930000F1
:10074000880F915089F700000000000000008091A0
:1007500000008093000078940895CF92DF92EF928A
:10076000FF920F931F93CF93DF93EC01162F690134
:100770007A018E81882389F08F8198859C012F5F73
:100780003F4F38872F838230924018F40E946103D4
:10079000F3CFCE010E945C031E8260E08C810E9438
:1007A0006D018CE291E00E947703812F80640E94AA
:1007B000920308E110E0D701C601002E04C0B695EF
:1007C000A795979587950A94D2F70E9492030850AF
:1007D0001109083F8FEF180771F78FEF0E949203FE
:1007E00010E00E9461038A8787FF04C01F3F11F059
:1007F0001F5FF7CFDF91CF911F910F91FF90EF9087
:10080000DF90CF900895AF92BF92CF92DF92EF9298
:10081000FF920F931F93CF93DF93EC016901C801FF
:10082000820F931F8130924050F58E81882379F09A
:1008300088819981AA81BB8184179507A607B7078C
:1008400031F48F819885C816D90608F042C04883D4
:1008500059836A837B838B85833039F089E0440F29
:10086000551F661F771F8A95D1F79A01AB0161E189
:10087000CE010E94AD03882389F083E08D83CE01F1
:100880000E945C0380E0DF91CF911F910F91FF9058
:10089000EF90DF90CF90BF90AF9008950E941C0220
:1008A0005B010E9461038A878F3F69F40E941C02EA
:1008B0006A197B096D327140A0F38FE08D83CE0100
:1008C0000E945C03DCCF8E3F89F418861F8281E092
:1008D0008E838F8198858C159D0550F40E9461034D
:1008E0008F819885019698878F83F3CF8DE0E6CF2F
:1008F0006701E00EF11E0E946103F60181936F0112
:10090000EE15FF05C1F78F819885080F191F18870D
:100910000F838985882319F001151240A0F08E817C
:10092000882389F08F8198859C012F5F3F4F3887FE
:100930002F838230924018F40E946103F3CFCE01DE
:100940000E945C031E8281E09ECFCF92DF92EF92E5
:10095000FF920F931F93CF93DF93EC01690182E124
:10096000411551056105710599F08B85833039F08A
:10097000E9E0440F551F661F771FEA95D1F79A01EA
:10098000AB0168E1CE010E94AD03882319F084E039
:100990008D8358C08C8596013E5F79010FEF1FEF64
:1009A000882319F1F60110E000E0819190E08127A1
:1009B0009C0144E0359527954A95E1F782279327D6
:1009C000102F0027082719279C01322F2227329544
:1009D000307F0227132775E0880F991F7A95E1F77A
:1009E00008271927EE16FF0601F78EEF0E949203E3
:1009F000F60181916F010E949203EC14FD04C1F78E
:100A0000812F0E949203802F0E9492030E94610313
:100A10008A878F71853089F488E592E00E94770398
:100A20008823A9F020E030E0A9016DE0CE010E940A
:100A3000AD03882371F084E1ABCF81E18D83CE01DA
:100A40000E945C03CE010E945C0380E00AC085E145
:100A50009FCF0E9461038111EECFCE010E945C0303
:100A600081E0DF91CF911F910F91FF90EF90DF9088
:100A7000CF90089580913E02882389F14091000231
:100A800050910102609102027091030225EC32E064
:100A900090E080E00E94A504811102C080E00895EA
:100AA00040913F0250914002609141027091420298
:100AB000411551056105710581F025EC32E090E0AA
:100AC00080E00E94A504882349F310923F0210920F
:100AD0004002109241021092420210923E0281E0C6
:100AE00008958F929F92AF92BF92EF92FF920F93D1
:100AF0001F93CF934B015C01C42F80910002909112
:100B00000102A0910202B091030288159905AA057D
:100B1000BB0539F10E943A0581110BC080E0CF91ED
:100B20001F910F91FF90EF90BF90AF909F908F908B
:100B3000089585ECE82E82E0F82E00E012E030E027
:100B400020E0B501A40190E080E00E940304882326
:100B500029F38092000290920102A0920202B092C8
:100B6000030240913E024C2B40933E0281E0D7CFDE
:100B70004F925F926F927F928F929F92AF92BF92AD
:100B8000CF92DF92EF92FF920F931F93CF93DF9359
:100B9000EC01423051056105710590F480E0DF9170
:100BA000CF911F910F91FF90EF90DF90CF90BF906A
:100BB000AF909F908F907F906F905F904F9008952F
:100BC00089859A85AB85BC850196A11DB11D8417C9
:100BD0009507A607B70710F3CB88DC88ED88FE8859
:100BE0008F89803109F042C0BB27A72F962F852F10
:100BF000480159012A013B01C80ED91EEA1EFB1EFD
:100C00008091000290910102A0910202B091030232
:100C1000C816D906EA06FB0699F58F898031C1F519
:100C2000B301A201552766277727440F551F4B5361
:100C30005D4FFA019182808280913E0281608093B3
:100C40003E028A89823080F08D819E81AF81B88595
:100C50008C0D9D1DAE1DBF1D80933F0290934002E1
:100C6000A0934102B093420281E099CFDB01CA0117
:100C7000E7E0B695A79597958795EA95D1F7B8CF10
:100C800040E0C701B6010E9471058111C6CF86CF31
:100C9000B301A2014F77552766277727440F551FC9
:100CA000440F551F4B535D4FFA0180829182A282FF
:100CB000B382C2CF8F929F92AF92BF92CF92DF92B8
:100CC000EF92FF920F931F93CF93DF93FC018185E7
:100CD0009285A385B4850196A11DB11D8417950742
:100CE000A607B70770F480E0DF91CF911F910F91B5
:100CF000FF90EF90DF90CF90BF90AF909F908F903C
:100D0000089583889488A588B6888789803189F575
:100D1000BB27A72F962F852FE9016A017B018F0141
:100D2000BC01CD01680D791D8A1D9B1D80900002BC
:100D300090900102A0900202B090030286169706DE
:100D4000A806B90601F5F8018789803111F5DD247F
:100D5000EE24FF24F601EE0FFF1FEB53FD4F8081C1
:100D60009181B0E0A0E088839983AA83BB8381E06E
:100D7000BBCFDB01CA01C7E0B695A79597958795CC
:100D8000CA95D1F7C9CF40E00E9471058111DBCF30
:100D9000AACFE894C7F8DD24EE24FF24F601EE0F75
:100DA000FF1FEE0FFF1FEB53FD4F80819181A2814A
:100DB000B381BF70D8CF2F923F924F925F926F92C4
:100DC0007F928F929F92AF92BF92CF92DF92EF92DB
:100DD000FF920F931F93CF93DF93EC014B018D8113
:100DE000811115C08FEF9FEFDF91CF911F910F9170
:100DF000FF90EF90DF90CF90BF90AF909F908F903B
:100E00007F906F905F904F903F902F9008958C81CE
:100E100080FFE8CF4B895C896D897E898A859B85B7
:100E2000AC85BD85412C481759076A077B0711F02F
:100E300044244394512C52011E0126E0220E311C01
:100E4000A114B10409F4B1C04A855B856C857D8528
:100E50006A0181E0D8228B8D9C8D8A019B01E9E09B
:100E60003695279517950795EA95D1F7ED81E230EC
:100E7000E1F5FC01628D738D848D958D600F711F7E
:100E8000821F931F612C22E0722E6C187D08A6141D
:100E9000B70408F435012C8126FD04C06114F2E08A
:100EA0007F0671F40091000210910102209102026C
:100EB00030910302061717072807390709F053C0B6
:100EC00040E00E947105882309F48CCFC6018B5342
:100ED0009D4FD4019C01260D371DFC012E173F07A5
:100EE00009F45EC041914D93F9CFFC0174807A946E
:100EF0007022C114D10471F471100CC0452B462B23
:100F0000472B39F58F89988DA98DBA8D8E839F8354
:100F1000A887B987EB8DFC8D6E817F818885998547
:100F20006250710981099109258504C0660F771FF8
:100F3000881F991F2A95D2F7068517852089318940
:100F4000600F711F821F931F670D711D811D911D01
:100F500099CF4E815F816885798591010E945A06FB
:100F60008111D8CF3FCF740183019601AB01BC0141
:100F700090E080E00E940304882309F433CF860CBC
:100F8000971C8A859B85AC85BD85860D971DA11D07
:100F9000B11D8A879B87AC87BD87A618B70850CF3D
:100FA000281B390B820E931EECCFC2011DCFCF93AD
:100FB000DF93FC01248127FF2BC0EC016685778538
:100FC0008089918941E00E947105882329F1EA898D
:100FD00080E2E89FF0011124EB53FD4F3097E1F0E0
:100FE0008D81823040F48B899C89AD89BE89848F44
:100FF000958FA68FB78F8F89988D938F828F8F89CA
:10100000988DA98DBA8DB58BA48B8C818F778C83AD
:10101000DF91CF910C943A0580E0DF91CF91089554
:101020008F929F92AF92BF92CF92DF92EF92FF92F8
:101030000F931F93CF93DF93EC018D8181110EC02D
:1010400080E0DF91CF911F910F91FF90EF90DF90A3
:10105000CF90BF90AF909F908F9008950B891C897F
:101060002D893E89041715072607370748F34A01DB
:101070005B01823031F48A869B86AC86BD8681E036
:10108000E0CF81149104A104B10449F41E821F82AF
:10109000188619861A861B861C861D86F0CF0A853F
:1010A0001B852C853D85EB8DFC8D858590E0099613
:1010B000B901A8014150510961097109082E04C004
:1010C00076956795579547950A94D2F7750164010F
:1010D000E1E0CE1AD108E108F10804C0F694E794E3
:1010E000D794C7948A95D2F7C416D506E606F706B4
:1010F00020F0012B022B032B11F58F89988DA98DE0
:10110000BA8D8E839F83A887B9878E010A5F1F4F90
:10111000C114D104E104F10409F4ADCF4E815F8123
:101120006885798598018B8D9C8D0E945A0691E087
:10113000C91AD108E108F1088111EACF81CFC41A98
:10114000D50AE60AF70AE1CF3F924F925F926F927B
:101150007F928F929F92AF92BF92CF92DF92EF9247
:10116000FF920F931F93CF93DF93CDB7DEB72C97EA
:101170000FB6F894DEBF0FBECDBF5C01DC015B96FD
:101180008D909C905C9716964D905D906D907C90A4
:101190001997411451046104710409F468C0BFEF48
:1011A0004B1A5B0A6B0A7B0A312CF401818592850C
:1011B000A385B4859C01AD012F5F3F4F4F4F5F4F1B
:1011C00029873A874B875C87730162011D821E82E3
:1011D0001F821886F40181859285A385B4852D81AF
:1011E0003E814F815885281739074A075B0708F069
:1011F00056C089859A85AB85BC858C159D05AE0545
:10120000BF0550F482E0C82ED12CE12CF12C92E0E5
:10121000492E512C612C712C9E012F5F3F4FB7013D
:10122000A601C4010E945A068823C9F189819A81C6
:10123000AB81BC81892B8A2B8B2B09F126013701CD
:101240009FEF491A590A690A790A2D813E814F8117
:1012500058852F5F3F4F4F4F5F4F2D833E834F8306
:1012600058873FEFC31AD30AE30AF30AB3CFF40156
:1012700040805180628073803324339496CFC414AD
:10128000D504E604F70409F70FEF1FEF2FEF3FE057
:10129000B701A601C4010E94B805811119C080E000
:1012A0002C960FB6F894DEBF0FBECDBFDF91CF9165
:1012B0001F910F91FF90EF90DF90CF90BF90AF9074
:1012C0009F908F907F906F905F904F903F90089588
:1012D000F50146815781608571854115510561058C
:1012E000710539F097018601C4010E94B805882371
:1012F000B1F2D5011696CD92DD92ED92FC9219973E
:10130000332051F0D701C6010196A11DB11DF40192
:1013100080839183A283B383F5018789908DA18D0A
:10132000B28D892B8A2B8B2B39F4C78AD08EE18E14
:10133000F28E84818068848381E0B2CFFC01818D4C
:10134000928D009729F0FC01258121110C94D7077B
:101350000895DC015996ED91FC913097B9F083899D
:101360009489A589B6894285538564857585841BD2
:10137000950BA60BB70B811520E89207A105B105C7
:1013800038F08FEF9FE7A0E0B0E0089590E080E0B4
:101390000895CF93DF931F92CDB7DEB7FC01818D07
:1013A000928D009769F0BE016F5F7F4F0E94DB0650
:1013B000019731F4898190E00F90DF91CF910895EA
:1013C0008FEF9FEFF9CFEF92FF920F931F93CF9381
:1013D000DF931F92CDB7DEB7FC01818D928D10E0B7
:1013E00000E00097D1F07F01BE016F5F7F4F0E9448
:1013F000DB060FEF1FEF019781F4098110E0F70181
:10140000818D928DFC01428553856485758541509F
:101410005109610971090E941008C8010F90DF91FC
:10142000CF911F910F91FF90EF9008952F923F92CF
:101430004F925F926F927F928F929F92AF92BF92E4
:10144000CF92DF92EF92FF920F931F93CF93DF9390
:1014500000D000D000D0CDB7DEB79E838D835B0176
:101460001A01DC015996ED91FC91309709F581E064
:1014700090E0ED81FE819383828380E090E0269668
:101480000FB6F894DEBF0FBECDBFDF91CF911F9195
:101490000F91FF90EF90DF90CF90BF90AF909F9013
:1014A0008F907F906F905F904F903F902F90089516
:1014B00013821282AD81BE8159960D911C91F80163
:1014C0008581813009F0BCC0848181FFB9C082FD73
:1014D000A4C06101F8014285538564857585C114F6
:1014E000D10409F41EC1838D948DDC0114967C9087
:1014F0002FEF270D2A013B0139E07694679457942A
:1015000047943A95D1F742227A01B1E0FB2241108B
:101510001CC0E114F104C9F44681578160857185CE
:10152000411551056105710509F091C08789908DBC
:10153000A18DB28D0097A105B10509F0AAC0C8011F
:101540000E94A408882309F47BC080E092E08E19F1
:101550009F0946018C159D0508F44C01D8015B9646
:101560004D915C915C9716968D919D910D90BC91DB
:10157000A02D0297A109B109FA01258504C0880FA1
:10158000991FAA1FBB1F2A95D2F7468557856089E8
:101590007189840F951FA61FB71F9C01AD01240DF3
:1015A000311D411D511D29013A01811432E093067C
:1015B00009F075C08091000290910102A091020291
:1015C000B0910302481659066A067B0659F48FEF5C
:1015D0009FEFDC018093000290930102A09302022E
:1015E000B09303029501B301A20190E080E00E9454
:1015F000A504882329F19EEFB91AC818D908F80163
:1016000082859385A485B585880D991DA11DB11D81
:1016100082879387A487B5875DCF4389548965897D
:10162000768982859385A485B585481759076A0709
:101630007B0709F44ECFC8010E941008811149CFE1
:1016400081E090E0F8019383828380E007C09E01EF
:101650002F5F3F4F0E945A06811102C090E076C072
:1016600089819A81AB81BC81F801238D348DF90188
:10167000278948EF5FEF60E070E0203121F048EF0C
:101680005FEF6FEF7FE084179507A607B70708F0B5
:1016900056CFF80186839783A087B18756CFE11490
:1016A000F10491F5D8011A964D915D916D917C915F
:1016B0001D9753968D919D910D90BC91A02D48172B
:1016C00059076A077B0700F10E943A05882309F44D
:1016D000B7CF4092000250920102609202027092D3
:1016E000030280913E02816080933E0297012B535A
:1016F0003D4FD501C901880D991DF9018E179F072E
:1017000059F04D914193FACF41E0C301B2010E94DB
:1017100071058111EBCF94CF821B930BA80EB91EDC
:101720006CCF83899489A589B68984179507A60704
:10173000B70738F48481438B548B658B768B806834
:101740008483F801848183FD0CC0C101AD81BE8119
:101750005996ED91FC9122813381232B09F087CE9C
:101760008ECE8581882309F46BCFC8010E94D707EC
:101770008111EBCF65CFCF93DF931F92CDB7DEB74B
:101780006983DC01ED91FC910280F381E02D41E061
:1017900050E0BE016F5F7F4F09950F90DF91CF91B1
:1017A000089590E080E00895FC0101900020E9F7A1
:1017B0003197AF01481B590BBC0185EC94E00C94A8
:1017C00028028F929F92AF92BF920F931F93CF9355
:1017D000DF93CDB7DEB7A1970FB6F894DEBF0FBE8B
:1017E000CDBF19A2423008F44AE08E010F5D1F4FB1
:1017F000842E912CB12CA12CA50194010E94991248
:10180000E62FB901CA01EA30F4F4E05DD801EE93A5
:101810008D01232B242B252B79F790E080E0109766
:1018200019F0CD010E94D40BA1960FB6F894DEBF3B
:101830000FBECDBFDF91CF911F910F91BF90AF90A1
:101840009F908F900895E95CE1CFCF93DF93EC01F7
:101850008091620590916305009759F0209164058D
:10186000309165052C173D0720F081E0DF91CF9185
:101870000895BE016F5F7F4F0E948F14009789F01B
:101880009093630580936205D0936505C0936405CA
:101890002091660530916705232B39F7FC011082F2
:1018A000E4CF80E0E3CF1F93CF93DF9385ED809368
:1018B000BC008091570290915802A0915902B091BA
:1018C0005A020796A11DB11D23E0B695A7959795DD
:1018D00087952A95D1F72091BC0024FD03C0109272
:1018E0009F0252C040915702509158026091590294
:1018F00070915A02452B462B472B69F30097A1059F
:10190000B10541F025E32A95F1F700000197A109FF
:10191000B109E1CF80915602C1E0C09355028823FE
:1019200099F1D091B8001091BA008091BC008A7BE7
:101930008093BC0060E084E10E946D0160E085E17D
:101940000E946D0110929F02C093A1021092A0020A
:1019500061E084E10E946D0161E085E10E946D011A
:101960008091B9008E7F8093B9008091B9008D7FFE
:101970008093B90088E48093B80085E48093BC002C
:101980001093BA00D093B800DF91CF911F910895C2
:101990001F920F920FB60F9211240BB60F922F9336
:1019A0003F934F935F936F937F938F939F93AF93E7
:1019B000BF93EF93FF938091B900887F803609F43D
:1019C0004DC008F040C0883209F4A7C028F5803126
:1019D00009F49BC0C8F4882309F4F7C0883009F4DF
:1019E00094C0FF91EF91BF91AF919F918F917F91A3
:1019F0006F915F914F913F912F910F900BBE0F9080
:101A00000FBE0F901F901895883109F486C0803260
:101A100041F780939E0214C0803409F49BC040F4C7
:101A20008033B9F38833E9F680939E0285ECAEC02B
:101A3000803509F483C0883509F494C0883489F668
:101A40000E94530CCECF883909F48AC038F5883704
:101A500029F050F4883611F0803719F683E080932E
:101A60009F0210929D0255C0883809F479C08039D0
:101A700019F0803809F0B5CF80919D02803208F0CE
:101A80006FC0E0919D0281E08E0F80939D02809156
:101A9000BB00F0E0E358FD4F80833BC0803B39F052
:101AA000D0F4803A09F477C0883A09F09ACF84E0FC
:101AB00080939F0210927C0210927B02F0E0E0E0A3
:101AC000099580917B0281110FC081E080937B0298
:101AD00010925B0209C0803C09F4A8CF883C09F44D
:101AE000A5CF883B09F07DCFE0917C0281E08E0F8D
:101AF00080937C02F0E0E55AFD4F80818093BB002B
:101B000090917C0280917B0229C08091C4028093D5
:101B1000BB0085EC8093BC0064CF9091C3028091A0
:101B2000C202981758F5E091C30281E08E0F8093AE
:101B3000C302F0E0EE55FD4F8081E9CFE091C30292
:101B400081E08E0F8093C3028091BB00F0E0EE55E0
:101B5000FD4F80839091C3028091C2029817C8F212
:101B600085E8D8CFE091C30281E08E0F8093C30255
:101B70008091BB00F0E0EE55FD4F80838091A10283
:101B800081115ECF81E08093A00284EA8093BC0043
:101B900010929F0226CF85EC8093BC0010929F028A
:101BA00080919D02803230F4E0919D02F0E0E35894
:101BB000FD4F108260919D0270E08DE792E0F0E0B1
:101BC000E0E0099510929D020CCF10929E0238CF52
:101BD0001F920F920FB60F9211242F933F938F9362
:101BE0009F93AF93BF9380914C0290914D02A0912F
:101BF0004E02B0914F0230914B0223E0230F2D375C
:101C000058F50196A11DB11D20934B0280934C0203
:101C100090934D02A0934E02B0934F0280915002D8
:101C200090915102A0915202B09153020196A11DD0
:101C3000B11D8093500290935102A0935202B09331
:101C40005302BF91AF919F918F913F912F910F9030
:101C50000FBE0F901F90189526E8230F0296A11D26
:101C6000B11DD2CF1F920F920FB60F9211240BB657
:101C70000F922F933F934F935F936F937F938F9325
:101C80009F93AF93BF93EF93FF9385EC94E00E94F3
:101C90009C02FF91EF91BF91AF919F918F917F91A6
:101CA0006F915F914F913F912F910F900BBE0F90CD
:101CB0000FBE0F901F9018951F920F920FB60F92A4
:101CC00011240BB60F922F938F939F93EF93FF9353
:101CD000E091D504F091D6048081E091DB04F0918D
:101CE000DC0482FD1DC090818091DE048F5F8F73C4
:101CF0002091DF04821741F0E091DE04F0E0EB5325
:101D0000FB4F958F8093DE04FF91EF919F918F9110
:101D10002F910F900BBE0F900FBE0F901F90189534
:101D20008081F2CF1092C8041092C70488EE93E02D
:101D3000A0E0B0E08093C9049093CA04A093CB04C0
:101D4000B093CC042EE032E03093C6042093C50457
:101D500025EC30E03093D2042093D10424EC30E021
:101D60003093D4042093D30420EC30E03093D60495
:101D70002093D50421EC30E03093D8042093D7048D
:101D800022EC30E03093DA042093D90426EC30E0E2
:101D90003093DC042093DB041092DE041092DF0405
:101DA0001092E0041092E1041092710510927005F7
:101DB0008093720590937305A0937405B093750595
:101DC00080E292E090936F0580936E0510928805F3
:101DD0001092870510927A0510926D0510926C058D
:101DE00010926B0510926805E0EDF1E081E08C3017
:101DF00049F09491823009F49F5F21E0280F3196D9
:101E0000992371F18093690581E080936A051092AE
:101E10006305109262051092650510926405109298
:101E200067051092660590E080E00E94250C2091E5
:101E3000620530916305811115C02115310519F036
:101E4000C9010E9406141092630510926205109257
:101E50006705109266051092650510926405089555
:101E6000822FC5CF10926705109266056CE372E071
:101E7000C9010C947915CF93DF9300D0CDB7DEB7AD
:101E8000789484B5826084BD84B5816084BD85B555
:101E9000826085BD85B5816085BD80916E00816061
:101EA00080936E0010928100809181008260809307
:101EB0008100809181008160809381008091800009
:101EC0008160809380008091B10084608093B10034
:101ED0008091B00081608093B00080919100826019
:101EE0008093910080919100816080939100809116
:101EF00090008160809390008091A1008260809327
:101F0000A1008091A10081608093A1008091A00038
:101F100081608093A00080912101826080932101E3
:101F20008091210181608093210180912001816055
:101F30008093200180917A00846080937A00809160
:101F40007A00826080937A0080917A008160809329
:101F50007A0080917A00806880937A001092C100A4
:101F6000E091D504F091D60482E08083E091D10421
:101F7000F091D2041082E091D304F091D4048FEC5C
:101F800080831092DD04E091D904F091DA0486E0B8
:101F90008083E091D704F091D804808180618083B0
:101FA000E091D704F091D804808188608083E0912B
:101FB000D704F091D804808180688083E091D704B1
:101FC000F091D80480818F7D808310E40AE085EC55
:101FD00094E00E948602892B09F47BC185EC94E091
:101FE0000E940B0390E080E00E94250C2091620586
:101FF000309163058111C8C02115310519F0C9015F
:102000000E940614109263051092620510926705F3
:1020100010926605109265051092640585EC94E0B7
:102020000E948602181619060CF053C185EC94E044
:102030000E9464028A3009F082C00E941C026B0177
:102040007C01C0924702D0924802E0924902F0928D
:102050004A020E941C026C157D058E059F05C8F37F
:1020600080917B00877F80937B0010937C00809120
:102070007A00806480937A0080917A0086FDFCCF9C
:102080008091780060917900762F682F072E000CE0
:10209000880B990B0E947C112AE038E240EA5BE34E
:1020A0000E94DB116B017C0120E030E040EA50E44B
:1020B0000E94601318160CF471C0C0924302D092B3
:1020C0004402E0924502F0924602C0904302D09052
:1020D0004402E0904502F0904602A7019601C70134
:1020E000B6010E946513882309F461C08EE292E074
:1020F0000E94D40B8AE392E00E94D40B09831A82D7
:10210000E0906605F09067052FEFE21AF20AC7012A
:102110000E94250C882399F0209162053091630577
:102120008091660590916705BE016F5F7F4F820FBA
:10213000931F0E947915F0926705E09266050E9450
:10214000F7016B017C018AE0882E912CA12CB12C27
:102150000E94F7016C197D098E099F09683E734042
:1021600081059105A8F381E0881A9108A108B108BA
:1021700028EEC20E23E0D21EE11CF11C8114910452
:10218000A104B10429F74ACF1092670510926605A1
:102190006CE372E0C9010E94791540CF10924302AE
:1021A0001092440210924502109246028ECF4601D0
:1021B0005701E894B7F82FEF3FEF4FE75FE7C5010E
:1021C000B4010E94651381110DC02FEF3FEF4FE75F
:1021D0005FE7C501B4010E94751118161CF482E373
:1021E00092E086CF2FEF3FEF4FE75FE4C701B601E4
:1021F0000E94601318161CF486E392E079CF2FEF4B
:102200003FEF4FE75FECC701B6010E94751187FDF4
:10221000F3CF20E030E0A901C701B6010E9475119B
:1022200087FF09C06DE285EC94E00E94BE02F7FAD8
:10223000F094F7F8F0942AE037ED43EA5BE3C70146
:10224000B6010E94C5124B015C010E9431136B0163
:102250007C010E947A119B01AC01C501B4010E946E
:10226000C4124B015C014AE0C701B6010E94E10BB8
:102270006EE285EC94E00E94BE0220E030E040E295
:1022800051E4C501B4010E94DB114B015C010E94C5
:1022900031136B01F12CE12C4AE0C701B6010E9419
:1022A000E10BC701B6010E947A119B01AC01C50187
:1022B000B4010E94C41220E030E040E251E40E94E8
:1022C000DB110E94311390E080E04AE00E94E10BB4
:1022D00011CF0E942B037BCE809162059091630504
:1022E000009711F00C94061408950E94B71108F499
:1022F00081E00895E89409C097FB3EF4909580959D
:10230000709561957F4F8F4F9F4F9923A9F0F92FBB
:1023100096E9BB279395F695879577956795B79539
:10232000F111F8CFFAF4BB0F11F460FF1BC06F5F1F
:102330007F4F8F4F9F4F16C0882311F096E911C031
:10234000772321F09EE8872F762F05C0662371F052
:1023500096E8862F70E060E02AF09A95660F771F66
:10236000881FDAF7880F9695879597F90895990F42
:102370000008550FAA0BE0E8FEEF16161706E8074F
:10238000F907C0F012161306E407F50798F0621B70
:10239000730B840B950B39F40A2661F0232B242B45
:1023A000252B21F408950A2609F4A140A6958FEF64
:1023B000811D811D08950E94EE110C945F120E94F0
:1023C000511238F00E94581220F0952311F00C940D
:1023D00048120C944E1211240C9493120E94701205
:1023E00070F3959FC1F3950F50E0551F629FF00168
:1023F000729FBB27F00DB11D639FAA27F00DB11D81
:10240000AA1F649F6627B00DA11D661F829F222709
:10241000B00DA11D621F739FB00DA11D621F839F90
:10242000A00D611D221F749F3327A00D611D231F66
:10243000849F600D211D822F762F6A2F11249F57B4
:1024400050409AF0F1F088234AF0EE0FFF1FBB1FB7
:10245000661F771F881F91505040A9F79E3F510576
:1024600080F00C9448120C9493125F3FE4F3983E72
:10247000D4F3869577956795B795F795E7959F5F20
:10248000C1F7FE2B880F911D9695879597F90895B2
:1024900097F99F6780E870E060E008959FEF80EC17
:1024A000089500240A9416161706180609060895BA
:1024B00000240A9412161306140605060895092E20
:1024C0000394000C11F4882352F0BB0F40F4BF2B8F
:1024D00011F460FF04C06F5F7F4F8F4F9F4F0895CF
:1024E00057FD9058440F551F59F05F3F71F04795C5
:1024F000880F97FB991F61F09F3F79F087950895AA
:10250000121613061406551FF2CF4695F1DF08C0C8
:10251000161617061806991FF1CF869571056105E5
:1025200008940895E894BB2766277727CB0197F98D
:102530000895A1E21A2EAA1BBB1BFD010DC0AA1F04
:10254000BB1FEE1FFF1FA217B307E407F50720F01C
:10255000A21BB30BE40BF50B661F771F881F991F97
:102560001A9469F760957095809590959B01AC01E0
:10257000BD01CF010895EE0FFF1F0024001C0BBE0C
:102580000790F691E02D09945058BB27AA270E9486
:10259000DC120C945F120E94511238F00E94581203
:1025A00020F039F49F3F19F426F40C944E120EF4E7
:1025B000E095E7FB0C944812E92F0E94701258F343
:1025C000BA17620773078407950720F079F4A6F518
:1025D0000C9492120EF4E0950B2EBA2FA02D0B0145
:1025E000B90190010C01CA01A0011124FF27591B58
:1025F00099F0593F50F4503E68F11A16F040A22F5E
:10260000232F342F4427585FF3CF469537952795CE
:10261000A795F0405395C9F77EF41F16BA0B620BCD
:10262000730B840BBAF09150A1F0FF0FBB1F661F14
:10263000771F881FC2F70EC0BA0F621F731F841F57
:1026400048F4879577956795B795F7959E3F08F07D
:10265000B0CF9395880F08F09927EE0F979587953F
:1026600008950E94781288F09F5798F0B92F992703
:10267000B751B0F0E1F0660F771F881F991F1AF06D
:10268000BA95C9F714C0B13091F00E949212B1E02E
:1026900008950C949212672F782F8827B85F39F02D
:1026A000B93FCCF3869577956795B395D9F73EF406
:1026B00090958095709561957F4F8F4F9F4F0895AE
:1026C0000E94B71108F48FEF08950E94B711880B8C
:1026D000990B08950F931F93CF93DF938230910549
:1026E00010F482E090E0E0918B05F0918C0530E0F1
:1026F00020E0B0E0A0E0309799F42115310509F40D
:102700004AC0281B390B24303105D8F58A819B81BA
:102710006115710589F1FB0193838283FE0111C06C
:10272000408151810281138148175907E0F0481711
:10273000590799F4109761F012960C93129713961B
:102740001C933296CF01DF91CF911F910F91089585
:1027500000938B0510938C05F4CF2115310551F0B2
:102760004217530738F0A901DB019A01BD01DF01CF
:10277000F801C1CFEF01F9CF90938C0580938B05C1
:10278000CDCFFE01E20FF31F8193919322503109C7
:1027900039832883D7CF2091890530918A05232B4F
:1027A00041F4209106023091070230938A0520936C
:1027B000890520910402309105022115310541F46B
:1027C0002DB73EB74091080250910902241B350BEA
:1027D000E0918905F0918A05E217F307A0F42E1B1A
:1027E0003F0B2817390778F0AC014E5F5F4F241775
:1027F000350748F04E0F5F1F50938A0540938905B7
:10280000819391939FCFF0E0E0E09CCFCF93DF9353
:102810000097E9F0FC01329713821282A0918B0598
:10282000B0918C05ED0130E020E01097A1F42081FB
:102830003181820F931F2091890530918A052817D5
:10284000390709F061C0F0938A05E0938905DF91AB
:10285000CF910895EA01CE17DF07E8F54A815B8141
:102860009E0141155105B1F7E901FB83EA834991C6
:102870005991C40FD51FEC17FD0761F48081918138
:102880000296840F951FE901998388838281938141
:102890009B838A83F0E0E0E012968D919C911397E0
:1028A0000097B9F52D913C911197CD010296820FB9
:1028B000931F2091890530918A052817390739F629
:1028C000309751F510928C0510928B05B0938A05C4
:1028D000A0938905BCCFD383C28340815181840FEB
:1028E000951FC817D90761F44E5F5F4F88819981A2
:1028F000480F591F518340838A819B819383828330
:102900002115310509F0B0CFF0938C05E0938B05CC
:102910009ECFFD01DC01C0CF13821282D7CF4F9230
:102920005F926F927F928F929F92AF92BF92CF925F
:10293000DF92EF92FF920F931F93CF93DF938C015F
:10294000009799F4CB01DF91CF911F910F91FF90E8
:10295000EF90DF90CF90BF90AF909F908F907F903F
:102960006F905F904F900C946A13FC01E60FF71F75
:102970009C0122503109E217F30708F4AEC0D901D7
:10298000CD91DC911197C617D70720F1C530D1053D
:1029900078F0CE0104978617970750F0C61BD70B27
:1029A0002297C193D1936D937C93CF010E9406141B
:1029B000C801DF91CF911F910F91FF90EF90DF90B1
:1029C000CF90BF90AF909F908F907F906F905F90CF
:1029D0004F9008955B01AC1ABD0A4C018C0E9D1EF0
:1029E000A0918B05B0918C05512C412CF12CE12C40
:1029F000109731F58091890590918A058815990580
:102A000009F05CC04616570608F058C080910402D1
:102A100090910502009741F48DB79EB7409108024E
:102A200050910902841B950BE817F90708F055C06F
:102A3000F0938A05E0938905F90171836083B8CF2B
:102A40008D919C91119712966C90129713967C9091
:102A50001397A815B90559F56C0142E0C40ED11CB5
:102A6000CA14DB0420F1AC014A195B09DA011296A1
:102A7000159780F06282738251834083D9016D93F0
:102A80007C93E114F10471F0D7011396FC93EE935B
:102A900012978ECF22968C0F9D1FF9019183808310
:102AA000F301EFCFF0938C05E0938B0581CF4816AF
:102AB000590608F42C017D01D3019ACFCB010E9465
:102AC0006A137C01009749F0AE01B8010E947015AD
:102AD000C8010E94061487016BCF10E000E068CFA8
:102AE000FB01DC0102C001900D9241505040D8F72B
:102AF0000895FB01DC0101900D920020E1F708959B
:102B000010E0CFEED0E004C0FE010E94BB1221967F
:0A2B1000C03FD107C9F7F894FFCFCA
:102B1A00FFFFFFFF00008D05800000000000BE02DD
:102B2A00280255020B0386026402780200000000A4
:102B3A00BB0B160AD10B9E09A909C909E3096E61E3
:0E2B4A006E00696E66006F7666000D0A000070
:00000001FF
