:100000000C94A1000C94CB000C94CB000C94CB006E
:100010000C94CB000C94CB000C94CB000C94CB0034
:100020000C94CB000C94CB000C94CB000C94CB0024
:100030000C94CB000C94CB000C94CB000C94CB0014
:100040000C94CB000C94CB000C94CB000C94CB0004
:100050000C94CB000C94CB000C94CB000C94DE03DE
:100060000C94CB000C9452040C9428040C94CB00F8
:100070000C94CB000C94CB000C94CB000C94CB00D4
:100080000C94CB000C94CB000C94CB000C94CB00C4
:100090000C94CB000C94CB000C94CB000C94CB00B4
:1000A0000C94CB000C94CB000C94CB000C94CB00A4
:1000B0000C94CB000C94CB000C94CB000C94CB0094
:1000C0000C94CB000C94CB000C94CB000C94CB0084
:1000D0000C94CB000C94CB000C94CB000C94CB0074
:1000E0000C94CB0008000000BE922449123EABAA3B
:1000F000AA2ABECDCCCC4C3E00000080BEABAAAA42
:10010000AA3E00000000BF000000803F0000000089
:1001100000084178D3BB4387D1133D190E3CC3BDC2
:100120004282AD2B3E68EC8276BED98FE1A93E4C6F
:1001300080EFFFBE01C4FF7F3F0000000000880485
:10014000AB0811241FBECFEFD1E2DEBFCDBF23E04D
:10015000A6E6B2E001C01D92A133B207E1F712E0BA
:10016000A0E0B2E0E6E8FBE100E00BBF02C00790D0
:100170000D92A636B107D9F710E0C0EAD0E004C06E
:100180002197FE010E94FA09CF39D107C9F70E94D1
:10019000FC040C94B60D0C940000863308F08653D2
:1001A00020917B00982F9870277F922B90937B0053
:1001B0008770806480937C0080917A008064809353
:1001C0007A0080917A0086FDFCCF80917800909132
:1001D000790008953FB7F894809186029091870244
:1001E000A0918802B091890226B5A89B05C02F3F37
:1001F00019F00196A11DB11D3FBFBA2FA92F982F4D
:100200008827BC01CD01620F711D811D911D42E047
:10021000660F771F881F991F4A95D1F708958F920F
:100220009F92AF92BF92CF92DF92EF92FF924B01DB
:100230005C010E94EA006B017C010E94EA006C19DB
:100240007D098E099F09683E734081059105A8F3D9
:1002500021E0821A9108A108B10888EEC80E83E057
:10026000D81EE11CF11C81149104A104B10429F7EA
:10027000FF90EF90DF90CF90BF90AF909F908F90C6
:1002800008952FB7F8946091820270918302809153
:100290008402909185022FBF0895AF92BF92CF92B2
:1002A000DF92EF92FF920F931F93CF93DF936C0136
:1002B0007B018B01040F151FEB015E01AE18BF0817
:1002C000C017D10759F06991D601ED91FC910190C9
:1002D000F081E02DC6010995892B79F7C501DF91E1
:1002E000CF911F910F91FF90EF90DF90CF90BF9033
:1002F000AF900895FC01538D448D252F30E0842F5D
:1003000090E0821B930B541710F0CF96089501973D
:100310000895FC01918D828D981761F0A28DAE0F2A
:10032000BF2FB11D5D968C91928D9F5F9F73928FB1
:1003300090E008958FEF9FEF0895FC01918D828DDD
:10034000981731F0828DE80FF11D858D90E00895AA
:100350008FEF9FEF0895FC01918D228D892F90E002
:10036000805C9F4F821B91098F73992708958AE8BB
:1003700092E00E94AB0121E0892B09F420E0822F5A
:100380000895FC01A48DA80FB92FB11DA35ABF4F2A
:100390002C91848D90E001968F739927848FA68984
:1003A000B7892C93A089B1898C91837080648C93D8
:1003B000938D848D981306C00288F389E02D808187
:1003C0008F7D80830895EF92FF920F931F93CF93B9
:1003D000DF93EC0181E0888F9B8D8C8D98131AC080
:1003E000E889F989808185FF15C09FB7F894EE8967
:1003F000FF896083E889F9898081837080648083C4
:100400009FBF81E090E0DF91CF911F910F91FF900E
:10041000EF900895F62E0B8D10E00F5F1F4F0F73B6
:100420001127E02E8C8D8E110CC00FB607FCFACF71
:10043000E889F989808185FFF5CFCE010E94C1014D
:10044000F1CFEB8DEC0FFD2FF11DE35AFF4FF08242
:100450009FB7F8940B8FEA89FB8980818062CFCFA8
:10046000CF93DF93EC01888D8823B9F0AA89BB89EB
:10047000E889F9898C9185FD03C0808186FD0DC0D6
:100480000FB607FCF7CF8C9185FFF2CF808185FFF7
:10049000EDCFCE010E94C101E9CFDF91CF91089548
:1004A00080E090E0892B29F00E94B70181110E9421
:1004B000000080E090E0892B49F080E090E0892BFB
:1004C00029F00E94000081110E94000080E090E06D
:1004D000892B49F080E090E0892B29F00E940000F0
:1004E00081110E94000080E090E0892B49F080E0BB
:1004F00090E0892B29F00E94000081110C940000EB
:100500000895FC0101900020E9F73197AF01481BE5
:10051000590BBC018AE892E00C944D018F929F9296
:10052000AF92BF920F931F93CF93DF93CDB7DEB7F8
:10053000A1970FB6F894DEBF0FBECDBF19A242300F
:1005400008F44AE08E010F5D1F4F842E912CB12CD0
:10055000A12CA50194010E94D809E62FB901CA0176
:10056000EA30F4F4E05DD801EE938D01232B242BC7
:10057000252B79F790E080E0109719F0CD010E94CB
:100580008102A1960FB6F894DEBF0FBECDBFDF91FA
:10059000CF911F910F91BF90AF909F908F90089532
:1005A000E95CE1CF0C9481024F925F926F927F924F
:1005B0008F929F92AF92BF92CF92DF92EF92FF9273
:1005C0000F931F93CF936B017C01742EAC019B01A1
:1005D0000E94660B882399F08AE192E0CF911F91E7
:1005E0000F91FF90EF90DF90CF90BF90AF909F90D2
:1005F0008F907F906F905F904F900C948102460196
:100600005701E894B7F82FEF3FEF4FE75FE7C501D9
:10061000B4010E94660B81110DC02FEF3FEF4FE731
:100620005FE7C501B4010E94B40818161CF48EE1FE
:1006300092E0D4CF2FEF3FEF4FE75FE4C701B60161
:100640000E94110B18161CF482E292E0C7CF2FEF24
:100650003FEF4FE75FECC701B6010E94B40887FD8A
:10066000F3CF20E030E0A901C701B6010E94B40831
:1006700010E000E087FF0AC06DE28AE892E00E9485
:10068000E3018C01F7FAF094F7F8F094C0E060E031
:1006900070E080E09FE37C1641F020E030E040E233
:1006A00051E40E94700ACF5FF6CFA70196010E9425
:1006B000040A2B013C010E94E20A4B015C014AE062
:1006C0000E948E027C01E00EF11ECC23C1F1C50117
:1006D000B4010E94B9089B01AC01C301B2010E94A0
:1006E000030A4B015C016EE28AE892E00E94E3019A
:1006F000E80EF91EC15018F120E030E040E251E46C
:10070000C501B4010E941A092B013C010E94E20AB2
:100710004B01B12CA12C4AE0C501B4010E948E020C
:10072000E80EF91EC501B4010E94B9089B01AC0195
:10073000C301B2010E94030A4B015C01DBCFC70178
:10074000CF911F910F91FF90EF90DF90CF90BF90CE
:10075000AF909F908F907F906F905F904F90089593
:10076000CF93DF93EC0180912703909128030097AA
:1007700059F02091290330912A032C173D0720F0CE
:1007800081E0DF91CF910895BE016F5F7F4F0E949E
:10079000C50C009789F09093280380932703D0938A
:1007A0002A03C093290320912B0330912C03232B80
:1007B00039F7FC011082E4CF80E0E3CF1F920F9263
:1007C0000FB60F9211242F933F938F939F93AF9364
:1007D000BF938091820290918302A0918402B09194
:1007E00085023091810223E0230F2D3758F50196C1
:1007F000A11DB11D209381028093820290938302F8
:10080000A0938402B0938502809186029091870222
:10081000A0918802B09189020196A11DB11D80931B
:10082000860290938702A0938802B0938902BF91B9
:10083000AF919F918F913F912F910F900FBE0F908D
:100840001F90189526E8230F0296A11DB11DD2CF47
:100850001F920F920FB60F9211240BB60F922F9387
:100860003F934F935F936F937F938F939F93AF9338
:10087000BF93EF93FF938AE892E00E94C101FF913A
:10088000EF91BF91AF919F918F917F916F915F9108
:100890004F913F912F910F900BBE0F900FBE0F9075
:1008A0001F9018951F920F920FB60F9211240BB63E
:1008B0000F922F938F939F93EF93FF93E0919A0260
:1008C000F0919B028081E091A002F091A10282FD53
:1008D0001DC090818091A3028F5F8F732091A4022D
:1008E000821741F0E091A302F0E0E657FD4F958FAB
:1008F0008093A302FF91EF919F918F912F910F9081
:100900000BBE0F900FBE0F901F9018958081F2CFF5
:1009100010928D0210928C0288EE93E0A0E0B0E07D
:1009200080938E0290938F02A0939002B0939102D5
:100930008CE092E090938B0280938A0285EC90E0A9
:10094000909397028093960284EC90E090939902A2
:100950008093980280EC90E090939B0280939A029F
:1009600081EC90E090939D0280939C0282EC90E059
:1009700090939F0280939E0286EC90E09093A10258
:100980008093A0021092A3021092A4021092A502DA
:100990001092A602109228031092270310922A03A5
:1009A0001092290310922C0310922B0390E080E008
:1009B0000E94B0032091270330912803811113C0B6
:1009C0002115310519F0C9010E943C0C1092280331
:1009D0001092270310922C0310922B0310922A03DB
:1009E00010922903089510922C0310922B0363E4B4
:1009F00072E0C9010C94AF0DCF93DF9300D0CDB757
:100A0000DEB7789484B5826084BD84B5816084BD8E
:100A100085B5826085BD85B5816085BD80916E009C
:100A2000816080936E0010928100809181008260CD
:100A3000809381008091810081608093810080910A
:100A400080008160809380008091B10084608093F9
:100A5000B1008091B00081608093B00080919100DE
:100A600082608093910080919100816080939100D9
:100A7000809190008160809390008091A1008260BD
:100A80008093A1008091A10081608093A10080915A
:100A9000A00081608093A0008091210182608093FA
:100AA00021018091210181608093210180912001A9
:100AB00081608093200180917A00846080937A0025
:100AC00080917A00826080937A0080917A008160C0
:100AD00080937A0080917A00806880937A001092E7
:100AE000C10080E090E0A0EDB1E480937C0290939F
:100AF0007D02A0937E02B0937F02E0919A02F09172
:100B00009B0282E08083E0919602F091970210822E
:100B1000E0919802F09199028FEC80831092A202EA
:100B2000E0919E02F0919F0286E08083E0919C021A
:100B3000F0919D02808180618083E0919C02F09120
:100B40009D02808188608083E0919C02F0919D02EB
:100B5000808180688083E0919C02F0919D02808179
:100B60008F7D80838AE892E00E94300286E292E0E4
:100B70000E94810281E492E00E94810204E110E07F
:100B80008AE0682E772473948AE892E00E94AB0191
:100B9000892B09F4DDC280918002811104C08AE8AA
:100BA00092E00E94300290E080E00E94B003209129
:100BB00027033091280381115AC12115310519F0FD
:100BC000C9010E943C0C1092280310922703109236
:100BD0002C0310922B0310922A03109229038AE807
:100BE00092E00E94AB01181619060CF0B1C28AE817
:100BF00092E00E9489018A3091F7809180028111F0
:100C000055C07092800220E030E040E05FE36091E8
:100C10007C0270917D0280917E0290917F020E9401
:100C20001A099058609378027093790280937A023F
:100C300090937B0284E492E00E94D20286E492E0E8
:100C40000E94D20288E492E00E94D20286E492E0FE
:100C50000E94D2028BE492E00E94D20286E492E0EB
:100C60000E94D2028EE492E00E94D20286E492E0D8
:100C70000E94D20281E592E00E94D20286E492E0D4
:100C80000E94D20284E592E00E94D20286E492E0C1
:100C90000E94D20287E592E00E94D20283E492E0B1
:100CA0000E94810281E492E00E9481020E9441013F
:100CB0006B017C01C0927402D0927502E0927602C0
:100CC000F09277020E9441016C157D058E059F050B
:100CD000C8F38090780290907902A0907A02B09048
:100CE0007B02A5019401C501B4010E94040A6B01B5
:100CF0007C0120E030E0A9010E94110B181624F0BD
:100D0000F7FAF094F7F8F0942090700230907102A6
:100D10004090720250907302A7019601C201B10186
:100D20000E94110B18160CF0ACC081E492E00E94F6
:100D300081028AE592E00E94D20283E692E00E945C
:100D4000D20281E492E00E94810220E030E040E89B
:100D50005FE36091700270917102809172029091D4
:100D600073020E94040A6093700270937102809370
:100D7000720290937302609178027091790280916F
:100D80007A0290917B029B01AC010E94040A6B01E4
:100D90007C0120E030E040E85FE30E94030A4B0161
:100DA0005C0120E030E0A9010E94110B181624F02C
:100DB000B7FAB094B7F8B0942090700230907102F6
:100DC0004090720250907302A5019401C201B101DA
:100DD0000E94110B18160CF48FC120E030E0A9011D
:100DE000C701B6010E94110B181624F0F7FAF0940F
:100DF000F7F8F094A7019601C201B1010E94110B0E
:100E000018160CF479C10E9441016093740270932A
:100E1000750280937602909377021B012C012FEFCD
:100E2000221A320A420A520A0E94410162157305CF
:100E30008405950508F0C2C0B12CA12CF12CE12C41
:100E4000C0900002D0900102AC14BD040CF069C047
:100E50008AE30E94CD00E80EF91E61E070E080E0B8
:100E600090E00E940F018FEFA81AB80AE9CF109204
:100E70002C0310922B0363E472E0C9010E94AF0DB2
:100E8000AECEA2019101C501B4010E94040A40E066
:100E90000E94D40283E692E00E94D202F12C8F2DB0
:100EA0000E94CD0090936F0280936E02BC01990F57
:100EB000880B990B0E94BB082AE038E240EA5BE30A
:100EC0000E941A094B015C0120E030E040EA50E446
:100ED0000E94110B1816E4F080926A0290926B0245
:100EE000A0926C02B0926D0260916A0270916B02E6
:100EF00080916C0290916D024AE00E94D40283E6D8
:100F000092E00E94D202F39424E0F212C8CF1DCFE7
:100F100010926A0210926B0210926C0210926D0293
:100F2000E3CFB701FF0C880B990B0E94BB0826E6A4
:100F300036E64EE950E40E941A094B015C01B60105
:100F4000DD0C880B990B0E94BB0820E030E040E8E4
:100F500054E40E941A099B01AC01C501B4010E942E
:100F6000700A9B01AC016FEF72EB81EF98E40E9475
:100F7000700A20E030E543EC57E40E94030A29E8B8
:100F80003FE64DE25EE30E94700A0E941E0B9B0149
:100F9000AC0160E070E887E795E40E94700A20E009
:100FA00030E848E853E40E94030A609366027093B5
:100FB0006702809368029093690236CF609166025F
:100FC00070916702809168029091690242E00E94EC
:100FD000D40283E692E00E94D2020E944101609313
:100FE00074027093750280937602909377021B01CE
:100FF0002C012FEF221A320A420A520A0E944101A2
:10100000621573058405950508F067C0B12CA12C05
:10101000F12CE12CC0900002D0900102AC14BD0470
:101020007CF48BE30E94CD00E80EF91E61E070E0D5
:1010300080E090E00E940F018FEFA81AB80AEACF73
:10104000B701FF0C880B990B0E94BB0826E636E619
:101050004EE950E40E941A094B015C01B601DD0C17
:10106000880B990B0E94BB0820E030E040E854E474
:101070000E941A099B01AC01C501B4010E94700ACB
:101080009B01AC016FEF72EB81EF98E40E94700A54
:1010900020E030E543EC57E40E94030A29E83FE6EC
:1010A0004DE25EE30E94700A0E941E0B9B01AC01A0
:1010B00060E070E887E795E40E94700A20E030E87D
:1010C00048E853E40E94030A609366027093670243
:1010D000809368029093690291CF6091660270914B
:1010E0006702809168029091690242E00E94D402F6
:1010F00081E492E00E9481021093010200930002B9
:1011000069821A82E0902B03F0902C032FEFE21AF1
:10111000F20AC7010E94B003882399F020912703A7
:101120003091280380912B0390912C03BE016F5FB7
:101130007F4F820F931F0E94AF0DF0922C03E0921D
:101140002B036AE070E080E090E00E940F0147CD41
:101150000E94500219CD8091270390912803009797
:1011600011F00C943C0C08950E94F60808F481E0FC
:101170000895E89409C097FB3EF49095809570958A
:1011800061957F4F8F4F9F4F9923A9F0F92F96E9D3
:10119000BB279395F695879577956795B795F11148
:1011A000F8CFFAF4BB0F11F460FF1BC06F5F7F4FE5
:1011B0008F4F9F4F16C0882311F096E911C07723F7
:1011C00021F09EE8872F762F05C0662371F096E800
:1011D000862F70E060E02AF09A95660F771F881FCF
:1011E000DAF7880F9695879597F90895990F000873
:1011F000550FAA0BE0E8FEEF16161706E807F907E9
:10120000C0F012161306E407F50798F0621B730B83
:10121000840B950B39F40A2661F0232B242B252B04
:1012200021F408950A2609F4A140A6958FEF811DA7
:10123000811D08950E942D090C949E090E94900919
:1012400038F00E94970920F0952311F00C9487093B
:101250000C948D0911240C94D2090E94AF0970F3EB
:10126000959FC1F3950F50E0551F629FF001729F4B
:10127000BB27F00DB11D639FAA27F00DB11DAA1F5A
:10128000649F6627B00DA11D661F829F2227B00DA7
:10129000A11D621F739FB00DA11D621F839FA00D32
:1012A000611D221F749F3327A00D611D231F849F82
:1012B000600D211D822F762F6A2F11249F575040D9
:1012C0009AF0F1F088234AF0EE0FFF1FBB1F661F54
:1012D000771F881F91505040A9F79E3F510580F01D
:1012E0000C9487090C94D2095F3FE4F3983ED4F341
:1012F000869577956795B795F795E7959F5FC1F7C1
:10130000FE2B880F911D9695879597F9089597F96B
:101310009F6780E870E060E008959FEF80EC08959B
:1013200000240A94161617061806090608950024C4
:101330000A9412161306140605060895092E03943E
:10134000000C11F4882352F0BB0F40F4BF2B11F4B2
:1013500060FF04C06F5F7F4F8F4F9F4F089557FD11
:101360009058440F551F59F05F3F71F04795880F13
:1013700097FB991F61F09F3F79F0879508951216AA
:1013800013061406551FF2CF4695F1DF08C0161656
:1013900017061806991FF1CF869571056105089407
:1013A0000895E894BB2766277727CB0197F908951E
:1013B000A1E21A2EAA1BBB1BFD010DC0AA1FBB1F59
:1013C000EE1FFF1FA217B307E407F50720F0A21BCB
:1013D000B30BE40BF50B661F771F881F991F1A9438
:1013E00069F760957095809590959B01AC01BD0162
:1013F000CF010895EE0FFF1F0024001C0BBE0790C5
:10140000F691E02D09945058BB27AA270E941B0A89
:101410000C949E090E94900938F00E94970920F0D0
:1014200039F49F3F19F426F40C948D090EF4E095DD
:10143000E7FB0C948709E92F0E94AF0958F3BA170C
:10144000620773078407950720F079F4A6F50C94DA
:10145000D1090EF4E0950B2EBA2FA02D0B01B90186
:1014600090010C01CA01A0011124FF27591B99F01A
:10147000593F50F4503E68F11A16F040A22F232F26
:10148000342F4427585FF3CF469537952795A79576
:10149000F0405395C9F77EF41F16BA0B620B730B1D
:1014A000840BBAF09150A1F0FF0FBB1F661F771F8E
:1014B000881FC2F70EC0BA0F621F731F841F48F443
:1014C000879577956795B795F7959E3F08F0B0CFCC
:1014D0009395880F08F09927EE0F979587950895B3
:1014E0000E94840A0C949E090E94970958F00E9459
:1014F000900940F029F45F3F29F00C9487095111BD
:101500000C94D2090C948D090E94AF0968F39923B9
:10151000B1F3552391F3951B550BBB27AA276217EF
:101520007307840738F09F5F5F4F220F331F441FFC
:10153000AA1FA9F335D00E2E3AF0E0E832D0915030
:101540005040E695001CCAF72BD0FE2F29D0660F1D
:10155000771F881FBB1F261737074807AB07B0E860
:1015600009F0BB0B802DBF01FF2793585F4F3AF066
:101570009E3F510578F00C9487090C94D2095F3F87
:10158000E4F3983ED4F3869577956795B795F795EC
:101590009F5FC9F7880F911D9695879597F90895D4
:1015A000E1E0660F771F881FBB1F62177307840770
:1015B000BA0720F0621B730B840BBA0BEE1F88F77F
:1015C000E09508950E94B70988F09F5798F0B92FC9
:1015D0009927B751B0F0E1F0660F771F881F991F68
:1015E0001AF0BA95C9F714C0B13091F00E94D10930
:1015F000B1E008950C94D109672F782F8827B85F40
:1016000039F0B93FCCF3869577956795B395D9F7BF
:101610003EF490958095709561957F4F8F4F9F4FC9
:1016200008950E94F60808F48FEF089516F00C94C0
:101630006B0B0C948D0968940C9487090E94B70970
:10164000A8F39923C1F3AEF3DF93CF931F930F93C6
:10165000FF92C92FDD2788232AF02197660F771F75
:10166000881FDAF720E030E040E85FEB9FE388393D
:1016700020F0803E38F021968F770E94040AE4EE35
:10168000F0E004C00E94040AE1E1F1E00E94790B5D
:101690008B01BE01EC01FB2E6F5771097595771F09
:1016A000880B990B0E94BB0828E132E741E35FE316
:1016B0000E942D09AF2D9801AE01FF900F911F914F
:1016C000CF91DF910E941B0A0C949E090E94F6089C
:1016D000880B990B08959F3F31F0915020F4879526
:1016E00077956795B795880F911D9695879597F98A
:1016F0000895DF93CF931F930F93FF92EF92DF92A2
:101700007B018C01689406C0DA2EEF010E942D093E
:10171000FE01E894A5912591359145915591A6F347
:10172000EF010E941B0AFE019701A801DA9469F7F4
:10173000DF90EF90FF900F911F91CF91DF9108956F
:101740000F931F93CF93DF938230910510F482E0C3
:1017500090E0E0912F03F091300330E020E0B0E022
:10176000A0E0309799F42115310509F44AC0281BEF
:10177000390B24303105D8F58A819B8161157105BB
:1017800089F1FB0193838283FE0111C04081518165
:101790000281138148175907E0F04817590799F457
:1017A000109761F012960C93129713961C93329631
:1017B000CF01DF91CF911F910F91089500932F03D7
:1017C00010933003F4CF2115310551F04217530720
:1017D00038F0A901DB019A01BD01DF01F801C1CF99
:1017E000EF01F9CF9093300380932F03CDCFFE010B
:1017F000E20FF31F8193919322503109398328839B
:10180000D7CF20912D0330912E03232B41F420912B
:1018100004023091050230932E0320932D03209172
:101820000202309103022115310541F42DB73EB774
:101830004091060250910702241B350BE0912D03C5
:10184000F0912E03E217F307A0F42E1B3F0B28178D
:10185000390778F0AC014E5F5F4F2417350748F029
:101860004E0F5F1F50932E0340932D03819391934E
:101870009FCFF0E0E0E09CCFCF93DF930097E9F0BB
:10188000FC01329713821282A0912F03B091300392
:10189000ED0130E020E01097A1F420813181820F2A
:1018A000931F20912D0330912E032817390709F03B
:1018B00061C0F0932E03E0932D03DF91CF91089543
:1018C000EA01CE17DF07E8F54A815B819E014115E9
:1018D0005105B1F7E901FB83EA8349915991C40F9E
:1018E000D51FEC17FD0761F4808191810296840F6A
:1018F000951FE90199838883828193819B838A83E1
:10190000F0E0E0E012968D919C9113970097B9F565
:101910002D913C911197CD010296820F931F20913A
:101920002D0330912E032817390739F6309751F5DA
:101930001092300310922F03B0932E03A0932D0327
:10194000BCCFD383C28340815181840F951FC817B8
:10195000D90761F44E5F5F4F88819981480F591F05
:10196000518340838A819B81938382832115310532
:1019700009F0B0CFF0933003E0932F039ECFFD0129
:10198000DC01C0CF13821282D7CF4F925F926F9249
:101990007F928F929F92AF92BF92CF92DF92EF92FF
:1019A000FF920F931F93CF93DF938C01009799F4CD
:1019B000CB01DF91CF911F910F91FF90EF90DF90BE
:1019C000CF90BF90AF909F908F907F906F905F90DF
:1019D0004F900C94A00BFC01E60FF71F9C012250C6
:1019E0003109E217F30708F4AEC0D901CD91DC91BB
:1019F0001197C617D70720F1C530D10578F0CE0171
:101A000004978617970750F0C61BD70B2297C193F0
:101A1000D1936D937C93CF010E943C0CC801DF9160
:101A2000CF911F910F91FF90EF90DF90CF90BF90DB
:101A3000AF909F908F907F906F905F904F900895A0
:101A40005B01AC1ABD0A4C018C0E9D1EA0912F03A8
:101A5000B0913003512C412CF12CE12C109731F531
:101A600080912D0390912E038815990509F05CC093
:101A70004616570608F058C0809102029091030262
:101A8000009741F48DB79EB740910602509107022E
:101A9000841B950BE817F90708F055C0F0932E0347
:101AA000E0932D03F90171836083B8CF8D919C91F0
:101AB000119712966C90129713967C901397A81515
:101AC000B90559F56C0142E0C40ED11CCA14DB04FF
:101AD00020F1AC014A195B09DA011296159780F0E2
:101AE0006282738251834083D9016D937C93E114A8
:101AF000F10471F0D7011396FC93EE9312978ECFF9
:101B000022968C0F9D1FF90191838083F301EFCF03
:101B1000F0933003E0932F0381CF4816590608F461
:101B20002C017D01D3019ACFCB010E94A00B7C0137
:101B3000009749F0AE01B8010E94A60DC8010E94AD
:101B40003C0C87016BCF10E000E068CFFB01DC01AB
:101B500002C001900D9241505040D8F70895FB010A
:101B6000DC0101900D920020E1F7089510E0C0EA39
:101B7000D0E004C0FE010E94FA092196C13AD107C3
:061B8000C9F7F894FFCF45
:101B8600320000003103800000000000E3014D0137
:101B96007A013002AB0189019D016E616E00696EAA
:101BA60066006F766600507265737320656E7465A5
:101BB6007220746F20726561642076616C7565733E
:101BC600000D0A0078002C00793100793200793353
:101BD6000079340054310054320046696E697368E6
:061BE60065640020000010
:00000001FF
