:100000000C9474000C949E000C949E000C949E0022
:100010000C949E000C949E000C949E000C949E00E8
:100020000C949E000C949E000C949E000C949E00D8
:100030000C949E000C949E000C949E000C949E00C8
:100040000C949E000C949E000C949E000C949E00B8
:100050000C949E000C949E000C949E000C947202D2
:100060000C949E000C94E6020C94BC020C949E002E
:100070000C949E000C949E000C949E000C949E0088
:100080000C949E000C949E000C949E000C949E0078
:100090000C949E000C949E000C949E000C949E0068
:1000A0000C949E000C949E000C949E000C949E0058
:1000B0000C949E000C949E000C949E000C949E0048
:1000C0000C949E000C949E000C949E000C949E0038
:1000D0000C949E000C949E000C949E000C949E0028
:1000E0000C949E005803270611241FBECFEFD1E2C7
:1000F000DEBFCDBF23E0AEE5B2E001C01D92A3326A
:10010000B207E1F712E0A0E0B2E0E4E8F5E100E0D8
:100110000BBF02C007900D92AE35B107D9F710E0C2
:10012000C3E7D0E004C02197FE010E947E07C237DA
:10013000D107C9F70E9490030C94B50A0C940000F3
:100140003FB7F8948091720290917302A09174026B
:10015000B091750226B5A89B05C02F3F19F00196F6
:10016000A11DB11D3FBFBA2FA92F982F8827BC0111
:10017000CD01620F711D811D911D42E0660F771F39
:10018000881F991F4A95D1F70895AF92BF92CF92D9
:10019000DF92EF92FF920F931F93CF93DF936C0147
:1001A0007B018B01040F151FEB015E01AE18BF0828
:1001B000C017D10759F06991D601ED91FC910190DA
:1001C000F081E02DC6010995892B79F7C501DF91F2
:1001D000CF911F910F91FF90EF90DF90CF90BF9044
:1001E000AF900895FC01538D448D252F30E0842F6E
:1001F00090E0821B930B541710F0CF96089501974F
:100200000895FC01918D828D981761F0A28DAE0F3B
:10021000BF2FB11D5D968C91928D9F5F9F73928FC2
:1002200090E008958FEF9FEF0895FC01918D828DEE
:10023000981731F0828DE80FF11D858D90E00895BB
:100240008FEF9FEF0895FC01918D228D892F90E013
:10025000805C9F4F821B91098F739927089586E7D1
:1002600092E00E94230121E0892B09F420E0822FF3
:100270000895FC01A48DA80FB92FB11DA35ABF4F3B
:100280002C91848D90E001968F739927848FA68995
:10029000B7892C93A089B1898C91837080648C93E9
:1002A000938D848D981306C00288F389E02D808198
:1002B0008F7D80830895EF92FF920F931F93CF93CA
:1002C000DF93EC0181E0888F9B8D8C8D98131AC091
:1002D000E889F989808185FF15C09FB7F894EE8978
:1002E000FF896083E889F9898081837080648083D5
:1002F0009FBF81E090E0DF91CF911F910F91FF9020
:10030000EF900895F62E0B8D10E00F5F1F4F0F73C7
:100310001127E02E8C8D8E110CC00FB607FCFACF82
:10032000E889F989808185FFF5CFCE010E943901E6
:10033000F1CFEB8DEC0FFD2FF11DE35AFF4FF08253
:100340009FB7F8940B8FEA89FB8980818062CFCFB9
:10035000CF93DF93EC01888D8823B9F0AA89BB89FC
:10036000E889F9898C9185FD03C0808186FD0DC0E7
:100370000FB607FCF7CF8C9185FFF2CF808185FF08
:10038000EDCFCE010E943901E9CFDF91CF910895E1
:1003900080E090E0892B29F00E942F0181110E94BA
:1003A000000080E090E0892B49F080E090E0892B0C
:1003B00029F00E94000081110E94000080E090E07E
:1003C000892B49F080E090E0892B29F00E94000001
:1003D00081110E94000080E090E0892B49F080E0CC
:1003E00090E0892B29F00E94000081110C940000FC
:1003F0000895FC0101900020E9F73197AF01481BF7
:10040000590BBC0186E792E00C94C5008F929F9235
:10041000AF92BF920F931F93CF93DF93CDB7DEB709
:10042000A1970FB6F894DEBF0FBECDBF19A2423020
:1004300008F44AE08E010F5D1F4F842E912CB12CE1
:10044000A12CA50194010E945C07E62FB901CA0105
:10045000EA30F4F4E05DD801EE938D01232B242BD8
:10046000252B79F790E080E0109719F0CD010E94DC
:10047000F901A1960FB6F894DEBF0FBECDBFDF9194
:10048000CF911F910F91BF90AF909F908F90089543
:10049000E95CE1CF0F931F93CF93DF93EC01888149
:1004A0009981009759F02A813B812617370730F050
:1004B00081E0DF91CF911F910F9108958B016F5FC4
:1004C0007F4F0E94C409009759F0998388831B834A
:1004D0000A832C813D81232B59F7FC011082E8CF40
:1004E00080E0E7CF1F920F920FB60F9211242F9347
:1004F0003F938F939F93AF93BF9380916E029091A0
:100500006F02A0917002B091710230916D0223E0F0
:10051000230F2D3758F50196A11DB11D20936D02B3
:1005200080936E0290936F02A0937002B093710259
:100530008091720290917302A0917402B091750241
:100540000196A11DB11D8093720290937302A09336
:100550007402B0937502BF91AF919F918F913F91BB
:100560002F910F900FBE0F901F90189526E8230F24
:100570000296A11DB11DD2CF1F920F920FB60F92FE
:1005800011240BB60F922F933F934F935F936F936A
:100590007F938F939F93AF93BF93EF93FF9386E7E0
:1005A00092E00E943901FF91EF91BF91AF919F912D
:1005B0008F917F916F915F914F913F912F910F900C
:1005C0000BBE0F900FBE0F901F9018951F920F92A9
:1005D0000FB60F9211240BB60F922F938F939F9308
:1005E000EF93FF93E0918602F09187028081E09182
:1005F0008C02F0918D0282FD1DC0908180918F024E
:100600008F5F8F7320919002821741F0E0918F02EB
:10061000F0E0EA58FD4F958F80938F02FF91EF91A4
:100620009F918F912F910F900BBE0F900FBE0F9047
:100630001F9018958081F2CFEF92FF920F931F9336
:10064000CF93DF93EC017B01198218821B821A82FF
:100650001D821C82FB0101900020E9F731978F0178
:10066000061B170BB8010E944A02288139818111AB
:1006700013C02115310519F0C9010E943B091982E7
:1006800018821D821C821B821A82DF91CF911F91DA
:100690000F91FF90EF9008951D830C83B701C9015E
:1006A000DF91CF911F910F91FF90EF900C94AE0AC4
:1006B000E6E7F2E01382128288EE93E0A0E0B0E079
:1006C00084839583A683B7838AE092E091838083B5
:1006D00085EC90E09587848784EC90E09787868707
:1006E00080EC90E0918B808B81EC90E0938B828BFF
:1006F00082EC90E0958B848B86EC90E0978B868BD8
:10070000118E128E138E148E6FE472E089E193E0E5
:100710000E941C0368E172E083E193E00C941C03E7
:10072000CF93DF9300D0CDB7DEB7789484B58260E5
:1007300084BD84B5816084BD85B5826085BD85B585
:10074000816085BD80916E00816080936E00109203
:10075000810080918100826080938100809181007E
:10076000816080938100809180008160809380000F
:100770008091B10084608093B1008091B00081606D
:100780008093B0008091910082608093910080916D
:1007900091008160809391008091900081608093AE
:1007A00090008091A10082608093A1008091A100BF
:1007B00081608093A1008091A00081608093A0005F
:1007C00080912101826080932101809121018160CB
:1007D000809321018091200181608093200180918C
:1007E0007A00846080937A0080917A00826080939E
:1007F0007A0080917A00816080937A0080917A00FB
:10080000806880937A001092C100E0918602F09196
:10081000870282E08083E0918202F091830210825D
:10082000E0918402F09185028FEC808310928E0219
:10083000E0918A02F0918B0286E08083E091880249
:10084000F0918902808180618083E0918802F0913B
:100850008902808188608083E0918802F09189021A
:10086000808180688083E0918802F0918902808194
:100870008F7D808386E792E00E94A80182E392E068
:100880000E94F9018DE492E00E94F9011AE001E072
:1008900086E792E00E942301892B09F4D5C180915B
:1008A0006C02811104C086E792E00E94A80170E00A
:1008B00060E089E193E00E944A022091190330919F
:1008C0001A03811116C12115310519F0C9010E94C1
:1008D0003B0910921A031092190310921E031092F2
:1008E0001D0310921C0310921B0386E792E00E94E6
:1008F0002301181619060CF0A7C186E792E00E94A2
:1009000001018A3091F780916C02811102C000933D
:100910006C022FB7F89480916E0290916F02A091B3
:100920007002B09171022FBF8093680290936902A8
:10093000A0936A02B0936B022FB7F89480916E0275
:1009400090916F02A0917002B09171022FBF4091FF
:1009500068025091690260916A0270916B0284177B
:100960009507A607B70740F3B12C109263021092C7
:10097000620280917B00877F80937B008B2D806457
:1009800080937C0080917A00806480937A008091CB
:100990007A0086FDFCCF8091780060917900762FF7
:1009A000682F8091620290916302680F791F7093A3
:1009B000630260936202072E000C880B990B0E9461
:1009C0003F062AE038E240EA5BE30E949E066B01A4
:1009D0007C0120E030E040EA50E40E9495081816BF
:1009E0000CF491C0C0925E02D0925F02E09260026D
:1009F000F0926102C0905E02D0905F02E0906002CF
:100A0000F0906102A7019601C701B6010E949A0801
:100A1000882309F481C080E592E00E94F9018CE509
:100A200092E00E94F901B39424E0B2129ECF20E03C
:100A300030E040E85FE3609164027091650280916C
:100A40006602909167020E94880760936402709327
:100A5000650280936602909367028DE492E00E94A3
:100A6000F90119831A82E0901D03F0901E038FEFA5
:100A7000E81AF80AB70189E193E00E944A02882344
:100A800099F02091190330911A0380911D039091E0
:100A90001E03BE016F5F7F4F820F931F0E94AE0A3D
:100AA000F0921E03E0921D030E94A0004B015C0126
:100AB0008AE0C82ED12CE12CF12C0E94A0006819EC
:100AC00079098A099B09683E734081059105A8F35D
:100AD00021E0C21AD108E108F10888EE880E83E00F
:100AE000981EA11CB11CC114D104E104F10429F722
:100AF000FCCE10921E0310921D036FE472E0C90138
:100B00000E94AE0AF2CE10925E0210925F02109224
:100B10006002109261026ECF26013701E89477F8E7
:100B20002FEF3FEF4FE75FE7C301B2010E949A0842
:100B300081110DC02FEF3FEF4FE75FE7C301B20117
:100B40000E94380618161CF484E592E066CF2FEF59
:100B50003FEF4FE75FE4C701B6010E949508181602
:100B60001CF488E592E059CF2FEF3FEF4FE75FECA1
:100B7000C701B6010E94380687FDF3CF20E030E0C0
:100B8000A901C701B6010E94380687FF09C06DE2BE
:100B900086E792E00E945B01F7FAF094F7F8F09490
:100BA0002AE0A22E60E070E080E09FE320E030E0E9
:100BB00040E251E40E94F407AA94A110F7CFA701E4
:100BC00096010E9488076B017C010E9466082B0138
:100BD0003C010E943D069B01AC01C701B6010E9489
:100BE00087076B017C014AE0C301B2010E94060243
:100BF0006EE286E792E00E945B019BE0A92EAA9438
:100C0000AA2009F40CCF20E030E040E251E4C70113
:100C1000B6010E949E062B013C010E9466086B01F2
:100C2000F12CE12C4AE0C701B6010E940602C7017F
:100C3000B6010E943D069B01AC01C301B2010E94B6
:100C400087076B017C01DBCF0E94C80121CE809118
:100C5000130390911403009711F00E943B098091B7
:100C6000190390911A03009711F00C943B09089511
:100C70000E947A0608F481E00895E89409C097FB81
:100C80003EF490958095709561957F4F8F4F9F4F63
:100C90009923A9F0F92F96E9BB279395F6958795A7
:100CA00077956795B795F111F8CFFAF4BB0F11F46A
:100CB00060FF1BC06F5F7F4F8F4F9F4F16C0882311
:100CC00011F096E911C0772321F09EE8872F762F47
:100CD00005C0662371F096E8862F70E060E02AF088
:100CE0009A95660F771F881FDAF7880F9695879574
:100CF00097F90895990F0008550FAA0BE0E8FEEF49
:100D000016161706E807F907C0F012161306E407CF
:100D1000F50798F0621B730B840B950B39F40A26C8
:100D200061F0232B242B252B21F408950A2609F4A6
:100D3000A140A6958FEF811D811D08950E94B106E7
:100D40000C9422070E94140738F00E941B0720F021
:100D5000952311F00C940B070C94110711240C949B
:100D600056070E94330770F3959FC1F3950F50E02B
:100D7000551F629FF001729FBB27F00DB11D639F4D
:100D8000AA27F00DB11DAA1F649F6627B00DA11DF3
:100D9000661F829F2227B00DA11D621F739FB00D99
:100DA000A11D621F839FA00D611D221F749F332709
:100DB000A00D611D231F849F600D211D822F762FA2
:100DC0006A2F11249F5750409AF0F1F088234AF07F
:100DD000EE0FFF1FBB1F661F771F881F91505040EB
:100DE000A9F79E3F510580F00C940B070C94560711
:100DF0005F3FE4F3983ED4F3869577956795B79572
:100E0000F795E7959F5FC1F7FE2B880F911D96958B
:100E1000879597F9089597F99F6780E870E060E0FB
:100E200008959FEF80EC089500240A941616170683
:100E300018060906089500240A94121613061406CB
:100E400005060895092E0394000C11F4882352F02E
:100E5000BB0F40F4BF2B11F460FF04C06F5F7F4FE6
:100E60008F4F9F4F089557FD9058440F551F59F0CD
:100E70005F3F71F04795880F97FB991F61F09F3F87
:100E800079F087950895121613061406551FF2CFB0
:100E90004695F1DF08C0161617061806991FF1CF00
:100EA00086957105610508940895E894BB27662727
:100EB0007727CB0197F90895A1E21A2EAA1BBB1B35
:100EC000FD010DC0AA1FBB1FEE1FFF1FA217B30716
:100ED000E407F50720F0A21BB30BE40BF50B661F2C
:100EE000771F881F991F1A9469F7609570958095F0
:100EF00090959B01AC01BD01CF010895EE0FFF1F3E
:100F00000024001C0BBE0790F691E02D0994505868
:100F1000BB27AA270E949F070C9422070E94140750
:100F200038F00E941B0720F039F49F3F19F426F493
:100F30000C9411070EF4E095E7FB0C940B07E92FD6
:100F40000E94330758F3BA1762077307840795079F
:100F500020F079F4A6F50C9455070EF4E0950B2ECD
:100F6000BA2FA02D0B01B90190010C01CA01A001FB
:100F70001124FF27591B99F0593F50F4503E68F156
:100F80001A16F040A22F232F342F4427585FF3CF97
:100F9000469537952795A795F0405395C9F77EF468
:100FA0001F16BA0B620B730B840BBAF09150A1F0B1
:100FB000FF0FBB1F661F771F881FC2F70EC0BA0F37
:100FC000621F731F841F48F4879577956795B795BF
:100FD000F7959E3F08F0B0CF9395880F08F09927BA
:100FE000EE0F9795879508950E9408080C942207A4
:100FF0000E941B0758F00E94140740F029F45F3F3D
:1010000029F00C940B0751110C9456070C941107FE
:101010000E94330768F39923B1F3552391F3951B8D
:10102000550BBB27AA2762177307840738F09F5F09
:101030005F4F220F331F441FAA1FA9F335D00E2E76
:101040003AF0E0E832D091505040E695001CCAF7E3
:101050002BD0FE2F29D0660F771F881FBB1F2617A6
:1010600037074807AB07B0E809F0BB0B802DBF017D
:10107000FF2793585F4F3AF09E3F510578F00C944C
:101080000B070C9456075F3FE4F3983ED4F3869524
:1010900077956795B795F7959F5FC9F7880F911D6D
:1010A0009695879597F90895E1E0660F771F881F59
:1010B000BB1F621773078407BA0720F0621B730B0C
:1010C000840BBA0BEE1F88F7E09508950E943B074A
:1010D00088F09F5798F0B92F9927B751B0F0E1F0F9
:1010E000660F771F881F991F1AF0BA95C9F714C0A9
:1010F000B13091F00E945507B1E008950C94550766
:10110000672F782F8827B85F39F0B93FCCF38695E1
:1011100077956795B395D9F73EF49095809570953E
:1011200061957F4F8F4F9F4F08950E947A0608F474
:101130008FEF08950E947A06880B990B08950F93FC
:101140001F93CF93DF938230910510F482E090E0FB
:10115000E0912103F091220330E020E0B0E0A0E034
:10116000309799F42115310509F44AC0281B390B31
:1011700024303105D8F58A819B816115710589F18B
:10118000FB0193838283FE0111C040815181028162
:10119000138148175907E0F04817590799F4109739
:1011A00061F012960C93129713961C933296CF010E
:1011B000DF91CF911F910F91089500932103109318
:1011C0002203F4CF2115310551F04217530738F0AF
:1011D000A901DB019A01BD01DF01F801C1CFEF01D7
:1011E000F9CF9093220380932103CDCFFE01E20F2C
:1011F000F31F819391932250310939832883D7CFEC
:1012000020911F0330912003232B41F420910202EF
:10121000309103023093200320931F03209100029A
:10122000309101022115310541F42DB73EB74091AF
:10123000040250910502241B350BE0911F03F0912D
:101240002003E217F307A0F42E1B3F0B28173907E2
:1012500078F0AC014E5F5F4F2417350748F04E0F12
:101260005F1F5093200340931F03819391939FCF5F
:10127000F0E0E0E09CCFCF93DF930097E9F0FC0132
:10128000329713821282A0912103B0912203ED01C3
:1012900030E020E01097A1F420813181820F931F6C
:1012A00020911F03309120032817390709F061C0EE
:1012B000F0932003E0931F03DF91CF910895EA019B
:1012C000CE17DF07E8F54A815B819E014115510584
:1012D000B1F7E901FB83EA8349915991C40FD51F06
:1012E000EC17FD0761F4808191810296840F951FB0
:1012F000E90199838883828193819B838A83F0E0CB
:10130000E0E012968D919C9113970097B9F52D917D
:101310003C911197CD010296820F931F20911F03DC
:10132000309120032817390739F6309751F510927C
:10133000220310922103B0932003A0931F03BCCF7C
:10134000D383C28340815181840F951FC817D90769
:1013500061F44E5F5F4F88819981480F591F518317
:1013600040838A819B81938382832115310509F013
:10137000B0CFF0932203E09321039ECFFD01DC0167
:10138000C0CF13821282D7CF4F925F926F927F921B
:101390008F929F92AF92BF92CF92DF92EF92FF9285
:1013A0000F931F93CF93DF938C01009799F4CB0198
:1013B000DF91CF911F910F91FF90EF90DF90CF9031
:1013C000BF90AF909F908F907F906F905F904F9065
:1013D0000C949F08FC01E60FF71F9C012250310975
:1013E000E217F30708F4AEC0D901CD91DC91119753
:1013F000C617D70720F1C530D10578F0CE01049784
:101400008617970750F0C61BD70B2297C193D1932D
:101410006D937C93CF010E943B09C801DF91CF916E
:101420001F910F91FF90EF90DF90CF90BF90AF9002
:101430009F908F907F906F905F904F9008955B0189
:10144000AC1ABD0A4C018C0E9D1EA0912103B091D7
:101450002203512C412CF12CE12C109731F5809175
:101460001F03909120038815990509F05CC046166A
:10147000570608F058C08091000290910102009731
:1014800041F48DB79EB74091040250910502841B30
:10149000950BE817F90708F055C0F0932003E09387
:1014A0001F03F90171836083B8CF8D919C911197CF
:1014B00012966C90129713967C901397A815B90505
:1014C00059F56C0142E0C40ED11CCA14DB0420F1B2
:1014D000AC014A195B09DA011296159780F0628215
:1014E000738251834083D9016D937C93E114F1049D
:1014F00071F0D7011396FC93EE9312978ECF22963C
:101500008C0F9D1FF90191838083F301EFCFF0933E
:101510002203E093210381CF4816590608F42C01D9
:101520007D01D3019ACFCB010E949F087C010097D7
:1015300049F0AE01B8010E94A50AC8010E943B090A
:1015400087016BCF10E000E068CFFB01DC0102C037
:1015500001900D9241505040D8F70895FB01DC01F5
:1015600001900D920020E1F7089510E0C3E7D0E06C
:1015700004C0FE010E947E072196C437D107C9F737
:04158000F894FFCF0D
:10158400000023038000000000005B01C500F2009E
:10159400A8012301010115014E6F206F6E652070B3
:1015A4006172616D657465722073656C65637465E1
:1015B4006400507265737320656E74657220746F75
:1015C40020726561642076616C756573000D0A0094
:0E15D4006E616E00696E66006F766600200024
:00000001FF
