:100000000C9474000C949E000C949E000C949E0022
:100010000C949E000C949E000C949E000C949E00E8
:100020000C949E000C949E000C949E000C949E00D8
:100030000C949E000C949E000C949E000C949E00C8
:100040000C949E000C949E000C949E000C949E00B8
:100050000C949E000C949E000C949E000C947802CC
:100060000C949E000C94EC020C94C2020C949E0022
:100070000C949E000C949E000C949E000C949E0088
:100080000C949E000C949E000C949E000C949E0078
:100090000C949E000C949E000C949E000C949E0068
:1000A0000C949E000C949E000C949E000C949E0058
:1000B0000C949E000C949E000C949E000C949E0048
:1000C0000C949E000C949E000C949E000C949E0038
:1000D0000C949E000C949E000C949E000C949E0028
:1000E0000C949E002203390611241FBECFEFD1E2EB
:1000F000DEBFCDBF23E0A4E4B2E001C01D92A73073
:10010000B207E1F712E0A0E0B2E0E8E9F5E100E0D3
:100110000BBF02C007900D92A434B107D9F710E0CD
:10012000C3E7D0E004C02197FE010E948807C237D0
:10013000D107C9F70E9496030C94BF0A0C940000E3
:100140003FB7F89480915C0290915D02A0915E02AD
:10015000B0915F0226B5A89B05C02F3F19F001960C
:10016000A11DB11D3FBFBA2FA92F982F8827BC0111
:10017000CD01620F711D811D911D42E0660F771F39
:10018000881F991F4A95D1F70895AF92BF92CF92D9
:10019000DF92EF92FF920F931F93CF93DF936C0147
:1001A0007B018B01040F151FEB015E01AE18BF0828
:1001B000C017D10759F06991D601ED91FC910190DA
:1001C000F081E02DC6010995892B79F7C501DF91F2
:1001D000CF911F910F91FF90EF90DF90CF90BF9044
:1001E000AF900895FC01538D448D252F30E0842F6E
:1001F00090E0821B930B541710F0CF96089501974F
:100200000895FC01918D828D981761F0A28DAE0F3B
:10021000BF2FB11D5D968C91928D9F5F9F73928FC2
:1002200090E008958FEF9FEF0895FC01918D828DEE
:10023000981731F0828DE80FF11D858D90E00895BB
:100240008FEF9FEF0895FC01918D228D892F90E013
:10025000805C9F4F821B91098F739927089580E6D8
:1002600092E00E94230121E0892B09F420E0822FF3
:100270000895FC01A48DA80FB92FB11DA35ABF4F3B
:100280002C91848D90E001968F739927848FA68995
:10029000B7892C93A089B1898C91837080648C93E9
:1002A000938D848D981306C00288F389E02D808198
:1002B0008F7D80830895EF92FF920F931F93CF93CA
:1002C000DF93EC0181E0888F9B8D8C8D98131AC091
:1002D000E889F989808185FF15C09FB7F894EE8978
:1002E000FF896083E889F9898081837080648083D5
:1002F0009FBF81E090E0DF91CF911F910F91FF9020
:10030000EF900895F62E0B8D10E00F5F1F4F0F73C7
:100310001127E02E8C8D8E110CC00FB607FCFACF82
:10032000E889F989808185FFF5CFCE010E943901E6
:10033000F1CFEB8DEC0FFD2FF11DE35AFF4FF08253
:100340009FB7F8940B8FEA89FB8980818062CFCFB9
:10035000CF93DF93EC01888D8823B9F0AA89BB89FC
:10036000E889F9898C9185FD03C0808186FD0DC0E7
:100370000FB607FCF7CF8C9185FFF2CF808185FF08
:10038000EDCFCE010E943901E9CFDF91CF910895E1
:1003900080E090E0892B29F00E942F0181110E94BA
:1003A000000080E090E0892B49F080E090E0892B0C
:1003B00029F00E94000081110E94000080E090E07E
:1003C000892B49F080E090E0892B29F00E94000001
:1003D00081110E94000080E090E0892B49F080E0CC
:1003E00090E0892B29F00E94000081110C940000FC
:1003F0000895FC0101900020E9F73197AF01481BF7
:10040000590BBC0180E692E00C94C5008F929F923C
:10041000AF92BF920F931F93CF93DF93CDB7DEB709
:10042000A1970FB6F894DEBF0FBECDBF19A2423020
:1004300008F44AE08E010F5D1F4F842E912CB12CE1
:10044000A12CA50194010E946607E62FB901CA01FB
:10045000EA30F4F4E05DD801EE938D01232B242BD8
:10046000252B79F790E080E0109719F0CD010E94DC
:10047000F901A1960FB6F894DEBF0FBECDBFDF9194
:10048000CF911F910F91BF90AF909F908F90089543
:10049000E95CE1CFCF93DF93EC018091FD02909175
:1004A000FE02009759F02091FF02309100032C17B3
:1004B0003D0720F081E0DF91CF910895BE016F5F8D
:1004C0007F4F0E94CE09009789F09093FE0280939F
:1004D000FD02D0930003C093FF02209101033091ED
:1004E0000203232B39F7FC011082E4CF80E0E3CF35
:1004F0001F920F920FB60F9211242F933F938F9359
:100500009F93AF93BF938091580290915902A0910D
:100510005A02B0915B023091570223E0230F2D372E
:1005200058F50196A11DB11D2093570280935802E2
:1005300090935902A0935A02B0935B0280915C029F
:1005400090915D02A0915E02B0915F020196A11DA3
:10055000B11D80935C0290935D02A0935E02B09304
:100560005F02BF91AF919F918F913F912F910F901B
:100570000FBE0F901F90189526E8230F0296A11D1D
:10058000B11DD2CF1F920F920FB60F9211240BB64E
:100590000F922F933F934F935F936F937F938F931C
:1005A0009F93AF93BF93EF93FF9380E692E00E94F7
:1005B0003901FF91EF91BF91AF919F918F917F9101
:1005C0006F915F914F913F912F910F900BBE0F90C4
:1005D0000FBE0F901F9018951F920F920FB60F929B
:1005E00011240BB60F922F938F939F93EF93FF934A
:1005F000E0917002F09171028081E0917602F091B9
:10060000770282FD1DC09081809179028F5F8F7388
:1006100020917A02821741F0E0917902F0E0E05AED
:10062000FD4F958F80937902FF91EF919F918F916C
:100630002F910F900BBE0F900FBE0F901F9018952B
:100640008081F2CF109263021092620288EE93E0F2
:10065000A0E0B0E08093640290936502A0936602EC
:10066000B09367028AE092E0909361028093600207
:1006700085EC90E090936D0280936C0284EC90E0A6
:1006800090936F0280936E0280EC90E090937102E1
:100690008093700281EC90E09093730280937202D9
:1006A00082EC90E0909375028093740286EC90E067
:1006B00090937702809376021092790210927A02D8
:1006C00010927B0210927C021092FE021092FD02A8
:1006D000109200031092FF02109202031092010385
:1006E00090E080E00E944A022091FD023091FE02DB
:1006F000811113C02115310519F0C9010E94450966
:100700001092FE021092FD02109202031092010359
:10071000109200031092FF020895109202031092AB
:10072000010365E372E0C9010C94B80ACF93DF932B
:1007300000D0CDB7DEB7789484B5826084BD84B52F
:10074000816084BD85B5826085BD85B5816085BDCC
:1007500080916E00816080936E0010928100809184
:10076000810082608093810080918100816080930C
:100770008100809180008160809380008091B10031
:1007800084608093B1008091B00081608093B0005C
:1007900080919100826080939100809191008160AE
:1007A000809391008091900081608093900080916F
:1007B000A10082608093A1008091A100816080935C
:1007C000A1008091A00081608093A0008091210110
:1007D00082608093210180912101816080932101B9
:1007E0008091200181608093200180917A00846053
:1007F00080937A0080917A00826080937A00809161
:100800007A00816080937A0080917A00806880937A
:100810007A001092C100E0917002F091710282E0C2
:100820008083E0916C02F0916D021082E0916E0283
:10083000F0916F028FEC808310927802E091740245
:10084000F091750286E08083E0917202F09173026C
:10085000808180618083E0917202F09173028081D7
:1008600088608083E0917202F091730280818068D9
:100870008083E0917202F091730280818F7D80838A
:1008800080E692E00E94A80188E192E00E94F901CE
:1008900083E392E00E94F9011AE001E080E692E031
:1008A0000E942301892B09F4E1C180915602811134
:1008B00004C080E692E00E94A80190E080E00E94DF
:1008C0004A022091FD023091FE02811124C12115BE
:1008D000310519F0C9010E9445091092FE021092DB
:1008E000FD02109202031092010310920003109275
:1008F000FF0280E692E00E942301181619060CF010
:10090000B5C180E692E00E9401018A3091F78091A2
:100910005602811112C000935602809152029091AA
:100920005302A0915402B091550280934E029093CD
:100930004F02A0935002B09351022FB7F8948091C8
:10094000580290915902A0915A02B0915B022FBFB8
:1009500080934A0290934B02A0934C02B0934D02B5
:100960002FB7F8948091580290915902A0915A02A1
:10097000B0915B022FBF40914A0250914B026091AF
:100980004C0270914D0284179507A607B70740F3F4
:10099000B12C109249021092480280917B00877F0F
:1009A00080937B008B2D806480937C0080917A0003
:1009B000806480937A0080917A0086FDFCCF8091DC
:1009C000780060917900762F682F8091480290918D
:1009D0004902680F791F7093490260934802072EFD
:1009E000000C880B990B0E9449062AE038E240EA85
:1009F0005BE30E94A8066B017C0120E030E040EA46
:100A000050E40E949F0818160CF48FC0C092440254
:100A1000D0924502E0924602F0924702C090440212
:100A2000D0904502E0904602F0904702A70196015F
:100A3000C701B6010E94A408882309F47FC086E399
:100A400092E00E94F90182E492E00E94F901B394DD
:100A500024E0B2129ECF20E030E040E85FE36091F6
:100A600052027091530280915402909155020E945B
:100A700092076093520270935302809354029093B2
:100A8000550283E392E00E94F90119831A82E090F3
:100A90000103F09002038FEFE81AF80AC7010E94E1
:100AA0004A02882399F02091FD023091FE02809144
:100AB000010390910203BE016F5F7F4F820F931F6E
:100AC0000E94B80AF0920203E09201030E94A00083
:100AD0004B015C018AE0C82ED12CE12CF12C0E9444
:100AE000A000681979098A099B09683E734081054D
:100AF0009105A8F321E0C21AD108E108F10888EEB7
:100B0000880E83E0981EA11CB11CC114D104E1041D
:100B1000F10429F7EECE109202031092010365E36F
:100B200072E0C9010E94B80AE4CE10924402109209
:100B30004502109246021092470270CF26013701FB
:100B4000E89477F82FEF3FEF4FE75FE7C301B2017B
:100B50000E94A40881110DC02FEF3FEF4FE75FE720
:100B6000C301B2010E94420618161CF48AE392E007
:100B700068CF2FEF3FEF4FE75FE4C701B6010E9458
:100B80009F0818161CF48EE392E05BCF2FEF3FEF27
:100B90004FE75FECC701B6010E94420687FDF3CF25
:100BA00020E030E0A901C701B6010E94420687FF9C
:100BB00009C06DE280E692E00E945B01F7FAF094D2
:100BC000F7F8F0942AE0A22E60E070E080E09FE366
:100BD00020E030E040E251E40E94FE07AA94A11018
:100BE000F7CFA70196010E9492076B017C010E943A
:100BF00070082B013C010E9447069B01AC01C70114
:100C0000B6010E9491076B017C014AE0C301B20169
:100C10000E9406026EE280E692E00E945B019BE089
:100C2000A92EAA94AA2009F40ECF20E030E040E2D9
:100C300051E4C701B6010E94A8062B013C010E94A5
:100C400070086B01F12CE12C4AE0C701B6010E944B
:100C50000602C701B6010E9447069B01AC01C30111
:100C6000B2010E9491076B017C01DBCF0E94C80199
:100C700015CE8091FD029091FE02009711F00C9428
:100C8000450908950E94840608F481E00895E894D7
:100C900009C097FB3EF490958095709561957F4FC4
:100CA0008F4F9F4F9923A9F0F92F96E9BB27939572
:100CB000F695879577956795B795F111F8CFFAF482
:100CC000BB0F11F460FF1BC06F5F7F4F8F4F9F4FB3
:100CD00016C0882311F096E911C0772321F09EE811
:100CE000872F762F05C0662371F096E8862F70E077
:100CF00060E02AF09A95660F771F881FDAF7880F51
:100D00009695879597F90895990F0008550FAA0BA6
:100D1000E0E8FEEF16161706E807F907C0F012160E
:100D20001306E407F50798F0621B730B840B950B11
:100D300039F40A2661F0232B242B252B21F4089566
:100D40000A2609F4A140A6958FEF811D811D089503
:100D50000E94BB060C942C070E941E0738F00E94CC
:100D6000250720F0952311F00C9415070C941B0710
:100D700011240C9460070E943D0770F3959FC1F306
:100D8000950F50E0551F629FF001729FBB27F00D39
:100D9000B11D639FAA27F00DB11DAA1F649F66278E
:100DA000B00DA11D661F829F2227B00DA11D621FDD
:100DB000739FB00DA11D621F839FA00D611D221F97
:100DC000749F3327A00D611D231F849F600D211D7B
:100DD000822F762F6A2F11249F5750409AF0F1F0FE
:100DE00088234AF0EE0FFF1FBB1F661F771F881F67
:100DF00091505040A9F79E3F510580F00C94150783
:100E00000C9460075F3FE4F3983ED4F386957795A2
:100E10006795B795F795E7959F5FC1F7FE2B880F0C
:100E2000911D9695879597F9089597F99F6780E8A2
:100E300070E060E008959FEF80EC089500240A942C
:100E40001616170618060906089500240A941216A5
:100E50001306140605060895092E0394000C11F4D8
:100E6000882352F0BB0F40F4BF2B11F460FF04C085
:100E70006F5F7F4F8F4F9F4F089557FD9058440FDE
:100E8000551F59F05F3F71F04795880F97FB991FE9
:100E900061F09F3F79F087950895121613061406A6
:100EA000551FF2CF4695F1DF08C016161706180633
:100EB000991FF1CF86957105610508940895E8940E
:100EC000BB2766277727CB0197F90895A1E21A2E51
:100ED000AA1BBB1BFD010DC0AA1FBB1FEE1FFF1FDE
:100EE000A217B307E407F50720F0A21BB30BE40B2E
:100EF000F50B661F771F881F991F1A9469F7609575
:100F00007095809590959B01AC01BD01CF0108952E
:100F1000EE0FFF1F0024001C0BBE0790F691E02D82
:100F200009945058BB27AA270E94A9070C942C07A4
:100F30000E941E0738F00E94250720F039F49F3FD9
:100F400019F426F40C941B070EF4E095E7FB0C94BF
:100F50001507E92F0E943D0758F3BA176207730778
:100F60008407950720F079F4A6F50C945F070EF43A
:100F7000E0950B2EBA2FA02D0B01B90190010C01A9
:100F8000CA01A0011124FF27591B99F0593F50F4C1
:100F9000503E68F11A16F040A22F232F342F442719
:100FA000585FF3CF469537952795A795F040539511
:100FB000C9F77EF41F16BA0B620B730B840BBAF0E1
:100FC0009150A1F0FF0FBB1F661F771F881FC2F74C
:100FD0000EC0BA0F621F731F841F48F48795779560
:100FE0006795B795F7959E3F08F0B0CF9395880F1A
:100FF00008F09927EE0F9795879508950E9412089B
:101000000C942C070E94250758F00E941E0740F000
:1010100029F45F3F29F00C94150751110C946007D7
:101020000C941B070E943D0768F39923B1F35523E5
:1010300091F3951B550BBB27AA27621773078407EB
:1010400038F09F5F5F4F220F331F441FAA1FA9F381
:1010500035D00E2E3AF0E0E832D091505040E6956F
:10106000001CCAF72BD0FE2F29D0660F771F881FD0
:10107000BB1F261737074807AB07B0E809F0BB0BC3
:10108000802DBF01FF2793585F4F3AF09E3F5105D7
:1010900078F00C9415070C9460075F3FE4F3983EDA
:1010A000D4F3869577956795B795F7959F5FC9F7C0
:1010B000880F911D9695879597F90895E1E0660F41
:1010C000771F881FBB1F621773078407BA0720F0BA
:1010D000621B730B840BBA0BEE1F88F7E095089523
:1010E0000E94450788F09F5798F0B92F9927B7516C
:1010F000B0F0E1F0660F771F881F991F1AF0BA95BC
:10110000C9F714C0B13091F00E945F07B1E00895B3
:101110000C945F07672F782F8827B85F39F0B93FA5
:10112000CCF3869577956795B395D9F73EF490956E
:101130008095709561957F4F8F4F9F4F08950E94C6
:10114000840608F48FEF08950E948406880B990B9B
:1011500008950F931F93CF93DF938230910510F47E
:1011600082E090E0E0910503F091060330E020E09A
:10117000B0E0A0E0309799F42115310509F44AC098
:10118000281B390B24303105D8F58A819B816115E4
:10119000710589F1FB0193838283FE0111C04081B7
:1011A00051810281138148175907E0F04817590708
:1011B00099F4109761F012960C93129713961C9362
:1011C0003296CF01DF91CF911F910F910895009337
:1011D000050310930603F4CF2115310551F0421792
:1011E000530738F0A901DB019A01BD01DF01F801C5
:1011F000C1CFEF01F9CF9093060380930503CDCFC4
:10120000FE01E20FF31F819391932250310939833C
:101210002883D7CF2091030330910403232B41F47B
:1012200020910202309103023093040320930303C0
:1012300020910002309101022115310541F42DB7B2
:101240003EB74091040250910502241B350BE091FA
:101250000303F0910403E217F307A0F42E1B3F0BE6
:101260002817390778F0AC014E5F5F4F2417350718
:1012700048F04E0F5F1F5093040340930303819384
:1012800091939FCFF0E0E0E09CCFCF93DF93009766
:10129000E9F0FC01329713821282A0910503B0910C
:1012A0000603ED0130E020E01097A1F420813181A8
:1012B000820F931F209103033091040328173907ED
:1012C00009F061C0F0930403E0930303DF91CF9131
:1012D0000895EA01CE17DF07E8F54A815B819E0198
:1012E00041155105B1F7E901FB83EA834991599111
:1012F000C40FD51FEC17FD0761F480819181029620
:10130000840F951FE90199838883828193819B8350
:101310008A83F0E0E0E012968D919C9113970097FC
:10132000B9F52D913C911197CD010296820F931F33
:1013300020910303309104032817390739F63097B9
:1013400051F51092060310920503B0930403A09385
:101350000303BCCFD383C28340815181840F951F87
:10136000C817D90761F44E5F5F4F88819981480F94
:10137000591F518340838A819B81938382832115E6
:10138000310509F0B0CFF0930603E09305039ECF3B
:10139000FD01DC01C0CF13821282D7CF4F925F9242
:1013A0006F927F928F929F92AF92BF92CF92DF9275
:1013B000EF92FF920F931F93CF93DF938C010097CF
:1013C00099F4CB01DF91CF911F910F91FF90EF9096
:1013D000DF90CF90BF90AF909F908F907F906F9055
:1013E0005F904F900C94A908FC01E60FF71F9C0139
:1013F00022503109E217F30708F4AEC0D901CD91AC
:10140000DC911197C617D70720F1C530D10578F0C8
:10141000CE0104978617970750F0C61BD70B22976B
:10142000C193D1936D937C93CF010E944509C8016C
:10143000DF91CF911F910F91FF90EF90DF90CF90B0
:10144000BF90AF909F908F907F906F905F904F90E4
:1014500008955B01AC1ABD0A4C018C0E9D1EA09133
:101460000503B0910603512C412CF12CE12C10976F
:1014700031F580910303909104038815990509F0D3
:101480005CC04616570608F058C080910002909143
:101490000102009741F48DB79EB74091040250912C
:1014A0000502841B950BE817F90708F055C0F09367
:1014B0000403E0930303F90171836083B8CF8D9136
:1014C0009C91119712966C90129713967C9013979B
:1014D000A815B90559F56C0142E0C40ED11CCA1417
:1014E000DB0420F1AC014A195B09DA011296159769
:1014F00080F06282738251834083D9016D937C9323
:10150000E114F10471F0D7011396FC93EE93129756
:101510008ECF22968C0F9D1FF90191838083F3015A
:10152000EFCFF0930603E093050381CF48165906E9
:1015300008F42C017D01D3019ACFCB010E94A908A8
:101540007C01009749F0AE01B8010E94AF0AC801C2
:101550000E94450987016BCF10E000E068CFFB01D6
:10156000DC0102C001900D9241505040D8F708951F
:10157000FB01DC0101900D920020E1F7089510E0DD
:10158000C3E7D0E004C0FE010E9488072196C4375B
:08159000D107C9F7F894FFCF61
:10159800000007038000000000005B01C500F200A6
:1015A800A801230101011501507265737320656E4E
:1015B80074657220746F20726561642076616C7541
:1015C8006573000D0A006E616E00696E66006F76C5
:0415D8006600200089
:00000001FF
