:100000000C94A1000C94CB000C94CB000C94CB006E
:100010000C94CB000C94CB000C94CB000C94CB0034
:100020000C94CB000C94CB000C94CB000C94CB0024
:100030000C94CB000C94CB000C94CB000C94CB0014
:100040000C94CB000C94CB000C94CB000C94CB0004
:100050000C94CB000C94CB000C94CB000C94E103DB
:100060000C94CB000C9455040C942B040C94CB00F2
:100070000C94CB000C94CB000C94CB000C94CB00D4
:100080000C94CB000C94CB000C94CB000C94CB00C4
:100090000C94CB000C94CB000C94CB000C94CB00B4
:1000A0000C94CB000C94CB000C94CB000C94CB00A4
:1000B0000C94CB000C94CB000C94CB000C94CB0094
:1000C0000C94CB000C94CB000C94CB000C94CB0084
:1000D0000C94CB000C94CB000C94CB000C94CB0074
:1000E0000C94CB0008000000BE922449123EABAA3B
:1000F000AA2ABECDCCCC4C3E00000080BEABAAAA42
:10010000AA3E00000000BF000000803F0000000089
:1001100000084178D3BB4387D1133D190E3CC3BDC2
:100120004282AD2B3E68EC8276BED98FE1A93E4C6F
:1001300080EFFFBE01C4FF7F3F00000000008B0482
:100140005E0811241FBECFEFD1E2DEBFCDBF23E09A
:10015000AEE6B2E001C01D92A333B207E1F712E0B0
:10016000A0E0B2E0ECEEFAE100E00BBF02C00790C5
:100170000D92AE36B107D9F710E0C0EAD0E004C066
:100180002197FE010E94AD09CF39D107C9F70E941E
:10019000FF040C94690D0C940000863308F086531C
:1001A00020917B00982F9870277F922B90937B0053
:1001B0008770806480937C0080917A008064809353
:1001C0007A0080917A0086FDFCCF80917800909132
:1001D000790008953FB7F894809188029091890240
:1001E000A0918A02B0918B0226B5A89B05C02F3F33
:1001F00019F00196A11DB11D3FBFBA2FA92F982F4D
:100200008827BC01CD01620F711D811D911D42E047
:10021000660F771F881F991F4A95D1F708958F920F
:100220009F92AF92BF92CF92DF92EF92FF920E9485
:10023000EA004B015C018AE0C82ED12CE12CF12CA4
:100240000E94EA00681979098A099B09683E73408F
:1002500081059105A8F321E0C21AD108E108F1084F
:1002600088EE880E83E0981EA11CB11CC114D10435
:10027000E104F10429F7FF90EF90DF90CF90BF9059
:10028000AF909F908F9008952FB7F894609184025B
:100290007091850280918602909187022FBF089508
:1002A000AF92BF92CF92DF92EF92FF920F931F9384
:1002B000CF93DF936C017B018B01040F151FEB01C2
:1002C0005E01AE18BF08C017D10759F06991D60179
:1002D000ED91FC910190F081E02DC6010995892BEB
:1002E00079F7C501DF91CF911F910F91FF90EF90AA
:1002F000DF90CF90BF90AF900895FC01538D448D57
:10030000252F30E0842F90E0821B930B541710F0C0
:10031000CF96089501970895FC01918D828D9817CD
:1003200061F0A28DAE0FBF2FB11D5D968C91928DA5
:100330009F5F9F73928F90E008958FEF9FEF0895D6
:10034000FC01918D828D981731F0828DE80FF11D9F
:10035000858D90E008958FEF9FEF0895FC01918DBA
:10036000228D892F90E0805C9F4F821B91098F73B3
:10037000992708958CE892E00E94AE0121E0892B34
:1003800009F420E0822F0895FC01A48DA80FB92F55
:10039000B11DA35ABF4F2C91848D90E001968F73AD
:1003A0009927848FA689B7892C93A089B1898C91CC
:1003B000837080648C93938D848D981306C002881B
:1003C000F389E02D80818F7D80830895EF92FF92E5
:1003D0000F931F93CF93DF93EC0181E0888F9B8D68
:1003E0008C8D98131AC0E889F989808185FF15C022
:1003F0009FB7F894EE89FF896083E889F989808145
:100400008370806480839FBF81E090E0DF91CF9113
:100410001F910F91FF90EF900895F62E0B8D10E035
:100420000F5F1F4F0F731127E02E8C8D8E110CC0A4
:100430000FB607FCFACFE889F989808185FFF5CFEF
:10044000CE010E94C401F1CFEB8DEC0FFD2FF11D09
:10045000E35AFF4FF0829FB7F8940B8FEA89FB892C
:1004600080818062CFCFCF93DF93EC01888D88238A
:10047000B9F0AA89BB89E889F9898C9185FD03C007
:10048000808186FD0DC00FB607FCF7CF8C9185FFEC
:10049000F2CF808185FFEDCFCE010E94C401E9CF6C
:1004A000DF91CF91089580E090E0892B29F00E94A0
:1004B000BA0181110E94000080E090E0892B49F090
:1004C00080E090E0892B29F00E94000081110E94B9
:1004D000000080E090E0892B49F080E090E0892BDB
:1004E00029F00E94000081110E94000080E090E04D
:1004F000892B49F080E090E0892B29F00E940000D0
:1005000081110C9400000895FC0101900020E9F78E
:100510003197AF01481B590BBC018CE892E00C9459
:1005200050018F929F92AF92BF920F931F93CF93E0
:10053000DF93CDB7DEB7A1970FB6F894DEBF0FBE3D
:10054000CDBF19A2423008F44AE08E010F5D1F4F63
:10055000842E912CB12CA12CA50194010E948B0911
:10056000E62FB901CA01EA30F4F4E05DD801EE9358
:100570008D01232B242B252B79F790E080E0109719
:1005800019F0CD010E948402A1960FB6F894DEBF47
:100590000FBECDBFDF91CF911F910F91BF90AF9054
:1005A0009F908F900895E95CE1CF0C9484024F9264
:1005B0005F926F927F928F929F92AF92BF92CF92F3
:1005C000DF92EF92FF920F931F93CF936B017C0109
:1005D000742EAC019B010E94190B882399F08CE1C9
:1005E00092E0CF911F910F91FF90EF90DF90CF900D
:1005F000BF90AF909F908F907F906F905F904F9043
:100600000C94840246015701E894B7F82FEF3FEFAE
:100610004FE75FE7C501B4010E94190B81110DC0BE
:100620002FEF3FEF4FE75FE7C501B4010E94670876
:1006300018161CF480E292E0D4CF2FEF3FEF4FE783
:100640005FE4C701B6010E94C40A18161CF484E2D4
:1006500092E0C7CF2FEF3FEF4FE75FECC701B60146
:100660000E94670887FDF3CF20E030E0A901C701B1
:10067000B6010E94670810E000E087FF0AC06DE243
:100680008CE892E00E94E6018C01F7FAF094F7F80A
:10069000F094C0E060E070E080E09FE37C1641F001
:1006A00020E030E040E251E40E94230ACF5FF6CF21
:1006B000A70196010E94B7092B013C010E94950AEF
:1006C0004B015C014AE00E9491027C01E00EF11EA8
:1006D000CC23C1F1C501B4010E946C089B01AC019F
:1006E000C301B2010E94B6094B015C016EE28CE8C5
:1006F00092E00E94E601E80EF91EC15018F120E0D8
:1007000030E040E251E4C501B4010E94CD082B0164
:100710003C010E94950A4B01B12CA12C4AE0C50175
:10072000B4010E949102E80EF91EC501B4010E94B5
:100730006C089B01AC01C301B2010E94B6094B01D8
:100740005C01DBCFC701CF911F910F91FF90EF901C
:10075000DF90CF90BF90AF909F908F907F906F90E1
:100760005F904F900895CF93DF93EC018091290320
:1007700090912A03009759F020912B0330912C037C
:100780002C173D0720F081E0DF91CF910895BE0145
:100790006F5F7F4F0E94780C009789F090932A0337
:1007A00080932903D0932C03C0932B0320912D0316
:1007B00030912E03232B39F7FC011082E4CF80E027
:1007C000E3CF1F920F920FB60F9211242F933F93F6
:1007D0008F939F93AF93BF938091840290918502F2
:1007E000A0918602B09187023091830223E0230F0B
:1007F0002D3758F50196A11DB11D209383028093DA
:10080000840290938502A0938602B0938702809120
:10081000880290918902A0918A02B0918B02019680
:10082000A11DB11D8093880290938902A0938A0232
:10083000B0938B02BF91AF919F918F913F912F9178
:100840000F900FBE0F901F90189526E8230F029669
:10085000A11DB11DD2CF1F920F920FB60F9211247E
:100860000BB60F922F933F934F935F936F937F93AA
:100870008F939F93AF93BF93EF93FF938CE892E096
:100880000E94C401FF91EF91BF91AF919F918F9111
:100890007F916F915F914F913F912F910F900BBE80
:1008A0000F900FBE0F901F9018951F920F920FB6CA
:1008B0000F9211240BB60F922F938F939F93EF9368
:1008C000FF93E0919C02F0919D028081E091A20251
:1008D000F091A30282FD1DC090818091A5028F5FDF
:1008E0008F732091A602821741F0E091A502F0E0FB
:1008F000E457FD4F958F8093A502FF91EF919F9153
:100900008F912F910F900BBE0F900FBE0F901F90E5
:1009100018958081F2CF10928F0210928E0288EE8D
:1009200093E0A0E0B0E08093900290939102A093B6
:100930009202B09393028EE092E090938D028093A6
:100940008C0285EC90E0909399028093980284EC5D
:1009500090E090939B0280939A0280EC90E09093B9
:100960009D0280939C0281EC90E090939F02809383
:100970009E0282EC90E09093A1028093A00286EC0C
:1009800090E09093A3028093A2021092A50210928D
:10099000A6021092A7021092A80210922A031092A7
:1009A000290310922C0310922B0310922E03109205
:1009B0002D0390E080E00E94B30320912903309141
:1009C0002A03811113C02115310519F0C9010E94B4
:1009D000EF0B10922A031092290310922E0310920B
:1009E0002D0310922C0310922B03089510922E03C6
:1009F00010922D0368E472E0C9010C94620DCF934C
:100A0000DF9300D0CDB7DEB7789484B5826084BD23
:100A100084B5816084BD85B5826085BD85B5816002
:100A200085BD80916E00816080936E001092810080
:100A3000809181008260809381008091810081603B
:100A400080938100809180008160809380008091FC
:100A5000B10084608093B1008091B0008160809388
:100A6000B00080919100826080939100809191000C
:100A700081608093910080919000816080939000CC
:100A80008091A10082608093A1008091A10081608B
:100A90008093A1008091A00081608093A00080914C
:100AA00021018260809321018091210181608093E6
:100AB00021018091200181608093200180917A0042
:100AC000846080937A0080917A00826080937A00BB
:100AD00080917A00816080937A0080917A008068AA
:100AE00080937A001092C10080E090E0A8E4B2E424
:100AF0008093000290930102A0930202B09303023C
:100B0000E0919C02F0919D0282E08083E091980246
:100B1000F09199021082E0919A02F0919B028FEC81
:100B200080831092A402E091A002F091A10286E0DD
:100B30008083E0919E02F0919F028081806180839A
:100B4000E0919E02F0919F02808188608083E09115
:100B50009E02F0919F02808180688083E0919E02D6
:100B6000F0919F0280818F7D80838CE892E00E94CB
:100B7000330288E292E00E94840286E492E00E94BE
:100B800084022AE0322E222423948CE892E00E94F0
:100B9000AE01892B09F48FC280918202811104C0B9
:100BA0008CE892E00E94330290E080E00E94B30360
:100BB0002091290330912A0381115EC1211531054D
:100BC00019F0C9010E94EF0B10922A031092290319
:100BD00010922E0310922D0310922C0310922B03CF
:100BE0008CE892E00E94AE01181619060CF063C260
:100BF0008CE892E00E948C018A3091F78091820209
:100C0000811149C02092820220E030E040E05FE3A1
:100C100060910002709101028091020290910302A2
:100C20000E94CD08905860937E0270937F0280935B
:100C300080029093810289E492E00E94D5028EE4C2
:100C400092E00E94D50280E592E00E94D5028EE4F7
:100C500092E00E94D50285E592E00E94D5028EE4E2
:100C600092E00E94D5028AE592E00E94D5028EE4CD
:100C700092E00E94D5028FE592E00E94D5028EE4B8
:100C800092E00E94D50288E492E00E94840286E409
:100C900092E00E9484020E9444014B015C01809218
:100CA0007A0290927B02A0927C02B0927D020E9416
:100CB0004401681579058A059B05C8F340907E02BA
:100CC00050907F026090800270908102A301920197
:100CD000C301B2010E94B7094B015C0120E030E082
:100CE000A9010E94C40A181624F0B7FAB094B7F804
:100CF000B094C0907602D0907702E0907802F090A5
:100D00007902A5019401C701B6010E94C40A181610
:100D10000CF0BCC020E030E040E85FE3C701B60162
:100D20000E94B709609376027093770280937802ED
:100D30009093790284E692E00E94D5028EE492E0DC
:100D40000E94D50286E492E00E94840260917E02B5
:100D500070917F0280918002909181029B01AC0191
:100D60000E94B70920E030E040E85FE30E94B60946
:100D70004B015C0120E030E0A9010E94C40A181672
:100D800024F0B7FAB094B7F8B094A501940160913B
:100D900076027091770280917802909179020E9498
:100DA000C40A18160CF464C10E94440160937A02CC
:100DB00070937B0280937C0290937D022B013C0117
:100DC0002FEF421A520A620A720A0E944401641505
:100DD00075058605970508F0C1C09AE0A92EB12CCB
:100DE00010E000E08CE30E94CD00080F191F0E9464
:100DF0000F0181E0A81AB108A9F7B801110F880BFB
:100E0000990B0E946E0826E636E64EE950E40E94F1
:100E1000CD0820E030E040E256E40E94230A9B0126
:100E2000AC016FEF72EB81EF98E40E94230A20E09F
:100E300030E543EC57E40E94B60929E83FE64DE26D
:100E40005EE30E94230A0E94D10A9B01AC0160E08C
:100E500070E887E795E40E94230A20E030E848E83C
:100E600053E40E94B60960936E0270936F02809300
:100E7000700290937102A9CF10922E0310922D034D
:100E800068E472E0C9010E94620DAACEA701960132
:100E9000C301B2010E94B70920E030E040E85FE3FF
:100EA0000E94B60942E00E94D7028EE492E00E94BE
:100EB000D50210E0812F0E94CD00BC01990F880B54
:100EC000990B0E946E082AE038E240EA5BE30E9438
:100ED000CD084B015C0120E030E040EA50E40E9484
:100EE000C40A181694F18092720290927302A09232
:100EF0007402B092750260917202709173028091D7
:100F000074029091750242E00E94D7028EE492E052
:100F10000E94D5021130B9F420E030E040E85FE3F0
:100F200060917602709177028091780290917902B7
:100F30000E94B709609376027093770280937802DB
:100F40009093790203CF11E0B5CF10927202109204
:100F500073021092740210927502CDCF60916E02EE
:100F600070916F02809170029091710242E00E9434
:100F7000D7028EE492E00E94D5020E944401609361
:100F80007A0270937B0280937C0290937D022B0106
:100F90003C012FEF421A520A620A720A0E9444016F
:100FA000641575058605970508F04FC08AE0A82EE0
:100FB000B12C10E000E08BE30E94CD00080F191F58
:100FC0000E940F0181E0A81AB108A9F7B801110F1A
:100FD000880B990B0E946E0826E636E64EE950E42F
:100FE0000E94CD0820E030E040E256E40E94230A4F
:100FF0009B01AC016FEF72EB81EF98E40E94230A32
:1010000020E030E543EC57E40E94B60929E83FE6CA
:101010004DE25EE30E94230A0E94D10A9B01AC01CB
:1010200060E070E887E795E40E94230A20E030E85A
:1010300048E853E40E94B60960936E0270936F0211
:101040008093700290937102A9CF60916E027091AB
:101050006F02809170029091710242E00E94D7026B
:101060008EE492E00E94D50286E492E00E9484021F
:1010700039821A8200912D0310912E030F5F1F4FAA
:10108000C8010E94B303882399F02091290330916D
:101090002A0380912D0390912E03BE016F5F7F4F35
:1010A000820F931F0E94620D10932E0300932D0355
:1010B0000E940F0195CD0E94530267CD80912903B4
:1010C00090912A03009711F00C94EF0B08950E9461
:1010D000A90808F481E00895E89409C097FB3EF45C
:1010E00090958095709561957F4F8F4F9F4F992375
:1010F000A9F0F92F96E9BB279395F69587957795F3
:101100006795B795F111F8CFFAF4BB0F11F460FFB2
:101110001BC06F5F7F4F8F4F9F4F16C0882311F00A
:1011200096E911C0772321F09EE8872F762F05C01E
:10113000662371F096E8862F70E060E02AF09A95B9
:10114000660F771F881FDAF7880F9695879597F9AE
:101150000895990F0008550FAA0BE0E8FEEF161648
:101160001706E807F907C0F012161306E407F5079B
:1011700098F0621B730B840B950B39F40A2661F00F
:10118000232B242B252B21F408950A2609F4A140B2
:10119000A6958FEF811D811D08950E94E0080C9493
:1011A00051090E94430938F00E944A0920F0952312
:1011B00011F00C943A090C94400911240C948509FF
:1011C0000E94620970F3959FC1F3950F50E0551F7F
:1011D000629FF001729FBB27F00DB11D639FAA278C
:1011E000F00DB11DAA1F649F6627B00DA11D661FDB
:1011F000829F2227B00DA11D621F739FB00DA11DFC
:10120000621F839FA00D611D221F749F3327A00DB5
:10121000611D231F849F600D211D822F762F6A2F51
:1012200011249F5750409AF0F1F088234AF0EE0FB6
:10123000FF1FBB1F661F771F881F91505040A9F7E3
:101240009E3F510580F00C943A090C9485095F3F4C
:10125000E4F3983ED4F3869577956795B795F7951F
:10126000E7959F5FC1F7FE2B880F911D9695879597
:1012700097F9089597F99F6780E870E060E0089516
:101280009FEF80EC089500240A941616170618069E
:101290000906089500240A9412161306140605067A
:1012A0000895092E0394000C11F4882352F0BB0F0B
:1012B00040F4BF2B11F460FF04C06F5F7F4F8F4F6E
:1012C0009F4F089557FD9058440F551F59F05F3FA9
:1012D00071F04795880F97FB991F61F09F3F79F058
:1012E00087950895121613061406551FF2CF4695DA
:1012F000F1DF08C0161617061806991FF1CF86955C
:101300007105610508940895E894BB27662777273F
:10131000CB0197F90895A1E21A2EAA1BBB1BFD0170
:101320000DC0AA1FBB1FEE1FFF1FA217B307E407C4
:10133000F50720F0A21BB30BE40BF50B661F771F1C
:10134000881F991F1A9469F76095709580959095FC
:101350009B01AC01BD01CF010895EE0FFF1F0024DA
:10136000001C0BBE0790F691E02D09945058BB2746
:10137000AA270E94CE090C9451090E94430938F013
:101380000E944A0920F039F49F3F19F426F40C9486
:1013900040090EF4E095E7FB0C943A09E92F0E940E
:1013A000620958F3BA17620773078407950720F09C
:1013B00079F4A6F50C9484090EF4E0950B2EBA2F5F
:1013C000A02D0B01B90190010C01CA01A00111244B
:1013D000FF27591B99F0593F50F4503E68F11A16F7
:1013E000F040A22F232F342F4427585FF3CF469588
:1013F00037952795A795F0405395C9F77EF41F16AA
:10140000BA0B620B730B840BBAF09150A1F0FF0F73
:10141000BB1F661F771F881FC2F70EC0BA0F621F5F
:10142000731F841F48F4879577956795B795F7954F
:101430009E3F08F0B0CF9395880F08F09927EE0FE4
:101440009795879508950E94370A0C9451090E9438
:101450004A0958F00E94430940F029F45F3F29F0FF
:101460000C943A0951110C9485090C9440090E947E
:10147000620968F39923B1F3552391F3951B550B3A
:10148000BB27AA2762177307840738F09F5F5F4F57
:10149000220F331F441FAA1FA9F335D00E2E3AF096
:1014A000E0E832D091505040E695001CCAF72BD0AE
:1014B000FE2F29D0660F771F881FBB1F26173707FF
:1014C0004807AB07B0E809F0BB0B802DBF01FF2731
:1014D00093585F4F3AF09E3F510578F00C943A09CB
:1014E0000C9485095F3FE4F3983ED4F38695779595
:1014F0006795B795F7959F5FC9F7880F911D9695EA
:10150000879597F90895E1E0660F771F881FBB1F45
:10151000621773078407BA0720F0621B730B840BF2
:10152000BA0BEE1F88F7E09508950E946A0988F0CB
:101530009F5798F0B92F9927B751B0F0E1F0660F97
:10154000771F881F991F1AF0BA95C9F714C0B130D8
:1015500091F00E948409B1E008950C948409672FEA
:10156000782F8827B85F39F0B93FCCF38695779507
:101570006795B395D9F73EF49095809570956195F0
:101580007F4F8F4F9F4F08950E94A90808F48FEF57
:10159000089516F00C941E0B0C94400968940C945A
:1015A0003A090E946A09A8F39923C1F3AEF3DF93C5
:1015B000CF931F930F93FF92C92FDD2788232AF023
:1015C0002197660F771F881FDAF720E030E040E8A8
:1015D0005FEB9FE3883920F0803E38F021968F77CB
:1015E0000E94B709E4EEF0E004C00E94B709E1E10F
:1015F000F1E00E942C0B8B01BE01EC01FB2E6F571A
:1016000071097595771F880B990B0E946E0828E168
:1016100032E741E35FE30E94E008AF2D9801AE019D
:10162000FF900F911F91CF91DF910E94CE090C94F2
:1016300051090E94A908880B990B08959F3F31F02A
:10164000915020F4879577956795B795880F911DF0
:101650009695879597F90895DF93CF931F930F93EE
:10166000FF92EF92DF927B018C01689406C0DA2E24
:10167000EF010E94E008FE01E894A59125913591C3
:1016800045915591A6F3EF010E94CE09FE01970105
:10169000A801DA9469F7DF90EF90FF900F911F9106
:1016A000CF91DF9108950F931F93CF93DF938230F3
:1016B000910510F482E090E0E0913103F091320363
:1016C00030E020E0B0E0A0E0309799F4211531053A
:1016D00009F44AC0281B390B24303105D8F58A811A
:1016E0009B816115710589F1FB0193838283FE0162
:1016F00011C0408151810281138148175907E0F0E0
:101700004817590799F4109761F012960C931297A5
:1017100013961C933296CF01DF91CF911F910F91B9
:1017200008950093310310933203F4CF211531054E
:1017300051F04217530738F0A901DB019A01BD01AE
:10174000DF01F801C1CFEF01F9CF9093320380930D
:101750003103CDCFFE01E20FF31F8193919322500D
:10176000310939832883D7CF20912F03309130035B
:10177000232B41F42091060230910702309330036D
:1017800020932F0320910402309105022115310589
:1017900041F42DB73EB74091080250910902241B35
:1017A000350BE0912F03F0913003E217F307A0F41B
:1017B0002E1B3F0B2817390778F0AC014E5F5F4FA7
:1017C0002417350748F04E0F5F1F509330034093A6
:1017D0002F03819391939FCFF0E0E0E09CCFCF93D4
:1017E000DF930097E9F0FC01329713821282A091F7
:1017F0003103B0913203ED0130E020E01097A1F405
:1018000020813181820F931F20912F03309130036B
:101810002817390709F061C0F0933003E0932F03D4
:10182000DF91CF910895EA01CE17DF07E8F54A81ED
:101830005B819E0141155105B1F7E901FB83EA8304
:1018400049915991C40FD51FEC17FD0761F48081B0
:1018500091810296840F951FE90199838883828183
:1018600093819B838A83F0E0E0E012968D919C91B6
:1018700013970097B9F52D913C911197CD010296E0
:10188000820F931F20912F033091300328173907BF
:1018900039F6309751F51092320310923103B0931C
:1018A0003003A0932F03BCCFD383C28340815181E7
:1018B000840F951FC817D90761F44E5F5F4F888169
:1018C0009981480F591F518340838A819B8193835B
:1018D00082832115310509F0B0CFF0933203E093F4
:1018E00031039ECFFD01DC01C0CF13821282D7CF1E
:1018F0004F925F926F927F928F929F92AF92BF9220
:10190000CF92DF92EF92FF920F931F93CF93DF93CB
:101910008C01009799F4CB01DF91CF911F910F912A
:10192000FF90EF90DF90CF90BF90AF909F908F90FF
:101930007F906F905F904F900C94530BFC01E60FDB
:10194000F71F9C0122503109E217F30708F4AEC0DB
:10195000D901CD91DC911197C617D70720F1C53079
:10196000D10578F0CE0104978617970750F0C61B73
:10197000D70B2297C193D1936D937C93CF010E9493
:10198000EF0BC801DF91CF911F910F91FF90EF9066
:10199000DF90CF90BF90AF909F908F907F906F908F
:1019A0005F904F9008955B01AC1ABD0A4C018C0EFC
:1019B0009D1EA0913103B0913203512C412CF12C8A
:1019C000E12C109731F580912F0390913003881509
:1019D000990509F05CC04616570608F058C080917A
:1019E000040290910502009741F48DB79EB7409193
:1019F000080250910902841B950BE817F90708F0BB
:101A000055C0F0933003E0932F03F9017183608395
:101A1000B8CF8D919C91119712966C901297139656
:101A20007C901397A815B90559F56C0142E0C40ED6
:101A3000D11CCA14DB0420F1AC014A195B09DA019C
:101A40001296159780F06282738251834083D90188
:101A50006D937C93E114F10471F0D7011396FC931C
:101A6000EE9312978ECF22968C0F9D1FF9019183D2
:101A70008083F301EFCFF0933203E093310381CF02
:101A80004816590608F42C017D01D3019ACFCB01E9
:101A90000E94530B7C01009749F0AE01B8010E94EF
:101AA000590DC8010E94EF0B87016BCF10E000E0D9
:101AB00068CFFB01DC0102C001900D924150504003
:101AC000D8F70895FB01DC0101900D920020E1F7A9
:101AD000089510E0C0EAD0E004C0FE010E94AD0904
:0C1AE0002196C13AD107C9F7F894FFCF56
:101AEC000000F04100003303800000000000E6011C
:101AFC0050017D013302AE018C01A0016E616E00BC
:101B0C00696E66006F766600507265737320656E41
:101B1C0074657220746F2072656164696E672076DB
:101B2C00616C756573000D0A002020207800200080
:101B3C0020207931002020793200202054310020DF
:0E1B4C002054320046696E69736865640000BB
:00000001FF
